{
	"nestable.sol": {
		"NestableToken": {
			"abi": [
				{
					"inputs": [],
					"name": "ChildAlreadyExists",
					"type": "error"
				},
				{
					"inputs": [],
					"name": "ChildIndexOutOfRange",
					"type": "error"
				},
				{
					"inputs": [],
					"name": "ERC721AddressZeroIsNotaValidOwner",
					"type": "error"
				},
				{
					"inputs": [],
					"name": "ERC721ApprovalToCurrentOwner",
					"type": "error"
				},
				{
					"inputs": [],
					"name": "ERC721ApproveCallerIsNotOwnerNorApprovedForAll",
					"type": "error"
				},
				{
					"inputs": [],
					"name": "ERC721ApproveToCaller",
					"type": "error"
				},
				{
					"inputs": [],
					"name": "ERC721InvalidTokenId",
					"type": "error"
				},
				{
					"inputs": [],
					"name": "ERC721MintToTheZeroAddress",
					"type": "error"
				},
				{
					"inputs": [],
					"name": "ERC721NotApprovedOrOwner",
					"type": "error"
				},
				{
					"inputs": [],
					"name": "ERC721TokenAlreadyMinted",
					"type": "error"
				},
				{
					"inputs": [],
					"name": "ERC721TransferFromIncorrectOwner",
					"type": "error"
				},
				{
					"inputs": [],
					"name": "ERC721TransferToNonReceiverImplementer",
					"type": "error"
				},
				{
					"inputs": [],
					"name": "ERC721TransferToTheZeroAddress",
					"type": "error"
				},
				{
					"inputs": [],
					"name": "IdZeroForbidden",
					"type": "error"
				},
				{
					"inputs": [],
					"name": "IsNotContract",
					"type": "error"
				},
				{
					"inputs": [],
					"name": "MaxPendingChildrenReached",
					"type": "error"
				},
				{
					"inputs": [
						{
							"internalType": "address",
							"name": "childContract",
							"type": "address"
						},
						{
							"internalType": "uint256",
							"name": "childId",
							"type": "uint256"
						}
					],
					"name": "MaxRecursiveBurnsReached",
					"type": "error"
				},
				{
					"inputs": [],
					"name": "MintToNonNestableImplementer",
					"type": "error"
				},
				{
					"inputs": [],
					"name": "NestableTooDeep",
					"type": "error"
				},
				{
					"inputs": [],
					"name": "NestableTransferToDescendant",
					"type": "error"
				},
				{
					"inputs": [],
					"name": "NestableTransferToNonNestableImplementer",
					"type": "error"
				},
				{
					"inputs": [],
					"name": "NestableTransferToSelf",
					"type": "error"
				},
				{
					"inputs": [],
					"name": "NotApprovedOrDirectOwner",
					"type": "error"
				},
				{
					"inputs": [],
					"name": "PendingChildIndexOutOfRange",
					"type": "error"
				},
				{
					"inputs": [],
					"name": "UnexpectedChildId",
					"type": "error"
				},
				{
					"inputs": [],
					"name": "UnexpectedNumberOfChildren",
					"type": "error"
				},
				{
					"anonymous": false,
					"inputs": [
						{
							"indexed": true,
							"internalType": "uint256",
							"name": "tokenId",
							"type": "uint256"
						}
					],
					"name": "AllChildrenRejected",
					"type": "event"
				},
				{
					"anonymous": false,
					"inputs": [
						{
							"indexed": true,
							"internalType": "address",
							"name": "owner",
							"type": "address"
						},
						{
							"indexed": true,
							"internalType": "address",
							"name": "approved",
							"type": "address"
						},
						{
							"indexed": true,
							"internalType": "uint256",
							"name": "tokenId",
							"type": "uint256"
						}
					],
					"name": "Approval",
					"type": "event"
				},
				{
					"anonymous": false,
					"inputs": [
						{
							"indexed": true,
							"internalType": "address",
							"name": "owner",
							"type": "address"
						},
						{
							"indexed": true,
							"internalType": "address",
							"name": "operator",
							"type": "address"
						},
						{
							"indexed": false,
							"internalType": "bool",
							"name": "approved",
							"type": "bool"
						}
					],
					"name": "ApprovalForAll",
					"type": "event"
				},
				{
					"anonymous": false,
					"inputs": [
						{
							"indexed": true,
							"internalType": "uint256",
							"name": "tokenId",
							"type": "uint256"
						},
						{
							"indexed": false,
							"internalType": "uint256",
							"name": "childIndex",
							"type": "uint256"
						},
						{
							"indexed": true,
							"internalType": "address",
							"name": "childAddress",
							"type": "address"
						},
						{
							"indexed": true,
							"internalType": "uint256",
							"name": "childId",
							"type": "uint256"
						}
					],
					"name": "ChildAccepted",
					"type": "event"
				},
				{
					"anonymous": false,
					"inputs": [
						{
							"indexed": true,
							"internalType": "uint256",
							"name": "tokenId",
							"type": "uint256"
						},
						{
							"indexed": false,
							"internalType": "uint256",
							"name": "childIndex",
							"type": "uint256"
						},
						{
							"indexed": true,
							"internalType": "address",
							"name": "childAddress",
							"type": "address"
						},
						{
							"indexed": true,
							"internalType": "uint256",
							"name": "childId",
							"type": "uint256"
						}
					],
					"name": "ChildProposed",
					"type": "event"
				},
				{
					"anonymous": false,
					"inputs": [
						{
							"indexed": true,
							"internalType": "uint256",
							"name": "tokenId",
							"type": "uint256"
						},
						{
							"indexed": false,
							"internalType": "uint256",
							"name": "childIndex",
							"type": "uint256"
						},
						{
							"indexed": true,
							"internalType": "address",
							"name": "childAddress",
							"type": "address"
						},
						{
							"indexed": true,
							"internalType": "uint256",
							"name": "childId",
							"type": "uint256"
						},
						{
							"indexed": false,
							"internalType": "bool",
							"name": "fromPending",
							"type": "bool"
						}
					],
					"name": "ChildTransferred",
					"type": "event"
				},
				{
					"anonymous": false,
					"inputs": [
						{
							"indexed": true,
							"internalType": "address",
							"name": "from",
							"type": "address"
						},
						{
							"indexed": true,
							"internalType": "address",
							"name": "to",
							"type": "address"
						},
						{
							"indexed": false,
							"internalType": "uint256",
							"name": "fromTokenId",
							"type": "uint256"
						},
						{
							"indexed": false,
							"internalType": "uint256",
							"name": "toTokenId",
							"type": "uint256"
						},
						{
							"indexed": true,
							"internalType": "uint256",
							"name": "tokenId",
							"type": "uint256"
						}
					],
					"name": "NestTransfer",
					"type": "event"
				},
				{
					"anonymous": false,
					"inputs": [
						{
							"indexed": true,
							"internalType": "address",
							"name": "from",
							"type": "address"
						},
						{
							"indexed": true,
							"internalType": "address",
							"name": "to",
							"type": "address"
						},
						{
							"indexed": true,
							"internalType": "uint256",
							"name": "tokenId",
							"type": "uint256"
						}
					],
					"name": "Transfer",
					"type": "event"
				},
				{
					"inputs": [
						{
							"internalType": "address",
							"name": "to",
							"type": "address"
						},
						{
							"internalType": "uint256",
							"name": "tokenId",
							"type": "uint256"
						},
						{
							"internalType": "uint256",
							"name": "destinationId",
							"type": "uint256"
						},
						{
							"internalType": "bytes",
							"name": "data",
							"type": "bytes"
						}
					],
					"name": "_nestMint",
					"outputs": [],
					"stateMutability": "nonpayable",
					"type": "function"
				},
				{
					"inputs": [
						{
							"internalType": "address",
							"name": "to",
							"type": "address"
						},
						{
							"internalType": "uint256",
							"name": "tokenId",
							"type": "uint256"
						}
					],
					"name": "_safeMint",
					"outputs": [],
					"stateMutability": "nonpayable",
					"type": "function"
				},
				{
					"inputs": [
						{
							"internalType": "uint256",
							"name": "parentId",
							"type": "uint256"
						},
						{
							"internalType": "uint256",
							"name": "childIndex",
							"type": "uint256"
						},
						{
							"internalType": "address",
							"name": "childAddress",
							"type": "address"
						},
						{
							"internalType": "uint256",
							"name": "childId",
							"type": "uint256"
						}
					],
					"name": "acceptChild",
					"outputs": [],
					"stateMutability": "nonpayable",
					"type": "function"
				},
				{
					"inputs": [
						{
							"internalType": "uint256",
							"name": "parentId",
							"type": "uint256"
						},
						{
							"internalType": "uint256",
							"name": "childId",
							"type": "uint256"
						},
						{
							"internalType": "bytes",
							"name": "data",
							"type": "bytes"
						}
					],
					"name": "addChild",
					"outputs": [],
					"stateMutability": "nonpayable",
					"type": "function"
				},
				{
					"inputs": [
						{
							"internalType": "address",
							"name": "to",
							"type": "address"
						},
						{
							"internalType": "uint256",
							"name": "tokenId",
							"type": "uint256"
						}
					],
					"name": "approve",
					"outputs": [],
					"stateMutability": "nonpayable",
					"type": "function"
				},
				{
					"inputs": [
						{
							"internalType": "address",
							"name": "owner",
							"type": "address"
						}
					],
					"name": "balanceOf",
					"outputs": [
						{
							"internalType": "uint256",
							"name": "",
							"type": "uint256"
						}
					],
					"stateMutability": "view",
					"type": "function"
				},
				{
					"inputs": [
						{
							"internalType": "uint256",
							"name": "tokenId",
							"type": "uint256"
						}
					],
					"name": "burn",
					"outputs": [],
					"stateMutability": "nonpayable",
					"type": "function"
				},
				{
					"inputs": [
						{
							"internalType": "uint256",
							"name": "tokenId",
							"type": "uint256"
						},
						{
							"internalType": "uint256",
							"name": "maxChildrenBurns",
							"type": "uint256"
						}
					],
					"name": "burn",
					"outputs": [
						{
							"internalType": "uint256",
							"name": "",
							"type": "uint256"
						}
					],
					"stateMutability": "nonpayable",
					"type": "function"
				},
				{
					"inputs": [
						{
							"internalType": "address",
							"name": "childAddress",
							"type": "address"
						},
						{
							"internalType": "uint256",
							"name": "childId",
							"type": "uint256"
						}
					],
					"name": "childIsInActive",
					"outputs": [
						{
							"internalType": "bool",
							"name": "",
							"type": "bool"
						}
					],
					"stateMutability": "view",
					"type": "function"
				},
				{
					"inputs": [
						{
							"internalType": "uint256",
							"name": "parentId",
							"type": "uint256"
						},
						{
							"internalType": "uint256",
							"name": "index",
							"type": "uint256"
						}
					],
					"name": "childOf",
					"outputs": [
						{
							"components": [
								{
									"internalType": "uint256",
									"name": "tokenId",
									"type": "uint256"
								},
								{
									"internalType": "address",
									"name": "contractAddress",
									"type": "address"
								}
							],
							"internalType": "struct IERC6059.Child",
							"name": "",
							"type": "tuple"
						}
					],
					"stateMutability": "view",
					"type": "function"
				},
				{
					"inputs": [
						{
							"internalType": "uint256",
							"name": "parentId",
							"type": "uint256"
						}
					],
					"name": "childrenOf",
					"outputs": [
						{
							"components": [
								{
									"internalType": "uint256",
									"name": "tokenId",
									"type": "uint256"
								},
								{
									"internalType": "address",
									"name": "contractAddress",
									"type": "address"
								}
							],
							"internalType": "struct IERC6059.Child[]",
							"name": "",
							"type": "tuple[]"
						}
					],
					"stateMutability": "view",
					"type": "function"
				},
				{
					"inputs": [
						{
							"internalType": "uint256",
							"name": "tokenId",
							"type": "uint256"
						}
					],
					"name": "directOwnerOf",
					"outputs": [
						{
							"internalType": "address",
							"name": "",
							"type": "address"
						},
						{
							"internalType": "uint256",
							"name": "",
							"type": "uint256"
						},
						{
							"internalType": "bool",
							"name": "",
							"type": "bool"
						}
					],
					"stateMutability": "view",
					"type": "function"
				},
				{
					"inputs": [
						{
							"internalType": "uint256",
							"name": "tokenId",
							"type": "uint256"
						}
					],
					"name": "getApproved",
					"outputs": [
						{
							"internalType": "address",
							"name": "",
							"type": "address"
						}
					],
					"stateMutability": "view",
					"type": "function"
				},
				{
					"inputs": [
						{
							"internalType": "address",
							"name": "owner",
							"type": "address"
						},
						{
							"internalType": "address",
							"name": "operator",
							"type": "address"
						}
					],
					"name": "isApprovedForAll",
					"outputs": [
						{
							"internalType": "bool",
							"name": "",
							"type": "bool"
						}
					],
					"stateMutability": "view",
					"type": "function"
				},
				{
					"inputs": [
						{
							"internalType": "address",
							"name": "from",
							"type": "address"
						},
						{
							"internalType": "address",
							"name": "to",
							"type": "address"
						},
						{
							"internalType": "uint256",
							"name": "tokenId",
							"type": "uint256"
						},
						{
							"internalType": "uint256",
							"name": "destinationId",
							"type": "uint256"
						},
						{
							"internalType": "bytes",
							"name": "data",
							"type": "bytes"
						}
					],
					"name": "nestTransferFrom",
					"outputs": [],
					"stateMutability": "nonpayable",
					"type": "function"
				},
				{
					"inputs": [
						{
							"internalType": "uint256",
							"name": "tokenId",
							"type": "uint256"
						}
					],
					"name": "ownerOf",
					"outputs": [
						{
							"internalType": "address",
							"name": "",
							"type": "address"
						}
					],
					"stateMutability": "view",
					"type": "function"
				},
				{
					"inputs": [
						{
							"internalType": "uint256",
							"name": "parentId",
							"type": "uint256"
						},
						{
							"internalType": "uint256",
							"name": "index",
							"type": "uint256"
						}
					],
					"name": "pendingChildOf",
					"outputs": [
						{
							"components": [
								{
									"internalType": "uint256",
									"name": "tokenId",
									"type": "uint256"
								},
								{
									"internalType": "address",
									"name": "contractAddress",
									"type": "address"
								}
							],
							"internalType": "struct IERC6059.Child",
							"name": "",
							"type": "tuple"
						}
					],
					"stateMutability": "view",
					"type": "function"
				},
				{
					"inputs": [
						{
							"internalType": "uint256",
							"name": "parentId",
							"type": "uint256"
						}
					],
					"name": "pendingChildrenOf",
					"outputs": [
						{
							"components": [
								{
									"internalType": "uint256",
									"name": "tokenId",
									"type": "uint256"
								},
								{
									"internalType": "address",
									"name": "contractAddress",
									"type": "address"
								}
							],
							"internalType": "struct IERC6059.Child[]",
							"name": "",
							"type": "tuple[]"
						}
					],
					"stateMutability": "view",
					"type": "function"
				},
				{
					"inputs": [
						{
							"internalType": "uint256",
							"name": "tokenId",
							"type": "uint256"
						},
						{
							"internalType": "uint256",
							"name": "maxRejections",
							"type": "uint256"
						}
					],
					"name": "rejectAllChildren",
					"outputs": [],
					"stateMutability": "nonpayable",
					"type": "function"
				},
				{
					"inputs": [
						{
							"internalType": "address",
							"name": "from",
							"type": "address"
						},
						{
							"internalType": "address",
							"name": "to",
							"type": "address"
						},
						{
							"internalType": "uint256",
							"name": "tokenId",
							"type": "uint256"
						}
					],
					"name": "safeTransferFrom",
					"outputs": [],
					"stateMutability": "nonpayable",
					"type": "function"
				},
				{
					"inputs": [
						{
							"internalType": "address",
							"name": "from",
							"type": "address"
						},
						{
							"internalType": "address",
							"name": "to",
							"type": "address"
						},
						{
							"internalType": "uint256",
							"name": "tokenId",
							"type": "uint256"
						},
						{
							"internalType": "bytes",
							"name": "data",
							"type": "bytes"
						}
					],
					"name": "safeTransferFrom",
					"outputs": [],
					"stateMutability": "nonpayable",
					"type": "function"
				},
				{
					"inputs": [
						{
							"internalType": "address",
							"name": "operator",
							"type": "address"
						},
						{
							"internalType": "bool",
							"name": "approved",
							"type": "bool"
						}
					],
					"name": "setApprovalForAll",
					"outputs": [],
					"stateMutability": "nonpayable",
					"type": "function"
				},
				{
					"inputs": [
						{
							"internalType": "bytes4",
							"name": "interfaceId",
							"type": "bytes4"
						}
					],
					"name": "supportsInterface",
					"outputs": [
						{
							"internalType": "bool",
							"name": "",
							"type": "bool"
						}
					],
					"stateMutability": "view",
					"type": "function"
				},
				{
					"inputs": [
						{
							"internalType": "uint256",
							"name": "tokenId",
							"type": "uint256"
						},
						{
							"internalType": "address",
							"name": "to",
							"type": "address"
						},
						{
							"internalType": "uint256",
							"name": "destinationId",
							"type": "uint256"
						},
						{
							"internalType": "uint256",
							"name": "childIndex",
							"type": "uint256"
						},
						{
							"internalType": "address",
							"name": "childAddress",
							"type": "address"
						},
						{
							"internalType": "uint256",
							"name": "childId",
							"type": "uint256"
						},
						{
							"internalType": "bool",
							"name": "isPending",
							"type": "bool"
						},
						{
							"internalType": "bytes",
							"name": "data",
							"type": "bytes"
						}
					],
					"name": "transferChild",
					"outputs": [],
					"stateMutability": "nonpayable",
					"type": "function"
				},
				{
					"inputs": [
						{
							"internalType": "address",
							"name": "from",
							"type": "address"
						},
						{
							"internalType": "address",
							"name": "to",
							"type": "address"
						},
						{
							"internalType": "uint256",
							"name": "tokenId",
							"type": "uint256"
						}
					],
					"name": "transferFrom",
					"outputs": [],
					"stateMutability": "nonpayable",
					"type": "function"
				}
			],
			"devdoc": {
				"author": "RMRK team",
				"details": "This contract is hierarchy agnostic and can support an arbitrary number of nested levels up and down, as long as  gas limits allow it.",
				"events": {
					"AllChildrenRejected(uint256)": {
						"details": "Emitted when a token removes all a child tokens from its pending array.",
						"params": {
							"tokenId": "ID of the token that rejected all of the pending children"
						}
					},
					"Approval(address,address,uint256)": {
						"details": "Emitted when `owner` enables `approved` to manage the `tokenId` token."
					},
					"ApprovalForAll(address,address,bool)": {
						"details": "Emitted when `owner` enables or disables (`approved`) `operator` to manage all of its assets."
					},
					"ChildAccepted(uint256,uint256,address,uint256)": {
						"details": "Emitted when a parent token accepts a token from its pending array, migrating it to the active array.",
						"params": {
							"childAddress": "Address of the child token's collection smart contract",
							"childId": "ID of the child token in the child token's collection smart contract",
							"childIndex": "Index of the newly accepted child token in the parent token's active children array",
							"tokenId": "ID of the token that accepted a new child token"
						}
					},
					"ChildProposed(uint256,uint256,address,uint256)": {
						"details": "Emitted when a child NFT is added to a token's pending array.",
						"params": {
							"childAddress": "Address of the proposed child token's collection smart contract",
							"childId": "ID of the child token in the child token's collection smart contract",
							"childIndex": "Index of the proposed child token in the parent token's pending children array",
							"tokenId": "ID of the token that received a new pending child token"
						}
					},
					"ChildTransferred(uint256,uint256,address,uint256,bool)": {
						"details": "Emitted when a token transfers a child from itself, transferring ownership.",
						"params": {
							"childAddress": "Address of the child token's collection smart contract",
							"childId": "ID of the child token in the child token's collection smart contract",
							"childIndex": "Index of a child in the array from which it is being transferred",
							"fromPending": "A boolean value signifying whether the token was in the pending child tokens array (`true`) or  in the active child tokens array (`false`)",
							"tokenId": "ID of the token that transferred a child token"
						}
					},
					"NestTransfer(address,address,uint256,uint256,uint256)": {
						"details": "Emitted when `tokenId` token is transferred from `from` to `to`.",
						"params": {
							"from": "Address of the previous immediate owner, which is a smart contract if the token was nested.",
							"fromTokenId": "ID of the previous parent token. If the token was not nested before, the value MUST be `0`",
							"to": "Address of the new immediate owner, which is a smart contract if the token is being nested.",
							"toTokenId": "ID of the new parent token. If the token is not being nested, the value MUST be `0`",
							"tokenId": "ID of the token being transferred"
						}
					},
					"Transfer(address,address,uint256)": {
						"details": "Emitted when `tokenId` token is transferred from `from` to `to`."
					}
				},
				"kind": "dev",
				"methods": {
					"_nestMint(address,uint256,uint256,bytes)": {
						"params": {
							"data": "Additional data with no specified format, sent in the addChild call",
							"destinationId": "ID of the token into which to mint the new child token",
							"to": "Address of the collection smart contract of the token into which to mint the child token",
							"tokenId": "ID of the token to mint"
						}
					},
					"_safeMint(address,uint256)": {
						"details": "Requirements:  - `tokenId` must not exist.  - If `to` refers to a smart contract, it must implement {IERC721Receiver-onERC721Received}, which is called upon a safe transfer.Emits a {Transfer} event.",
						"params": {
							"to": "Address to which to safely mint the gven token",
							"tokenId": "ID of the token to mint to the specified address"
						}
					},
					"acceptChild(uint256,uint256,address,uint256)": {
						"details": "This moves the child token from parent token's pending child tokens array into the active child tokens  array.",
						"params": {
							"childAddress": "Address of the collection smart contract of the child token expected to be located at the  specified index of the given parent token's pending children array",
							"childId": "ID of the child token expected to be located at the specified index of the given parent token's  pending children array",
							"childIndex": "Index of a child tokem in the given parent's pending children array",
							"parentId": "ID of the parent token for which the child token is being accepted"
						}
					},
					"addChild(uint256,uint256,bytes)": {
						"details": "This adds the iichild token into the given parent token's pending child tokens array.You MUST NOT call this method directly. To add a a child to an NFT you must use either  `nestTransfer`, `nestMint` or `transferChild` to the NFT.Requirements:  - `ownerOf` on the child contract must resolve to the called contract.  - The pending array of the parent contract must not be full.",
						"params": {
							"childId": "ID of the new proposed child token",
							"data": "Additional data with no specified format",
							"parentId": "ID of the parent token to receive the new child token"
						}
					},
					"approve(address,uint256)": {
						"details": "Gives permission to `to` to transfer `tokenId` token to another account. The approval is cleared when the token is transferred. Only a single account can be approved at a time, so approving the zero address clears previous approvals. Requirements: - The caller must own the token or be an approved operator. - `tokenId` must exist. Emits an {Approval} event."
					},
					"balanceOf(address)": {
						"details": "Returns the number of tokens in ``owner``'s account."
					},
					"burn(uint256)": {
						"params": {
							"tokenId": "ID of the token to burn"
						}
					},
					"burn(uint256,uint256)": {
						"details": "When a token is burned, its children are recursively burned as well.The approvals are cleared when the token is burned.Requirements:  - `tokenId` must exist.Emits a {Transfer} event.",
						"params": {
							"maxChildrenBurns": "Maximum children to recursively burn",
							"tokenId": "ID of the token to burn"
						},
						"returns": {
							"_0": "uint256 The number of recursive burns it took to burn all of the children"
						}
					},
					"childIsInActive(address,uint256)": {
						"params": {
							"childAddress": "Address of the given token's collection smart contract",
							"childId": "ID of the child token being checked"
						},
						"returns": {
							"_0": "bool A boolean value signifying whether the given child token is included in an active child tokens array  of a token (`true`) or not (`false`)"
						}
					},
					"childOf(uint256,uint256)": {
						"details": "Returns a single Child struct locating at `index` of parent token's active child tokens array.The Child struct consists of the following values:  [      tokenId,      contractAddress  ]",
						"params": {
							"index": "Index of the child token in the parent token's active child tokens array",
							"parentId": "ID of the parent token for which the child is being retrieved"
						},
						"returns": {
							"_0": "struct A Child struct containing data about the specified child"
						}
					},
					"childrenOf(uint256)": {
						"details": "Returns array of Child structs existing for parent token.The Child struct consists of the following values:  [      tokenId,      contractAddress  ]",
						"params": {
							"parentId": "ID of the parent token for which to retrieve the active child tokens"
						},
						"returns": {
							"_0": "struct[] An array of Child structs containing the parent token's active child tokens"
						}
					},
					"directOwnerOf(uint256)": {
						"details": "In the event the NFT is owned by an externally owned account, `tokenId` will be `0`.",
						"params": {
							"tokenId": "ID of the token for which the immediate owner is being retrieved"
						},
						"returns": {
							"_0": "address Address of the immediate owner. If the token is owned by an externally owned account, its address  will be returned. If the token is owned by another token, the parent token's collection smart contract address  is returned",
							"_1": "uint256 Token ID of the immediate owner. If the immediate owner is an externally owned account, the value  should be `0`",
							"_2": "bool A boolean value signifying whether the immediate owner is a token (`true`) or not (`false`)"
						}
					},
					"getApproved(uint256)": {
						"details": "Returns the account approved for `tokenId` token. Requirements: - `tokenId` must exist."
					},
					"isApprovedForAll(address,address)": {
						"details": "Returns if the `operator` is allowed to manage all of the assets of `owner`. See {setApprovalForAll}"
					},
					"nestTransferFrom(address,address,uint256,uint256,bytes)": {
						"details": "The destination token MUST NOT be a child token of the token being transferred or one of its downstream  child tokens.",
						"params": {
							"destinationId": "ID of the token to receive the token being transferred",
							"from": "Address of the direct owner of the token to be transferred",
							"to": "Address of the receiving token's collection smart contract",
							"tokenId": "ID of the token being transferred"
						}
					},
					"ownerOf(uint256)": {
						"details": "Root owner is always the externally owned account.If the given token is owned by another token, it will recursively query the parent tokens until reaching the  root owner.",
						"params": {
							"tokenId": "ID of the token for which the root owner is being retrieved"
						},
						"returns": {
							"_0": "address Address of the root owner of the given token"
						}
					},
					"pendingChildOf(uint256,uint256)": {
						"details": "Returns a single Child struct locating at `index` of parent token's active child tokens array.The Child struct consists of the following values:  [      tokenId,      contractAddress  ]",
						"params": {
							"index": "Index of the child token in the parent token's pending child tokens array",
							"parentId": "ID of the parent token for which the pending child token is being retrieved"
						},
						"returns": {
							"_0": "struct A Child struct containting data about the specified child"
						}
					},
					"pendingChildrenOf(uint256)": {
						"details": "Returns array of pending Child structs existing for given parent.The Child struct consists of the following values:  [      tokenId,      contractAddress  ]",
						"params": {
							"parentId": "ID of the parent token for which to retrieve the pending child tokens"
						},
						"returns": {
							"_0": "struct[] An array of Child structs containing the parent token's pending child tokens"
						}
					},
					"rejectAllChildren(uint256,uint256)": {
						"details": "Removes the children from the pending array mapping.This does not update the ownership storage data on children. If necessary, ownership can be reclaimed by the  rootOwner of the previous parent.",
						"params": {
							"tokenId": "ID of the parent token for which to reject all of the pending tokens"
						}
					},
					"safeTransferFrom(address,address,uint256)": {
						"details": "Safely transfers `tokenId` token from `from` to `to`, checking first that contract recipients are aware of the ERC721 protocol to prevent tokens from being forever locked. Requirements: - `from` cannot be the zero address. - `to` cannot be the zero address. - `tokenId` token must exist and be owned by `from`. - If the caller is not `from`, it must have been allowed to move this token by either {approve} or {setApprovalForAll}. - If `to` refers to a smart contract, it must implement {IERC721Receiver-onERC721Received}, which is called upon a safe transfer. Emits a {Transfer} event."
					},
					"safeTransferFrom(address,address,uint256,bytes)": {
						"details": "Safely transfers `tokenId` token from `from` to `to`. Requirements: - `from` cannot be the zero address. - `to` cannot be the zero address. - `tokenId` token must exist and be owned by `from`. - If the caller is not `from`, it must be approved to move this token by either {approve} or {setApprovalForAll}. - If `to` refers to a smart contract, it must implement {IERC721Receiver-onERC721Received}, which is called upon a safe transfer. Emits a {Transfer} event."
					},
					"setApprovalForAll(address,bool)": {
						"details": "Approve or remove `operator` as an operator for the caller. Operators can call {transferFrom} or {safeTransferFrom} for any token owned by the caller. Requirements: - The `operator` cannot be the caller. Emits an {ApprovalForAll} event."
					},
					"supportsInterface(bytes4)": {
						"details": "Returns true if this contract implements the interface defined by `interfaceId`. See the corresponding https://eips.ethereum.org/EIPS/eip-165#how-interfaces-are-identified[EIP section] to learn more about how these ids are created. This function call must use less than 30 000 gas."
					},
					"transferChild(uint256,address,uint256,uint256,address,uint256,bool,bytes)": {
						"params": {
							"childAddress": "Address of the child token's collection smart contract.",
							"childId": "ID of the child token in its own collection smart contract.",
							"childIndex": "Index of a token we are transferring, in the array it belongs to (can be either active array or  pending array)",
							"data": "Additional data with no specified format, sent in call to `_to`",
							"destinationId": "ID of the token to receive this child token (MUST be 0 if the destination is not a token)",
							"isPending": "A boolean value indicating whether the child token being transferred is in the pending array of the  parent token (`true`) or in the active array (`false`)",
							"to": "Address to which to transfer the token to",
							"tokenId": "ID of the parent token from which the child token is being transferred"
						}
					},
					"transferFrom(address,address,uint256)": {
						"details": "Transfers `tokenId` token from `from` to `to`. WARNING: Note that the caller is responsible to confirm that the recipient is capable of receiving ERC721 or else they may be permanently lost. Usage of {safeTransferFrom} prevents loss, though the caller must understand this adds an external call which potentially creates a reentrancy vulnerability. Requirements: - `from` cannot be the zero address. - `to` cannot be the zero address. - `tokenId` token must be owned by `from`. - If the caller is not `from`, it must be approved to move this token by either {approve} or {setApprovalForAll}. Emits a {Transfer} event."
					}
				},
				"title": "NestableToken",
				"version": 1
			},
			"evm": {
				"assembly": "    /* \"nestable.sol\":15661:72222  contract NestableToken is Context, IERC165, IERC721, IERC6059 {... */\n  mstore(0x40, 0x80)\n  callvalue\n  dup1\n  iszero\n  tag_1\n  jumpi\n  0x00\n  dup1\n  revert\ntag_1:\n  pop\n  dataSize(sub_0)\n  dup1\n  dataOffset(sub_0)\n  0x00\n  codecopy\n  0x00\n  return\nstop\n\nsub_0: assembly {\n        /* \"nestable.sol\":15661:72222  contract NestableToken is Context, IERC165, IERC721, IERC6059 {... */\n      mstore(0x40, 0x80)\n      callvalue\n      dup1\n      iszero\n      tag_1\n      jumpi\n      0x00\n      dup1\n      revert\n    tag_1:\n      pop\n      jumpi(tag_2, lt(calldatasize, 0x04))\n      shr(0xe0, calldataload(0x00))\n      dup1\n      0x6f19951c\n      gt\n      tag_28\n      jumpi\n      dup1\n      0xb3e1c718\n      gt\n      tag_29\n      jumpi\n      dup1\n      0xe97ceaa8\n      gt\n      tag_30\n      jumpi\n      dup1\n      0xe97ceaa8\n      eq\n      tag_24\n      jumpi\n      dup1\n      0xe985e9c5\n      eq\n      tag_25\n      jumpi\n      dup1\n      0xeb043606\n      eq\n      tag_26\n      jumpi\n      dup1\n      0xfb25fb7a\n      eq\n      tag_27\n      jumpi\n      jump(tag_2)\n    tag_30:\n      dup1\n      0xb3e1c718\n      eq\n      tag_21\n      jumpi\n      dup1\n      0xb88d4fde\n      eq\n      tag_22\n      jumpi\n      dup1\n      0xdefa80c3\n      eq\n      tag_23\n      jumpi\n      jump(tag_2)\n    tag_29:\n      dup1\n      0x6f19951c\n      eq\n      tag_15\n      jumpi\n      dup1\n      0x70a08231\n      eq\n      tag_16\n      jumpi\n      dup1\n      0x97961336\n      eq\n      tag_17\n      jumpi\n      dup1\n      0xa22cb465\n      eq\n      tag_18\n      jumpi\n      dup1\n      0xa898e364\n      eq\n      tag_19\n      jumpi\n      dup1\n      0xb390c0ab\n      eq\n      tag_20\n      jumpi\n      jump(tag_2)\n    tag_28:\n      dup1\n      0x4182e4a3\n      gt\n      tag_31\n      jumpi\n      dup1\n      0x4182e4a3\n      eq\n      tag_9\n      jumpi\n      dup1\n      0x42842e0e\n      eq\n      tag_10\n      jumpi\n      dup1\n      0x42966c68\n      eq\n      tag_11\n      jumpi\n      dup1\n      0x44ec9344\n      eq\n      tag_12\n      jumpi\n      dup1\n      0x6352211e\n      eq\n      tag_13\n      jumpi\n      dup1\n      0x635490cc\n      eq\n      tag_14\n      jumpi\n      jump(tag_2)\n    tag_31:\n      dup1\n      0x01ffc9a7\n      eq\n      tag_3\n      jumpi\n      dup1\n      0x064c0a3a\n      eq\n      tag_4\n      jumpi\n      dup1\n      0x081812fc\n      eq\n      tag_5\n      jumpi\n      dup1\n      0x095ea7b3\n      eq\n      tag_6\n      jumpi\n      dup1\n      0x23b872dd\n      eq\n      tag_7\n      jumpi\n      dup1\n      0x2f32f937\n      eq\n      tag_8\n      jumpi\n    tag_2:\n      0x00\n      dup1\n      revert\n        /* \"nestable.sol\":19090:19439  function supportsInterface(... */\n    tag_3:\n      tag_32\n      0x04\n      dup1\n      calldatasize\n      sub\n      dup2\n      add\n      swap1\n      tag_33\n      swap2\n      swap1\n      tag_34\n      jump\t// in\n    tag_33:\n      tag_35\n      jump\t// in\n    tag_32:\n      mload(0x40)\n      tag_36\n      swap2\n      swap1\n      tag_37\n      jump\t// in\n    tag_36:\n      mload(0x40)\n      dup1\n      swap2\n      sub\n      swap1\n      return\n        /* \"nestable.sol\":21051:21328  function nestTransferFrom(... */\n    tag_4:\n      tag_38\n      0x04\n      dup1\n      calldatasize\n      sub\n      dup2\n      add\n      swap1\n      tag_39\n      swap2\n      swap1\n      tag_40\n      jump\t// in\n    tag_39:\n      tag_41\n      jump\t// in\n    tag_38:\n      stop\n        /* \"nestable.sol\":39543:39733  function getApproved(... */\n    tag_5:\n      tag_42\n      0x04\n      dup1\n      calldatasize\n      sub\n      dup2\n      add\n      swap1\n      tag_43\n      swap2\n      swap1\n      tag_44\n      jump\t// in\n    tag_43:\n      tag_45\n      jump\t// in\n    tag_42:\n      mload(0x40)\n      tag_46\n      swap2\n      swap1\n      tag_47\n      jump\t// in\n    tag_46:\n      mload(0x40)\n      dup1\n      swap2\n      sub\n      swap1\n      return\n        /* \"nestable.sol\":39141:39494  function approve(address to, uint256 tokenId) public virtual {... */\n    tag_6:\n      tag_48\n      0x04\n      dup1\n      calldatasize\n      sub\n      dup2\n      add\n      swap1\n      tag_49\n      swap2\n      swap1\n      tag_50\n      jump\t// in\n    tag_49:\n      tag_51\n      jump\t// in\n    tag_48:\n      stop\n        /* \"nestable.sol\":19847:20037  function transferFrom(... */\n    tag_7:\n      tag_52\n      0x04\n      dup1\n      calldatasize\n      sub\n      dup2\n      add\n      swap1\n      tag_53\n      swap2\n      swap1\n      tag_54\n      jump\t// in\n    tag_53:\n      tag_55\n      jump\t// in\n    tag_52:\n      stop\n        /* \"nestable.sol\":59253:59541  function childOf(... */\n    tag_8:\n      tag_56\n      0x04\n      dup1\n      calldatasize\n      sub\n      dup2\n      add\n      swap1\n      tag_57\n      swap2\n      swap1\n      tag_58\n      jump\t// in\n    tag_57:\n      tag_59\n      jump\t// in\n    tag_56:\n      mload(0x40)\n      tag_60\n      swap2\n      swap1\n      tag_61\n      jump\t// in\n    tag_60:\n      mload(0x40)\n      dup1\n      swap2\n      sub\n      swap1\n      return\n        /* \"nestable.sol\":60915:61104  function childIsInActive(... */\n    tag_9:\n      tag_62\n      0x04\n      dup1\n      calldatasize\n      sub\n      dup2\n      add\n      swap1\n      tag_63\n      swap2\n      swap1\n      tag_50\n      jump\t// in\n    tag_63:\n      tag_64\n      jump\t// in\n    tag_62:\n      mload(0x40)\n      tag_65\n      swap2\n      swap1\n      tag_37\n      jump\t// in\n    tag_65:\n      mload(0x40)\n      dup1\n      swap2\n      sub\n      swap1\n      return\n        /* \"nestable.sol\":20086:20256  function safeTransferFrom(... */\n    tag_10:\n      tag_66\n      0x04\n      dup1\n      calldatasize\n      sub\n      dup2\n      add\n      swap1\n      tag_67\n      swap2\n      swap1\n      tag_54\n      jump\t// in\n    tag_67:\n      tag_68\n      jump\t// in\n    tag_66:\n      stop\n        /* \"nestable.sol\":35160:35239  function burn(uint256 tokenId) public virtual {... */\n    tag_11:\n      tag_69\n      0x04\n      dup1\n      calldatasize\n      sub\n      dup2\n      add\n      swap1\n      tag_70\n      swap2\n      swap1\n      tag_44\n      jump\t// in\n    tag_70:\n      tag_71\n      jump\t// in\n    tag_69:\n      stop\n        /* \"nestable.sol\":58435:58647  function pendingChildrenOf(... */\n    tag_12:\n      tag_72\n      0x04\n      dup1\n      calldatasize\n      sub\n      dup2\n      add\n      swap1\n      tag_73\n      swap2\n      swap1\n      tag_44\n      jump\t// in\n    tag_73:\n      tag_74\n      jump\t// in\n    tag_72:\n      mload(0x40)\n      tag_75\n      swap2\n      swap1\n      tag_76\n      jump\t// in\n    tag_75:\n      mload(0x40)\n      dup1\n      swap2\n      sub\n      swap1\n      return\n        /* \"nestable.sol\":33476:33815  function ownerOf(... */\n    tag_13:\n      tag_77\n      0x04\n      dup1\n      calldatasize\n      sub\n      dup2\n      add\n      swap1\n      tag_78\n      swap2\n      swap1\n      tag_44\n      jump\t// in\n    tag_78:\n      tag_79\n      jump\t// in\n    tag_77:\n      mload(0x40)\n      tag_80\n      swap2\n      swap1\n      tag_47\n      jump\t// in\n    tag_80:\n      mload(0x40)\n      dup1\n      swap2\n      sub\n      swap1\n      return\n        /* \"nestable.sol\":46974:47832  function addChild(... */\n    tag_14:\n      tag_81\n      0x04\n      dup1\n      calldatasize\n      sub\n      dup2\n      add\n      swap1\n      tag_82\n      swap2\n      swap1\n      tag_83\n      jump\t// in\n    tag_82:\n      tag_84\n      jump\t// in\n    tag_81:\n      stop\n        /* \"nestable.sol\":57736:57926  function childrenOf(... */\n    tag_15:\n      tag_85\n      0x04\n      dup1\n      calldatasize\n      sub\n      dup2\n      add\n      swap1\n      tag_86\n      swap2\n      swap1\n      tag_44\n      jump\t// in\n    tag_86:\n      tag_87\n      jump\t// in\n    tag_85:\n      mload(0x40)\n      tag_88\n      swap2\n      swap1\n      tag_76\n      jump\t// in\n    tag_88:\n      mload(0x40)\n      dup1\n      swap2\n      sub\n      swap1\n      return\n        /* \"nestable.sol\":19488:19677  function balanceOf(address owner) public view virtual returns (uint256) {... */\n    tag_16:\n      tag_89\n      0x04\n      dup1\n      calldatasize\n      sub\n      dup2\n      add\n      swap1\n      tag_90\n      swap2\n      swap1\n      tag_91\n      jump\t// in\n    tag_90:\n      tag_92\n      jump\t// in\n    tag_89:\n      mload(0x40)\n      tag_93\n      swap2\n      swap1\n      tag_94\n      jump\t// in\n    tag_93:\n      mload(0x40)\n      dup1\n      swap2\n      sub\n      swap1\n      return\n        /* \"nestable.sol\":51118:51288  function rejectAllChildren(uint256 tokenId, uint256 maxRejections) public virtual onlyApprovedOrOwner(tokenId) {... */\n    tag_17:\n      tag_95\n      0x04\n      dup1\n      calldatasize\n      sub\n      dup2\n      add\n      swap1\n      tag_96\n      swap2\n      swap1\n      tag_58\n      jump\t// in\n    tag_96:\n      tag_97\n      jump\t// in\n    tag_95:\n      stop\n        /* \"nestable.sol\":39782:40060  function setApprovalForAll(address operator, bool approved) public virtual {... */\n    tag_18:\n      tag_98\n      0x04\n      dup1\n      calldatasize\n      sub\n      dup2\n      add\n      swap1\n      tag_99\n      swap2\n      swap1\n      tag_100\n      jump\t// in\n    tag_99:\n      tag_101\n      jump\t// in\n    tag_98:\n      stop\n        /* \"nestable.sol\":60165:60487  function pendingChildOf(... */\n    tag_19:\n      tag_102\n      0x04\n      dup1\n      calldatasize\n      sub\n      dup2\n      add\n      swap1\n      tag_103\n      swap2\n      swap1\n      tag_58\n      jump\t// in\n    tag_103:\n      tag_104\n      jump\t// in\n    tag_102:\n      mload(0x40)\n      tag_105\n      swap2\n      swap1\n      tag_61\n      jump\t// in\n    tag_105:\n      mload(0x40)\n      dup1\n      swap2\n      sub\n      swap1\n      return\n        /* \"nestable.sol\":35749:35952  function burn(... */\n    tag_20:\n      tag_106\n      0x04\n      dup1\n      calldatasize\n      sub\n      dup2\n      add\n      swap1\n      tag_107\n      swap2\n      swap1\n      tag_58\n      jump\t// in\n    tag_107:\n      tag_108\n      jump\t// in\n    tag_106:\n      mload(0x40)\n      tag_109\n      swap2\n      swap1\n      tag_94\n      jump\t// in\n    tag_109:\n      mload(0x40)\n      dup1\n      swap2\n      sub\n      swap1\n      return\n        /* \"nestable.sol\":29465:29573  function _safeMint(address to, uint256 tokenId) external virtual {... */\n    tag_21:\n      tag_110\n      0x04\n      dup1\n      calldatasize\n      sub\n      dup2\n      add\n      swap1\n      tag_111\n      swap2\n      swap1\n      tag_50\n      jump\t// in\n    tag_111:\n      tag_112\n      jump\t// in\n    tag_110:\n      stop\n        /* \"nestable.sol\":20305:20536  function safeTransferFrom(... */\n    tag_22:\n      tag_113\n      0x04\n      dup1\n      calldatasize\n      sub\n      dup2\n      add\n      swap1\n      tag_114\n      swap2\n      swap1\n      tag_115\n      jump\t// in\n    tag_114:\n      tag_116\n      jump\t// in\n    tag_113:\n      stop\n        /* \"nestable.sol\":53272:53772  function transferChild(... */\n    tag_23:\n      tag_117\n      0x04\n      dup1\n      calldatasize\n      sub\n      dup2\n      add\n      swap1\n      tag_118\n      swap2\n      swap1\n      tag_119\n      jump\t// in\n    tag_118:\n      tag_120\n      jump\t// in\n    tag_117:\n      stop\n        /* \"nestable.sol\":48594:48849  function acceptChild(... */\n    tag_24:\n      tag_121\n      0x04\n      dup1\n      calldatasize\n      sub\n      dup2\n      add\n      swap1\n      tag_122\n      swap2\n      swap1\n      tag_123\n      jump\t// in\n    tag_122:\n      tag_124\n      jump\t// in\n    tag_121:\n      stop\n        /* \"nestable.sol\":40109:40284  function isApprovedForAll(... */\n    tag_25:\n      tag_125\n      0x04\n      dup1\n      calldatasize\n      sub\n      dup2\n      add\n      swap1\n      tag_126\n      swap2\n      swap1\n      tag_127\n      jump\t// in\n    tag_126:\n      tag_128\n      jump\t// in\n    tag_125:\n      mload(0x40)\n      tag_129\n      swap2\n      swap1\n      tag_37\n      jump\t// in\n    tag_129:\n      mload(0x40)\n      dup1\n      swap2\n      sub\n      swap1\n      return\n        /* \"nestable.sol\":31332:31854  function _nestMint(... */\n    tag_26:\n      tag_130\n      0x04\n      dup1\n      calldatasize\n      sub\n      dup2\n      add\n      swap1\n      tag_131\n      swap2\n      swap1\n      tag_132\n      jump\t// in\n    tag_131:\n      tag_133\n      jump\t// in\n    tag_130:\n      stop\n        /* \"nestable.sol\":34608:34930  function directOwnerOf(... */\n    tag_27:\n      tag_134\n      0x04\n      dup1\n      calldatasize\n      sub\n      dup2\n      add\n      swap1\n      tag_135\n      swap2\n      swap1\n      tag_44\n      jump\t// in\n    tag_135:\n      tag_136\n      jump\t// in\n    tag_134:\n      mload(0x40)\n      tag_137\n      swap4\n      swap3\n      swap2\n      swap1\n      tag_138\n      jump\t// in\n    tag_137:\n      mload(0x40)\n      dup1\n      swap2\n      sub\n      swap1\n      return\n        /* \"nestable.sol\":19090:19439  function supportsInterface(... */\n    tag_35:\n        /* \"nestable.sol\":19180:19184  bool */\n      0x00\n        /* \"nestable.sol\":19230:19255  type(IERC165).interfaceId */\n      0x01ffc9a700000000000000000000000000000000000000000000000000000000\n        /* \"nestable.sol\":19215:19255  interfaceId == type(IERC165).interfaceId */\n      not(0xffffffffffffffffffffffffffffffffffffffffffffffffffffffff)\n      and\n        /* \"nestable.sol\":19215:19226  interfaceId */\n      dup3\n        /* \"nestable.sol\":19215:19255  interfaceId == type(IERC165).interfaceId */\n      not(0xffffffffffffffffffffffffffffffffffffffffffffffffffffffff)\n      and\n      eq\n        /* \"nestable.sol\":19215:19311  interfaceId == type(IERC165).interfaceId ||... */\n      dup1\n      tag_140\n      jumpi\n      pop\n        /* \"nestable.sol\":19286:19311  type(IERC721).interfaceId */\n      0x80ac58cd00000000000000000000000000000000000000000000000000000000\n        /* \"nestable.sol\":19271:19311  interfaceId == type(IERC721).interfaceId */\n      not(0xffffffffffffffffffffffffffffffffffffffffffffffffffffffff)\n      and\n        /* \"nestable.sol\":19271:19282  interfaceId */\n      dup3\n        /* \"nestable.sol\":19271:19311  interfaceId == type(IERC721).interfaceId */\n      not(0xffffffffffffffffffffffffffffffffffffffffffffffffffffffff)\n      and\n      eq\n        /* \"nestable.sol\":19215:19311  interfaceId == type(IERC165).interfaceId ||... */\n    tag_140:\n        /* \"nestable.sol\":19215:19375  interfaceId == type(IERC165).interfaceId ||... */\n      dup1\n      tag_141\n      jumpi\n      pop\n        /* \"nestable.sol\":19342:19375  type(IERC721Metadata).interfaceId */\n      0x5b5e139f00000000000000000000000000000000000000000000000000000000\n        /* \"nestable.sol\":19327:19375  interfaceId == type(IERC721Metadata).interfaceId */\n      not(0xffffffffffffffffffffffffffffffffffffffffffffffffffffffff)\n      and\n        /* \"nestable.sol\":19327:19338  interfaceId */\n      dup3\n        /* \"nestable.sol\":19327:19375  interfaceId == type(IERC721Metadata).interfaceId */\n      not(0xffffffffffffffffffffffffffffffffffffffffffffffffffffffff)\n      and\n      eq\n        /* \"nestable.sol\":19215:19375  interfaceId == type(IERC165).interfaceId ||... */\n    tag_141:\n        /* \"nestable.sol\":19215:19432  interfaceId == type(IERC165).interfaceId ||... */\n      dup1\n      tag_142\n      jumpi\n      pop\n        /* \"nestable.sol\":19406:19432  type(IERC6059).interfaceId */\n      0x42b0e56f00000000000000000000000000000000000000000000000000000000\n        /* \"nestable.sol\":19391:19432  interfaceId == type(IERC6059).interfaceId */\n      not(0xffffffffffffffffffffffffffffffffffffffffffffffffffffffff)\n      and\n        /* \"nestable.sol\":19391:19402  interfaceId */\n      dup3\n        /* \"nestable.sol\":19391:19432  interfaceId == type(IERC6059).interfaceId */\n      not(0xffffffffffffffffffffffffffffffffffffffffffffffffffffffff)\n      and\n      eq\n        /* \"nestable.sol\":19215:19432  interfaceId == type(IERC165).interfaceId ||... */\n    tag_142:\n        /* \"nestable.sol\":19196:19432  return... */\n      swap1\n      pop\n        /* \"nestable.sol\":19090:19439  function supportsInterface(... */\n      swap2\n      swap1\n      pop\n      jump\t// out\n        /* \"nestable.sol\":21051:21328  function nestTransferFrom(... */\n    tag_41:\n        /* \"nestable.sol\":21249:21256  tokenId */\n      dup3\n        /* \"nestable.sol\":18908:18943  _onlyApprovedOrDirectOwner(tokenId) */\n      tag_144\n        /* \"nestable.sol\":18935:18942  tokenId */\n      dup2\n        /* \"nestable.sol\":18908:18934  _onlyApprovedOrDirectOwner */\n      tag_145\n        /* \"nestable.sol\":18908:18943  _onlyApprovedOrDirectOwner(tokenId) */\n      jump\t// in\n    tag_144:\n        /* \"nestable.sol\":21268:21321  _nestTransfer(from, to, tokenId, destinationId, data) */\n      tag_147\n        /* \"nestable.sol\":21282:21286  from */\n      dup7\n        /* \"nestable.sol\":21288:21290  to */\n      dup7\n        /* \"nestable.sol\":21292:21299  tokenId */\n      dup7\n        /* \"nestable.sol\":21301:21314  destinationId */\n      dup7\n        /* \"nestable.sol\":21316:21320  data */\n      dup7\n        /* \"nestable.sol\":21268:21281  _nestTransfer */\n      tag_148\n        /* \"nestable.sol\":21268:21321  _nestTransfer(from, to, tokenId, destinationId, data) */\n      jump\t// in\n    tag_147:\n        /* \"nestable.sol\":21051:21328  function nestTransferFrom(... */\n      pop\n      pop\n      pop\n      pop\n      pop\n      pop\n      jump\t// out\n        /* \"nestable.sol\":39543:39733  function getApproved(... */\n    tag_45:\n        /* \"nestable.sol\":39624:39631  address */\n      0x00\n        /* \"nestable.sol\":39643:39666  _requireMinted(tokenId) */\n      tag_150\n        /* \"nestable.sol\":39658:39665  tokenId */\n      dup3\n        /* \"nestable.sol\":39643:39657  _requireMinted */\n      tag_151\n        /* \"nestable.sol\":39643:39666  _requireMinted(tokenId) */\n      jump\t// in\n    tag_150:\n        /* \"nestable.sol\":39684:39699  _tokenApprovals */\n      0x01\n        /* \"nestable.sol\":39684:39708  _tokenApprovals[tokenId] */\n      0x00\n        /* \"nestable.sol\":39700:39707  tokenId */\n      dup4\n        /* \"nestable.sol\":39684:39708  _tokenApprovals[tokenId] */\n      dup2\n      mstore\n      0x20\n      add\n      swap1\n      dup2\n      mstore\n      0x20\n      add\n      0x00\n      keccak256\n        /* \"nestable.sol\":39684:39726  _tokenApprovals[tokenId][ownerOf(tokenId)] */\n      0x00\n        /* \"nestable.sol\":39709:39725  ownerOf(tokenId) */\n      tag_152\n        /* \"nestable.sol\":39717:39724  tokenId */\n      dup5\n        /* \"nestable.sol\":39709:39716  ownerOf */\n      tag_79\n        /* \"nestable.sol\":39709:39725  ownerOf(tokenId) */\n      jump\t// in\n    tag_152:\n        /* \"nestable.sol\":39684:39726  _tokenApprovals[tokenId][ownerOf(tokenId)] */\n      0xffffffffffffffffffffffffffffffffffffffff\n      and\n      0xffffffffffffffffffffffffffffffffffffffff\n      and\n      dup2\n      mstore\n      0x20\n      add\n      swap1\n      dup2\n      mstore\n      0x20\n      add\n      0x00\n      keccak256\n      0x00\n      swap1\n      sload\n      swap1\n      0x0100\n      exp\n      swap1\n      div\n      0xffffffffffffffffffffffffffffffffffffffff\n      and\n        /* \"nestable.sol\":39677:39726  return _tokenApprovals[tokenId][ownerOf(tokenId)] */\n      swap1\n      pop\n        /* \"nestable.sol\":39543:39733  function getApproved(... */\n      swap2\n      swap1\n      pop\n      jump\t// out\n        /* \"nestable.sol\":39141:39494  function approve(address to, uint256 tokenId) public virtual {... */\n    tag_51:\n        /* \"nestable.sol\":39212:39225  address owner */\n      0x00\n        /* \"nestable.sol\":39228:39244  ownerOf(tokenId) */\n      tag_154\n        /* \"nestable.sol\":39236:39243  tokenId */\n      dup3\n        /* \"nestable.sol\":39228:39235  ownerOf */\n      tag_79\n        /* \"nestable.sol\":39228:39244  ownerOf(tokenId) */\n      jump\t// in\n    tag_154:\n        /* \"nestable.sol\":39212:39244  address owner = ownerOf(tokenId) */\n      swap1\n      pop\n        /* \"nestable.sol\":39264:39269  owner */\n      dup1\n        /* \"nestable.sol\":39258:39269  to == owner */\n      0xffffffffffffffffffffffffffffffffffffffff\n      and\n        /* \"nestable.sol\":39258:39260  to */\n      dup4\n        /* \"nestable.sol\":39258:39269  to == owner */\n      0xffffffffffffffffffffffffffffffffffffffff\n      and\n      sub\n        /* \"nestable.sol\":39254:39308  if (to == owner) revert ERC721ApprovalToCurrentOwner() */\n      tag_155\n      jumpi\n        /* \"nestable.sol\":39278:39308  ERC721ApprovalToCurrentOwner() */\n      mload(0x40)\n      0x0591db6d00000000000000000000000000000000000000000000000000000000\n      dup2\n      mstore\n      0x04\n      add\n      mload(0x40)\n      dup1\n      swap2\n      sub\n      swap1\n      revert\n        /* \"nestable.sol\":39254:39308  if (to == owner) revert ERC721ApprovalToCurrentOwner() */\n    tag_155:\n        /* \"nestable.sol\":39339:39344  owner */\n      dup1\n        /* \"nestable.sol\":39323:39344  _msgSender() != owner */\n      0xffffffffffffffffffffffffffffffffffffffff\n      and\n        /* \"nestable.sol\":39323:39335  _msgSender() */\n      tag_156\n        /* \"nestable.sol\":39323:39333  _msgSender */\n      tag_157\n        /* \"nestable.sol\":39323:39335  _msgSender() */\n      jump\t// in\n    tag_156:\n        /* \"nestable.sol\":39323:39344  _msgSender() != owner */\n      0xffffffffffffffffffffffffffffffffffffffff\n      and\n      eq\n      iszero\n        /* \"nestable.sol\":39323:39386  _msgSender() != owner && !isApprovedForAll(owner, _msgSender()) */\n      dup1\n      iszero\n      tag_158\n      jumpi\n      pop\n        /* \"nestable.sol\":39349:39386  isApprovedForAll(owner, _msgSender()) */\n      tag_159\n        /* \"nestable.sol\":39366:39371  owner */\n      dup2\n        /* \"nestable.sol\":39373:39385  _msgSender() */\n      tag_160\n        /* \"nestable.sol\":39373:39383  _msgSender */\n      tag_157\n        /* \"nestable.sol\":39373:39385  _msgSender() */\n      jump\t// in\n    tag_160:\n        /* \"nestable.sol\":39349:39365  isApprovedForAll */\n      tag_128\n        /* \"nestable.sol\":39349:39386  isApprovedForAll(owner, _msgSender()) */\n      jump\t// in\n    tag_159:\n        /* \"nestable.sol\":39348:39386  !isApprovedForAll(owner, _msgSender()) */\n      iszero\n        /* \"nestable.sol\":39323:39386  _msgSender() != owner && !isApprovedForAll(owner, _msgSender()) */\n    tag_158:\n        /* \"nestable.sol\":39319:39455  if (_msgSender() != owner && !isApprovedForAll(owner, _msgSender()))... */\n      iszero\n      tag_161\n      jumpi\n        /* \"nestable.sol\":39407:39455  ERC721ApproveCallerIsNotOwnerNorApprovedForAll() */\n      mload(0x40)\n      0x982462b200000000000000000000000000000000000000000000000000000000\n      dup2\n      mstore\n      0x04\n      add\n      mload(0x40)\n      dup1\n      swap2\n      sub\n      swap1\n      revert\n        /* \"nestable.sol\":39319:39455  if (_msgSender() != owner && !isApprovedForAll(owner, _msgSender()))... */\n    tag_161:\n        /* \"nestable.sol\":39466:39487  _approve(to, tokenId) */\n      tag_162\n        /* \"nestable.sol\":39475:39477  to */\n      dup4\n        /* \"nestable.sol\":39479:39486  tokenId */\n      dup4\n        /* \"nestable.sol\":39466:39474  _approve */\n      tag_163\n        /* \"nestable.sol\":39466:39487  _approve(to, tokenId) */\n      jump\t// in\n    tag_162:\n        /* \"nestable.sol\":39202:39494  {... */\n      pop\n        /* \"nestable.sol\":39141:39494  function approve(address to, uint256 tokenId) public virtual {... */\n      pop\n      pop\n      jump\t// out\n        /* \"nestable.sol\":19847:20037  function transferFrom(... */\n    tag_55:\n        /* \"nestable.sol\":19983:19990  tokenId */\n      dup1\n        /* \"nestable.sol\":18908:18943  _onlyApprovedOrDirectOwner(tokenId) */\n      tag_165\n        /* \"nestable.sol\":18935:18942  tokenId */\n      dup2\n        /* \"nestable.sol\":18908:18934  _onlyApprovedOrDirectOwner */\n      tag_145\n        /* \"nestable.sol\":18908:18943  _onlyApprovedOrDirectOwner(tokenId) */\n      jump\t// in\n    tag_165:\n        /* \"nestable.sol\":20002:20030  _transfer(from, to, tokenId) */\n      tag_167\n        /* \"nestable.sol\":20012:20016  from */\n      dup5\n        /* \"nestable.sol\":20018:20020  to */\n      dup5\n        /* \"nestable.sol\":20022:20029  tokenId */\n      dup5\n        /* \"nestable.sol\":20002:20011  _transfer */\n      tag_168\n        /* \"nestable.sol\":20002:20030  _transfer(from, to, tokenId) */\n      jump\t// in\n    tag_167:\n        /* \"nestable.sol\":19847:20037  function transferFrom(... */\n      pop\n      pop\n      pop\n      pop\n      jump\t// out\n        /* \"nestable.sol\":59253:59541  function childOf(... */\n    tag_59:\n        /* \"nestable.sol\":59354:59366  Child memory */\n      tag_169\n      tag_170\n      jump\t// in\n    tag_169:\n        /* \"nestable.sol\":59413:59418  index */\n      dup2\n        /* \"nestable.sol\":59382:59402  childrenOf(parentId) */\n      tag_172\n        /* \"nestable.sol\":59393:59401  parentId */\n      dup5\n        /* \"nestable.sol\":59382:59392  childrenOf */\n      tag_87\n        /* \"nestable.sol\":59382:59402  childrenOf(parentId) */\n      jump\t// in\n    tag_172:\n        /* \"nestable.sol\":59382:59409  childrenOf(parentId).length */\n      mload\n        /* \"nestable.sol\":59382:59418  childrenOf(parentId).length <= index */\n      gt\n        /* \"nestable.sol\":59378:59449  if (childrenOf(parentId).length <= index) revert ChildIndexOutOfRange() */\n      tag_173\n      jumpi\n        /* \"nestable.sol\":59427:59449  ChildIndexOutOfRange() */\n      mload(0x40)\n      0xca755cc000000000000000000000000000000000000000000000000000000000\n      dup2\n      mstore\n      0x04\n      add\n      mload(0x40)\n      dup1\n      swap2\n      sub\n      swap1\n      revert\n        /* \"nestable.sol\":59378:59449  if (childrenOf(parentId).length <= index) revert ChildIndexOutOfRange() */\n    tag_173:\n        /* \"nestable.sol\":59459:59477  Child memory child */\n      0x00\n        /* \"nestable.sol\":59480:59495  _activeChildren */\n      0x04\n        /* \"nestable.sol\":59480:59505  _activeChildren[parentId] */\n      0x00\n        /* \"nestable.sol\":59496:59504  parentId */\n      dup6\n        /* \"nestable.sol\":59480:59505  _activeChildren[parentId] */\n      dup2\n      mstore\n      0x20\n      add\n      swap1\n      dup2\n      mstore\n      0x20\n      add\n      0x00\n      keccak256\n        /* \"nestable.sol\":59506:59511  index */\n      dup4\n        /* \"nestable.sol\":59480:59512  _activeChildren[parentId][index] */\n      dup2\n      sload\n      dup2\n      lt\n      tag_174\n      jumpi\n      tag_175\n      tag_176\n      jump\t// in\n    tag_175:\n    tag_174:\n      swap1\n      0x00\n      mstore\n      keccak256(0x00, 0x20)\n      swap1\n      0x02\n      mul\n      add\n        /* \"nestable.sol\":59459:59512  Child memory child = _activeChildren[parentId][index] */\n      mload(0x40)\n      dup1\n      0x40\n      add\n      0x40\n      mstore\n      swap1\n      dup2\n      0x00\n      dup3\n      add\n      sload\n      dup2\n      mstore\n      0x20\n      add\n      0x01\n      dup3\n      add\n      0x00\n      swap1\n      sload\n      swap1\n      0x0100\n      exp\n      swap1\n      div\n      0xffffffffffffffffffffffffffffffffffffffff\n      and\n      0xffffffffffffffffffffffffffffffffffffffff\n      and\n      0xffffffffffffffffffffffffffffffffffffffff\n      and\n      dup2\n      mstore\n      pop\n      pop\n      swap1\n      pop\n        /* \"nestable.sol\":59529:59534  child */\n      dup1\n        /* \"nestable.sol\":59522:59534  return child */\n      swap2\n      pop\n      pop\n        /* \"nestable.sol\":59253:59541  function childOf(... */\n      swap3\n      swap2\n      pop\n      pop\n      jump\t// out\n        /* \"nestable.sol\":60915:61104  function childIsInActive(... */\n    tag_64:\n        /* \"nestable.sol\":61030:61034  bool */\n      0x00\n        /* \"nestable.sol\":61096:61097  0 */\n      dup1\n        /* \"nestable.sol\":61053:61069  _childIsInActive */\n      0x06\n        /* \"nestable.sol\":61053:61083  _childIsInActive[childAddress] */\n      0x00\n        /* \"nestable.sol\":61070:61082  childAddress */\n      dup6\n        /* \"nestable.sol\":61053:61083  _childIsInActive[childAddress] */\n      0xffffffffffffffffffffffffffffffffffffffff\n      and\n      0xffffffffffffffffffffffffffffffffffffffff\n      and\n      dup2\n      mstore\n      0x20\n      add\n      swap1\n      dup2\n      mstore\n      0x20\n      add\n      0x00\n      keccak256\n        /* \"nestable.sol\":61053:61092  _childIsInActive[childAddress][childId] */\n      0x00\n        /* \"nestable.sol\":61084:61091  childId */\n      dup5\n        /* \"nestable.sol\":61053:61092  _childIsInActive[childAddress][childId] */\n      dup2\n      mstore\n      0x20\n      add\n      swap1\n      dup2\n      mstore\n      0x20\n      add\n      0x00\n      keccak256\n      sload\n        /* \"nestable.sol\":61053:61097  _childIsInActive[childAddress][childId] != 0 */\n      eq\n      iszero\n        /* \"nestable.sol\":61046:61097  return _childIsInActive[childAddress][childId] != 0 */\n      swap1\n      pop\n        /* \"nestable.sol\":60915:61104  function childIsInActive(... */\n      swap3\n      swap2\n      pop\n      pop\n      jump\t// out\n        /* \"nestable.sol\":20086:20256  function safeTransferFrom(... */\n    tag_68:\n        /* \"nestable.sol\":20210:20249  safeTransferFrom(from, to, tokenId, \"\") */\n      tag_180\n        /* \"nestable.sol\":20227:20231  from */\n      dup4\n        /* \"nestable.sol\":20233:20235  to */\n      dup4\n        /* \"nestable.sol\":20237:20244  tokenId */\n      dup4\n        /* \"nestable.sol\":20210:20249  safeTransferFrom(from, to, tokenId, \"\") */\n      mload(0x40)\n      dup1\n      0x20\n      add\n      0x40\n      mstore\n      dup1\n      0x00\n      dup2\n      mstore\n      pop\n        /* \"nestable.sol\":20210:20226  safeTransferFrom */\n      tag_116\n        /* \"nestable.sol\":20210:20249  safeTransferFrom(from, to, tokenId, \"\") */\n      jump\t// in\n    tag_180:\n        /* \"nestable.sol\":20086:20256  function safeTransferFrom(... */\n      pop\n      pop\n      pop\n      jump\t// out\n        /* \"nestable.sol\":35160:35239  function burn(uint256 tokenId) public virtual {... */\n    tag_71:\n        /* \"nestable.sol\":35216:35232  burn(tokenId, 0) */\n      tag_182\n        /* \"nestable.sol\":35221:35228  tokenId */\n      dup2\n        /* \"nestable.sol\":35230:35231  0 */\n      0x00\n        /* \"nestable.sol\":35216:35220  burn */\n      tag_108\n        /* \"nestable.sol\":35216:35232  burn(tokenId, 0) */\n      jump\t// in\n    tag_182:\n      pop\n        /* \"nestable.sol\":35160:35239  function burn(uint256 tokenId) public virtual {... */\n      pop\n      jump\t// out\n        /* \"nestable.sol\":58435:58647  function pendingChildrenOf(... */\n    tag_74:\n        /* \"nestable.sol\":58523:58537  Child[] memory */\n      0x60\n        /* \"nestable.sol\":58549:58579  Child[] memory pendingChildren */\n      0x00\n        /* \"nestable.sol\":58582:58598  _pendingChildren */\n      0x05\n        /* \"nestable.sol\":58582:58608  _pendingChildren[parentId] */\n      0x00\n        /* \"nestable.sol\":58599:58607  parentId */\n      dup5\n        /* \"nestable.sol\":58582:58608  _pendingChildren[parentId] */\n      dup2\n      mstore\n      0x20\n      add\n      swap1\n      dup2\n      mstore\n      0x20\n      add\n      0x00\n      keccak256\n        /* \"nestable.sol\":58549:58608  Child[] memory pendingChildren = _pendingChildren[parentId] */\n      dup1\n      sload\n      dup1\n      0x20\n      mul\n      0x20\n      add\n      mload(0x40)\n      swap1\n      dup2\n      add\n      0x40\n      mstore\n      dup1\n      swap3\n      swap2\n      swap1\n      dup2\n      dup2\n      mstore\n      0x20\n      add\n      0x00\n      swap1\n    tag_184:\n      dup3\n      dup3\n      lt\n      iszero\n      tag_185\n      jumpi\n      dup4\n      dup3\n      swap1\n      0x00\n      mstore\n      keccak256(0x00, 0x20)\n      swap1\n      0x02\n      mul\n      add\n      mload(0x40)\n      dup1\n      0x40\n      add\n      0x40\n      mstore\n      swap1\n      dup2\n      0x00\n      dup3\n      add\n      sload\n      dup2\n      mstore\n      0x20\n      add\n      0x01\n      dup3\n      add\n      0x00\n      swap1\n      sload\n      swap1\n      0x0100\n      exp\n      swap1\n      div\n      0xffffffffffffffffffffffffffffffffffffffff\n      and\n      0xffffffffffffffffffffffffffffffffffffffff\n      and\n      0xffffffffffffffffffffffffffffffffffffffff\n      and\n      dup2\n      mstore\n      pop\n      pop\n      dup2\n      mstore\n      0x20\n      add\n      swap1\n      0x01\n      add\n      swap1\n      jump(tag_184)\n    tag_185:\n      pop\n      pop\n      pop\n      pop\n      swap1\n      pop\n        /* \"nestable.sol\":58625:58640  pendingChildren */\n      dup1\n        /* \"nestable.sol\":58618:58640  return pendingChildren */\n      swap2\n      pop\n      pop\n        /* \"nestable.sol\":58435:58647  function pendingChildrenOf(... */\n      swap2\n      swap1\n      pop\n      jump\t// out\n        /* \"nestable.sol\":33476:33815  function ownerOf(... */\n    tag_79:\n        /* \"nestable.sol\":33581:33588  address */\n      0x00\n        /* \"nestable.sol\":33601:33614  address owner */\n      dup1\n        /* \"nestable.sol\":33616:33636  uint256 ownerTokenId */\n      0x00\n        /* \"nestable.sol\":33638:33648  bool isNft */\n      dup1\n        /* \"nestable.sol\":33652:33696  directOwnerOf(... */\n      tag_188\n        /* \"nestable.sol\":33679:33686  tokenId */\n      dup6\n        /* \"nestable.sol\":33652:33665  directOwnerOf */\n      tag_136\n        /* \"nestable.sol\":33652:33696  directOwnerOf(... */\n      jump\t// in\n    tag_188:\n        /* \"nestable.sol\":33600:33696  (address owner, uint256 ownerTokenId, bool isNft) = directOwnerOf(... */\n      swap3\n      pop\n      swap3\n      pop\n      swap3\n      pop\n        /* \"nestable.sol\":33710:33715  isNft */\n      dup1\n        /* \"nestable.sol\":33706:33787  if (isNft) {... */\n      iszero\n      tag_189\n      jumpi\n        /* \"nestable.sol\":33748:33753  owner */\n      dup3\n        /* \"nestable.sol\":33739:33762  IERC6059(owner).ownerOf */\n      0xffffffffffffffffffffffffffffffffffffffff\n      and\n      0x6352211e\n        /* \"nestable.sol\":33763:33775  ownerTokenId */\n      dup4\n        /* \"nestable.sol\":33739:33776  IERC6059(owner).ownerOf(ownerTokenId) */\n      mload(0x40)\n      dup3\n      0xffffffff\n      and\n      0xe0\n      shl\n      dup2\n      mstore\n      0x04\n      add\n      tag_190\n      swap2\n      swap1\n      tag_94\n      jump\t// in\n    tag_190:\n      0x20\n      mload(0x40)\n      dup1\n      dup4\n      sub\n      dup2\n      dup7\n      gas\n      staticcall\n      iszero\n      dup1\n      iszero\n      tag_192\n      jumpi\n      returndatasize\n      0x00\n      dup1\n      returndatacopy\n      revert(0x00, returndatasize)\n    tag_192:\n      pop\n      pop\n      pop\n      pop\n      mload(0x40)\n      returndatasize\n      not(0x1f)\n      0x1f\n      dup3\n      add\n      and\n      dup3\n      add\n      dup1\n      0x40\n      mstore\n      pop\n      dup2\n      add\n      swap1\n      tag_193\n      swap2\n      swap1\n      tag_194\n      jump\t// in\n    tag_193:\n        /* \"nestable.sol\":33731:33776  owner = IERC6059(owner).ownerOf(ownerTokenId) */\n      swap3\n      pop\n        /* \"nestable.sol\":33706:33787  if (isNft) {... */\n    tag_189:\n        /* \"nestable.sol\":33803:33808  owner */\n      dup3\n        /* \"nestable.sol\":33796:33808  return owner */\n      swap4\n      pop\n      pop\n      pop\n      pop\n        /* \"nestable.sol\":33476:33815  function ownerOf(... */\n      swap2\n      swap1\n      pop\n      jump\t// out\n        /* \"nestable.sol\":46974:47832  function addChild(... */\n    tag_84:\n        /* \"nestable.sol\":47101:47125  _requireMinted(parentId) */\n      tag_196\n        /* \"nestable.sol\":47116:47124  parentId */\n      dup4\n        /* \"nestable.sol\":47101:47115  _requireMinted */\n      tag_151\n        /* \"nestable.sol\":47101:47125  _requireMinted(parentId) */\n      jump\t// in\n    tag_196:\n        /* \"nestable.sol\":47136:47156  address childAddress */\n      0x00\n        /* \"nestable.sol\":47159:47171  _msgSender() */\n      tag_197\n        /* \"nestable.sol\":47159:47169  _msgSender */\n      tag_157\n        /* \"nestable.sol\":47159:47171  _msgSender() */\n      jump\t// in\n    tag_197:\n        /* \"nestable.sol\":47136:47171  address childAddress = _msgSender() */\n      swap1\n      pop\n        /* \"nestable.sol\":47186:47211  childAddress.isContract() */\n      tag_198\n        /* \"nestable.sol\":47186:47198  childAddress */\n      dup2\n        /* \"nestable.sol\":47186:47209  childAddress.isContract */\n      0xffffffffffffffffffffffffffffffffffffffff\n      and\n      tag_199\n        /* \"nestable.sol\":47186:47211  childAddress.isContract() */\n      jump\t// in\n    tag_198:\n        /* \"nestable.sol\":47181:47235  if (!childAddress.isContract()) revert IsNotContract() */\n      tag_200\n      jumpi\n        /* \"nestable.sol\":47220:47235  IsNotContract() */\n      mload(0x40)\n      0x80275d3a00000000000000000000000000000000000000000000000000000000\n      dup2\n      mstore\n      0x04\n      add\n      mload(0x40)\n      dup1\n      swap2\n      sub\n      swap1\n      revert\n        /* \"nestable.sol\":47181:47235  if (!childAddress.isContract()) revert IsNotContract() */\n    tag_200:\n        /* \"nestable.sol\":47246:47264  Child memory child */\n      0x00\n        /* \"nestable.sol\":47267:47357  Child({... */\n      mload(0x40)\n      dup1\n      0x40\n      add\n      0x40\n      mstore\n      dup1\n        /* \"nestable.sol\":47339:47346  childId */\n      dup6\n        /* \"nestable.sol\":47267:47357  Child({... */\n      dup2\n      mstore\n      0x20\n      add\n        /* \"nestable.sol\":47304:47316  childAddress */\n      dup4\n        /* \"nestable.sol\":47267:47357  Child({... */\n      0xffffffffffffffffffffffffffffffffffffffff\n      and\n      dup2\n      mstore\n      pop\n        /* \"nestable.sol\":47246:47357  Child memory child = Child({... */\n      swap1\n      pop\n        /* \"nestable.sol\":47368:47416  _beforeAddChild(parentId, childAddress, childId) */\n      tag_201\n        /* \"nestable.sol\":47384:47392  parentId */\n      dup6\n        /* \"nestable.sol\":47394:47406  childAddress */\n      dup4\n        /* \"nestable.sol\":47408:47415  childId */\n      dup7\n        /* \"nestable.sol\":47368:47383  _beforeAddChild */\n      tag_202\n        /* \"nestable.sol\":47368:47416  _beforeAddChild(parentId, childAddress, childId) */\n      jump\t// in\n    tag_201:\n        /* \"nestable.sol\":47427:47441  uint256 length */\n      0x00\n        /* \"nestable.sol\":47444:47471  pendingChildrenOf(parentId) */\n      tag_203\n        /* \"nestable.sol\":47462:47470  parentId */\n      dup7\n        /* \"nestable.sol\":47444:47461  pendingChildrenOf */\n      tag_74\n        /* \"nestable.sol\":47444:47471  pendingChildrenOf(parentId) */\n      jump\t// in\n    tag_203:\n        /* \"nestable.sol\":47444:47478  pendingChildrenOf(parentId).length */\n      mload\n        /* \"nestable.sol\":47427:47478  uint256 length = pendingChildrenOf(parentId).length */\n      swap1\n      pop\n        /* \"nestable.sol\":47502:47505  128 */\n      0x80\n        /* \"nestable.sol\":47493:47499  length */\n      dup2\n        /* \"nestable.sol\":47493:47505  length < 128 */\n      lt\n        /* \"nestable.sol\":47489:47635  if (length < 128) {... */\n      iszero\n      tag_204\n      jumpi\n        /* \"nestable.sol\":47521:47537  _pendingChildren */\n      0x05\n        /* \"nestable.sol\":47521:47547  _pendingChildren[parentId] */\n      0x00\n        /* \"nestable.sol\":47538:47546  parentId */\n      dup8\n        /* \"nestable.sol\":47521:47547  _pendingChildren[parentId] */\n      dup2\n      mstore\n      0x20\n      add\n      swap1\n      dup2\n      mstore\n      0x20\n      add\n      0x00\n      keccak256\n        /* \"nestable.sol\":47553:47558  child */\n      dup3\n        /* \"nestable.sol\":47521:47559  _pendingChildren[parentId].push(child) */\n      swap1\n      dup1\n      0x01\n      dup2\n      sload\n      add\n      dup1\n      dup3\n      sstore\n      dup1\n      swap2\n      pop\n      pop\n      0x01\n      swap1\n      sub\n      swap1\n      0x00\n      mstore\n      keccak256(0x00, 0x20)\n      swap1\n      0x02\n      mul\n      add\n      0x00\n      swap1\n      swap2\n      swap1\n      swap2\n      swap1\n      swap2\n      pop\n      0x00\n      dup3\n      add\n      mload\n      dup2\n      0x00\n      add\n      sstore\n      0x20\n      dup3\n      add\n      mload\n      dup2\n      0x01\n      add\n      exp(0x0100, 0x00)\n      dup2\n      sload\n      dup2\n      0xffffffffffffffffffffffffffffffffffffffff\n      mul\n      not\n      and\n      swap1\n      dup4\n      0xffffffffffffffffffffffffffffffffffffffff\n      and\n      mul\n      or\n      swap1\n      sstore\n      pop\n      pop\n      pop\n        /* \"nestable.sol\":47489:47635  if (length < 128) {... */\n      jump(tag_206)\n    tag_204:\n        /* \"nestable.sol\":47597:47624  MaxPendingChildrenReached() */\n      mload(0x40)\n      0x98674b3500000000000000000000000000000000000000000000000000000000\n      dup2\n      mstore\n      0x04\n      add\n      mload(0x40)\n      dup1\n      swap2\n      sub\n      swap1\n      revert\n        /* \"nestable.sol\":47489:47635  if (length < 128) {... */\n    tag_206:\n        /* \"nestable.sol\":47759:47766  childId */\n      dup5\n        /* \"nestable.sol\":47745:47757  childAddress */\n      dup4\n        /* \"nestable.sol\":47713:47767  ChildProposed(parentId, length, childAddress, childId) */\n      0xffffffffffffffffffffffffffffffffffffffff\n      and\n        /* \"nestable.sol\":47727:47735  parentId */\n      dup8\n        /* \"nestable.sol\":47713:47767  ChildProposed(parentId, length, childAddress, childId) */\n      0xe65085e689b77b126ba0bac3b079aa8288f19f4d5445af11c76003f8ab3075dd\n        /* \"nestable.sol\":47737:47743  length */\n      dup5\n        /* \"nestable.sol\":47713:47767  ChildProposed(parentId, length, childAddress, childId) */\n      mload(0x40)\n      tag_207\n      swap2\n      swap1\n      tag_94\n      jump\t// in\n    tag_207:\n      mload(0x40)\n      dup1\n      swap2\n      sub\n      swap1\n      log4\n        /* \"nestable.sol\":47778:47825  _afterAddChild(parentId, childAddress, childId) */\n      tag_208\n        /* \"nestable.sol\":47793:47801  parentId */\n      dup7\n        /* \"nestable.sol\":47803:47815  childAddress */\n      dup5\n        /* \"nestable.sol\":47817:47824  childId */\n      dup8\n        /* \"nestable.sol\":47778:47792  _afterAddChild */\n      tag_209\n        /* \"nestable.sol\":47778:47825  _afterAddChild(parentId, childAddress, childId) */\n      jump\t// in\n    tag_208:\n        /* \"nestable.sol\":47091:47832  {... */\n      pop\n      pop\n      pop\n        /* \"nestable.sol\":46974:47832  function addChild(... */\n      pop\n      pop\n      pop\n      jump\t// out\n        /* \"nestable.sol\":57736:57926  function childrenOf(... */\n    tag_87:\n        /* \"nestable.sol\":57817:57831  Child[] memory */\n      0x60\n        /* \"nestable.sol\":57843:57866  Child[] memory children */\n      0x00\n        /* \"nestable.sol\":57869:57884  _activeChildren */\n      0x04\n        /* \"nestable.sol\":57869:57894  _activeChildren[parentId] */\n      0x00\n        /* \"nestable.sol\":57885:57893  parentId */\n      dup5\n        /* \"nestable.sol\":57869:57894  _activeChildren[parentId] */\n      dup2\n      mstore\n      0x20\n      add\n      swap1\n      dup2\n      mstore\n      0x20\n      add\n      0x00\n      keccak256\n        /* \"nestable.sol\":57843:57894  Child[] memory children = _activeChildren[parentId] */\n      dup1\n      sload\n      dup1\n      0x20\n      mul\n      0x20\n      add\n      mload(0x40)\n      swap1\n      dup2\n      add\n      0x40\n      mstore\n      dup1\n      swap3\n      swap2\n      swap1\n      dup2\n      dup2\n      mstore\n      0x20\n      add\n      0x00\n      swap1\n    tag_211:\n      dup3\n      dup3\n      lt\n      iszero\n      tag_212\n      jumpi\n      dup4\n      dup3\n      swap1\n      0x00\n      mstore\n      keccak256(0x00, 0x20)\n      swap1\n      0x02\n      mul\n      add\n      mload(0x40)\n      dup1\n      0x40\n      add\n      0x40\n      mstore\n      swap1\n      dup2\n      0x00\n      dup3\n      add\n      sload\n      dup2\n      mstore\n      0x20\n      add\n      0x01\n      dup3\n      add\n      0x00\n      swap1\n      sload\n      swap1\n      0x0100\n      exp\n      swap1\n      div\n      0xffffffffffffffffffffffffffffffffffffffff\n      and\n      0xffffffffffffffffffffffffffffffffffffffff\n      and\n      0xffffffffffffffffffffffffffffffffffffffff\n      and\n      dup2\n      mstore\n      pop\n      pop\n      dup2\n      mstore\n      0x20\n      add\n      swap1\n      0x01\n      add\n      swap1\n      jump(tag_211)\n    tag_212:\n      pop\n      pop\n      pop\n      pop\n      swap1\n      pop\n        /* \"nestable.sol\":57911:57919  children */\n      dup1\n        /* \"nestable.sol\":57904:57919  return children */\n      swap2\n      pop\n      pop\n        /* \"nestable.sol\":57736:57926  function childrenOf(... */\n      swap2\n      swap1\n      pop\n      jump\t// out\n        /* \"nestable.sol\":19488:19677  function balanceOf(address owner) public view virtual returns (uint256) {... */\n    tag_92:\n        /* \"nestable.sol\":19551:19558  uint256 */\n      0x00\n        /* \"nestable.sol\":19591:19592  0 */\n      dup1\n        /* \"nestable.sol\":19574:19593  owner == address(0) */\n      0xffffffffffffffffffffffffffffffffffffffff\n      and\n        /* \"nestable.sol\":19574:19579  owner */\n      dup3\n        /* \"nestable.sol\":19574:19593  owner == address(0) */\n      0xffffffffffffffffffffffffffffffffffffffff\n      and\n      sub\n        /* \"nestable.sol\":19570:19637  if (owner == address(0)) revert ERC721AddressZeroIsNotaValidOwner() */\n      tag_215\n      jumpi\n        /* \"nestable.sol\":19602:19637  ERC721AddressZeroIsNotaValidOwner() */\n      mload(0x40)\n      0x7772286600000000000000000000000000000000000000000000000000000000\n      dup2\n      mstore\n      0x04\n      add\n      mload(0x40)\n      dup1\n      swap2\n      sub\n      swap1\n      revert\n        /* \"nestable.sol\":19570:19637  if (owner == address(0)) revert ERC721AddressZeroIsNotaValidOwner() */\n    tag_215:\n        /* \"nestable.sol\":19654:19663  _balances */\n      0x00\n        /* \"nestable.sol\":19654:19670  _balances[owner] */\n      dup1\n        /* \"nestable.sol\":19664:19669  owner */\n      dup4\n        /* \"nestable.sol\":19654:19670  _balances[owner] */\n      0xffffffffffffffffffffffffffffffffffffffff\n      and\n      0xffffffffffffffffffffffffffffffffffffffff\n      and\n      dup2\n      mstore\n      0x20\n      add\n      swap1\n      dup2\n      mstore\n      0x20\n      add\n      0x00\n      keccak256\n      sload\n        /* \"nestable.sol\":19647:19670  return _balances[owner] */\n      swap1\n      pop\n        /* \"nestable.sol\":19488:19677  function balanceOf(address owner) public view virtual returns (uint256) {... */\n      swap2\n      swap1\n      pop\n      jump\t// out\n        /* \"nestable.sol\":51118:51288  function rejectAllChildren(uint256 tokenId, uint256 maxRejections) public virtual onlyApprovedOrOwner(tokenId) {... */\n    tag_97:\n        /* \"nestable.sol\":51220:51227  tokenId */\n      dup2\n        /* \"nestable.sol\":17968:17997  _onlyApprovedOrOwner(tokenId) */\n      tag_217\n        /* \"nestable.sol\":17989:17996  tokenId */\n      dup2\n        /* \"nestable.sol\":17968:17988  _onlyApprovedOrOwner */\n      tag_218\n        /* \"nestable.sol\":17968:17997  _onlyApprovedOrOwner(tokenId) */\n      jump\t// in\n    tag_217:\n        /* \"nestable.sol\":51239:51281  _rejectAllChildren(tokenId, maxRejections) */\n      tag_220\n        /* \"nestable.sol\":51258:51265  tokenId */\n      dup4\n        /* \"nestable.sol\":51267:51280  maxRejections */\n      dup4\n        /* \"nestable.sol\":51239:51257  _rejectAllChildren */\n      tag_221\n        /* \"nestable.sol\":51239:51281  _rejectAllChildren(tokenId, maxRejections) */\n      jump\t// in\n    tag_220:\n        /* \"nestable.sol\":51118:51288  function rejectAllChildren(uint256 tokenId, uint256 maxRejections) public virtual onlyApprovedOrOwner(tokenId) {... */\n      pop\n      pop\n      pop\n      jump\t// out\n        /* \"nestable.sol\":39782:40060  function setApprovalForAll(address operator, bool approved) public virtual {... */\n    tag_101:\n        /* \"nestable.sol\":39887:39895  operator */\n      dup2\n        /* \"nestable.sol\":39871:39895  _msgSender() == operator */\n      0xffffffffffffffffffffffffffffffffffffffff\n      and\n        /* \"nestable.sol\":39871:39883  _msgSender() */\n      tag_223\n        /* \"nestable.sol\":39871:39881  _msgSender */\n      tag_157\n        /* \"nestable.sol\":39871:39883  _msgSender() */\n      jump\t// in\n    tag_223:\n        /* \"nestable.sol\":39871:39895  _msgSender() == operator */\n      0xffffffffffffffffffffffffffffffffffffffff\n      and\n      sub\n        /* \"nestable.sol\":39867:39927  if (_msgSender() == operator) revert ERC721ApproveToCaller() */\n      tag_224\n      jumpi\n        /* \"nestable.sol\":39904:39927  ERC721ApproveToCaller() */\n      mload(0x40)\n      0x2dee66e400000000000000000000000000000000000000000000000000000000\n      dup2\n      mstore\n      0x04\n      add\n      mload(0x40)\n      dup1\n      swap2\n      sub\n      swap1\n      revert\n        /* \"nestable.sol\":39867:39927  if (_msgSender() == operator) revert ERC721ApproveToCaller() */\n    tag_224:\n        /* \"nestable.sol\":39982:39990  approved */\n      dup1\n        /* \"nestable.sol\":39937:39955  _operatorApprovals */\n      0x02\n        /* \"nestable.sol\":39937:39969  _operatorApprovals[_msgSender()] */\n      0x00\n        /* \"nestable.sol\":39956:39968  _msgSender() */\n      tag_225\n        /* \"nestable.sol\":39956:39966  _msgSender */\n      tag_157\n        /* \"nestable.sol\":39956:39968  _msgSender() */\n      jump\t// in\n    tag_225:\n        /* \"nestable.sol\":39937:39969  _operatorApprovals[_msgSender()] */\n      0xffffffffffffffffffffffffffffffffffffffff\n      and\n      0xffffffffffffffffffffffffffffffffffffffff\n      and\n      dup2\n      mstore\n      0x20\n      add\n      swap1\n      dup2\n      mstore\n      0x20\n      add\n      0x00\n      keccak256\n        /* \"nestable.sol\":39937:39979  _operatorApprovals[_msgSender()][operator] */\n      0x00\n        /* \"nestable.sol\":39970:39978  operator */\n      dup5\n        /* \"nestable.sol\":39937:39979  _operatorApprovals[_msgSender()][operator] */\n      0xffffffffffffffffffffffffffffffffffffffff\n      and\n      0xffffffffffffffffffffffffffffffffffffffff\n      and\n      dup2\n      mstore\n      0x20\n      add\n      swap1\n      dup2\n      mstore\n      0x20\n      add\n      0x00\n      keccak256\n      0x00\n        /* \"nestable.sol\":39937:39990  _operatorApprovals[_msgSender()][operator] = approved */\n      0x0100\n      exp\n      dup2\n      sload\n      dup2\n      0xff\n      mul\n      not\n      and\n      swap1\n      dup4\n      iszero\n      iszero\n      mul\n      or\n      swap1\n      sstore\n      pop\n        /* \"nestable.sol\":40034:40042  operator */\n      dup2\n        /* \"nestable.sol\":40005:40053  ApprovalForAll(_msgSender(), operator, approved) */\n      0xffffffffffffffffffffffffffffffffffffffff\n      and\n        /* \"nestable.sol\":40020:40032  _msgSender() */\n      tag_226\n        /* \"nestable.sol\":40020:40030  _msgSender */\n      tag_157\n        /* \"nestable.sol\":40020:40032  _msgSender() */\n      jump\t// in\n    tag_226:\n        /* \"nestable.sol\":40005:40053  ApprovalForAll(_msgSender(), operator, approved) */\n      0xffffffffffffffffffffffffffffffffffffffff\n      and\n      0x17307eab39ab6107e8899845ad3d59bd9653f200f220920489ca2b5937696c31\n        /* \"nestable.sol\":40044:40052  approved */\n      dup4\n        /* \"nestable.sol\":40005:40053  ApprovalForAll(_msgSender(), operator, approved) */\n      mload(0x40)\n      tag_227\n      swap2\n      swap1\n      tag_37\n      jump\t// in\n    tag_227:\n      mload(0x40)\n      dup1\n      swap2\n      sub\n      swap1\n      log3\n        /* \"nestable.sol\":39782:40060  function setApprovalForAll(address operator, bool approved) public virtual {... */\n      pop\n      pop\n      jump\t// out\n        /* \"nestable.sol\":60165:60487  function pendingChildOf(... */\n    tag_104:\n        /* \"nestable.sol\":60273:60285  Child memory */\n      tag_228\n      tag_170\n      jump\t// in\n    tag_228:\n        /* \"nestable.sol\":60339:60344  index */\n      dup2\n        /* \"nestable.sol\":60301:60328  pendingChildrenOf(parentId) */\n      tag_230\n        /* \"nestable.sol\":60319:60327  parentId */\n      dup5\n        /* \"nestable.sol\":60301:60318  pendingChildrenOf */\n      tag_74\n        /* \"nestable.sol\":60301:60328  pendingChildrenOf(parentId) */\n      jump\t// in\n    tag_230:\n        /* \"nestable.sol\":60301:60335  pendingChildrenOf(parentId).length */\n      mload\n        /* \"nestable.sol\":60301:60344  pendingChildrenOf(parentId).length <= index */\n      gt\n        /* \"nestable.sol\":60297:60394  if (pendingChildrenOf(parentId).length <= index)... */\n      tag_231\n      jumpi\n        /* \"nestable.sol\":60365:60394  PendingChildIndexOutOfRange() */\n      mload(0x40)\n      0x9136d24f00000000000000000000000000000000000000000000000000000000\n      dup2\n      mstore\n      0x04\n      add\n      mload(0x40)\n      dup1\n      swap2\n      sub\n      swap1\n      revert\n        /* \"nestable.sol\":60297:60394  if (pendingChildrenOf(parentId).length <= index)... */\n    tag_231:\n        /* \"nestable.sol\":60404:60422  Child memory child */\n      0x00\n        /* \"nestable.sol\":60425:60441  _pendingChildren */\n      0x05\n        /* \"nestable.sol\":60425:60451  _pendingChildren[parentId] */\n      0x00\n        /* \"nestable.sol\":60442:60450  parentId */\n      dup6\n        /* \"nestable.sol\":60425:60451  _pendingChildren[parentId] */\n      dup2\n      mstore\n      0x20\n      add\n      swap1\n      dup2\n      mstore\n      0x20\n      add\n      0x00\n      keccak256\n        /* \"nestable.sol\":60452:60457  index */\n      dup4\n        /* \"nestable.sol\":60425:60458  _pendingChildren[parentId][index] */\n      dup2\n      sload\n      dup2\n      lt\n      tag_232\n      jumpi\n      tag_233\n      tag_176\n      jump\t// in\n    tag_233:\n    tag_232:\n      swap1\n      0x00\n      mstore\n      keccak256(0x00, 0x20)\n      swap1\n      0x02\n      mul\n      add\n        /* \"nestable.sol\":60404:60458  Child memory child = _pendingChildren[parentId][index] */\n      mload(0x40)\n      dup1\n      0x40\n      add\n      0x40\n      mstore\n      swap1\n      dup2\n      0x00\n      dup3\n      add\n      sload\n      dup2\n      mstore\n      0x20\n      add\n      0x01\n      dup3\n      add\n      0x00\n      swap1\n      sload\n      swap1\n      0x0100\n      exp\n      swap1\n      div\n      0xffffffffffffffffffffffffffffffffffffffff\n      and\n      0xffffffffffffffffffffffffffffffffffffffff\n      and\n      0xffffffffffffffffffffffffffffffffffffffff\n      and\n      dup2\n      mstore\n      pop\n      pop\n      swap1\n      pop\n        /* \"nestable.sol\":60475:60480  child */\n      dup1\n        /* \"nestable.sol\":60468:60480  return child */\n      swap2\n      pop\n      pop\n        /* \"nestable.sol\":60165:60487  function pendingChildOf(... */\n      swap3\n      swap2\n      pop\n      pop\n      jump\t// out\n        /* \"nestable.sol\":35749:35952  function burn(... */\n    tag_108:\n        /* \"nestable.sol\":35887:35894  uint256 */\n      0x00\n        /* \"nestable.sol\":35869:35876  tokenId */\n      dup3\n        /* \"nestable.sol\":18908:18943  _onlyApprovedOrDirectOwner(tokenId) */\n      tag_236\n        /* \"nestable.sol\":18935:18942  tokenId */\n      dup2\n        /* \"nestable.sol\":18908:18934  _onlyApprovedOrDirectOwner */\n      tag_145\n        /* \"nestable.sol\":18908:18943  _onlyApprovedOrDirectOwner(tokenId) */\n      jump\t// in\n    tag_236:\n        /* \"nestable.sol\":35913:35945  _burn(tokenId, maxChildrenBurns) */\n      tag_238\n        /* \"nestable.sol\":35919:35926  tokenId */\n      dup5\n        /* \"nestable.sol\":35928:35944  maxChildrenBurns */\n      dup5\n        /* \"nestable.sol\":35913:35918  _burn */\n      tag_239\n        /* \"nestable.sol\":35913:35945  _burn(tokenId, maxChildrenBurns) */\n      jump\t// in\n    tag_238:\n        /* \"nestable.sol\":35906:35945  return _burn(tokenId, maxChildrenBurns) */\n      swap2\n      pop\n        /* \"nestable.sol\":35749:35952  function burn(... */\n      pop\n      swap3\n      swap2\n      pop\n      pop\n      jump\t// out\n        /* \"nestable.sol\":29465:29573  function _safeMint(address to, uint256 tokenId) external virtual {... */\n    tag_112:\n        /* \"nestable.sol\":29540:29566  _safeMint(to, tokenId, \"\") */\n      tag_241\n        /* \"nestable.sol\":29550:29552  to */\n      dup3\n        /* \"nestable.sol\":29554:29561  tokenId */\n      dup3\n        /* \"nestable.sol\":29540:29566  _safeMint(to, tokenId, \"\") */\n      mload(0x40)\n      dup1\n      0x20\n      add\n      0x40\n      mstore\n      dup1\n      0x00\n      dup2\n      mstore\n      pop\n        /* \"nestable.sol\":29540:29549  _safeMint */\n      tag_242\n        /* \"nestable.sol\":29540:29566  _safeMint(to, tokenId, \"\") */\n      jump\t// in\n    tag_241:\n        /* \"nestable.sol\":29465:29573  function _safeMint(address to, uint256 tokenId) external virtual {... */\n      pop\n      pop\n      jump\t// out\n        /* \"nestable.sol\":20305:20536  function safeTransferFrom(... */\n    tag_116:\n        /* \"nestable.sol\":20472:20479  tokenId */\n      dup2\n        /* \"nestable.sol\":18908:18943  _onlyApprovedOrDirectOwner(tokenId) */\n      tag_244\n        /* \"nestable.sol\":18935:18942  tokenId */\n      dup2\n        /* \"nestable.sol\":18908:18934  _onlyApprovedOrDirectOwner */\n      tag_145\n        /* \"nestable.sol\":18908:18943  _onlyApprovedOrDirectOwner(tokenId) */\n      jump\t// in\n    tag_244:\n        /* \"nestable.sol\":20491:20529  _safeTransfer(from, to, tokenId, data) */\n      tag_246\n        /* \"nestable.sol\":20505:20509  from */\n      dup6\n        /* \"nestable.sol\":20511:20513  to */\n      dup6\n        /* \"nestable.sol\":20515:20522  tokenId */\n      dup6\n        /* \"nestable.sol\":20524:20528  data */\n      dup6\n        /* \"nestable.sol\":20491:20504  _safeTransfer */\n      tag_247\n        /* \"nestable.sol\":20491:20529  _safeTransfer(from, to, tokenId, data) */\n      jump\t// in\n    tag_246:\n        /* \"nestable.sol\":20305:20536  function safeTransferFrom(... */\n      pop\n      pop\n      pop\n      pop\n      pop\n      jump\t// out\n        /* \"nestable.sol\":53272:53772  function transferChild(... */\n    tag_120:\n        /* \"nestable.sol\":53546:53553  tokenId */\n      dup8\n        /* \"nestable.sol\":17968:17997  _onlyApprovedOrOwner(tokenId) */\n      tag_249\n        /* \"nestable.sol\":17989:17996  tokenId */\n      dup2\n        /* \"nestable.sol\":17968:17988  _onlyApprovedOrOwner */\n      tag_218\n        /* \"nestable.sol\":17968:17997  _onlyApprovedOrOwner(tokenId) */\n      jump\t// in\n    tag_249:\n        /* \"nestable.sol\":53565:53765  _transferChild(... */\n      tag_251\n        /* \"nestable.sol\":53593:53600  tokenId */\n      dup10\n        /* \"nestable.sol\":53614:53616  to */\n      dup10\n        /* \"nestable.sol\":53630:53643  destinationId */\n      dup10\n        /* \"nestable.sol\":53657:53667  childIndex */\n      dup10\n        /* \"nestable.sol\":53681:53693  childAddress */\n      dup10\n        /* \"nestable.sol\":53707:53714  childId */\n      dup10\n        /* \"nestable.sol\":53728:53737  isPending */\n      dup10\n        /* \"nestable.sol\":53751:53755  data */\n      dup10\n        /* \"nestable.sol\":53565:53579  _transferChild */\n      tag_252\n        /* \"nestable.sol\":53565:53765  _transferChild(... */\n      jump\t// in\n    tag_251:\n        /* \"nestable.sol\":53272:53772  function transferChild(... */\n      pop\n      pop\n      pop\n      pop\n      pop\n      pop\n      pop\n      pop\n      pop\n      jump\t// out\n        /* \"nestable.sol\":48594:48849  function acceptChild(... */\n    tag_124:\n        /* \"nestable.sol\":48765:48773  parentId */\n      dup4\n        /* \"nestable.sol\":17968:17997  _onlyApprovedOrOwner(tokenId) */\n      tag_254\n        /* \"nestable.sol\":17989:17996  tokenId */\n      dup2\n        /* \"nestable.sol\":17968:17988  _onlyApprovedOrOwner */\n      tag_218\n        /* \"nestable.sol\":17968:17997  _onlyApprovedOrOwner(tokenId) */\n      jump\t// in\n    tag_254:\n        /* \"nestable.sol\":48785:48842  _acceptChild(parentId, childIndex, childAddress, childId) */\n      tag_256\n        /* \"nestable.sol\":48798:48806  parentId */\n      dup6\n        /* \"nestable.sol\":48808:48818  childIndex */\n      dup6\n        /* \"nestable.sol\":48820:48832  childAddress */\n      dup6\n        /* \"nestable.sol\":48834:48841  childId */\n      dup6\n        /* \"nestable.sol\":48785:48797  _acceptChild */\n      tag_257\n        /* \"nestable.sol\":48785:48842  _acceptChild(parentId, childIndex, childAddress, childId) */\n      jump\t// in\n    tag_256:\n        /* \"nestable.sol\":48594:48849  function acceptChild(... */\n      pop\n      pop\n      pop\n      pop\n      pop\n      jump\t// out\n        /* \"nestable.sol\":40109:40284  function isApprovedForAll(... */\n    tag_128:\n        /* \"nestable.sol\":40219:40223  bool */\n      0x00\n        /* \"nestable.sol\":40242:40260  _operatorApprovals */\n      0x02\n        /* \"nestable.sol\":40242:40267  _operatorApprovals[owner] */\n      0x00\n        /* \"nestable.sol\":40261:40266  owner */\n      dup5\n        /* \"nestable.sol\":40242:40267  _operatorApprovals[owner] */\n      0xffffffffffffffffffffffffffffffffffffffff\n      and\n      0xffffffffffffffffffffffffffffffffffffffff\n      and\n      dup2\n      mstore\n      0x20\n      add\n      swap1\n      dup2\n      mstore\n      0x20\n      add\n      0x00\n      keccak256\n        /* \"nestable.sol\":40242:40277  _operatorApprovals[owner][operator] */\n      0x00\n        /* \"nestable.sol\":40268:40276  operator */\n      dup4\n        /* \"nestable.sol\":40242:40277  _operatorApprovals[owner][operator] */\n      0xffffffffffffffffffffffffffffffffffffffff\n      and\n      0xffffffffffffffffffffffffffffffffffffffff\n      and\n      dup2\n      mstore\n      0x20\n      add\n      swap1\n      dup2\n      mstore\n      0x20\n      add\n      0x00\n      keccak256\n      0x00\n      swap1\n      sload\n      swap1\n      0x0100\n      exp\n      swap1\n      div\n      0xff\n      and\n        /* \"nestable.sol\":40235:40277  return _operatorApprovals[owner][operator] */\n      swap1\n      pop\n        /* \"nestable.sol\":40109:40284  function isApprovedForAll(... */\n      swap3\n      swap2\n      pop\n      pop\n      jump\t// out\n        /* \"nestable.sol\":31332:31854  function _nestMint(... */\n    tag_133:\n        /* \"nestable.sol\":31567:31582  to.isContract() */\n      tag_260\n        /* \"nestable.sol\":31567:31569  to */\n      dup5\n        /* \"nestable.sol\":31567:31580  to.isContract */\n      0xffffffffffffffffffffffffffffffffffffffff\n      and\n      tag_199\n        /* \"nestable.sol\":31567:31582  to.isContract() */\n      jump\t// in\n    tag_260:\n        /* \"nestable.sol\":31562:31606  if (!to.isContract()) revert IsNotContract() */\n      tag_261\n      jumpi\n        /* \"nestable.sol\":31591:31606  IsNotContract() */\n      mload(0x40)\n      0x80275d3a00000000000000000000000000000000000000000000000000000000\n      dup2\n      mstore\n      0x04\n      add\n      mload(0x40)\n      dup1\n      swap2\n      sub\n      swap1\n      revert\n        /* \"nestable.sol\":31562:31606  if (!to.isContract()) revert IsNotContract() */\n    tag_261:\n        /* \"nestable.sol\":31629:31631  to */\n      dup4\n        /* \"nestable.sol\":31621:31650  IERC165(to).supportsInterface */\n      0xffffffffffffffffffffffffffffffffffffffff\n      and\n      0x01ffc9a7\n        /* \"nestable.sol\":31651:31677  type(IERC6059).interfaceId */\n      0x42b0e56f00000000000000000000000000000000000000000000000000000000\n        /* \"nestable.sol\":31621:31678  IERC165(to).supportsInterface(type(IERC6059).interfaceId) */\n      mload(0x40)\n      dup3\n      0xffffffff\n      and\n      0xe0\n      shl\n      dup2\n      mstore\n      0x04\n      add\n      tag_262\n      swap2\n      swap1\n      tag_263\n      jump\t// in\n    tag_262:\n      0x20\n      mload(0x40)\n      dup1\n      dup4\n      sub\n      dup2\n      dup7\n      gas\n      staticcall\n      iszero\n      dup1\n      iszero\n      tag_265\n      jumpi\n      returndatasize\n      0x00\n      dup1\n      returndatacopy\n      revert(0x00, returndatasize)\n    tag_265:\n      pop\n      pop\n      pop\n      pop\n      mload(0x40)\n      returndatasize\n      not(0x1f)\n      0x1f\n      dup3\n      add\n      and\n      dup3\n      add\n      dup1\n      0x40\n      mstore\n      pop\n      dup2\n      add\n      swap1\n      tag_266\n      swap2\n      swap1\n      tag_267\n      jump\t// in\n    tag_266:\n        /* \"nestable.sol\":31616:31729  if (!IERC165(to).supportsInterface(type(IERC6059).interfaceId))... */\n      tag_268\n      jumpi\n        /* \"nestable.sol\":31699:31729  MintToNonNestableImplementer() */\n      mload(0x40)\n      0x850cccef00000000000000000000000000000000000000000000000000000000\n      dup2\n      mstore\n      0x04\n      add\n      mload(0x40)\n      dup1\n      swap2\n      sub\n      swap1\n      revert\n        /* \"nestable.sol\":31616:31729  if (!IERC165(to).supportsInterface(type(IERC6059).interfaceId))... */\n    tag_268:\n        /* \"nestable.sol\":31740:31778  _innerMint(to, tokenId, destinationId) */\n      tag_269\n        /* \"nestable.sol\":31751:31753  to */\n      dup5\n        /* \"nestable.sol\":31755:31762  tokenId */\n      dup5\n        /* \"nestable.sol\":31764:31777  destinationId */\n      dup5\n        /* \"nestable.sol\":31740:31750  _innerMint */\n      tag_270\n        /* \"nestable.sol\":31740:31778  _innerMint(to, tokenId, destinationId) */\n      jump\t// in\n    tag_269:\n        /* \"nestable.sol\":31788:31847  _sendToNFT(address(0), to, 0, destinationId, tokenId, data) */\n      tag_271\n        /* \"nestable.sol\":31807:31808  0 */\n      0x00\n        /* \"nestable.sol\":31811:31813  to */\n      dup6\n        /* \"nestable.sol\":31815:31816  0 */\n      0x00\n        /* \"nestable.sol\":31818:31831  destinationId */\n      dup6\n        /* \"nestable.sol\":31833:31840  tokenId */\n      dup8\n        /* \"nestable.sol\":31842:31846  data */\n      dup7\n        /* \"nestable.sol\":31788:31798  _sendToNFT */\n      tag_272\n        /* \"nestable.sol\":31788:31847  _sendToNFT(address(0), to, 0, destinationId, tokenId, data) */\n      jump\t// in\n    tag_271:\n        /* \"nestable.sol\":31332:31854  function _nestMint(... */\n      pop\n      pop\n      pop\n      pop\n      jump\t// out\n        /* \"nestable.sol\":34608:34930  function directOwnerOf(... */\n    tag_136:\n        /* \"nestable.sol\":34691:34698  address */\n      0x00\n        /* \"nestable.sol\":34700:34707  uint256 */\n      dup1\n        /* \"nestable.sol\":34709:34713  bool */\n      0x00\n        /* \"nestable.sol\":34725:34749  DirectOwner memory owner */\n      dup1\n        /* \"nestable.sol\":34752:34765  _directOwners */\n      0x03\n        /* \"nestable.sol\":34752:34774  _directOwners[tokenId] */\n      0x00\n        /* \"nestable.sol\":34766:34773  tokenId */\n      dup7\n        /* \"nestable.sol\":34752:34774  _directOwners[tokenId] */\n      dup2\n      mstore\n      0x20\n      add\n      swap1\n      dup2\n      mstore\n      0x20\n      add\n      0x00\n      keccak256\n        /* \"nestable.sol\":34725:34774  DirectOwner memory owner = _directOwners[tokenId] */\n      mload(0x40)\n      dup1\n      0x40\n      add\n      0x40\n      mstore\n      swap1\n      dup2\n      0x00\n      dup3\n      add\n      sload\n      dup2\n      mstore\n      0x20\n      add\n      0x01\n      dup3\n      add\n      0x00\n      swap1\n      sload\n      swap1\n      0x0100\n      exp\n      swap1\n      div\n      0xffffffffffffffffffffffffffffffffffffffff\n      and\n      0xffffffffffffffffffffffffffffffffffffffff\n      and\n      0xffffffffffffffffffffffffffffffffffffffff\n      and\n      dup2\n      mstore\n      pop\n      pop\n      swap1\n      pop\n        /* \"nestable.sol\":34818:34819  0 */\n      0x00\n        /* \"nestable.sol\":34788:34820  owner.ownerAddress == address(0) */\n      0xffffffffffffffffffffffffffffffffffffffff\n      and\n        /* \"nestable.sol\":34788:34793  owner */\n      dup2\n        /* \"nestable.sol\":34788:34806  owner.ownerAddress */\n      0x20\n      add\n      mload\n        /* \"nestable.sol\":34788:34820  owner.ownerAddress == address(0) */\n      0xffffffffffffffffffffffffffffffffffffffff\n      and\n      sub\n        /* \"nestable.sol\":34784:34851  if (owner.ownerAddress == address(0)) revert ERC721InvalidTokenId() */\n      tag_274\n      jumpi\n        /* \"nestable.sol\":34829:34851  ERC721InvalidTokenId() */\n      mload(0x40)\n      0x89ba7e1000000000000000000000000000000000000000000000000000000000\n      dup2\n      mstore\n      0x04\n      add\n      mload(0x40)\n      dup1\n      swap2\n      sub\n      swap1\n      revert\n        /* \"nestable.sol\":34784:34851  if (owner.ownerAddress == address(0)) revert ERC721InvalidTokenId() */\n    tag_274:\n        /* \"nestable.sol\":34869:34874  owner */\n      dup1\n        /* \"nestable.sol\":34869:34887  owner.ownerAddress */\n      0x20\n      add\n      mload\n        /* \"nestable.sol\":34889:34894  owner */\n      dup2\n        /* \"nestable.sol\":34889:34902  owner.tokenId */\n      0x00\n      add\n      mload\n        /* \"nestable.sol\":34921:34922  0 */\n      0x00\n        /* \"nestable.sol\":34904:34909  owner */\n      dup4\n        /* \"nestable.sol\":34904:34917  owner.tokenId */\n      0x00\n      add\n      mload\n        /* \"nestable.sol\":34904:34922  owner.tokenId != 0 */\n      eq\n      iszero\n        /* \"nestable.sol\":34861:34923  return (owner.ownerAddress, owner.tokenId, owner.tokenId != 0) */\n      swap4\n      pop\n      swap4\n      pop\n      swap4\n      pop\n      pop\n        /* \"nestable.sol\":34608:34930  function directOwnerOf(... */\n      swap2\n      swap4\n      swap1\n      swap3\n      pop\n      jump\t// out\n        /* \"nestable.sol\":18487:18669  function _onlyApprovedOrDirectOwner(uint256 tokenId) private view {... */\n    tag_145:\n        /* \"nestable.sol\":18568:18615  _isApprovedOrDirectOwner(_msgSender(), tokenId) */\n      tag_276\n        /* \"nestable.sol\":18593:18605  _msgSender() */\n      tag_277\n        /* \"nestable.sol\":18593:18603  _msgSender */\n      tag_157\n        /* \"nestable.sol\":18593:18605  _msgSender() */\n      jump\t// in\n    tag_277:\n        /* \"nestable.sol\":18607:18614  tokenId */\n      dup3\n        /* \"nestable.sol\":18568:18592  _isApprovedOrDirectOwner */\n      tag_278\n        /* \"nestable.sol\":18568:18615  _isApprovedOrDirectOwner(_msgSender(), tokenId) */\n      jump\t// in\n    tag_276:\n        /* \"nestable.sol\":18563:18662  if (!_isApprovedOrDirectOwner(_msgSender(), tokenId))... */\n      tag_279\n      jumpi\n        /* \"nestable.sol\":18636:18662  NotApprovedOrDirectOwner() */\n      mload(0x40)\n      0x35d12e3f00000000000000000000000000000000000000000000000000000000\n      dup2\n      mstore\n      0x04\n      add\n      mload(0x40)\n      dup1\n      swap2\n      sub\n      swap1\n      revert\n        /* \"nestable.sol\":18563:18662  if (!_isApprovedOrDirectOwner(_msgSender(), tokenId))... */\n    tag_279:\n        /* \"nestable.sol\":18487:18669  function _onlyApprovedOrDirectOwner(uint256 tokenId) private view {... */\n      pop\n      jump\t// out\n        /* \"nestable.sol\":24634:25957  function _nestTransfer(... */\n    tag_148:\n        /* \"nestable.sol\":24816:24838  address immediateOwner */\n      0x00\n        /* \"nestable.sol\":24840:24856  uint256 parentId */\n      dup1\n        /* \"nestable.sol\":24862:24884  directOwnerOf(tokenId) */\n      tag_281\n        /* \"nestable.sol\":24876:24883  tokenId */\n      dup6\n        /* \"nestable.sol\":24862:24875  directOwnerOf */\n      tag_136\n        /* \"nestable.sol\":24862:24884  directOwnerOf(tokenId) */\n      jump\t// in\n    tag_281:\n        /* \"nestable.sol\":24815:24884  (address immediateOwner, uint256 parentId, ) = directOwnerOf(tokenId) */\n      pop\n      swap2\n      pop\n      swap2\n      pop\n        /* \"nestable.sol\":24916:24920  from */\n      dup7\n        /* \"nestable.sol\":24898:24920  immediateOwner != from */\n      0xffffffffffffffffffffffffffffffffffffffff\n      and\n        /* \"nestable.sol\":24898:24912  immediateOwner */\n      dup3\n        /* \"nestable.sol\":24898:24920  immediateOwner != from */\n      0xffffffffffffffffffffffffffffffffffffffff\n      and\n      eq\n        /* \"nestable.sol\":24894:24963  if (immediateOwner != from) revert ERC721TransferFromIncorrectOwner() */\n      tag_282\n      jumpi\n        /* \"nestable.sol\":24929:24963  ERC721TransferFromIncorrectOwner() */\n      mload(0x40)\n      0xe146af6f00000000000000000000000000000000000000000000000000000000\n      dup2\n      mstore\n      0x04\n      add\n      mload(0x40)\n      dup1\n      swap2\n      sub\n      swap1\n      revert\n        /* \"nestable.sol\":24894:24963  if (immediateOwner != from) revert ERC721TransferFromIncorrectOwner() */\n    tag_282:\n        /* \"nestable.sol\":24991:24992  0 */\n      0x00\n        /* \"nestable.sol\":24977:24993  to == address(0) */\n      0xffffffffffffffffffffffffffffffffffffffff\n      and\n        /* \"nestable.sol\":24977:24979  to */\n      dup7\n        /* \"nestable.sol\":24977:24993  to == address(0) */\n      0xffffffffffffffffffffffffffffffffffffffff\n      and\n      sub\n        /* \"nestable.sol\":24973:25034  if (to == address(0)) revert ERC721TransferToTheZeroAddress() */\n      tag_283\n      jumpi\n        /* \"nestable.sol\":25002:25034  ERC721TransferToTheZeroAddress() */\n      mload(0x40)\n      0xe3d91bfc00000000000000000000000000000000000000000000000000000000\n      dup2\n      mstore\n      0x04\n      add\n      mload(0x40)\n      dup1\n      swap2\n      sub\n      swap1\n      revert\n        /* \"nestable.sol\":24973:25034  if (to == address(0)) revert ERC721TransferToTheZeroAddress() */\n    tag_283:\n        /* \"nestable.sol\":25062:25066  this */\n      address\n        /* \"nestable.sol\":25048:25067  to == address(this) */\n      0xffffffffffffffffffffffffffffffffffffffff\n      and\n        /* \"nestable.sol\":25048:25050  to */\n      dup7\n        /* \"nestable.sol\":25048:25067  to == address(this) */\n      0xffffffffffffffffffffffffffffffffffffffff\n      and\n      eq\n        /* \"nestable.sol\":25048:25095  to == address(this) && tokenId == destinationId */\n      dup1\n      iszero\n      tag_284\n      jumpi\n      pop\n        /* \"nestable.sol\":25082:25095  destinationId */\n      dup4\n        /* \"nestable.sol\":25071:25078  tokenId */\n      dup6\n        /* \"nestable.sol\":25071:25095  tokenId == destinationId */\n      eq\n        /* \"nestable.sol\":25048:25095  to == address(this) && tokenId == destinationId */\n    tag_284:\n        /* \"nestable.sol\":25044:25140  if (to == address(this) && tokenId == destinationId)... */\n      iszero\n      tag_285\n      jumpi\n        /* \"nestable.sol\":25116:25140  NestableTransferToSelf() */\n      mload(0x40)\n      0x5eeb0df000000000000000000000000000000000000000000000000000000000\n      dup2\n      mstore\n      0x04\n      add\n      mload(0x40)\n      dup1\n      swap2\n      sub\n      swap1\n      revert\n        /* \"nestable.sol\":25044:25140  if (to == address(this) && tokenId == destinationId)... */\n    tag_285:\n        /* \"nestable.sol\":25271:25286  to.isContract() */\n      tag_286\n        /* \"nestable.sol\":25271:25273  to */\n      dup7\n        /* \"nestable.sol\":25271:25284  to.isContract */\n      0xffffffffffffffffffffffffffffffffffffffff\n      and\n      tag_199\n        /* \"nestable.sol\":25271:25286  to.isContract() */\n      jump\t// in\n    tag_286:\n        /* \"nestable.sol\":25266:25310  if (!to.isContract()) revert IsNotContract() */\n      tag_287\n      jumpi\n        /* \"nestable.sol\":25295:25310  IsNotContract() */\n      mload(0x40)\n      0x80275d3a00000000000000000000000000000000000000000000000000000000\n      dup2\n      mstore\n      0x04\n      add\n      mload(0x40)\n      dup1\n      swap2\n      sub\n      swap1\n      revert\n        /* \"nestable.sol\":25266:25310  if (!to.isContract()) revert IsNotContract() */\n    tag_287:\n        /* \"nestable.sol\":25333:25335  to */\n      dup6\n        /* \"nestable.sol\":25325:25354  IERC165(to).supportsInterface */\n      0xffffffffffffffffffffffffffffffffffffffff\n      and\n      0x01ffc9a7\n        /* \"nestable.sol\":25355:25381  type(IERC6059).interfaceId */\n      0x42b0e56f00000000000000000000000000000000000000000000000000000000\n        /* \"nestable.sol\":25325:25382  IERC165(to).supportsInterface(type(IERC6059).interfaceId) */\n      mload(0x40)\n      dup3\n      0xffffffff\n      and\n      0xe0\n      shl\n      dup2\n      mstore\n      0x04\n      add\n      tag_288\n      swap2\n      swap1\n      tag_263\n      jump\t// in\n    tag_288:\n      0x20\n      mload(0x40)\n      dup1\n      dup4\n      sub\n      dup2\n      dup7\n      gas\n      staticcall\n      iszero\n      dup1\n      iszero\n      tag_290\n      jumpi\n      returndatasize\n      0x00\n      dup1\n      returndatacopy\n      revert(0x00, returndatasize)\n    tag_290:\n      pop\n      pop\n      pop\n      pop\n      mload(0x40)\n      returndatasize\n      not(0x1f)\n      0x1f\n      dup3\n      add\n      and\n      dup3\n      add\n      dup1\n      0x40\n      mstore\n      pop\n      dup2\n      add\n      swap1\n      tag_291\n      swap2\n      swap1\n      tag_267\n      jump\t// in\n    tag_291:\n        /* \"nestable.sol\":25320:25445  if (!IERC165(to).supportsInterface(type(IERC6059).interfaceId))... */\n      tag_292\n      jumpi\n        /* \"nestable.sol\":25403:25445  NestableTransferToNonNestableImplementer() */\n      mload(0x40)\n      0xf413cf9900000000000000000000000000000000000000000000000000000000\n      dup2\n      mstore\n      0x04\n      add\n      mload(0x40)\n      dup1\n      swap2\n      sub\n      swap1\n      revert\n        /* \"nestable.sol\":25320:25445  if (!IERC165(to).supportsInterface(type(IERC6059).interfaceId))... */\n    tag_292:\n        /* \"nestable.sol\":25455:25507  _checkForInheritanceLoop(tokenId, to, destinationId) */\n      tag_293\n        /* \"nestable.sol\":25480:25487  tokenId */\n      dup6\n        /* \"nestable.sol\":25489:25491  to */\n      dup8\n        /* \"nestable.sol\":25493:25506  destinationId */\n      dup7\n        /* \"nestable.sol\":25455:25479  _checkForInheritanceLoop */\n      tag_294\n        /* \"nestable.sol\":25455:25507  _checkForInheritanceLoop(tokenId, to, destinationId) */\n      jump\t// in\n    tag_293:\n        /* \"nestable.sol\":25518:25557  _beforeTokenTransfer(from, to, tokenId) */\n      tag_295\n        /* \"nestable.sol\":25539:25543  from */\n      dup8\n        /* \"nestable.sol\":25545:25547  to */\n      dup8\n        /* \"nestable.sol\":25549:25556  tokenId */\n      dup8\n        /* \"nestable.sol\":25518:25538  _beforeTokenTransfer */\n      tag_296\n        /* \"nestable.sol\":25518:25557  _beforeTokenTransfer(from, to, tokenId) */\n      jump\t// in\n    tag_295:\n        /* \"nestable.sol\":25567:25717  _beforeNestedTokenTransfer(... */\n      tag_297\n        /* \"nestable.sol\":25607:25621  immediateOwner */\n      dup3\n        /* \"nestable.sol\":25635:25637  to */\n      dup8\n        /* \"nestable.sol\":25651:25659  parentId */\n      dup4\n        /* \"nestable.sol\":25673:25686  destinationId */\n      dup8\n        /* \"nestable.sol\":25700:25707  tokenId */\n      dup10\n        /* \"nestable.sol\":25567:25593  _beforeNestedTokenTransfer */\n      tag_298\n        /* \"nestable.sol\":25567:25717  _beforeNestedTokenTransfer(... */\n      jump\t// in\n    tag_297:\n        /* \"nestable.sol\":25746:25747  1 */\n      0x01\n        /* \"nestable.sol\":25727:25736  _balances */\n      0x00\n        /* \"nestable.sol\":25727:25742  _balances[from] */\n      dup1\n        /* \"nestable.sol\":25737:25741  from */\n      dup10\n        /* \"nestable.sol\":25727:25742  _balances[from] */\n      0xffffffffffffffffffffffffffffffffffffffff\n      and\n      0xffffffffffffffffffffffffffffffffffffffff\n      and\n      dup2\n      mstore\n      0x20\n      add\n      swap1\n      dup2\n      mstore\n      0x20\n      add\n      0x00\n      keccak256\n      0x00\n        /* \"nestable.sol\":25727:25747  _balances[from] -= 1 */\n      dup3\n      dup3\n      sload\n      tag_299\n      swap2\n      swap1\n      tag_300\n      jump\t// in\n    tag_299:\n      swap3\n      pop\n      pop\n      dup2\n      swap1\n      sstore\n      pop\n        /* \"nestable.sol\":25757:25814  _updateOwnerAndClearApprovals(tokenId, destinationId, to) */\n      tag_301\n        /* \"nestable.sol\":25787:25794  tokenId */\n      dup6\n        /* \"nestable.sol\":25796:25809  destinationId */\n      dup6\n        /* \"nestable.sol\":25811:25813  to */\n      dup9\n        /* \"nestable.sol\":25757:25786  _updateOwnerAndClearApprovals */\n      tag_302\n        /* \"nestable.sol\":25757:25814  _updateOwnerAndClearApprovals(tokenId, destinationId, to) */\n      jump\t// in\n    tag_301:\n        /* \"nestable.sol\":25841:25842  1 */\n      0x01\n        /* \"nestable.sol\":25824:25833  _balances */\n      0x00\n        /* \"nestable.sol\":25824:25837  _balances[to] */\n      dup1\n        /* \"nestable.sol\":25834:25836  to */\n      dup9\n        /* \"nestable.sol\":25824:25837  _balances[to] */\n      0xffffffffffffffffffffffffffffffffffffffff\n      and\n      0xffffffffffffffffffffffffffffffffffffffff\n      and\n      dup2\n      mstore\n      0x20\n      add\n      swap1\n      dup2\n      mstore\n      0x20\n      add\n      0x00\n      keccak256\n      0x00\n        /* \"nestable.sol\":25824:25842  _balances[to] += 1 */\n      dup3\n      dup3\n      sload\n      tag_303\n      swap2\n      swap1\n      tag_304\n      jump\t// in\n    tag_303:\n      swap3\n      pop\n      pop\n      dup2\n      swap1\n      sstore\n      pop\n        /* \"nestable.sol\":25880:25950  _sendToNFT(immediateOwner, to, parentId, destinationId, tokenId, data) */\n      tag_305\n        /* \"nestable.sol\":25891:25905  immediateOwner */\n      dup3\n        /* \"nestable.sol\":25907:25909  to */\n      dup8\n        /* \"nestable.sol\":25911:25919  parentId */\n      dup4\n        /* \"nestable.sol\":25921:25934  destinationId */\n      dup8\n        /* \"nestable.sol\":25936:25943  tokenId */\n      dup10\n        /* \"nestable.sol\":25945:25949  data */\n      dup9\n        /* \"nestable.sol\":25880:25890  _sendToNFT */\n      tag_272\n        /* \"nestable.sol\":25880:25950  _sendToNFT(immediateOwner, to, parentId, destinationId, tokenId, data) */\n      jump\t// in\n    tag_305:\n        /* \"nestable.sol\":24805:25957  {... */\n      pop\n      pop\n        /* \"nestable.sol\":24634:25957  function _nestTransfer(... */\n      pop\n      pop\n      pop\n      pop\n      pop\n      jump\t// out\n        /* \"nestable.sol\":44029:44161  function _requireMinted(uint256 tokenId) internal view virtual {... */\n    tag_151:\n        /* \"nestable.sol\":44107:44123  _exists(tokenId) */\n      tag_307\n        /* \"nestable.sol\":44115:44122  tokenId */\n      dup2\n        /* \"nestable.sol\":44107:44114  _exists */\n      tag_308\n        /* \"nestable.sol\":44107:44123  _exists(tokenId) */\n      jump\t// in\n    tag_307:\n        /* \"nestable.sol\":44102:44154  if (!_exists(tokenId)) revert ERC721InvalidTokenId() */\n      tag_309\n      jumpi\n        /* \"nestable.sol\":44132:44154  ERC721InvalidTokenId() */\n      mload(0x40)\n      0x89ba7e1000000000000000000000000000000000000000000000000000000000\n      dup2\n      mstore\n      0x04\n      add\n      mload(0x40)\n      dup1\n      swap2\n      sub\n      swap1\n      revert\n        /* \"nestable.sol\":44102:44154  if (!_exists(tokenId)) revert ERC721InvalidTokenId() */\n    tag_309:\n        /* \"nestable.sol\":44029:44161  function _requireMinted(uint256 tokenId) internal view virtual {... */\n      pop\n      jump\t// out\n        /* \"@openzeppelin/contracts/utils/Context.sol\":640:736  function _msgSender() internal view virtual returns (address) {... */\n    tag_157:\n        /* \"@openzeppelin/contracts/utils/Context.sol\":693:700  address */\n      0x00\n        /* \"@openzeppelin/contracts/utils/Context.sol\":719:729  msg.sender */\n      caller\n        /* \"@openzeppelin/contracts/utils/Context.sol\":712:729  return msg.sender */\n      swap1\n      pop\n        /* \"@openzeppelin/contracts/utils/Context.sol\":640:736  function _msgSender() internal view virtual returns (address) {... */\n      swap1\n      jump\t// out\n        /* \"nestable.sol\":40553:40755  function _approve(address to, uint256 tokenId) internal virtual {... */\n    tag_163:\n        /* \"nestable.sol\":40627:40640  address owner */\n      0x00\n        /* \"nestable.sol\":40643:40659  ownerOf(tokenId) */\n      tag_312\n        /* \"nestable.sol\":40651:40658  tokenId */\n      dup3\n        /* \"nestable.sol\":40643:40650  ownerOf */\n      tag_79\n        /* \"nestable.sol\":40643:40659  ownerOf(tokenId) */\n      jump\t// in\n    tag_312:\n        /* \"nestable.sol\":40627:40659  address owner = ownerOf(tokenId) */\n      swap1\n      pop\n        /* \"nestable.sol\":40703:40705  to */\n      dup3\n        /* \"nestable.sol\":40669:40684  _tokenApprovals */\n      0x01\n        /* \"nestable.sol\":40669:40693  _tokenApprovals[tokenId] */\n      0x00\n        /* \"nestable.sol\":40685:40692  tokenId */\n      dup5\n        /* \"nestable.sol\":40669:40693  _tokenApprovals[tokenId] */\n      dup2\n      mstore\n      0x20\n      add\n      swap1\n      dup2\n      mstore\n      0x20\n      add\n      0x00\n      keccak256\n        /* \"nestable.sol\":40669:40700  _tokenApprovals[tokenId][owner] */\n      0x00\n        /* \"nestable.sol\":40694:40699  owner */\n      dup4\n        /* \"nestable.sol\":40669:40700  _tokenApprovals[tokenId][owner] */\n      0xffffffffffffffffffffffffffffffffffffffff\n      and\n      0xffffffffffffffffffffffffffffffffffffffff\n      and\n      dup2\n      mstore\n      0x20\n      add\n      swap1\n      dup2\n      mstore\n      0x20\n      add\n      0x00\n      keccak256\n      0x00\n        /* \"nestable.sol\":40669:40705  _tokenApprovals[tokenId][owner] = to */\n      0x0100\n      exp\n      dup2\n      sload\n      dup2\n      0xffffffffffffffffffffffffffffffffffffffff\n      mul\n      not\n      and\n      swap1\n      dup4\n      0xffffffffffffffffffffffffffffffffffffffff\n      and\n      mul\n      or\n      swap1\n      sstore\n      pop\n        /* \"nestable.sol\":40740:40747  tokenId */\n      dup2\n        /* \"nestable.sol\":40736:40738  to */\n      dup4\n        /* \"nestable.sol\":40720:40748  Approval(owner, to, tokenId) */\n      0xffffffffffffffffffffffffffffffffffffffff\n      and\n        /* \"nestable.sol\":40729:40734  owner */\n      dup3\n        /* \"nestable.sol\":40720:40748  Approval(owner, to, tokenId) */\n      0xffffffffffffffffffffffffffffffffffffffff\n      and\n      0x8c5be1e5ebec7d5bd14f71427d1e84f3dd0314c0f7b2291e5b200ac8c7c3b925\n      mload(0x40)\n      mload(0x40)\n      dup1\n      swap2\n      sub\n      swap1\n      log4\n        /* \"nestable.sol\":40617:40755  {... */\n      pop\n        /* \"nestable.sol\":40553:40755  function _approve(address to, uint256 tokenId) internal virtual {... */\n      pop\n      pop\n      jump\t// out\n        /* \"nestable.sol\":23186:24011  function _transfer(... */\n    tag_168:\n        /* \"nestable.sol\":23306:23328  address immediateOwner */\n      0x00\n        /* \"nestable.sol\":23330:23346  uint256 parentId */\n      dup1\n        /* \"nestable.sol\":23352:23374  directOwnerOf(tokenId) */\n      tag_314\n        /* \"nestable.sol\":23366:23373  tokenId */\n      dup4\n        /* \"nestable.sol\":23352:23365  directOwnerOf */\n      tag_136\n        /* \"nestable.sol\":23352:23374  directOwnerOf(tokenId) */\n      jump\t// in\n    tag_314:\n        /* \"nestable.sol\":23305:23374  (address immediateOwner, uint256 parentId, ) = directOwnerOf(tokenId) */\n      pop\n      swap2\n      pop\n      swap2\n      pop\n        /* \"nestable.sol\":23406:23410  from */\n      dup5\n        /* \"nestable.sol\":23388:23410  immediateOwner != from */\n      0xffffffffffffffffffffffffffffffffffffffff\n      and\n        /* \"nestable.sol\":23388:23402  immediateOwner */\n      dup3\n        /* \"nestable.sol\":23388:23410  immediateOwner != from */\n      0xffffffffffffffffffffffffffffffffffffffff\n      and\n      eq\n        /* \"nestable.sol\":23384:23453  if (immediateOwner != from) revert ERC721TransferFromIncorrectOwner() */\n      tag_315\n      jumpi\n        /* \"nestable.sol\":23419:23453  ERC721TransferFromIncorrectOwner() */\n      mload(0x40)\n      0xe146af6f00000000000000000000000000000000000000000000000000000000\n      dup2\n      mstore\n      0x04\n      add\n      mload(0x40)\n      dup1\n      swap2\n      sub\n      swap1\n      revert\n        /* \"nestable.sol\":23384:23453  if (immediateOwner != from) revert ERC721TransferFromIncorrectOwner() */\n    tag_315:\n        /* \"nestable.sol\":23481:23482  0 */\n      0x00\n        /* \"nestable.sol\":23467:23483  to == address(0) */\n      0xffffffffffffffffffffffffffffffffffffffff\n      and\n        /* \"nestable.sol\":23467:23469  to */\n      dup5\n        /* \"nestable.sol\":23467:23483  to == address(0) */\n      0xffffffffffffffffffffffffffffffffffffffff\n      and\n      sub\n        /* \"nestable.sol\":23463:23524  if (to == address(0)) revert ERC721TransferToTheZeroAddress() */\n      tag_316\n      jumpi\n        /* \"nestable.sol\":23492:23524  ERC721TransferToTheZeroAddress() */\n      mload(0x40)\n      0xe3d91bfc00000000000000000000000000000000000000000000000000000000\n      dup2\n      mstore\n      0x04\n      add\n      mload(0x40)\n      dup1\n      swap2\n      sub\n      swap1\n      revert\n        /* \"nestable.sol\":23463:23524  if (to == address(0)) revert ERC721TransferToTheZeroAddress() */\n    tag_316:\n        /* \"nestable.sol\":23535:23574  _beforeTokenTransfer(from, to, tokenId) */\n      tag_317\n        /* \"nestable.sol\":23556:23560  from */\n      dup6\n        /* \"nestable.sol\":23562:23564  to */\n      dup6\n        /* \"nestable.sol\":23566:23573  tokenId */\n      dup6\n        /* \"nestable.sol\":23535:23555  _beforeTokenTransfer */\n      tag_296\n        /* \"nestable.sol\":23535:23574  _beforeTokenTransfer(from, to, tokenId) */\n      jump\t// in\n    tag_317:\n        /* \"nestable.sol\":23584:23652  _beforeNestedTokenTransfer(immediateOwner, to, parentId, 0, tokenId) */\n      tag_318\n        /* \"nestable.sol\":23611:23625  immediateOwner */\n      dup3\n        /* \"nestable.sol\":23627:23629  to */\n      dup6\n        /* \"nestable.sol\":23631:23639  parentId */\n      dup4\n        /* \"nestable.sol\":23641:23642  0 */\n      0x00\n        /* \"nestable.sol\":23644:23651  tokenId */\n      dup8\n        /* \"nestable.sol\":23584:23610  _beforeNestedTokenTransfer */\n      tag_298\n        /* \"nestable.sol\":23584:23652  _beforeNestedTokenTransfer(immediateOwner, to, parentId, 0, tokenId) */\n      jump\t// in\n    tag_318:\n        /* \"nestable.sol\":23682:23683  1 */\n      0x01\n        /* \"nestable.sol\":23663:23672  _balances */\n      0x00\n        /* \"nestable.sol\":23663:23678  _balances[from] */\n      dup1\n        /* \"nestable.sol\":23673:23677  from */\n      dup8\n        /* \"nestable.sol\":23663:23678  _balances[from] */\n      0xffffffffffffffffffffffffffffffffffffffff\n      and\n      0xffffffffffffffffffffffffffffffffffffffff\n      and\n      dup2\n      mstore\n      0x20\n      add\n      swap1\n      dup2\n      mstore\n      0x20\n      add\n      0x00\n      keccak256\n      0x00\n        /* \"nestable.sol\":23663:23683  _balances[from] -= 1 */\n      dup3\n      dup3\n      sload\n      tag_319\n      swap2\n      swap1\n      tag_300\n      jump\t// in\n    tag_319:\n      swap3\n      pop\n      pop\n      dup2\n      swap1\n      sstore\n      pop\n        /* \"nestable.sol\":23693:23738  _updateOwnerAndClearApprovals(tokenId, 0, to) */\n      tag_320\n        /* \"nestable.sol\":23723:23730  tokenId */\n      dup4\n        /* \"nestable.sol\":23732:23733  0 */\n      0x00\n        /* \"nestable.sol\":23735:23737  to */\n      dup7\n        /* \"nestable.sol\":23693:23722  _updateOwnerAndClearApprovals */\n      tag_302\n        /* \"nestable.sol\":23693:23738  _updateOwnerAndClearApprovals(tokenId, 0, to) */\n      jump\t// in\n    tag_320:\n        /* \"nestable.sol\":23765:23766  1 */\n      0x01\n        /* \"nestable.sol\":23748:23757  _balances */\n      0x00\n        /* \"nestable.sol\":23748:23761  _balances[to] */\n      dup1\n        /* \"nestable.sol\":23758:23760  to */\n      dup7\n        /* \"nestable.sol\":23748:23761  _balances[to] */\n      0xffffffffffffffffffffffffffffffffffffffff\n      and\n      0xffffffffffffffffffffffffffffffffffffffff\n      and\n      dup2\n      mstore\n      0x20\n      add\n      swap1\n      dup2\n      mstore\n      0x20\n      add\n      0x00\n      keccak256\n      0x00\n        /* \"nestable.sol\":23748:23766  _balances[to] += 1 */\n      dup3\n      dup3\n      sload\n      tag_321\n      swap2\n      swap1\n      tag_304\n      jump\t// in\n    tag_321:\n      swap3\n      pop\n      pop\n      dup2\n      swap1\n      sstore\n      pop\n        /* \"nestable.sol\":23801:23808  tokenId */\n      dup3\n        /* \"nestable.sol\":23797:23799  to */\n      dup5\n        /* \"nestable.sol\":23782:23809  Transfer(from, to, tokenId) */\n      0xffffffffffffffffffffffffffffffffffffffff\n      and\n        /* \"nestable.sol\":23791:23795  from */\n      dup7\n        /* \"nestable.sol\":23782:23809  Transfer(from, to, tokenId) */\n      0xffffffffffffffffffffffffffffffffffffffff\n      and\n      0xddf252ad1be2c89b69c2b068fc378daa952ba7f163c4a11628f55a4df523b3ef\n      mload(0x40)\n      mload(0x40)\n      dup1\n      swap2\n      sub\n      swap1\n      log4\n        /* \"nestable.sol\":23870:23877  tokenId */\n      dup3\n        /* \"nestable.sol\":23853:23855  to */\n      dup5\n        /* \"nestable.sol\":23824:23878  NestTransfer(immediateOwner, to, parentId, 0, tokenId) */\n      0xffffffffffffffffffffffffffffffffffffffff\n      and\n        /* \"nestable.sol\":23837:23851  immediateOwner */\n      dup4\n        /* \"nestable.sol\":23824:23878  NestTransfer(immediateOwner, to, parentId, 0, tokenId) */\n      0xffffffffffffffffffffffffffffffffffffffff\n      and\n      0x04444026cefd1b05506559cab59d1b865ae3ba4ed2fe5c894f04e522776c552d\n        /* \"nestable.sol\":23857:23865  parentId */\n      dup5\n        /* \"nestable.sol\":23867:23868  0 */\n      0x00\n        /* \"nestable.sol\":23824:23878  NestTransfer(immediateOwner, to, parentId, 0, tokenId) */\n      mload(0x40)\n      tag_322\n      swap3\n      swap2\n      swap1\n      tag_323\n      jump\t// in\n    tag_322:\n      mload(0x40)\n      dup1\n      swap2\n      sub\n      swap1\n      log4\n        /* \"nestable.sol\":23889:23927  _afterTokenTransfer(from, to, tokenId) */\n      tag_324\n        /* \"nestable.sol\":23909:23913  from */\n      dup6\n        /* \"nestable.sol\":23915:23917  to */\n      dup6\n        /* \"nestable.sol\":23919:23926  tokenId */\n      dup6\n        /* \"nestable.sol\":23889:23908  _afterTokenTransfer */\n      tag_325\n        /* \"nestable.sol\":23889:23927  _afterTokenTransfer(from, to, tokenId) */\n      jump\t// in\n    tag_324:\n        /* \"nestable.sol\":23937:24004  _afterNestedTokenTransfer(immediateOwner, to, parentId, 0, tokenId) */\n      tag_326\n        /* \"nestable.sol\":23963:23977  immediateOwner */\n      dup3\n        /* \"nestable.sol\":23979:23981  to */\n      dup6\n        /* \"nestable.sol\":23983:23991  parentId */\n      dup4\n        /* \"nestable.sol\":23993:23994  0 */\n      0x00\n        /* \"nestable.sol\":23996:24003  tokenId */\n      dup8\n        /* \"nestable.sol\":23937:23962  _afterNestedTokenTransfer */\n      tag_327\n        /* \"nestable.sol\":23937:24004  _afterNestedTokenTransfer(immediateOwner, to, parentId, 0, tokenId) */\n      jump\t// in\n    tag_326:\n        /* \"nestable.sol\":23295:24011  {... */\n      pop\n      pop\n        /* \"nestable.sol\":23186:24011  function _transfer(... */\n      pop\n      pop\n      pop\n      jump\t// out\n        /* \"@openzeppelin/contracts/utils/Address.sol\":1412:1732  function isContract(address account) internal view returns (bool) {... */\n    tag_199:\n        /* \"@openzeppelin/contracts/utils/Address.sol\":1472:1476  bool */\n      0x00\n        /* \"@openzeppelin/contracts/utils/Address.sol\":1724:1725  0 */\n      dup1\n        /* \"@openzeppelin/contracts/utils/Address.sol\":1702:1709  account */\n      dup3\n        /* \"@openzeppelin/contracts/utils/Address.sol\":1702:1721  account.code.length */\n      0xffffffffffffffffffffffffffffffffffffffff\n      and\n      extcodesize\n        /* \"@openzeppelin/contracts/utils/Address.sol\":1702:1725  account.code.length > 0 */\n      gt\n        /* \"@openzeppelin/contracts/utils/Address.sol\":1695:1725  return account.code.length > 0 */\n      swap1\n      pop\n        /* \"@openzeppelin/contracts/utils/Address.sol\":1412:1732  function isContract(address account) internal view returns (bool) {... */\n      swap2\n      swap1\n      pop\n      jump\t// out\n        /* \"nestable.sol\":64950:65080  function _beforeAddChild(... */\n    tag_202:\n      pop\n      pop\n      pop\n      jump\t// out\n        /* \"nestable.sol\":65869:65998  function _afterAddChild(... */\n    tag_209:\n      pop\n      pop\n      pop\n      jump\t// out\n        /* \"nestable.sol\":17555:17725  function _onlyApprovedOrOwner(uint256 tokenId) private view {... */\n    tag_218:\n        /* \"nestable.sol\":17630:17671  _isApprovedOrOwner(_msgSender(), tokenId) */\n      tag_332\n        /* \"nestable.sol\":17649:17661  _msgSender() */\n      tag_333\n        /* \"nestable.sol\":17649:17659  _msgSender */\n      tag_157\n        /* \"nestable.sol\":17649:17661  _msgSender() */\n      jump\t// in\n    tag_333:\n        /* \"nestable.sol\":17663:17670  tokenId */\n      dup3\n        /* \"nestable.sol\":17630:17648  _isApprovedOrOwner */\n      tag_334\n        /* \"nestable.sol\":17630:17671  _isApprovedOrOwner(_msgSender(), tokenId) */\n      jump\t// in\n    tag_332:\n        /* \"nestable.sol\":17625:17718  if (!_isApprovedOrOwner(_msgSender(), tokenId))... */\n      tag_335\n      jumpi\n        /* \"nestable.sol\":17692:17718  ERC721NotApprovedOrOwner() */\n      mload(0x40)\n      0x2728a9d000000000000000000000000000000000000000000000000000000000\n      dup2\n      mstore\n      0x04\n      add\n      mload(0x40)\n      dup1\n      swap2\n      sub\n      swap1\n      revert\n        /* \"nestable.sol\":17625:17718  if (!_isApprovedOrOwner(_msgSender(), tokenId))... */\n    tag_335:\n        /* \"nestable.sol\":17555:17725  function _onlyApprovedOrOwner(uint256 tokenId) private view {... */\n      pop\n      jump\t// out\n        /* \"nestable.sol\":51934:52328  function _rejectAllChildren(uint256 tokenId, uint256 maxRejections)... */\n    tag_221:\n        /* \"nestable.sol\":52088:52101  maxRejections */\n      dup1\n        /* \"nestable.sol\":52053:52069  _pendingChildren */\n      0x05\n        /* \"nestable.sol\":52053:52078  _pendingChildren[tokenId] */\n      0x00\n        /* \"nestable.sol\":52070:52077  tokenId */\n      dup5\n        /* \"nestable.sol\":52053:52078  _pendingChildren[tokenId] */\n      dup2\n      mstore\n      0x20\n      add\n      swap1\n      dup2\n      mstore\n      0x20\n      add\n      0x00\n      keccak256\n        /* \"nestable.sol\":52053:52085  _pendingChildren[tokenId].length */\n      dup1\n      sload\n      swap1\n      pop\n        /* \"nestable.sol\":52053:52101  _pendingChildren[tokenId].length > maxRejections */\n      gt\n        /* \"nestable.sol\":52049:52150  if (_pendingChildren[tokenId].length > maxRejections)... */\n      iszero\n      tag_337\n      jumpi\n        /* \"nestable.sol\":52122:52150  UnexpectedNumberOfChildren() */\n      mload(0x40)\n      0x8ac3cb1400000000000000000000000000000000000000000000000000000000\n      dup2\n      mstore\n      0x04\n      add\n      mload(0x40)\n      dup1\n      swap2\n      sub\n      swap1\n      revert\n        /* \"nestable.sol\":52049:52150  if (_pendingChildren[tokenId].length > maxRejections)... */\n    tag_337:\n        /* \"nestable.sol\":52161:52194  _beforeRejectAllChildren(tokenId) */\n      tag_338\n        /* \"nestable.sol\":52186:52193  tokenId */\n      dup3\n        /* \"nestable.sol\":52161:52185  _beforeRejectAllChildren */\n      tag_339\n        /* \"nestable.sol\":52161:52194  _beforeRejectAllChildren(tokenId) */\n      jump\t// in\n    tag_338:\n        /* \"nestable.sol\":52211:52227  _pendingChildren */\n      0x05\n        /* \"nestable.sol\":52211:52236  _pendingChildren[tokenId] */\n      0x00\n        /* \"nestable.sol\":52228:52235  tokenId */\n      dup4\n        /* \"nestable.sol\":52211:52236  _pendingChildren[tokenId] */\n      dup2\n      mstore\n      0x20\n      add\n      swap1\n      dup2\n      mstore\n      0x20\n      add\n      0x00\n      keccak256\n      0x00\n        /* \"nestable.sol\":52204:52236  delete _pendingChildren[tokenId] */\n      tag_340\n      swap2\n      swap1\n      tag_341\n      jump\t// in\n    tag_340:\n        /* \"nestable.sol\":52271:52278  tokenId */\n      dup2\n        /* \"nestable.sol\":52251:52279  AllChildrenRejected(tokenId) */\n      0x8ac4a0d65950c3e40448afb2260e2e0ec36ea15644d9b39e37e85472e5f94451\n      mload(0x40)\n      mload(0x40)\n      dup1\n      swap2\n      sub\n      swap1\n      log2\n        /* \"nestable.sol\":52289:52321  _afterRejectAllChildren(tokenId) */\n      tag_342\n        /* \"nestable.sol\":52313:52320  tokenId */\n      dup3\n        /* \"nestable.sol\":52289:52312  _afterRejectAllChildren */\n      tag_343\n        /* \"nestable.sol\":52289:52321  _afterRejectAllChildren(tokenId) */\n      jump\t// in\n    tag_342:\n        /* \"nestable.sol\":51934:52328  function _rejectAllChildren(uint256 tokenId, uint256 maxRejections)... */\n      pop\n      pop\n      jump\t// out\n        /* \"nestable.sol\":36504:38971  function _burn(... */\n    tag_239:\n        /* \"nestable.sol\":36610:36617  uint256 */\n      0x00\n        /* \"nestable.sol\":36630:36652  address immediateOwner */\n      dup1\n        /* \"nestable.sol\":36654:36670  uint256 parentId */\n      0x00\n        /* \"nestable.sol\":36676:36698  directOwnerOf(tokenId) */\n      tag_345\n        /* \"nestable.sol\":36690:36697  tokenId */\n      dup6\n        /* \"nestable.sol\":36676:36689  directOwnerOf */\n      tag_136\n        /* \"nestable.sol\":36676:36698  directOwnerOf(tokenId) */\n      jump\t// in\n    tag_345:\n        /* \"nestable.sol\":36629:36698  (address immediateOwner, uint256 parentId, ) = directOwnerOf(tokenId) */\n      pop\n      swap2\n      pop\n      swap2\n      pop\n        /* \"nestable.sol\":36708:36721  address owner */\n      0x00\n        /* \"nestable.sol\":36724:36740  ownerOf(tokenId) */\n      tag_346\n        /* \"nestable.sol\":36732:36739  tokenId */\n      dup7\n        /* \"nestable.sol\":36724:36731  ownerOf */\n      tag_79\n        /* \"nestable.sol\":36724:36740  ownerOf(tokenId) */\n      jump\t// in\n    tag_346:\n        /* \"nestable.sol\":36708:36740  address owner = ownerOf(tokenId) */\n      swap1\n      pop\n        /* \"nestable.sol\":36779:36780  1 */\n      0x01\n        /* \"nestable.sol\":36750:36759  _balances */\n      0x00\n        /* \"nestable.sol\":36750:36775  _balances[immediateOwner] */\n      dup1\n        /* \"nestable.sol\":36760:36774  immediateOwner */\n      dup6\n        /* \"nestable.sol\":36750:36775  _balances[immediateOwner] */\n      0xffffffffffffffffffffffffffffffffffffffff\n      and\n      0xffffffffffffffffffffffffffffffffffffffff\n      and\n      dup2\n      mstore\n      0x20\n      add\n      swap1\n      dup2\n      mstore\n      0x20\n      add\n      0x00\n      keccak256\n      0x00\n        /* \"nestable.sol\":36750:36780  _balances[immediateOwner] -= 1 */\n      dup3\n      dup3\n      sload\n      tag_347\n      swap2\n      swap1\n      tag_300\n      jump\t// in\n    tag_347:\n      swap3\n      pop\n      pop\n      dup2\n      swap1\n      sstore\n      pop\n        /* \"nestable.sol\":36791:36839  _beforeTokenTransfer(owner, address(0), tokenId) */\n      tag_348\n        /* \"nestable.sol\":36812:36817  owner */\n      dup2\n        /* \"nestable.sol\":36827:36828  0 */\n      0x00\n        /* \"nestable.sol\":36831:36838  tokenId */\n      dup9\n        /* \"nestable.sol\":36791:36811  _beforeTokenTransfer */\n      tag_296\n        /* \"nestable.sol\":36791:36839  _beforeTokenTransfer(owner, address(0), tokenId) */\n      jump\t// in\n    tag_348:\n        /* \"nestable.sol\":36849:36995  _beforeNestedTokenTransfer(... */\n      tag_349\n        /* \"nestable.sol\":36889:36903  immediateOwner */\n      dup4\n        /* \"nestable.sol\":36925:36926  0 */\n      0x00\n        /* \"nestable.sol\":36941:36949  parentId */\n      dup5\n        /* \"nestable.sol\":36963:36964  0 */\n      0x00\n        /* \"nestable.sol\":36978:36985  tokenId */\n      dup11\n        /* \"nestable.sol\":36849:36875  _beforeNestedTokenTransfer */\n      tag_298\n        /* \"nestable.sol\":36849:36995  _beforeNestedTokenTransfer(... */\n      jump\t// in\n    tag_349:\n        /* \"nestable.sol\":37006:37035  _approve(address(0), tokenId) */\n      tag_350\n        /* \"nestable.sol\":37023:37024  0 */\n      0x00\n        /* \"nestable.sol\":37027:37034  tokenId */\n      dup8\n        /* \"nestable.sol\":37006:37014  _approve */\n      tag_163\n        /* \"nestable.sol\":37006:37035  _approve(address(0), tokenId) */\n      jump\t// in\n    tag_350:\n        /* \"nestable.sol\":37045:37069  _cleanApprovals(tokenId) */\n      tag_351\n        /* \"nestable.sol\":37061:37068  tokenId */\n      dup7\n        /* \"nestable.sol\":37045:37060  _cleanApprovals */\n      tag_352\n        /* \"nestable.sol\":37045:37069  _cleanApprovals(tokenId) */\n      jump\t// in\n    tag_351:\n        /* \"nestable.sol\":37080:37103  Child[] memory children */\n      0x00\n        /* \"nestable.sol\":37106:37125  childrenOf(tokenId) */\n      tag_353\n        /* \"nestable.sol\":37117:37124  tokenId */\n      dup8\n        /* \"nestable.sol\":37106:37116  childrenOf */\n      tag_87\n        /* \"nestable.sol\":37106:37125  childrenOf(tokenId) */\n      jump\t// in\n    tag_353:\n        /* \"nestable.sol\":37080:37125  Child[] memory children = childrenOf(tokenId) */\n      swap1\n      pop\n        /* \"nestable.sol\":37143:37158  _activeChildren */\n      0x04\n        /* \"nestable.sol\":37143:37167  _activeChildren[tokenId] */\n      0x00\n        /* \"nestable.sol\":37159:37166  tokenId */\n      dup9\n        /* \"nestable.sol\":37143:37167  _activeChildren[tokenId] */\n      dup2\n      mstore\n      0x20\n      add\n      swap1\n      dup2\n      mstore\n      0x20\n      add\n      0x00\n      keccak256\n      0x00\n        /* \"nestable.sol\":37136:37167  delete _activeChildren[tokenId] */\n      tag_354\n      swap2\n      swap1\n      tag_341\n      jump\t// in\n    tag_354:\n        /* \"nestable.sol\":37184:37200  _pendingChildren */\n      0x05\n        /* \"nestable.sol\":37184:37209  _pendingChildren[tokenId] */\n      0x00\n        /* \"nestable.sol\":37201:37208  tokenId */\n      dup9\n        /* \"nestable.sol\":37184:37209  _pendingChildren[tokenId] */\n      dup2\n      mstore\n      0x20\n      add\n      swap1\n      dup2\n      mstore\n      0x20\n      add\n      0x00\n      keccak256\n      0x00\n        /* \"nestable.sol\":37177:37209  delete _pendingChildren[tokenId] */\n      tag_355\n      swap2\n      swap1\n      tag_341\n      jump\t// in\n    tag_355:\n        /* \"nestable.sol\":37226:37241  _tokenApprovals */\n      0x01\n        /* \"nestable.sol\":37226:37250  _tokenApprovals[tokenId] */\n      0x00\n        /* \"nestable.sol\":37242:37249  tokenId */\n      dup9\n        /* \"nestable.sol\":37226:37250  _tokenApprovals[tokenId] */\n      dup2\n      mstore\n      0x20\n      add\n      swap1\n      dup2\n      mstore\n      0x20\n      add\n      0x00\n      keccak256\n        /* \"nestable.sol\":37226:37257  _tokenApprovals[tokenId][owner] */\n      0x00\n        /* \"nestable.sol\":37251:37256  owner */\n      dup4\n        /* \"nestable.sol\":37226:37257  _tokenApprovals[tokenId][owner] */\n      0xffffffffffffffffffffffffffffffffffffffff\n      and\n      0xffffffffffffffffffffffffffffffffffffffff\n      and\n      dup2\n      mstore\n      0x20\n      add\n      swap1\n      dup2\n      mstore\n      0x20\n      add\n      0x00\n      keccak256\n      0x00\n        /* \"nestable.sol\":37219:37257  delete _tokenApprovals[tokenId][owner] */\n      0x0100\n      exp\n      dup2\n      sload\n      swap1\n      0xffffffffffffffffffffffffffffffffffffffff\n      mul\n      not\n      and\n      swap1\n      sstore\n        /* \"nestable.sol\":37268:37297  uint256 pendingRecursiveBurns */\n      0x00\n        /* \"nestable.sol\":37307:37330  uint256 totalChildBurns */\n      dup1\n        /* \"nestable.sol\":37341:37355  uint256 length */\n      0x00\n        /* \"nestable.sol\":37358:37366  children */\n      dup4\n        /* \"nestable.sol\":37358:37373  children.length */\n      mload\n        /* \"nestable.sol\":37341:37373  uint256 length = children.length */\n      swap1\n      pop\n        /* \"nestable.sol\":37402:37411  uint256 i */\n      0x00\n        /* \"nestable.sol\":37397:38462  for (uint256 i; i < length; ) {... */\n    tag_356:\n        /* \"nestable.sol\":37417:37423  length */\n      dup2\n        /* \"nestable.sol\":37413:37414  i */\n      dup2\n        /* \"nestable.sol\":37413:37423  i < length */\n      lt\n        /* \"nestable.sol\":37397:38462  for (uint256 i; i < length; ) {... */\n      iszero\n      tag_357\n      jumpi\n        /* \"nestable.sol\":37464:37480  maxChildrenBurns */\n      dup10\n        /* \"nestable.sol\":37445:37460  totalChildBurns */\n      dup4\n        /* \"nestable.sol\":37445:37480  totalChildBurns >= maxChildrenBurns */\n      lt\n        /* \"nestable.sol\":37441:37637  if (totalChildBurns >= maxChildrenBurns)... */\n      tag_359\n      jumpi\n        /* \"nestable.sol\":37551:37559  children */\n      dup5\n        /* \"nestable.sol\":37560:37561  i */\n      dup2\n        /* \"nestable.sol\":37551:37562  children[i] */\n      dup2\n      mload\n      dup2\n      lt\n      tag_360\n      jumpi\n      tag_361\n      tag_176\n      jump\t// in\n    tag_361:\n    tag_360:\n      0x20\n      mul\n      0x20\n      add\n      add\n      mload\n        /* \"nestable.sol\":37551:37578  children[i].contractAddress */\n      0x20\n      add\n      mload\n        /* \"nestable.sol\":37600:37608  children */\n      dup6\n        /* \"nestable.sol\":37609:37610  i */\n      dup3\n        /* \"nestable.sol\":37600:37611  children[i] */\n      dup2\n      mload\n      dup2\n      lt\n      tag_362\n      jumpi\n      tag_363\n      tag_176\n      jump\t// in\n    tag_363:\n    tag_362:\n      0x20\n      mul\n      0x20\n      add\n      add\n      mload\n        /* \"nestable.sol\":37600:37619  children[i].tokenId */\n      0x00\n      add\n      mload\n        /* \"nestable.sol\":37505:37637  MaxRecursiveBurnsReached(... */\n      mload(0x40)\n      0x4cb93ad900000000000000000000000000000000000000000000000000000000\n      dup2\n      mstore\n      0x04\n      add\n      tag_364\n      swap3\n      swap2\n      swap1\n      tag_365\n      jump\t// in\n    tag_364:\n      mload(0x40)\n      dup1\n      swap2\n      sub\n      swap1\n      revert\n        /* \"nestable.sol\":37441:37637  if (totalChildBurns >= maxChildrenBurns)... */\n    tag_359:\n        /* \"nestable.sol\":37658:37674  _childIsInActive */\n      0x06\n        /* \"nestable.sol\":37658:37703  _childIsInActive[children[i].contractAddress] */\n      0x00\n        /* \"nestable.sol\":37675:37683  children */\n      dup7\n        /* \"nestable.sol\":37684:37685  i */\n      dup4\n        /* \"nestable.sol\":37675:37686  children[i] */\n      dup2\n      mload\n      dup2\n      lt\n      tag_366\n      jumpi\n      tag_367\n      tag_176\n      jump\t// in\n    tag_367:\n    tag_366:\n      0x20\n      mul\n      0x20\n      add\n      add\n      mload\n        /* \"nestable.sol\":37675:37702  children[i].contractAddress */\n      0x20\n      add\n      mload\n        /* \"nestable.sol\":37658:37703  _childIsInActive[children[i].contractAddress] */\n      0xffffffffffffffffffffffffffffffffffffffff\n      and\n      0xffffffffffffffffffffffffffffffffffffffff\n      and\n      dup2\n      mstore\n      0x20\n      add\n      swap1\n      dup2\n      mstore\n      0x20\n      add\n      0x00\n      keccak256\n        /* \"nestable.sol\":37658:37754  _childIsInActive[children[i].contractAddress][... */\n      0x00\n        /* \"nestable.sol\":37721:37729  children */\n      dup7\n        /* \"nestable.sol\":37730:37731  i */\n      dup4\n        /* \"nestable.sol\":37721:37732  children[i] */\n      dup2\n      mload\n      dup2\n      lt\n      tag_368\n      jumpi\n      tag_369\n      tag_176\n      jump\t// in\n    tag_369:\n    tag_368:\n      0x20\n      mul\n      0x20\n      add\n      add\n      mload\n        /* \"nestable.sol\":37721:37740  children[i].tokenId */\n      0x00\n      add\n      mload\n        /* \"nestable.sol\":37658:37754  _childIsInActive[children[i].contractAddress][... */\n      dup2\n      mstore\n      0x20\n      add\n      swap1\n      dup2\n      mstore\n      0x20\n      add\n      0x00\n      keccak256\n        /* \"nestable.sol\":37651:37754  delete _childIsInActive[children[i].contractAddress][... */\n      0x00\n      swap1\n      sstore\n        /* \"nestable.sol\":37921:37936  totalChildBurns */\n      dup3\n        /* \"nestable.sol\":37902:37918  maxChildrenBurns */\n      dup11\n        /* \"nestable.sol\":37902:37936  maxChildrenBurns - totalChildBurns */\n      sub\n        /* \"nestable.sol\":37878:37936  pendingRecursiveBurns = maxChildrenBurns - totalChildBurns */\n      swap4\n      pop\n        /* \"nestable.sol\":38391:38392  1 */\n      0x01\n        /* \"nestable.sol\":38233:38241  children */\n      dup6\n        /* \"nestable.sol\":38242:38243  i */\n      dup3\n        /* \"nestable.sol\":38233:38244  children[i] */\n      dup2\n      mload\n      dup2\n      lt\n      tag_370\n      jumpi\n      tag_371\n      tag_176\n      jump\t// in\n    tag_371:\n    tag_370:\n      0x20\n      mul\n      0x20\n      add\n      add\n      mload\n        /* \"nestable.sol\":38233:38260  children[i].contractAddress */\n      0x20\n      add\n      mload\n        /* \"nestable.sol\":38224:38266  IERC6059(children[i].contractAddress).burn */\n      0xffffffffffffffffffffffffffffffffffffffff\n      and\n      0xb390c0ab\n        /* \"nestable.sol\":38288:38296  children */\n      dup8\n        /* \"nestable.sol\":38297:38298  i */\n      dup5\n        /* \"nestable.sol\":38288:38299  children[i] */\n      dup2\n      mload\n      dup2\n      lt\n      tag_372\n      jumpi\n      tag_373\n      tag_176\n      jump\t// in\n    tag_373:\n    tag_372:\n      0x20\n      mul\n      0x20\n      add\n      add\n      mload\n        /* \"nestable.sol\":38288:38307  children[i].tokenId */\n      0x00\n      add\n      mload\n        /* \"nestable.sol\":38353:38354  1 */\n      0x01\n        /* \"nestable.sol\":38329:38350  pendingRecursiveBurns */\n      dup9\n        /* \"nestable.sol\":38329:38354  pendingRecursiveBurns - 1 */\n      tag_374\n      swap2\n      swap1\n      tag_300\n      jump\t// in\n    tag_374:\n        /* \"nestable.sol\":38224:38372  IERC6059(children[i].contractAddress).burn(... */\n      mload(0x40)\n      dup4\n      0xffffffff\n      and\n      0xe0\n      shl\n      dup2\n      mstore\n      0x04\n      add\n      tag_375\n      swap3\n      swap2\n      swap1\n      tag_376\n      jump\t// in\n    tag_375:\n      0x20\n      mload(0x40)\n      dup1\n      dup4\n      sub\n      dup2\n      0x00\n      dup8\n      gas\n      call\n      iszero\n      dup1\n      iszero\n      tag_378\n      jumpi\n      returndatasize\n      0x00\n      dup1\n      returndatacopy\n      revert(0x00, returndatasize)\n    tag_378:\n      pop\n      pop\n      pop\n      pop\n      mload(0x40)\n      returndatasize\n      not(0x1f)\n      0x1f\n      dup3\n      add\n      and\n      dup3\n      add\n      dup1\n      0x40\n      mstore\n      pop\n      dup2\n      add\n      swap1\n      tag_379\n      swap2\n      swap1\n      tag_380\n      jump\t// in\n    tag_379:\n        /* \"nestable.sol\":38224:38392  IERC6059(children[i].contractAddress).burn(... */\n      tag_381\n      swap2\n      swap1\n      tag_304\n      jump\t// in\n    tag_381:\n        /* \"nestable.sol\":38189:38392  totalChildBurns +=... */\n      dup4\n      tag_382\n      swap2\n      swap1\n      tag_304\n      jump\t// in\n    tag_382:\n      swap3\n      pop\n        /* \"nestable.sol\":38434:38437  ++i */\n      dup1\n      0x01\n      add\n      swap1\n      pop\n        /* \"nestable.sol\":37397:38462  for (uint256 i; i < length; ) {... */\n      jump(tag_356)\n    tag_357:\n      pop\n        /* \"nestable.sol\":38568:38581  _directOwners */\n      0x03\n        /* \"nestable.sol\":38568:38590  _directOwners[tokenId] */\n      0x00\n        /* \"nestable.sol\":38582:38589  tokenId */\n      dup12\n        /* \"nestable.sol\":38568:38590  _directOwners[tokenId] */\n      dup2\n      mstore\n      0x20\n      add\n      swap1\n      dup2\n      mstore\n      0x20\n      add\n      0x00\n      keccak256\n      0x00\n        /* \"nestable.sol\":38561:38590  delete _directOwners[tokenId] */\n      dup1\n      dup3\n      add\n      0x00\n      swap1\n      sstore\n      0x01\n      dup3\n      add\n      exp(0x0100, 0x00)\n      dup2\n      sload\n      swap1\n      0xffffffffffffffffffffffffffffffffffffffff\n      mul\n      not\n      and\n      swap1\n      sstore\n      pop\n      pop\n        /* \"nestable.sol\":38601:38648  _afterTokenTransfer(owner, address(0), tokenId) */\n      tag_383\n        /* \"nestable.sol\":38621:38626  owner */\n      dup6\n        /* \"nestable.sol\":38636:38637  0 */\n      0x00\n        /* \"nestable.sol\":38640:38647  tokenId */\n      dup13\n        /* \"nestable.sol\":38601:38620  _afterTokenTransfer */\n      tag_325\n        /* \"nestable.sol\":38601:38648  _afterTokenTransfer(owner, address(0), tokenId) */\n      jump\t// in\n    tag_383:\n        /* \"nestable.sol\":38658:38803  _afterNestedTokenTransfer(... */\n      tag_384\n        /* \"nestable.sol\":38697:38711  immediateOwner */\n      dup8\n        /* \"nestable.sol\":38733:38734  0 */\n      0x00\n        /* \"nestable.sol\":38749:38757  parentId */\n      dup9\n        /* \"nestable.sol\":38771:38772  0 */\n      0x00\n        /* \"nestable.sol\":38786:38793  tokenId */\n      dup15\n        /* \"nestable.sol\":38658:38683  _afterNestedTokenTransfer */\n      tag_327\n        /* \"nestable.sol\":38658:38803  _afterNestedTokenTransfer(... */\n      jump\t// in\n    tag_384:\n        /* \"nestable.sol\":38846:38853  tokenId */\n      dup10\n        /* \"nestable.sol\":38842:38843  0 */\n      0x00\n        /* \"nestable.sol\":38818:38854  Transfer(owner, address(0), tokenId) */\n      0xffffffffffffffffffffffffffffffffffffffff\n      and\n        /* \"nestable.sol\":38827:38832  owner */\n      dup7\n        /* \"nestable.sol\":38818:38854  Transfer(owner, address(0), tokenId) */\n      0xffffffffffffffffffffffffffffffffffffffff\n      and\n      0xddf252ad1be2c89b69c2b068fc378daa952ba7f163c4a11628f55a4df523b3ef\n      mload(0x40)\n      mload(0x40)\n      dup1\n      swap2\n      sub\n      swap1\n      log4\n        /* \"nestable.sol\":38923:38930  tokenId */\n      dup10\n        /* \"nestable.sol\":38906:38907  0 */\n      0x00\n        /* \"nestable.sol\":38869:38931  NestTransfer(immediateOwner, address(0), parentId, 0, tokenId) */\n      0xffffffffffffffffffffffffffffffffffffffff\n      and\n        /* \"nestable.sol\":38882:38896  immediateOwner */\n      dup9\n        /* \"nestable.sol\":38869:38931  NestTransfer(immediateOwner, address(0), parentId, 0, tokenId) */\n      0xffffffffffffffffffffffffffffffffffffffff\n      and\n      0x04444026cefd1b05506559cab59d1b865ae3ba4ed2fe5c894f04e522776c552d\n        /* \"nestable.sol\":38910:38918  parentId */\n      dup10\n        /* \"nestable.sol\":38920:38921  0 */\n      0x00\n        /* \"nestable.sol\":38869:38931  NestTransfer(immediateOwner, address(0), parentId, 0, tokenId) */\n      mload(0x40)\n      tag_385\n      swap3\n      swap2\n      swap1\n      tag_323\n      jump\t// in\n    tag_385:\n      mload(0x40)\n      dup1\n      swap2\n      sub\n      swap1\n      log4\n        /* \"nestable.sol\":38949:38964  totalChildBurns */\n      dup2\n        /* \"nestable.sol\":38942:38964  return totalChildBurns */\n      swap8\n      pop\n      pop\n      pop\n      pop\n      pop\n      pop\n      pop\n      pop\n        /* \"nestable.sol\":36504:38971  function _burn(... */\n      swap3\n      swap2\n      pop\n      pop\n      jump\t// out\n        /* \"nestable.sol\":29888:30166  function _safeMint(... */\n    tag_242:\n        /* \"nestable.sol\":30012:30030  _mint(to, tokenId) */\n      tag_387\n        /* \"nestable.sol\":30018:30020  to */\n      dup4\n        /* \"nestable.sol\":30022:30029  tokenId */\n      dup4\n        /* \"nestable.sol\":30012:30017  _mint */\n      tag_388\n        /* \"nestable.sol\":30012:30030  _mint(to, tokenId) */\n      jump\t// in\n    tag_387:\n        /* \"nestable.sol\":30045:30098  _checkOnERC721Received(address(0), to, tokenId, data) */\n      tag_389\n        /* \"nestable.sol\":30076:30077  0 */\n      0x00\n        /* \"nestable.sol\":30080:30082  to */\n      dup5\n        /* \"nestable.sol\":30084:30091  tokenId */\n      dup5\n        /* \"nestable.sol\":30093:30097  data */\n      dup5\n        /* \"nestable.sol\":30045:30067  _checkOnERC721Received */\n      tag_390\n        /* \"nestable.sol\":30045:30098  _checkOnERC721Received(address(0), to, tokenId, data) */\n      jump\t// in\n    tag_389:\n        /* \"nestable.sol\":30040:30159  if (!_checkOnERC721Received(address(0), to, tokenId, data))... */\n      tag_391\n      jumpi\n        /* \"nestable.sol\":30119:30159  ERC721TransferToNonReceiverImplementer() */\n      mload(0x40)\n      0xbcb5663700000000000000000000000000000000000000000000000000000000\n      dup2\n      mstore\n      0x04\n      add\n      mload(0x40)\n      dup1\n      swap2\n      sub\n      swap1\n      revert\n        /* \"nestable.sol\":30040:30159  if (!_checkOnERC721Received(address(0), to, tokenId, data))... */\n    tag_391:\n        /* \"nestable.sol\":29888:30166  function _safeMint(... */\n      pop\n      pop\n      pop\n      jump\t// out\n        /* \"nestable.sol\":22367:22675  function _safeTransfer(... */\n    tag_247:\n        /* \"nestable.sol\":22517:22545  _transfer(from, to, tokenId) */\n      tag_393\n        /* \"nestable.sol\":22527:22531  from */\n      dup5\n        /* \"nestable.sol\":22533:22535  to */\n      dup5\n        /* \"nestable.sol\":22537:22544  tokenId */\n      dup5\n        /* \"nestable.sol\":22517:22526  _transfer */\n      tag_168\n        /* \"nestable.sol\":22517:22545  _transfer(from, to, tokenId) */\n      jump\t// in\n    tag_393:\n        /* \"nestable.sol\":22560:22607  _checkOnERC721Received(from, to, tokenId, data) */\n      tag_394\n        /* \"nestable.sol\":22583:22587  from */\n      dup5\n        /* \"nestable.sol\":22589:22591  to */\n      dup5\n        /* \"nestable.sol\":22593:22600  tokenId */\n      dup5\n        /* \"nestable.sol\":22602:22606  data */\n      dup5\n        /* \"nestable.sol\":22560:22582  _checkOnERC721Received */\n      tag_390\n        /* \"nestable.sol\":22560:22607  _checkOnERC721Received(from, to, tokenId, data) */\n      jump\t// in\n    tag_394:\n        /* \"nestable.sol\":22555:22668  if (!_checkOnERC721Received(from, to, tokenId, data))... */\n      tag_395\n      jumpi\n        /* \"nestable.sol\":22628:22668  ERC721TransferToNonReceiverImplementer() */\n      mload(0x40)\n      0xbcb5663700000000000000000000000000000000000000000000000000000000\n      dup2\n      mstore\n      0x04\n      add\n      mload(0x40)\n      dup1\n      swap2\n      sub\n      swap1\n      revert\n        /* \"nestable.sol\":22555:22668  if (!_checkOnERC721Received(from, to, tokenId, data))... */\n    tag_395:\n        /* \"nestable.sol\":22367:22675  function _safeTransfer(... */\n      pop\n      pop\n      pop\n      pop\n      jump\t// out\n        /* \"nestable.sol\":54981:56813  function _transferChild(... */\n    tag_252:\n        /* \"nestable.sol\":55263:55281  Child memory child */\n      tag_397\n      tag_170\n      jump\t// in\n    tag_397:\n        /* \"nestable.sol\":55295:55304  isPending */\n      dup3\n        /* \"nestable.sol\":55291:55441  if (isPending) {... */\n      iszero\n      tag_398\n      jumpi\n        /* \"nestable.sol\":55328:55363  pendingChildOf(tokenId, childIndex) */\n      tag_399\n        /* \"nestable.sol\":55343:55350  tokenId */\n      dup10\n        /* \"nestable.sol\":55352:55362  childIndex */\n      dup8\n        /* \"nestable.sol\":55328:55342  pendingChildOf */\n      tag_104\n        /* \"nestable.sol\":55328:55363  pendingChildOf(tokenId, childIndex) */\n      jump\t// in\n    tag_399:\n        /* \"nestable.sol\":55320:55363  child = pendingChildOf(tokenId, childIndex) */\n      swap1\n      pop\n        /* \"nestable.sol\":55291:55441  if (isPending) {... */\n      jump(tag_400)\n    tag_398:\n        /* \"nestable.sol\":55402:55430  childOf(tokenId, childIndex) */\n      tag_401\n        /* \"nestable.sol\":55410:55417  tokenId */\n      dup10\n        /* \"nestable.sol\":55419:55429  childIndex */\n      dup8\n        /* \"nestable.sol\":55402:55409  childOf */\n      tag_59\n        /* \"nestable.sol\":55402:55430  childOf(tokenId, childIndex) */\n      jump\t// in\n    tag_401:\n        /* \"nestable.sol\":55394:55430  child = childOf(tokenId, childIndex) */\n      swap1\n      pop\n        /* \"nestable.sol\":55291:55441  if (isPending) {... */\n    tag_400:\n        /* \"nestable.sol\":55450:55499  _checkExpectedChild(child, childAddress, childId) */\n      tag_402\n        /* \"nestable.sol\":55470:55475  child */\n      dup2\n        /* \"nestable.sol\":55477:55489  childAddress */\n      dup7\n        /* \"nestable.sol\":55491:55498  childId */\n      dup7\n        /* \"nestable.sol\":55450:55469  _checkExpectedChild */\n      tag_403\n        /* \"nestable.sol\":55450:55499  _checkExpectedChild(child, childAddress, childId) */\n      jump\t// in\n    tag_402:\n        /* \"nestable.sol\":55510:55655  _beforeTransferChild(... */\n      tag_404\n        /* \"nestable.sol\":55544:55551  tokenId */\n      dup10\n        /* \"nestable.sol\":55565:55575  childIndex */\n      dup8\n        /* \"nestable.sol\":55589:55601  childAddress */\n      dup8\n        /* \"nestable.sol\":55615:55622  childId */\n      dup8\n        /* \"nestable.sol\":55636:55645  isPending */\n      dup8\n        /* \"nestable.sol\":55510:55530  _beforeTransferChild */\n      tag_405\n        /* \"nestable.sol\":55510:55655  _beforeTransferChild(... */\n      jump\t// in\n    tag_404:\n        /* \"nestable.sol\":55670:55679  isPending */\n      dup3\n        /* \"nestable.sol\":55666:55912  if (isPending) {... */\n      iszero\n      tag_406\n      jumpi\n        /* \"nestable.sol\":55695:55753  _removeChildByIndex(_pendingChildren[tokenId], childIndex) */\n      tag_407\n        /* \"nestable.sol\":55715:55731  _pendingChildren */\n      0x05\n        /* \"nestable.sol\":55715:55740  _pendingChildren[tokenId] */\n      0x00\n        /* \"nestable.sol\":55732:55739  tokenId */\n      dup12\n        /* \"nestable.sol\":55715:55740  _pendingChildren[tokenId] */\n      dup2\n      mstore\n      0x20\n      add\n      swap1\n      dup2\n      mstore\n      0x20\n      add\n      0x00\n      keccak256\n        /* \"nestable.sol\":55742:55752  childIndex */\n      dup8\n        /* \"nestable.sol\":55695:55714  _removeChildByIndex */\n      tag_408\n        /* \"nestable.sol\":55695:55753  _removeChildByIndex(_pendingChildren[tokenId], childIndex) */\n      jump\t// in\n    tag_407:\n        /* \"nestable.sol\":55666:55912  if (isPending) {... */\n      jump(tag_409)\n    tag_406:\n        /* \"nestable.sol\":55791:55807  _childIsInActive */\n      0x06\n        /* \"nestable.sol\":55791:55821  _childIsInActive[childAddress] */\n      0x00\n        /* \"nestable.sol\":55808:55820  childAddress */\n      dup7\n        /* \"nestable.sol\":55791:55821  _childIsInActive[childAddress] */\n      0xffffffffffffffffffffffffffffffffffffffff\n      and\n      0xffffffffffffffffffffffffffffffffffffffff\n      and\n      dup2\n      mstore\n      0x20\n      add\n      swap1\n      dup2\n      mstore\n      0x20\n      add\n      0x00\n      keccak256\n        /* \"nestable.sol\":55791:55830  _childIsInActive[childAddress][childId] */\n      0x00\n        /* \"nestable.sol\":55822:55829  childId */\n      dup6\n        /* \"nestable.sol\":55791:55830  _childIsInActive[childAddress][childId] */\n      dup2\n      mstore\n      0x20\n      add\n      swap1\n      dup2\n      mstore\n      0x20\n      add\n      0x00\n      keccak256\n        /* \"nestable.sol\":55784:55830  delete _childIsInActive[childAddress][childId] */\n      0x00\n      swap1\n      sstore\n        /* \"nestable.sol\":55844:55901  _removeChildByIndex(_activeChildren[tokenId], childIndex) */\n      tag_410\n        /* \"nestable.sol\":55864:55879  _activeChildren */\n      0x04\n        /* \"nestable.sol\":55864:55888  _activeChildren[tokenId] */\n      0x00\n        /* \"nestable.sol\":55880:55887  tokenId */\n      dup12\n        /* \"nestable.sol\":55864:55888  _activeChildren[tokenId] */\n      dup2\n      mstore\n      0x20\n      add\n      swap1\n      dup2\n      mstore\n      0x20\n      add\n      0x00\n      keccak256\n        /* \"nestable.sol\":55890:55900  childIndex */\n      dup8\n        /* \"nestable.sol\":55844:55863  _removeChildByIndex */\n      tag_408\n        /* \"nestable.sol\":55844:55901  _removeChildByIndex(_activeChildren[tokenId], childIndex) */\n      jump\t// in\n    tag_410:\n        /* \"nestable.sol\":55666:55912  if (isPending) {... */\n    tag_409:\n        /* \"nestable.sol\":55940:55941  0 */\n      0x00\n        /* \"nestable.sol\":55926:55942  to != address(0) */\n      0xffffffffffffffffffffffffffffffffffffffff\n      and\n        /* \"nestable.sol\":55926:55928  to */\n      dup9\n        /* \"nestable.sol\":55926:55942  to != address(0) */\n      0xffffffffffffffffffffffffffffffffffffffff\n      and\n      eq\n        /* \"nestable.sol\":55922:56496  if (to != address(0)) {... */\n      tag_411\n      jumpi\n        /* \"nestable.sol\":55979:55980  0 */\n      0x00\n        /* \"nestable.sol\":55962:55975  destinationId */\n      dup8\n        /* \"nestable.sol\":55962:55980  destinationId == 0 */\n      sub\n        /* \"nestable.sol\":55958:56486  if (destinationId == 0) {... */\n      tag_412\n      jumpi\n        /* \"nestable.sol\":56008:56020  childAddress */\n      dup5\n        /* \"nestable.sol\":56000:56038  IERC721(childAddress).safeTransferFrom */\n      0xffffffffffffffffffffffffffffffffffffffff\n      and\n      0xb88d4fde\n        /* \"nestable.sol\":56068:56072  this */\n      address\n        /* \"nestable.sol\":56095:56097  to */\n      dup11\n        /* \"nestable.sol\":56119:56126  childId */\n      dup8\n        /* \"nestable.sol\":56148:56152  data */\n      dup7\n        /* \"nestable.sol\":56000:56170  IERC721(childAddress).safeTransferFrom(... */\n      mload(0x40)\n      dup6\n      0xffffffff\n      and\n      0xe0\n      shl\n      dup2\n      mstore\n      0x04\n      add\n      tag_413\n      swap5\n      swap4\n      swap3\n      swap2\n      swap1\n      tag_414\n      jump\t// in\n    tag_413:\n      0x00\n      mload(0x40)\n      dup1\n      dup4\n      sub\n      dup2\n      0x00\n      dup8\n      dup1\n      extcodesize\n      iszero\n      dup1\n      iszero\n      tag_415\n      jumpi\n      0x00\n      dup1\n      revert\n    tag_415:\n      pop\n      gas\n      call\n      iszero\n      dup1\n      iszero\n      tag_417\n      jumpi\n      returndatasize\n      0x00\n      dup1\n      returndatacopy\n      revert(0x00, returndatasize)\n    tag_417:\n      pop\n      pop\n      pop\n      pop\n        /* \"nestable.sol\":55958:56486  if (destinationId == 0) {... */\n      jump(tag_418)\n    tag_412:\n        /* \"nestable.sol\":56259:56264  child */\n      dup1\n        /* \"nestable.sol\":56259:56280  child.contractAddress */\n      0x20\n      add\n      mload\n        /* \"nestable.sol\":56250:56298  IERC6059(child.contractAddress).nestTransferFrom */\n      0xffffffffffffffffffffffffffffffffffffffff\n      and\n      0x064c0a3a\n        /* \"nestable.sol\":56328:56332  this */\n      address\n        /* \"nestable.sol\":56355:56357  to */\n      dup11\n        /* \"nestable.sol\":56379:56384  child */\n      dup5\n        /* \"nestable.sol\":56379:56392  child.tokenId */\n      0x00\n      add\n      mload\n        /* \"nestable.sol\":56414:56427  destinationId */\n      dup12\n        /* \"nestable.sol\":56449:56453  data */\n      dup8\n        /* \"nestable.sol\":56250:56471  IERC6059(child.contractAddress).nestTransferFrom(... */\n      mload(0x40)\n      dup7\n      0xffffffff\n      and\n      0xe0\n      shl\n      dup2\n      mstore\n      0x04\n      add\n      tag_419\n      swap6\n      swap5\n      swap4\n      swap3\n      swap2\n      swap1\n      tag_420\n      jump\t// in\n    tag_419:\n      0x00\n      mload(0x40)\n      dup1\n      dup4\n      sub\n      dup2\n      0x00\n      dup8\n      dup1\n      extcodesize\n      iszero\n      dup1\n      iszero\n      tag_421\n      jumpi\n      0x00\n      dup1\n      revert\n    tag_421:\n      pop\n      gas\n      call\n      iszero\n      dup1\n      iszero\n      tag_423\n      jumpi\n      returndatasize\n      0x00\n      dup1\n      returndatacopy\n      revert(0x00, returndatasize)\n    tag_423:\n      pop\n      pop\n      pop\n      pop\n        /* \"nestable.sol\":55958:56486  if (destinationId == 0) {... */\n    tag_418:\n        /* \"nestable.sol\":55922:56496  if (to != address(0)) {... */\n    tag_411:\n        /* \"nestable.sol\":56612:56619  childId */\n      dup4\n        /* \"nestable.sol\":56586:56598  childAddress */\n      dup6\n        /* \"nestable.sol\":56511:56652  ChildTransferred(... */\n      0xffffffffffffffffffffffffffffffffffffffff\n      and\n        /* \"nestable.sol\":56541:56548  tokenId */\n      dup11\n        /* \"nestable.sol\":56511:56652  ChildTransferred(... */\n      0x2bedee38cdb22411c14554191243c0e117c0088ddae3459876acd46a0fd53815\n        /* \"nestable.sol\":56562:56572  childIndex */\n      dup10\n        /* \"nestable.sol\":56633:56642  isPending */\n      dup8\n        /* \"nestable.sol\":56511:56652  ChildTransferred(... */\n      mload(0x40)\n      tag_424\n      swap3\n      swap2\n      swap1\n      tag_425\n      jump\t// in\n    tag_424:\n      mload(0x40)\n      dup1\n      swap2\n      sub\n      swap1\n      log4\n        /* \"nestable.sol\":56662:56806  _afterTransferChild(... */\n      tag_426\n        /* \"nestable.sol\":56695:56702  tokenId */\n      dup10\n        /* \"nestable.sol\":56716:56726  childIndex */\n      dup8\n        /* \"nestable.sol\":56740:56752  childAddress */\n      dup8\n        /* \"nestable.sol\":56766:56773  childId */\n      dup8\n        /* \"nestable.sol\":56787:56796  isPending */\n      dup8\n        /* \"nestable.sol\":56662:56681  _afterTransferChild */\n      tag_427\n        /* \"nestable.sol\":56662:56806  _afterTransferChild(... */\n      jump\t// in\n    tag_426:\n        /* \"nestable.sol\":55253:56813  {... */\n      pop\n        /* \"nestable.sol\":54981:56813  function _transferChild(... */\n      pop\n      pop\n      pop\n      pop\n      pop\n      pop\n      pop\n      pop\n      jump\t// out\n        /* \"nestable.sol\":49732:50701  function _acceptChild(... */\n    tag_257:\n        /* \"nestable.sol\":49938:49948  childIndex */\n      dup3\n        /* \"nestable.sol\":49900:49927  pendingChildrenOf(parentId) */\n      tag_429\n        /* \"nestable.sol\":49918:49926  parentId */\n      dup6\n        /* \"nestable.sol\":49900:49917  pendingChildrenOf */\n      tag_74\n        /* \"nestable.sol\":49900:49927  pendingChildrenOf(parentId) */\n      jump\t// in\n    tag_429:\n        /* \"nestable.sol\":49900:49934  pendingChildrenOf(parentId).length */\n      mload\n        /* \"nestable.sol\":49900:49948  pendingChildrenOf(parentId).length <= childIndex */\n      gt\n        /* \"nestable.sol\":49896:49998  if (pendingChildrenOf(parentId).length <= childIndex)... */\n      tag_430\n      jumpi\n        /* \"nestable.sol\":49969:49998  PendingChildIndexOutOfRange() */\n      mload(0x40)\n      0x9136d24f00000000000000000000000000000000000000000000000000000000\n      dup2\n      mstore\n      0x04\n      add\n      mload(0x40)\n      dup1\n      swap2\n      sub\n      swap1\n      revert\n        /* \"nestable.sol\":49896:49998  if (pendingChildrenOf(parentId).length <= childIndex)... */\n    tag_430:\n        /* \"nestable.sol\":50009:50027  Child memory child */\n      0x00\n        /* \"nestable.sol\":50030:50066  pendingChildOf(parentId, childIndex) */\n      tag_431\n        /* \"nestable.sol\":50045:50053  parentId */\n      dup6\n        /* \"nestable.sol\":50055:50065  childIndex */\n      dup6\n        /* \"nestable.sol\":50030:50044  pendingChildOf */\n      tag_104\n        /* \"nestable.sol\":50030:50066  pendingChildOf(parentId, childIndex) */\n      jump\t// in\n    tag_431:\n        /* \"nestable.sol\":50009:50066  Child memory child = pendingChildOf(parentId, childIndex) */\n      swap1\n      pop\n        /* \"nestable.sol\":50076:50125  _checkExpectedChild(child, childAddress, childId) */\n      tag_432\n        /* \"nestable.sol\":50096:50101  child */\n      dup2\n        /* \"nestable.sol\":50103:50115  childAddress */\n      dup5\n        /* \"nestable.sol\":50117:50124  childId */\n      dup5\n        /* \"nestable.sol\":50076:50095  _checkExpectedChild */\n      tag_403\n        /* \"nestable.sol\":50076:50125  _checkExpectedChild(child, childAddress, childId) */\n      jump\t// in\n    tag_432:\n        /* \"nestable.sol\":50182:50183  0 */\n      0x00\n        /* \"nestable.sol\":50139:50155  _childIsInActive */\n      0x06\n        /* \"nestable.sol\":50139:50169  _childIsInActive[childAddress] */\n      0x00\n        /* \"nestable.sol\":50156:50168  childAddress */\n      dup6\n        /* \"nestable.sol\":50139:50169  _childIsInActive[childAddress] */\n      0xffffffffffffffffffffffffffffffffffffffff\n      and\n      0xffffffffffffffffffffffffffffffffffffffff\n      and\n      dup2\n      mstore\n      0x20\n      add\n      swap1\n      dup2\n      mstore\n      0x20\n      add\n      0x00\n      keccak256\n        /* \"nestable.sol\":50139:50178  _childIsInActive[childAddress][childId] */\n      0x00\n        /* \"nestable.sol\":50170:50177  childId */\n      dup5\n        /* \"nestable.sol\":50139:50178  _childIsInActive[childAddress][childId] */\n      dup2\n      mstore\n      0x20\n      add\n      swap1\n      dup2\n      mstore\n      0x20\n      add\n      0x00\n      keccak256\n      sload\n        /* \"nestable.sol\":50139:50183  _childIsInActive[childAddress][childId] != 0 */\n      eq\n        /* \"nestable.sol\":50135:50224  if (_childIsInActive[childAddress][childId] != 0)... */\n      tag_433\n      jumpi\n        /* \"nestable.sol\":50204:50224  ChildAlreadyExists() */\n      mload(0x40)\n      0xff33650c00000000000000000000000000000000000000000000000000000000\n      dup2\n      mstore\n      0x04\n      add\n      mload(0x40)\n      dup1\n      swap2\n      sub\n      swap1\n      revert\n        /* \"nestable.sol\":50135:50224  if (_childIsInActive[childAddress][childId] != 0)... */\n    tag_433:\n        /* \"nestable.sol\":50235:50298  _beforeAcceptChild(parentId, childIndex, childAddress, childId) */\n      tag_434\n        /* \"nestable.sol\":50254:50262  parentId */\n      dup6\n        /* \"nestable.sol\":50264:50274  childIndex */\n      dup6\n        /* \"nestable.sol\":50276:50288  childAddress */\n      dup6\n        /* \"nestable.sol\":50290:50297  childId */\n      dup6\n        /* \"nestable.sol\":50235:50253  _beforeAcceptChild */\n      tag_435\n        /* \"nestable.sol\":50235:50298  _beforeAcceptChild(parentId, childIndex, childAddress, childId) */\n      jump\t// in\n    tag_434:\n        /* \"nestable.sol\":50341:50400  _removeChildByIndex(_pendingChildren[parentId], childIndex) */\n      tag_436\n        /* \"nestable.sol\":50361:50377  _pendingChildren */\n      0x05\n        /* \"nestable.sol\":50361:50387  _pendingChildren[parentId] */\n      0x00\n        /* \"nestable.sol\":50378:50386  parentId */\n      dup8\n        /* \"nestable.sol\":50361:50387  _pendingChildren[parentId] */\n      dup2\n      mstore\n      0x20\n      add\n      swap1\n      dup2\n      mstore\n      0x20\n      add\n      0x00\n      keccak256\n        /* \"nestable.sol\":50389:50399  childIndex */\n      dup6\n        /* \"nestable.sol\":50341:50360  _removeChildByIndex */\n      tag_408\n        /* \"nestable.sol\":50341:50400  _removeChildByIndex(_pendingChildren[parentId], childIndex) */\n      jump\t// in\n    tag_436:\n        /* \"nestable.sol\":50437:50452  _activeChildren */\n      0x04\n        /* \"nestable.sol\":50437:50462  _activeChildren[parentId] */\n      0x00\n        /* \"nestable.sol\":50453:50461  parentId */\n      dup7\n        /* \"nestable.sol\":50437:50462  _activeChildren[parentId] */\n      dup2\n      mstore\n      0x20\n      add\n      swap1\n      dup2\n      mstore\n      0x20\n      add\n      0x00\n      keccak256\n        /* \"nestable.sol\":50468:50473  child */\n      dup2\n        /* \"nestable.sol\":50437:50474  _activeChildren[parentId].push(child) */\n      swap1\n      dup1\n      0x01\n      dup2\n      sload\n      add\n      dup1\n      dup3\n      sstore\n      dup1\n      swap2\n      pop\n      pop\n      0x01\n      swap1\n      sub\n      swap1\n      0x00\n      mstore\n      keccak256(0x00, 0x20)\n      swap1\n      0x02\n      mul\n      add\n      0x00\n      swap1\n      swap2\n      swap1\n      swap2\n      swap1\n      swap2\n      pop\n      0x00\n      dup3\n      add\n      mload\n      dup2\n      0x00\n      add\n      sstore\n      0x20\n      dup3\n      add\n      mload\n      dup2\n      0x01\n      add\n      exp(0x0100, 0x00)\n      dup2\n      sload\n      dup2\n      0xffffffffffffffffffffffffffffffffffffffff\n      mul\n      not\n      and\n      swap1\n      dup4\n      0xffffffffffffffffffffffffffffffffffffffff\n      and\n      mul\n      or\n      swap1\n      sstore\n      pop\n      pop\n      pop\n        /* \"nestable.sol\":50526:50527  1 */\n      0x01\n        /* \"nestable.sol\":50484:50500  _childIsInActive */\n      0x06\n        /* \"nestable.sol\":50484:50514  _childIsInActive[childAddress] */\n      0x00\n        /* \"nestable.sol\":50501:50513  childAddress */\n      dup6\n        /* \"nestable.sol\":50484:50514  _childIsInActive[childAddress] */\n      0xffffffffffffffffffffffffffffffffffffffff\n      and\n      0xffffffffffffffffffffffffffffffffffffffff\n      and\n      dup2\n      mstore\n      0x20\n      add\n      swap1\n      dup2\n      mstore\n      0x20\n      add\n      0x00\n      keccak256\n        /* \"nestable.sol\":50484:50523  _childIsInActive[childAddress][childId] */\n      0x00\n        /* \"nestable.sol\":50515:50522  childId */\n      dup5\n        /* \"nestable.sol\":50484:50523  _childIsInActive[childAddress][childId] */\n      dup2\n      mstore\n      0x20\n      add\n      swap1\n      dup2\n      mstore\n      0x20\n      add\n      0x00\n      keccak256\n        /* \"nestable.sol\":50484:50527  _childIsInActive[childAddress][childId] = 1 */\n      dup2\n      swap1\n      sstore\n      pop\n        /* \"nestable.sol\":50613:50620  childId */\n      dup2\n        /* \"nestable.sol\":50599:50611  childAddress */\n      dup4\n        /* \"nestable.sol\":50563:50621  ChildAccepted(parentId, childIndex, childAddress, childId) */\n      0xffffffffffffffffffffffffffffffffffffffff\n      and\n        /* \"nestable.sol\":50577:50585  parentId */\n      dup7\n        /* \"nestable.sol\":50563:50621  ChildAccepted(parentId, childIndex, childAddress, childId) */\n      0x29486b9e2ae569b440933a9b1b421467306fa21f3dcad439c262910a634963a9\n        /* \"nestable.sol\":50587:50597  childIndex */\n      dup8\n        /* \"nestable.sol\":50563:50621  ChildAccepted(parentId, childIndex, childAddress, childId) */\n      mload(0x40)\n      tag_438\n      swap2\n      swap1\n      tag_94\n      jump\t// in\n    tag_438:\n      mload(0x40)\n      dup1\n      swap2\n      sub\n      swap1\n      log4\n        /* \"nestable.sol\":50632:50694  _afterAcceptChild(parentId, childIndex, childAddress, childId) */\n      tag_439\n        /* \"nestable.sol\":50650:50658  parentId */\n      dup6\n        /* \"nestable.sol\":50660:50670  childIndex */\n      dup6\n        /* \"nestable.sol\":50672:50684  childAddress */\n      dup6\n        /* \"nestable.sol\":50686:50693  childId */\n      dup6\n        /* \"nestable.sol\":50632:50649  _afterAcceptChild */\n      tag_440\n        /* \"nestable.sol\":50632:50694  _afterAcceptChild(parentId, childIndex, childAddress, childId) */\n      jump\t// in\n    tag_439:\n        /* \"nestable.sol\":49886:50701  {... */\n      pop\n        /* \"nestable.sol\":49732:50701  function _acceptChild(... */\n      pop\n      pop\n      pop\n      pop\n      jump\t// out\n        /* \"nestable.sol\":32323:32912  function _innerMint(... */\n    tag_270:\n        /* \"nestable.sol\":32461:32462  0 */\n      0x00\n        /* \"nestable.sol\":32447:32463  to == address(0) */\n      0xffffffffffffffffffffffffffffffffffffffff\n      and\n        /* \"nestable.sol\":32447:32449  to */\n      dup4\n        /* \"nestable.sol\":32447:32463  to == address(0) */\n      0xffffffffffffffffffffffffffffffffffffffff\n      and\n      sub\n        /* \"nestable.sol\":32443:32500  if (to == address(0)) revert ERC721MintToTheZeroAddress() */\n      tag_442\n      jumpi\n        /* \"nestable.sol\":32472:32500  ERC721MintToTheZeroAddress() */\n      mload(0x40)\n      0x25bd6bd300000000000000000000000000000000000000000000000000000000\n      dup2\n      mstore\n      0x04\n      add\n      mload(0x40)\n      dup1\n      swap2\n      sub\n      swap1\n      revert\n        /* \"nestable.sol\":32443:32500  if (to == address(0)) revert ERC721MintToTheZeroAddress() */\n    tag_442:\n        /* \"nestable.sol\":32514:32530  _exists(tokenId) */\n      tag_443\n        /* \"nestable.sol\":32522:32529  tokenId */\n      dup3\n        /* \"nestable.sol\":32514:32521  _exists */\n      tag_308\n        /* \"nestable.sol\":32514:32530  _exists(tokenId) */\n      jump\t// in\n    tag_443:\n        /* \"nestable.sol\":32510:32565  if (_exists(tokenId)) revert ERC721TokenAlreadyMinted() */\n      iszero\n      tag_444\n      jumpi\n        /* \"nestable.sol\":32539:32565  ERC721TokenAlreadyMinted() */\n      mload(0x40)\n      0xc5a8d37100000000000000000000000000000000000000000000000000000000\n      dup2\n      mstore\n      0x04\n      add\n      mload(0x40)\n      dup1\n      swap2\n      sub\n      swap1\n      revert\n        /* \"nestable.sol\":32510:32565  if (_exists(tokenId)) revert ERC721TokenAlreadyMinted() */\n    tag_444:\n        /* \"nestable.sol\":32590:32591  0 */\n      0x00\n        /* \"nestable.sol\":32579:32586  tokenId */\n      dup3\n        /* \"nestable.sol\":32579:32591  tokenId == 0 */\n      sub\n        /* \"nestable.sol\":32575:32617  if (tokenId == 0) revert IdZeroForbidden() */\n      tag_445\n      jumpi\n        /* \"nestable.sol\":32600:32617  IdZeroForbidden() */\n      mload(0x40)\n      0x238924d500000000000000000000000000000000000000000000000000000000\n      dup2\n      mstore\n      0x04\n      add\n      mload(0x40)\n      dup1\n      swap2\n      sub\n      swap1\n      revert\n        /* \"nestable.sol\":32575:32617  if (tokenId == 0) revert IdZeroForbidden() */\n    tag_445:\n        /* \"nestable.sol\":32628:32673  _beforeTokenTransfer(address(0), to, tokenId) */\n      tag_446\n        /* \"nestable.sol\":32657:32658  0 */\n      0x00\n        /* \"nestable.sol\":32661:32663  to */\n      dup5\n        /* \"nestable.sol\":32665:32672  tokenId */\n      dup5\n        /* \"nestable.sol\":32628:32648  _beforeTokenTransfer */\n      tag_296\n        /* \"nestable.sol\":32628:32673  _beforeTokenTransfer(address(0), to, tokenId) */\n      jump\t// in\n    tag_446:\n        /* \"nestable.sol\":32683:32752  _beforeNestedTokenTransfer(address(0), to, 0, destinationId, tokenId) */\n      tag_447\n        /* \"nestable.sol\":32718:32719  0 */\n      0x00\n        /* \"nestable.sol\":32722:32724  to */\n      dup5\n        /* \"nestable.sol\":32726:32727  0 */\n      0x00\n        /* \"nestable.sol\":32729:32742  destinationId */\n      dup5\n        /* \"nestable.sol\":32744:32751  tokenId */\n      dup7\n        /* \"nestable.sol\":32683:32709  _beforeNestedTokenTransfer */\n      tag_298\n        /* \"nestable.sol\":32683:32752  _beforeNestedTokenTransfer(address(0), to, 0, destinationId, tokenId) */\n      jump\t// in\n    tag_447:\n        /* \"nestable.sol\":32780:32781  1 */\n      0x01\n        /* \"nestable.sol\":32763:32772  _balances */\n      0x00\n        /* \"nestable.sol\":32763:32776  _balances[to] */\n      dup1\n        /* \"nestable.sol\":32773:32775  to */\n      dup6\n        /* \"nestable.sol\":32763:32776  _balances[to] */\n      0xffffffffffffffffffffffffffffffffffffffff\n      and\n      0xffffffffffffffffffffffffffffffffffffffff\n      and\n      dup2\n      mstore\n      0x20\n      add\n      swap1\n      dup2\n      mstore\n      0x20\n      add\n      0x00\n      keccak256\n      0x00\n        /* \"nestable.sol\":32763:32781  _balances[to] += 1 */\n      dup3\n      dup3\n      sload\n      tag_448\n      swap2\n      swap1\n      tag_304\n      jump\t// in\n    tag_448:\n      swap3\n      pop\n      pop\n      dup2\n      swap1\n      sstore\n      pop\n        /* \"nestable.sol\":32816:32905  DirectOwner({... */\n      mload(0x40)\n      dup1\n      0x40\n      add\n      0x40\n      mstore\n      dup1\n        /* \"nestable.sol\":32881:32894  destinationId */\n      dup3\n        /* \"nestable.sol\":32816:32905  DirectOwner({... */\n      dup2\n      mstore\n      0x20\n      add\n        /* \"nestable.sol\":32856:32858  to */\n      dup5\n        /* \"nestable.sol\":32816:32905  DirectOwner({... */\n      0xffffffffffffffffffffffffffffffffffffffff\n      and\n      dup2\n      mstore\n      pop\n        /* \"nestable.sol\":32791:32804  _directOwners */\n      0x03\n        /* \"nestable.sol\":32791:32813  _directOwners[tokenId] */\n      0x00\n        /* \"nestable.sol\":32805:32812  tokenId */\n      dup5\n        /* \"nestable.sol\":32791:32813  _directOwners[tokenId] */\n      dup2\n      mstore\n      0x20\n      add\n      swap1\n      dup2\n      mstore\n      0x20\n      add\n      0x00\n      keccak256\n        /* \"nestable.sol\":32791:32905  _directOwners[tokenId] = DirectOwner({... */\n      0x00\n      dup3\n      add\n      mload\n      dup2\n      0x00\n      add\n      sstore\n      0x20\n      dup3\n      add\n      mload\n      dup2\n      0x01\n      add\n      exp(0x0100, 0x00)\n      dup2\n      sload\n      dup2\n      0xffffffffffffffffffffffffffffffffffffffff\n      mul\n      not\n      and\n      swap1\n      dup4\n      0xffffffffffffffffffffffffffffffffffffffff\n      and\n      mul\n      or\n      swap1\n      sstore\n      pop\n      swap1\n      pop\n      pop\n        /* \"nestable.sol\":32323:32912  function _innerMint(... */\n      pop\n      pop\n      pop\n      jump\t// out\n        /* \"nestable.sol\":26678:27218  function _sendToNFT(... */\n    tag_272:\n        /* \"nestable.sol\":26873:26894  IERC6059 destContract */\n      0x00\n        /* \"nestable.sol\":26906:26908  to */\n      dup6\n        /* \"nestable.sol\":26873:26909  IERC6059 destContract = IERC6059(to) */\n      swap1\n      pop\n        /* \"nestable.sol\":26919:26931  destContract */\n      dup1\n        /* \"nestable.sol\":26919:26940  destContract.addChild */\n      0xffffffffffffffffffffffffffffffffffffffff\n      and\n      0x635490cc\n        /* \"nestable.sol\":26941:26954  destinationId */\n      dup6\n        /* \"nestable.sol\":26956:26963  tokenId */\n      dup6\n        /* \"nestable.sol\":26965:26969  data */\n      dup6\n        /* \"nestable.sol\":26919:26970  destContract.addChild(destinationId, tokenId, data) */\n      mload(0x40)\n      dup5\n      0xffffffff\n      and\n      0xe0\n      shl\n      dup2\n      mstore\n      0x04\n      add\n      tag_450\n      swap4\n      swap3\n      swap2\n      swap1\n      tag_451\n      jump\t// in\n    tag_450:\n      0x00\n      mload(0x40)\n      dup1\n      dup4\n      sub\n      dup2\n      0x00\n      dup8\n      dup1\n      extcodesize\n      iszero\n      dup1\n      iszero\n      tag_452\n      jumpi\n      0x00\n      dup1\n      revert\n    tag_452:\n      pop\n      gas\n      call\n      iszero\n      dup1\n      iszero\n      tag_454\n      jumpi\n      returndatasize\n      0x00\n      dup1\n      returndatacopy\n      revert(0x00, returndatasize)\n    tag_454:\n      pop\n      pop\n      pop\n      pop\n        /* \"nestable.sol\":26980:27018  _afterTokenTransfer(from, to, tokenId) */\n      tag_455\n        /* \"nestable.sol\":27000:27004  from */\n      dup8\n        /* \"nestable.sol\":27006:27008  to */\n      dup8\n        /* \"nestable.sol\":27010:27017  tokenId */\n      dup6\n        /* \"nestable.sol\":26980:26999  _afterTokenTransfer */\n      tag_325\n        /* \"nestable.sol\":26980:27018  _afterTokenTransfer(from, to, tokenId) */\n      jump\t// in\n    tag_455:\n        /* \"nestable.sol\":27028:27097  _afterNestedTokenTransfer(from, to, parentId, destinationId, tokenId) */\n      tag_456\n        /* \"nestable.sol\":27054:27058  from */\n      dup8\n        /* \"nestable.sol\":27060:27062  to */\n      dup8\n        /* \"nestable.sol\":27064:27072  parentId */\n      dup8\n        /* \"nestable.sol\":27074:27087  destinationId */\n      dup8\n        /* \"nestable.sol\":27089:27096  tokenId */\n      dup8\n        /* \"nestable.sol\":27028:27053  _afterNestedTokenTransfer */\n      tag_327\n        /* \"nestable.sol\":27028:27097  _afterNestedTokenTransfer(from, to, parentId, destinationId, tokenId) */\n      jump\t// in\n    tag_456:\n        /* \"nestable.sol\":27132:27139  tokenId */\n      dup3\n        /* \"nestable.sol\":27128:27130  to */\n      dup7\n        /* \"nestable.sol\":27113:27140  Transfer(from, to, tokenId) */\n      0xffffffffffffffffffffffffffffffffffffffff\n      and\n        /* \"nestable.sol\":27122:27126  from */\n      dup9\n        /* \"nestable.sol\":27113:27140  Transfer(from, to, tokenId) */\n      0xffffffffffffffffffffffffffffffffffffffff\n      and\n      0xddf252ad1be2c89b69c2b068fc378daa952ba7f163c4a11628f55a4df523b3ef\n      mload(0x40)\n      mload(0x40)\n      dup1\n      swap2\n      sub\n      swap1\n      log4\n        /* \"nestable.sol\":27203:27210  tokenId */\n      dup3\n        /* \"nestable.sol\":27174:27176  to */\n      dup7\n        /* \"nestable.sol\":27155:27211  NestTransfer(from, to, parentId, destinationId, tokenId) */\n      0xffffffffffffffffffffffffffffffffffffffff\n      and\n        /* \"nestable.sol\":27168:27172  from */\n      dup9\n        /* \"nestable.sol\":27155:27211  NestTransfer(from, to, parentId, destinationId, tokenId) */\n      0xffffffffffffffffffffffffffffffffffffffff\n      and\n      0x04444026cefd1b05506559cab59d1b865ae3ba4ed2fe5c894f04e522776c552d\n        /* \"nestable.sol\":27178:27186  parentId */\n      dup9\n        /* \"nestable.sol\":27188:27201  destinationId */\n      dup9\n        /* \"nestable.sol\":27155:27211  NestTransfer(from, to, parentId, destinationId, tokenId) */\n      mload(0x40)\n      tag_457\n      swap3\n      swap2\n      swap1\n      tag_376\n      jump\t// in\n    tag_457:\n      mload(0x40)\n      dup1\n      swap2\n      sub\n      swap1\n      log4\n        /* \"nestable.sol\":26863:27218  {... */\n      pop\n        /* \"nestable.sol\":26678:27218  function _sendToNFT(... */\n      pop\n      pop\n      pop\n      pop\n      pop\n      pop\n      jump\t// out\n        /* \"nestable.sol\":43005:43537  function _isApprovedOrDirectOwner(... */\n    tag_278:\n        /* \"nestable.sol\":43126:43130  bool */\n      0x00\n        /* \"nestable.sol\":43143:43156  address owner */\n      dup1\n        /* \"nestable.sol\":43158:43174  uint256 parentId */\n      0x00\n        /* \"nestable.sol\":43180:43202  directOwnerOf(tokenId) */\n      tag_459\n        /* \"nestable.sol\":43194:43201  tokenId */\n      dup5\n        /* \"nestable.sol\":43180:43193  directOwnerOf */\n      tag_136\n        /* \"nestable.sol\":43180:43202  directOwnerOf(tokenId) */\n      jump\t// in\n    tag_459:\n        /* \"nestable.sol\":43142:43202  (address owner, uint256 parentId, ) = directOwnerOf(tokenId) */\n      pop\n      swap2\n      pop\n      swap2\n      pop\n        /* \"nestable.sol\":43292:43293  0 */\n      0x00\n        /* \"nestable.sol\":43280:43288  parentId */\n      dup2\n        /* \"nestable.sol\":43280:43293  parentId != 0 */\n      eq\n        /* \"nestable.sol\":43276:43345  if (parentId != 0) {... */\n      tag_460\n      jumpi\n        /* \"nestable.sol\":43328:43333  owner */\n      dup2\n        /* \"nestable.sol\":43317:43333  spender == owner */\n      0xffffffffffffffffffffffffffffffffffffffff\n      and\n        /* \"nestable.sol\":43317:43324  spender */\n      dup6\n        /* \"nestable.sol\":43317:43333  spender == owner */\n      0xffffffffffffffffffffffffffffffffffffffff\n      and\n      eq\n        /* \"nestable.sol\":43309:43334  return (spender == owner) */\n      swap3\n      pop\n      pop\n      pop\n      jump(tag_458)\n        /* \"nestable.sol\":43276:43345  if (parentId != 0) {... */\n    tag_460:\n        /* \"nestable.sol\":43429:43434  owner */\n      dup2\n        /* \"nestable.sol\":43418:43434  spender == owner */\n      0xffffffffffffffffffffffffffffffffffffffff\n      and\n        /* \"nestable.sol\":43418:43425  spender */\n      dup6\n        /* \"nestable.sol\":43418:43434  spender == owner */\n      0xffffffffffffffffffffffffffffffffffffffff\n      and\n      eq\n        /* \"nestable.sol\":43418:43482  spender == owner ||... */\n      dup1\n      tag_461\n      jumpi\n      pop\n        /* \"nestable.sol\":43450:43482  isApprovedForAll(owner, spender) */\n      tag_462\n        /* \"nestable.sol\":43467:43472  owner */\n      dup3\n        /* \"nestable.sol\":43474:43481  spender */\n      dup7\n        /* \"nestable.sol\":43450:43466  isApprovedForAll */\n      tag_128\n        /* \"nestable.sol\":43450:43482  isApprovedForAll(owner, spender) */\n      jump\t// in\n    tag_462:\n        /* \"nestable.sol\":43418:43482  spender == owner ||... */\n    tag_461:\n        /* \"nestable.sol\":43418:43529  spender == owner ||... */\n      dup1\n      tag_463\n      jumpi\n      pop\n        /* \"nestable.sol\":43522:43529  spender */\n      dup5\n        /* \"nestable.sol\":43498:43529  getApproved(tokenId) == spender */\n      0xffffffffffffffffffffffffffffffffffffffff\n      and\n        /* \"nestable.sol\":43498:43518  getApproved(tokenId) */\n      tag_464\n        /* \"nestable.sol\":43510:43517  tokenId */\n      dup6\n        /* \"nestable.sol\":43498:43509  getApproved */\n      tag_45\n        /* \"nestable.sol\":43498:43518  getApproved(tokenId) */\n      jump\t// in\n    tag_464:\n        /* \"nestable.sol\":43498:43529  getApproved(tokenId) == spender */\n      0xffffffffffffffffffffffffffffffffffffffff\n      and\n      eq\n        /* \"nestable.sol\":43418:43529  spender == owner ||... */\n    tag_463:\n        /* \"nestable.sol\":43410:43530  return (spender == owner ||... */\n      swap3\n      pop\n      pop\n      pop\n        /* \"nestable.sol\":43005:43537  function _isApprovedOrDirectOwner(... */\n    tag_458:\n      swap3\n      swap2\n      pop\n      pop\n      jump\t// out\n        /* \"nestable.sol\":27846:28877  function _checkForInheritanceLoop(... */\n    tag_294:\n        /* \"nestable.sol\":27999:28008  uint256 i */\n      0x00\n        /* \"nestable.sol\":27994:28837  for (uint256 i; i < _MAX_LEVELS_TO_CHECK_FOR_INHERITANCE_LOOP; ) {... */\n    tag_466:\n        /* \"nestable.sol\":15830:15833  100 */\n      0x64\n        /* \"nestable.sol\":28010:28011  i */\n      dup2\n        /* \"nestable.sol\":28010:28055  i < _MAX_LEVELS_TO_CHECK_FOR_INHERITANCE_LOOP */\n      lt\n        /* \"nestable.sol\":27994:28837  for (uint256 i; i < _MAX_LEVELS_TO_CHECK_FOR_INHERITANCE_LOOP; ) {... */\n      iszero\n      tag_467\n      jumpi\n        /* \"nestable.sol\":28091:28108  address nextOwner */\n      0x00\n        /* \"nestable.sol\":28126:28150  uint256 nextOwnerTokenId */\n      dup1\n        /* \"nestable.sol\":28168:28178  bool isNft */\n      0x00\n        /* \"nestable.sol\":28204:28218  targetContract */\n      dup6\n        /* \"nestable.sol\":28195:28233  IERC6059(targetContract).directOwnerOf */\n      0xffffffffffffffffffffffffffffffffffffffff\n      and\n      0xfb25fb7a\n        /* \"nestable.sol\":28234:28242  targetId */\n      dup7\n        /* \"nestable.sol\":28195:28243  IERC6059(targetContract).directOwnerOf(targetId) */\n      mload(0x40)\n      dup3\n      0xffffffff\n      and\n      0xe0\n      shl\n      dup2\n      mstore\n      0x04\n      add\n      tag_469\n      swap2\n      swap1\n      tag_94\n      jump\t// in\n    tag_469:\n      0x60\n      mload(0x40)\n      dup1\n      dup4\n      sub\n      dup2\n      dup7\n      gas\n      staticcall\n      iszero\n      dup1\n      iszero\n      tag_471\n      jumpi\n      returndatasize\n      0x00\n      dup1\n      returndatacopy\n      revert(0x00, returndatasize)\n    tag_471:\n      pop\n      pop\n      pop\n      pop\n      mload(0x40)\n      returndatasize\n      not(0x1f)\n      0x1f\n      dup3\n      add\n      and\n      dup3\n      add\n      dup1\n      0x40\n      mstore\n      pop\n      dup2\n      add\n      swap1\n      tag_472\n      swap2\n      swap1\n      tag_473\n      jump\t// in\n    tag_472:\n        /* \"nestable.sol\":28073:28243  (... */\n      swap3\n      pop\n      swap3\n      pop\n      swap3\n      pop\n        /* \"nestable.sol\":28334:28339  isNft */\n      dup1\n        /* \"nestable.sol\":28329:28380  if (!isNft) {... */\n      tag_474\n      jumpi\n        /* \"nestable.sol\":28359:28366  return; */\n      pop\n      pop\n      pop\n      pop\n      jump(tag_465)\n        /* \"nestable.sol\":28329:28380  if (!isNft) {... */\n    tag_474:\n        /* \"nestable.sol\":28511:28515  this */\n      address\n        /* \"nestable.sol\":28490:28516  nextOwner == address(this) */\n      0xffffffffffffffffffffffffffffffffffffffff\n      and\n        /* \"nestable.sol\":28490:28499  nextOwner */\n      dup4\n        /* \"nestable.sol\":28490:28516  nextOwner == address(this) */\n      0xffffffffffffffffffffffffffffffffffffffff\n      and\n      eq\n        /* \"nestable.sol\":28490:28549  nextOwner == address(this) && nextOwnerTokenId == currentId */\n      dup1\n      iszero\n      tag_475\n      jumpi\n      pop\n        /* \"nestable.sol\":28540:28549  currentId */\n      dup7\n        /* \"nestable.sol\":28520:28536  nextOwnerTokenId */\n      dup3\n        /* \"nestable.sol\":28520:28549  nextOwnerTokenId == currentId */\n      eq\n        /* \"nestable.sol\":28490:28549  nextOwner == address(this) && nextOwnerTokenId == currentId */\n    tag_475:\n        /* \"nestable.sol\":28486:28621  if (nextOwner == address(this) && nextOwnerTokenId == currentId) {... */\n      iszero\n      tag_476\n      jumpi\n        /* \"nestable.sol\":28576:28606  NestableTransferToDescendant() */\n      mload(0x40)\n      0xf911968900000000000000000000000000000000000000000000000000000000\n      dup2\n      mstore\n      0x04\n      add\n      mload(0x40)\n      dup1\n      swap2\n      sub\n      swap1\n      revert\n        /* \"nestable.sol\":28486:28621  if (nextOwner == address(this) && nextOwnerTokenId == currentId) {... */\n    tag_476:\n        /* \"nestable.sol\":28717:28726  nextOwner */\n      dup3\n        /* \"nestable.sol\":28700:28726  targetContract = nextOwner */\n      swap6\n      pop\n        /* \"nestable.sol\":28751:28767  nextOwnerTokenId */\n      dup2\n        /* \"nestable.sol\":28740:28767  targetId = nextOwnerTokenId */\n      swap5\n      pop\n        /* \"nestable.sol\":28809:28812  ++i */\n      dup4\n      0x01\n      add\n      swap4\n      pop\n        /* \"nestable.sol\":28059:28837  {... */\n      pop\n      pop\n      pop\n        /* \"nestable.sol\":27994:28837  for (uint256 i; i < _MAX_LEVELS_TO_CHECK_FOR_INHERITANCE_LOOP; ) {... */\n      jump(tag_466)\n    tag_467:\n      pop\n        /* \"nestable.sol\":28853:28870  NestableTooDeep() */\n      mload(0x40)\n      0xeb20c44200000000000000000000000000000000000000000000000000000000\n      dup2\n      mstore\n      0x04\n      add\n      mload(0x40)\n      dup1\n      swap2\n      sub\n      swap1\n      revert\n        /* \"nestable.sol\":27846:28877  function _checkForInheritanceLoop(... */\n    tag_465:\n      pop\n      pop\n      pop\n      jump\t// out\n        /* \"nestable.sol\":61867:61989  function _beforeTokenTransfer(... */\n    tag_296:\n      pop\n      pop\n      pop\n      jump\t// out\n        /* \"nestable.sol\":63250:63434  function _beforeNestedTokenTransfer(... */\n    tag_298:\n      pop\n      pop\n      pop\n      pop\n      pop\n      jump\t// out\n        /* \"nestable.sol\":41168:41554  function _updateOwnerAndClearApprovals(... */\n    tag_302:\n        /* \"nestable.sol\":41333:41422  DirectOwner({... */\n      mload(0x40)\n      dup1\n      0x40\n      add\n      0x40\n      mstore\n      dup1\n        /* \"nestable.sol\":41398:41411  destinationId */\n      dup4\n        /* \"nestable.sol\":41333:41422  DirectOwner({... */\n      dup2\n      mstore\n      0x20\n      add\n        /* \"nestable.sol\":41373:41375  to */\n      dup3\n        /* \"nestable.sol\":41333:41422  DirectOwner({... */\n      0xffffffffffffffffffffffffffffffffffffffff\n      and\n      dup2\n      mstore\n      pop\n        /* \"nestable.sol\":41308:41321  _directOwners */\n      0x03\n        /* \"nestable.sol\":41308:41330  _directOwners[tokenId] */\n      0x00\n        /* \"nestable.sol\":41322:41329  tokenId */\n      dup6\n        /* \"nestable.sol\":41308:41330  _directOwners[tokenId] */\n      dup2\n      mstore\n      0x20\n      add\n      swap1\n      dup2\n      mstore\n      0x20\n      add\n      0x00\n      keccak256\n        /* \"nestable.sol\":41308:41422  _directOwners[tokenId] = DirectOwner({... */\n      0x00\n      dup3\n      add\n      mload\n      dup2\n      0x00\n      add\n      sstore\n      0x20\n      dup3\n      add\n      mload\n      dup2\n      0x01\n      add\n      exp(0x0100, 0x00)\n      dup2\n      sload\n      dup2\n      0xffffffffffffffffffffffffffffffffffffffff\n      mul\n      not\n      and\n      swap1\n      dup4\n      0xffffffffffffffffffffffffffffffffffffffff\n      and\n      mul\n      or\n      swap1\n      sstore\n      pop\n      swap1\n      pop\n      pop\n        /* \"nestable.sol\":41484:41513  _approve(address(0), tokenId) */\n      tag_480\n        /* \"nestable.sol\":41501:41502  0 */\n      0x00\n        /* \"nestable.sol\":41505:41512  tokenId */\n      dup5\n        /* \"nestable.sol\":41484:41492  _approve */\n      tag_163\n        /* \"nestable.sol\":41484:41513  _approve(address(0), tokenId) */\n      jump\t// in\n    tag_480:\n        /* \"nestable.sol\":41523:41547  _cleanApprovals(tokenId) */\n      tag_481\n        /* \"nestable.sol\":41539:41546  tokenId */\n      dup4\n        /* \"nestable.sol\":41523:41538  _cleanApprovals */\n      tag_352\n        /* \"nestable.sol\":41523:41547  _cleanApprovals(tokenId) */\n      jump\t// in\n    tag_481:\n        /* \"nestable.sol\":41168:41554  function _updateOwnerAndClearApprovals(... */\n      pop\n      pop\n      pop\n      jump\t// out\n        /* \"nestable.sol\":44485:44629  function _exists(uint256 tokenId) internal view virtual returns (bool) {... */\n    tag_308:\n        /* \"nestable.sol\":44550:44554  bool */\n      0x00\n        /* \"nestable.sol\":44620:44621  0 */\n      dup1\n        /* \"nestable.sol\":44573:44622  _directOwners[tokenId].ownerAddress != address(0) */\n      0xffffffffffffffffffffffffffffffffffffffff\n      and\n        /* \"nestable.sol\":44573:44586  _directOwners */\n      0x03\n        /* \"nestable.sol\":44573:44595  _directOwners[tokenId] */\n      0x00\n        /* \"nestable.sol\":44587:44594  tokenId */\n      dup5\n        /* \"nestable.sol\":44573:44595  _directOwners[tokenId] */\n      dup2\n      mstore\n      0x20\n      add\n      swap1\n      dup2\n      mstore\n      0x20\n      add\n      0x00\n      keccak256\n        /* \"nestable.sol\":44573:44608  _directOwners[tokenId].ownerAddress */\n      0x01\n      add\n      0x00\n      swap1\n      sload\n      swap1\n      0x0100\n      exp\n      swap1\n      div\n      0xffffffffffffffffffffffffffffffffffffffff\n      and\n        /* \"nestable.sol\":44573:44622  _directOwners[tokenId].ownerAddress != address(0) */\n      0xffffffffffffffffffffffffffffffffffffffff\n      and\n      eq\n      iszero\n        /* \"nestable.sol\":44566:44622  return _directOwners[tokenId].ownerAddress != address(0) */\n      swap1\n      pop\n        /* \"nestable.sol\":44485:44629  function _exists(uint256 tokenId) internal view virtual returns (bool) {... */\n      swap2\n      swap1\n      pop\n      jump\t// out\n        /* \"nestable.sol\":62568:62689  function _afterTokenTransfer(... */\n    tag_325:\n      pop\n      pop\n      pop\n      jump\t// out\n        /* \"nestable.sol\":63977:64160  function _afterNestedTokenTransfer(... */\n    tag_327:\n      pop\n      pop\n      pop\n      pop\n      pop\n      jump\t// out\n        /* \"nestable.sol\":42307:42607  function _isApprovedOrOwner(... */\n    tag_334:\n        /* \"nestable.sol\":42422:42426  bool */\n      0x00\n        /* \"nestable.sol\":42438:42451  address owner */\n      dup1\n        /* \"nestable.sol\":42454:42470  ownerOf(tokenId) */\n      tag_486\n        /* \"nestable.sol\":42462:42469  tokenId */\n      dup4\n        /* \"nestable.sol\":42454:42461  ownerOf */\n      tag_79\n        /* \"nestable.sol\":42454:42470  ownerOf(tokenId) */\n      jump\t// in\n    tag_486:\n        /* \"nestable.sol\":42438:42470  address owner = ownerOf(tokenId) */\n      swap1\n      pop\n        /* \"nestable.sol\":42499:42504  owner */\n      dup1\n        /* \"nestable.sol\":42488:42504  spender == owner */\n      0xffffffffffffffffffffffffffffffffffffffff\n      and\n        /* \"nestable.sol\":42488:42495  spender */\n      dup5\n        /* \"nestable.sol\":42488:42504  spender == owner */\n      0xffffffffffffffffffffffffffffffffffffffff\n      and\n      eq\n        /* \"nestable.sol\":42488:42552  spender == owner ||... */\n      dup1\n      tag_487\n      jumpi\n      pop\n        /* \"nestable.sol\":42520:42552  isApprovedForAll(owner, spender) */\n      tag_488\n        /* \"nestable.sol\":42537:42542  owner */\n      dup2\n        /* \"nestable.sol\":42544:42551  spender */\n      dup6\n        /* \"nestable.sol\":42520:42536  isApprovedForAll */\n      tag_128\n        /* \"nestable.sol\":42520:42552  isApprovedForAll(owner, spender) */\n      jump\t// in\n    tag_488:\n        /* \"nestable.sol\":42488:42552  spender == owner ||... */\n    tag_487:\n        /* \"nestable.sol\":42488:42599  spender == owner ||... */\n      dup1\n      tag_489\n      jumpi\n      pop\n        /* \"nestable.sol\":42592:42599  spender */\n      dup4\n        /* \"nestable.sol\":42568:42599  getApproved(tokenId) == spender */\n      0xffffffffffffffffffffffffffffffffffffffff\n      and\n        /* \"nestable.sol\":42568:42588  getApproved(tokenId) */\n      tag_490\n        /* \"nestable.sol\":42580:42587  tokenId */\n      dup5\n        /* \"nestable.sol\":42568:42579  getApproved */\n      tag_45\n        /* \"nestable.sol\":42568:42588  getApproved(tokenId) */\n      jump\t// in\n    tag_490:\n        /* \"nestable.sol\":42568:42599  getApproved(tokenId) == spender */\n      0xffffffffffffffffffffffffffffffffffffffff\n      and\n      eq\n        /* \"nestable.sol\":42488:42599  spender == owner ||... */\n    tag_489:\n        /* \"nestable.sol\":42480:42600  return (spender == owner ||... */\n      swap2\n      pop\n      pop\n        /* \"nestable.sol\":42307:42607  function _isApprovedOrOwner(... */\n      swap3\n      swap2\n      pop\n      pop\n      jump\t// out\n        /* \"nestable.sol\":71039:71109  function _beforeRejectAllChildren(uint256 tokenId) internal virtual {} */\n    tag_339:\n      pop\n      jump\t// out\n        /* \"nestable.sol\":71426:71495  function _afterRejectAllChildren(uint256 tokenId) internal virtual {} */\n    tag_343:\n      pop\n      jump\t// out\n        /* \"nestable.sol\":41723:41784  function _cleanApprovals(uint256 tokenId) internal virtual {} */\n    tag_352:\n      pop\n      jump\t// out\n        /* \"nestable.sol\":30589:30921  function _mint(address to, uint256 tokenId) internal virtual {... */\n    tag_388:\n        /* \"nestable.sol\":30660:30686  _innerMint(to, tokenId, 0) */\n      tag_495\n        /* \"nestable.sol\":30671:30673  to */\n      dup3\n        /* \"nestable.sol\":30675:30682  tokenId */\n      dup3\n        /* \"nestable.sol\":30684:30685  0 */\n      0x00\n        /* \"nestable.sol\":30660:30670  _innerMint */\n      tag_270\n        /* \"nestable.sol\":30660:30686  _innerMint(to, tokenId, 0) */\n      jump\t// in\n    tag_495:\n        /* \"nestable.sol\":30727:30734  tokenId */\n      dup1\n        /* \"nestable.sol\":30723:30725  to */\n      dup3\n        /* \"nestable.sol\":30702:30735  Transfer(address(0), to, tokenId) */\n      0xffffffffffffffffffffffffffffffffffffffff\n      and\n        /* \"nestable.sol\":30719:30720  0 */\n      0x00\n        /* \"nestable.sol\":30702:30735  Transfer(address(0), to, tokenId) */\n      0xffffffffffffffffffffffffffffffffffffffff\n      and\n      0xddf252ad1be2c89b69c2b068fc378daa952ba7f163c4a11628f55a4df523b3ef\n      mload(0x40)\n      mload(0x40)\n      dup1\n      swap2\n      sub\n      swap1\n      log4\n        /* \"nestable.sol\":30785:30792  tokenId */\n      dup1\n        /* \"nestable.sol\":30775:30777  to */\n      dup3\n        /* \"nestable.sol\":30750:30793  NestTransfer(address(0), to, 0, 0, tokenId) */\n      0xffffffffffffffffffffffffffffffffffffffff\n      and\n        /* \"nestable.sol\":30771:30772  0 */\n      0x00\n        /* \"nestable.sol\":30750:30793  NestTransfer(address(0), to, 0, 0, tokenId) */\n      0xffffffffffffffffffffffffffffffffffffffff\n      and\n      0x04444026cefd1b05506559cab59d1b865ae3ba4ed2fe5c894f04e522776c552d\n        /* \"nestable.sol\":30779:30780  0 */\n      0x00\n        /* \"nestable.sol\":30782:30783  0 */\n      dup1\n        /* \"nestable.sol\":30750:30793  NestTransfer(address(0), to, 0, 0, tokenId) */\n      mload(0x40)\n      tag_496\n      swap3\n      swap2\n      swap1\n      tag_497\n      jump\t// in\n    tag_496:\n      mload(0x40)\n      dup1\n      swap2\n      sub\n      swap1\n      log4\n        /* \"nestable.sol\":30804:30848  _afterTokenTransfer(address(0), to, tokenId) */\n      tag_498\n        /* \"nestable.sol\":30832:30833  0 */\n      0x00\n        /* \"nestable.sol\":30836:30838  to */\n      dup4\n        /* \"nestable.sol\":30840:30847  tokenId */\n      dup4\n        /* \"nestable.sol\":30804:30823  _afterTokenTransfer */\n      tag_325\n        /* \"nestable.sol\":30804:30848  _afterTokenTransfer(address(0), to, tokenId) */\n      jump\t// in\n    tag_498:\n        /* \"nestable.sol\":30858:30914  _afterNestedTokenTransfer(address(0), to, 0, 0, tokenId) */\n      tag_499\n        /* \"nestable.sol\":30892:30893  0 */\n      0x00\n        /* \"nestable.sol\":30896:30898  to */\n      dup4\n        /* \"nestable.sol\":30900:30901  0 */\n      0x00\n        /* \"nestable.sol\":30903:30904  0 */\n      dup1\n        /* \"nestable.sol\":30906:30913  tokenId */\n      dup6\n        /* \"nestable.sol\":30858:30883  _afterNestedTokenTransfer */\n      tag_327\n        /* \"nestable.sol\":30858:30914  _afterNestedTokenTransfer(address(0), to, 0, 0, tokenId) */\n      jump\t// in\n    tag_499:\n        /* \"nestable.sol\":30589:30921  function _mint(address to, uint256 tokenId) internal virtual {... */\n      pop\n      pop\n      jump\t// out\n        /* \"nestable.sol\":45177:46121  function _checkOnERC721Received(... */\n    tag_390:\n        /* \"nestable.sol\":45326:45330  bool */\n      0x00\n        /* \"nestable.sol\":45346:45361  to.isContract() */\n      tag_501\n        /* \"nestable.sol\":45346:45348  to */\n      dup5\n        /* \"nestable.sol\":45346:45359  to.isContract */\n      0xffffffffffffffffffffffffffffffffffffffff\n      and\n      tag_199\n        /* \"nestable.sol\":45346:45361  to.isContract() */\n      jump\t// in\n    tag_501:\n        /* \"nestable.sol\":45342:46115  if (to.isContract()) {... */\n      iszero\n      tag_502\n      jumpi\n        /* \"nestable.sol\":45413:45415  to */\n      dup4\n        /* \"nestable.sol\":45397:45433  IERC721Receiver(to).onERC721Received */\n      0xffffffffffffffffffffffffffffffffffffffff\n      and\n      0x150b7a02\n        /* \"nestable.sol\":45455:45467  _msgSender() */\n      tag_503\n        /* \"nestable.sol\":45455:45465  _msgSender */\n      tag_157\n        /* \"nestable.sol\":45455:45467  _msgSender() */\n      jump\t// in\n    tag_503:\n        /* \"nestable.sol\":45489:45493  from */\n      dup8\n        /* \"nestable.sol\":45515:45522  tokenId */\n      dup7\n        /* \"nestable.sol\":45544:45548  data */\n      dup7\n        /* \"nestable.sol\":45397:45566  IERC721Receiver(to).onERC721Received(... */\n      mload(0x40)\n      dup6\n      0xffffffff\n      and\n      0xe0\n      shl\n      dup2\n      mstore\n      0x04\n      add\n      tag_504\n      swap5\n      swap4\n      swap3\n      swap2\n      swap1\n      tag_414\n      jump\t// in\n    tag_504:\n      0x20\n      mload(0x40)\n      dup1\n      dup4\n      sub\n      dup2\n      0x00\n      dup8\n      gas\n      call\n      swap3\n      pop\n      pop\n      pop\n      dup1\n      iszero\n      tag_505\n      jumpi\n      pop\n      mload(0x40)\n      returndatasize\n      not(0x1f)\n      0x1f\n      dup3\n      add\n      and\n      dup3\n      add\n      dup1\n      0x40\n      mstore\n      pop\n      dup2\n      add\n      swap1\n      tag_506\n      swap2\n      swap1\n      tag_507\n      jump\t// in\n    tag_506:\n      0x01\n    tag_505:\n        /* \"nestable.sol\":45377:46063  try... */\n      tag_508\n      jumpi\n      returndatasize\n      dup1\n      0x00\n      dup2\n      eq\n      tag_513\n      jumpi\n      mload(0x40)\n      swap2\n      pop\n      and(add(returndatasize, 0x3f), not(0x1f))\n      dup3\n      add\n      0x40\n      mstore\n      returndatasize\n      dup3\n      mstore\n      returndatasize\n      0x00\n      0x20\n      dup5\n      add\n      returndatacopy\n      jump(tag_512)\n    tag_513:\n      0x60\n      swap2\n      pop\n    tag_512:\n      pop\n        /* \"nestable.sol\":45762:45763  0 */\n      0x00\n        /* \"nestable.sol\":45745:45751  reason */\n      dup2\n        /* \"nestable.sol\":45745:45758  reason.length */\n      mload\n        /* \"nestable.sol\":45745:45763  reason.length == 0 */\n      sub\n        /* \"nestable.sol\":45741:46049  if (reason.length == 0) {... */\n      tag_514\n      jumpi\n        /* \"nestable.sol\":45794:45834  ERC721TransferToNonReceiverImplementer() */\n      mload(0x40)\n      0xbcb5663700000000000000000000000000000000000000000000000000000000\n      dup2\n      mstore\n      0x04\n      add\n      mload(0x40)\n      dup1\n      swap2\n      sub\n      swap1\n      revert\n        /* \"nestable.sol\":45741:46049  if (reason.length == 0) {... */\n    tag_514:\n        /* \"nestable.sol\":46001:46007  reason */\n      dup1\n        /* \"nestable.sol\":45995:46008  mload(reason) */\n      mload\n        /* \"nestable.sol\":45986:45992  reason */\n      dup2\n        /* \"nestable.sol\":45982:45984  32 */\n      0x20\n        /* \"nestable.sol\":45978:45993  add(32, reason) */\n      add\n        /* \"nestable.sol\":45971:46009  revert(add(32, reason), mload(reason)) */\n      revert\n        /* \"nestable.sol\":45377:46063  try... */\n    tag_508:\n        /* \"nestable.sol\":45638:45679  IERC721Receiver.onERC721Received.selector */\n      shl(0xe0, 0x150b7a02)\n        /* \"nestable.sol\":45628:45679  retval == IERC721Receiver.onERC721Received.selector */\n      not(0xffffffffffffffffffffffffffffffffffffffffffffffffffffffff)\n      and\n        /* \"nestable.sol\":45628:45634  retval */\n      dup2\n        /* \"nestable.sol\":45628:45679  retval == IERC721Receiver.onERC721Received.selector */\n      not(0xffffffffffffffffffffffffffffffffffffffffffffffffffffffff)\n      and\n      eq\n        /* \"nestable.sol\":45621:45679  return retval == IERC721Receiver.onERC721Received.selector */\n      swap2\n      pop\n      pop\n      jump(tag_500)\n        /* \"nestable.sol\":45342:46115  if (to.isContract()) {... */\n    tag_502:\n        /* \"nestable.sol\":46100:46104  true */\n      0x01\n        /* \"nestable.sol\":46093:46104  return true */\n      swap1\n      pop\n        /* \"nestable.sol\":45177:46121  function _checkOnERC721Received(... */\n    tag_500:\n      swap5\n      swap4\n      pop\n      pop\n      pop\n      pop\n      jump\t// out\n        /* \"nestable.sol\":56819:57110  function _checkExpectedChild(... */\n    tag_403:\n        /* \"nestable.sol\":57002:57007  child */\n      dup3\n        /* \"nestable.sol\":57002:57023  child.contractAddress */\n      0x20\n      add\n      mload\n        /* \"nestable.sol\":56983:57023  expectedAddress != child.contractAddress */\n      0xffffffffffffffffffffffffffffffffffffffff\n      and\n        /* \"nestable.sol\":56983:56998  expectedAddress */\n      dup3\n        /* \"nestable.sol\":56983:57023  expectedAddress != child.contractAddress */\n      0xffffffffffffffffffffffffffffffffffffffff\n      and\n      eq\n      iszero\n        /* \"nestable.sol\":56983:57066  expectedAddress != child.contractAddress ||... */\n      dup1\n      tag_519\n      jumpi\n      pop\n        /* \"nestable.sol\":57053:57058  child */\n      dup3\n        /* \"nestable.sol\":57053:57066  child.tokenId */\n      0x00\n      add\n      mload\n        /* \"nestable.sol\":57039:57049  expectedId */\n      dup2\n        /* \"nestable.sol\":57039:57066  expectedId != child.tokenId */\n      eq\n      iszero\n        /* \"nestable.sol\":56983:57066  expectedAddress != child.contractAddress ||... */\n    tag_519:\n        /* \"nestable.sol\":56966:57103  if (... */\n      iszero\n      tag_520\n      jumpi\n        /* \"nestable.sol\":57084:57103  UnexpectedChildId() */\n      mload(0x40)\n      0x37d6ce9000000000000000000000000000000000000000000000000000000000\n      dup2\n      mstore\n      0x04\n      add\n      mload(0x40)\n      dup1\n      swap2\n      sub\n      swap1\n      revert\n        /* \"nestable.sol\":56966:57103  if (... */\n    tag_520:\n        /* \"nestable.sol\":56819:57110  function _checkExpectedChild(... */\n      pop\n      pop\n      pop\n      jump\t// out\n        /* \"nestable.sol\":69250:69437  function _beforeTransferChild(... */\n    tag_405:\n      pop\n      pop\n      pop\n      pop\n      pop\n      jump\t// out\n        /* \"nestable.sol\":72069:72220  function _removeChildByIndex(Child[] storage array, uint256 index) private {... */\n    tag_408:\n        /* \"nestable.sol\":72169:72174  array */\n      dup2\n        /* \"nestable.sol\":72190:72191  1 */\n      0x01\n        /* \"nestable.sol\":72175:72180  array */\n      dup4\n        /* \"nestable.sol\":72175:72187  array.length */\n      dup1\n      sload\n      swap1\n      pop\n        /* \"nestable.sol\":72175:72191  array.length - 1 */\n      tag_523\n      swap2\n      swap1\n      tag_300\n      jump\t// in\n    tag_523:\n        /* \"nestable.sol\":72169:72192  array[array.length - 1] */\n      dup2\n      sload\n      dup2\n      lt\n      tag_524\n      jumpi\n      tag_525\n      tag_176\n      jump\t// in\n    tag_525:\n    tag_524:\n      swap1\n      0x00\n      mstore\n      keccak256(0x00, 0x20)\n      swap1\n      0x02\n      mul\n      add\n        /* \"nestable.sol\":72154:72159  array */\n      dup3\n        /* \"nestable.sol\":72160:72165  index */\n      dup3\n        /* \"nestable.sol\":72154:72166  array[index] */\n      dup2\n      sload\n      dup2\n      lt\n      tag_527\n      jumpi\n      tag_528\n      tag_176\n      jump\t// in\n    tag_528:\n    tag_527:\n      swap1\n      0x00\n      mstore\n      keccak256(0x00, 0x20)\n      swap1\n      0x02\n      mul\n      add\n        /* \"nestable.sol\":72154:72192  array[index] = array[array.length - 1] */\n      0x00\n      dup3\n      add\n      sload\n      dup2\n      0x00\n      add\n      sstore\n      0x01\n      dup3\n      add\n      0x00\n      swap1\n      sload\n      swap1\n      0x0100\n      exp\n      swap1\n      div\n      0xffffffffffffffffffffffffffffffffffffffff\n      and\n      dup2\n      0x01\n      add\n      exp(0x0100, 0x00)\n      dup2\n      sload\n      dup2\n      0xffffffffffffffffffffffffffffffffffffffff\n      mul\n      not\n      and\n      swap1\n      dup4\n      0xffffffffffffffffffffffffffffffffffffffff\n      and\n      mul\n      or\n      swap1\n      sstore\n      pop\n      swap1\n      pop\n      pop\n        /* \"nestable.sol\":72202:72207  array */\n      dup2\n        /* \"nestable.sol\":72202:72213  array.pop() */\n      dup1\n      sload\n      dup1\n      tag_530\n      jumpi\n      tag_531\n      tag_532\n      jump\t// in\n    tag_531:\n    tag_530:\n      0x01\n      swap1\n      sub\n      dup2\n      dup2\n      swap1\n      0x00\n      mstore\n      keccak256(0x00, 0x20)\n      swap1\n      0x02\n      mul\n      add\n      0x00\n      dup1\n      dup3\n      add\n      0x00\n      swap1\n      sstore\n      0x01\n      dup3\n      add\n      exp(0x0100, 0x00)\n      dup2\n      sload\n      swap1\n      0xffffffffffffffffffffffffffffffffffffffff\n      mul\n      not\n      and\n      swap1\n      sstore\n      pop\n      pop\n      swap1\n      sstore\n        /* \"nestable.sol\":72069:72220  function _removeChildByIndex(Child[] storage array, uint256 index) private {... */\n      pop\n      pop\n      jump\t// out\n        /* \"nestable.sol\":70536:70722  function _afterTransferChild(... */\n    tag_427:\n      pop\n      pop\n      pop\n      pop\n      pop\n      jump\t// out\n        /* \"nestable.sol\":66897:67059  function _beforeAcceptChild(... */\n    tag_435:\n      pop\n      pop\n      pop\n      pop\n      jump\t// out\n        /* \"nestable.sol\":67984:68145  function _afterAcceptChild(... */\n    tag_440:\n      pop\n      pop\n      pop\n      pop\n      jump\t// out\n    tag_170:\n      mload(0x40)\n      dup1\n      0x40\n      add\n      0x40\n      mstore\n      dup1\n      0x00\n      dup2\n      mstore\n      0x20\n      add\n      and(0xffffffffffffffffffffffffffffffffffffffff, 0x00)\n      dup2\n      mstore\n      pop\n      swap1\n      jump\t// out\n    tag_341:\n      pop\n      dup1\n      sload\n      0x00\n      dup3\n      sstore\n      0x02\n      mul\n      swap1\n      0x00\n      mstore\n      keccak256(0x00, 0x20)\n      swap1\n      dup2\n      add\n      swap1\n      tag_538\n      swap2\n      swap1\n      tag_539\n      jump\t// in\n    tag_538:\n      pop\n      jump\t// out\n    tag_539:\n    tag_540:\n      dup1\n      dup3\n      gt\n      iszero\n      tag_541\n      jumpi\n      0x00\n      dup1\n      dup3\n      add\n      0x00\n      swap1\n      sstore\n      0x01\n      dup3\n      add\n      exp(0x0100, 0x00)\n      dup2\n      sload\n      swap1\n      0xffffffffffffffffffffffffffffffffffffffff\n      mul\n      not\n      and\n      swap1\n      sstore\n      pop\n      0x02\n      add\n      jump(tag_540)\n    tag_541:\n      pop\n      swap1\n      jump\t// out\n        /* \"#utility.yul\":7:82   */\n    tag_542:\n        /* \"#utility.yul\":40:46   */\n      0x00\n        /* \"#utility.yul\":73:75   */\n      0x40\n        /* \"#utility.yul\":67:76   */\n      mload\n        /* \"#utility.yul\":57:76   */\n      swap1\n      pop\n        /* \"#utility.yul\":7:82   */\n      swap1\n      jump\t// out\n        /* \"#utility.yul\":88:205   */\n    tag_543:\n        /* \"#utility.yul\":197:198   */\n      0x00\n        /* \"#utility.yul\":194:195   */\n      dup1\n        /* \"#utility.yul\":187:199   */\n      revert\n        /* \"#utility.yul\":211:328   */\n    tag_544:\n        /* \"#utility.yul\":320:321   */\n      0x00\n        /* \"#utility.yul\":317:318   */\n      dup1\n        /* \"#utility.yul\":310:322   */\n      revert\n        /* \"#utility.yul\":334:483   */\n    tag_545:\n        /* \"#utility.yul\":370:377   */\n      0x00\n        /* \"#utility.yul\":410:476   */\n      0xffffffff00000000000000000000000000000000000000000000000000000000\n        /* \"#utility.yul\":403:408   */\n      dup3\n        /* \"#utility.yul\":399:477   */\n      and\n        /* \"#utility.yul\":388:477   */\n      swap1\n      pop\n        /* \"#utility.yul\":334:483   */\n      swap2\n      swap1\n      pop\n      jump\t// out\n        /* \"#utility.yul\":489:609   */\n    tag_546:\n        /* \"#utility.yul\":561:584   */\n      tag_601\n        /* \"#utility.yul\":578:583   */\n      dup2\n        /* \"#utility.yul\":561:584   */\n      tag_545\n      jump\t// in\n    tag_601:\n        /* \"#utility.yul\":554:559   */\n      dup2\n        /* \"#utility.yul\":551:585   */\n      eq\n        /* \"#utility.yul\":541:603   */\n      tag_602\n      jumpi\n        /* \"#utility.yul\":599:600   */\n      0x00\n        /* \"#utility.yul\":596:597   */\n      dup1\n        /* \"#utility.yul\":589:601   */\n      revert\n        /* \"#utility.yul\":541:603   */\n    tag_602:\n        /* \"#utility.yul\":489:609   */\n      pop\n      jump\t// out\n        /* \"#utility.yul\":615:752   */\n    tag_547:\n        /* \"#utility.yul\":660:665   */\n      0x00\n        /* \"#utility.yul\":698:704   */\n      dup2\n        /* \"#utility.yul\":685:705   */\n      calldataload\n        /* \"#utility.yul\":676:705   */\n      swap1\n      pop\n        /* \"#utility.yul\":714:746   */\n      tag_604\n        /* \"#utility.yul\":740:745   */\n      dup2\n        /* \"#utility.yul\":714:746   */\n      tag_546\n      jump\t// in\n    tag_604:\n        /* \"#utility.yul\":615:752   */\n      swap3\n      swap2\n      pop\n      pop\n      jump\t// out\n        /* \"#utility.yul\":758:1085   */\n    tag_34:\n        /* \"#utility.yul\":816:822   */\n      0x00\n        /* \"#utility.yul\":865:867   */\n      0x20\n        /* \"#utility.yul\":853:862   */\n      dup3\n        /* \"#utility.yul\":844:851   */\n      dup5\n        /* \"#utility.yul\":840:863   */\n      sub\n        /* \"#utility.yul\":836:868   */\n      slt\n        /* \"#utility.yul\":833:952   */\n      iszero\n      tag_606\n      jumpi\n        /* \"#utility.yul\":871:950   */\n      tag_607\n      tag_543\n      jump\t// in\n    tag_607:\n        /* \"#utility.yul\":833:952   */\n    tag_606:\n        /* \"#utility.yul\":991:992   */\n      0x00\n        /* \"#utility.yul\":1016:1068   */\n      tag_608\n        /* \"#utility.yul\":1060:1067   */\n      dup5\n        /* \"#utility.yul\":1051:1057   */\n      dup3\n        /* \"#utility.yul\":1040:1049   */\n      dup6\n        /* \"#utility.yul\":1036:1058   */\n      add\n        /* \"#utility.yul\":1016:1068   */\n      tag_547\n      jump\t// in\n    tag_608:\n        /* \"#utility.yul\":1006:1068   */\n      swap2\n      pop\n        /* \"#utility.yul\":962:1078   */\n      pop\n        /* \"#utility.yul\":758:1085   */\n      swap3\n      swap2\n      pop\n      pop\n      jump\t// out\n        /* \"#utility.yul\":1091:1181   */\n    tag_548:\n        /* \"#utility.yul\":1125:1132   */\n      0x00\n        /* \"#utility.yul\":1168:1173   */\n      dup2\n        /* \"#utility.yul\":1161:1174   */\n      iszero\n        /* \"#utility.yul\":1154:1175   */\n      iszero\n        /* \"#utility.yul\":1143:1175   */\n      swap1\n      pop\n        /* \"#utility.yul\":1091:1181   */\n      swap2\n      swap1\n      pop\n      jump\t// out\n        /* \"#utility.yul\":1187:1296   */\n    tag_549:\n        /* \"#utility.yul\":1268:1289   */\n      tag_611\n        /* \"#utility.yul\":1283:1288   */\n      dup2\n        /* \"#utility.yul\":1268:1289   */\n      tag_548\n      jump\t// in\n    tag_611:\n        /* \"#utility.yul\":1263:1266   */\n      dup3\n        /* \"#utility.yul\":1256:1290   */\n      mstore\n        /* \"#utility.yul\":1187:1296   */\n      pop\n      pop\n      jump\t// out\n        /* \"#utility.yul\":1302:1512   */\n    tag_37:\n        /* \"#utility.yul\":1389:1393   */\n      0x00\n        /* \"#utility.yul\":1427:1429   */\n      0x20\n        /* \"#utility.yul\":1416:1425   */\n      dup3\n        /* \"#utility.yul\":1412:1430   */\n      add\n        /* \"#utility.yul\":1404:1430   */\n      swap1\n      pop\n        /* \"#utility.yul\":1440:1505   */\n      tag_613\n        /* \"#utility.yul\":1502:1503   */\n      0x00\n        /* \"#utility.yul\":1491:1500   */\n      dup4\n        /* \"#utility.yul\":1487:1504   */\n      add\n        /* \"#utility.yul\":1478:1484   */\n      dup5\n        /* \"#utility.yul\":1440:1505   */\n      tag_549\n      jump\t// in\n    tag_613:\n        /* \"#utility.yul\":1302:1512   */\n      swap3\n      swap2\n      pop\n      pop\n      jump\t// out\n        /* \"#utility.yul\":1518:1644   */\n    tag_550:\n        /* \"#utility.yul\":1555:1562   */\n      0x00\n        /* \"#utility.yul\":1595:1637   */\n      0xffffffffffffffffffffffffffffffffffffffff\n        /* \"#utility.yul\":1588:1593   */\n      dup3\n        /* \"#utility.yul\":1584:1638   */\n      and\n        /* \"#utility.yul\":1573:1638   */\n      swap1\n      pop\n        /* \"#utility.yul\":1518:1644   */\n      swap2\n      swap1\n      pop\n      jump\t// out\n        /* \"#utility.yul\":1650:1746   */\n    tag_551:\n        /* \"#utility.yul\":1687:1694   */\n      0x00\n        /* \"#utility.yul\":1716:1740   */\n      tag_616\n        /* \"#utility.yul\":1734:1739   */\n      dup3\n        /* \"#utility.yul\":1716:1740   */\n      tag_550\n      jump\t// in\n    tag_616:\n        /* \"#utility.yul\":1705:1740   */\n      swap1\n      pop\n        /* \"#utility.yul\":1650:1746   */\n      swap2\n      swap1\n      pop\n      jump\t// out\n        /* \"#utility.yul\":1752:1874   */\n    tag_552:\n        /* \"#utility.yul\":1825:1849   */\n      tag_618\n        /* \"#utility.yul\":1843:1848   */\n      dup2\n        /* \"#utility.yul\":1825:1849   */\n      tag_551\n      jump\t// in\n    tag_618:\n        /* \"#utility.yul\":1818:1823   */\n      dup2\n        /* \"#utility.yul\":1815:1850   */\n      eq\n        /* \"#utility.yul\":1805:1868   */\n      tag_619\n      jumpi\n        /* \"#utility.yul\":1864:1865   */\n      0x00\n        /* \"#utility.yul\":1861:1862   */\n      dup1\n        /* \"#utility.yul\":1854:1866   */\n      revert\n        /* \"#utility.yul\":1805:1868   */\n    tag_619:\n        /* \"#utility.yul\":1752:1874   */\n      pop\n      jump\t// out\n        /* \"#utility.yul\":1880:2019   */\n    tag_553:\n        /* \"#utility.yul\":1926:1931   */\n      0x00\n        /* \"#utility.yul\":1964:1970   */\n      dup2\n        /* \"#utility.yul\":1951:1971   */\n      calldataload\n        /* \"#utility.yul\":1942:1971   */\n      swap1\n      pop\n        /* \"#utility.yul\":1980:2013   */\n      tag_621\n        /* \"#utility.yul\":2007:2012   */\n      dup2\n        /* \"#utility.yul\":1980:2013   */\n      tag_552\n      jump\t// in\n    tag_621:\n        /* \"#utility.yul\":1880:2019   */\n      swap3\n      swap2\n      pop\n      pop\n      jump\t// out\n        /* \"#utility.yul\":2025:2102   */\n    tag_554:\n        /* \"#utility.yul\":2062:2069   */\n      0x00\n        /* \"#utility.yul\":2091:2096   */\n      dup2\n        /* \"#utility.yul\":2080:2096   */\n      swap1\n      pop\n        /* \"#utility.yul\":2025:2102   */\n      swap2\n      swap1\n      pop\n      jump\t// out\n        /* \"#utility.yul\":2108:2230   */\n    tag_555:\n        /* \"#utility.yul\":2181:2205   */\n      tag_624\n        /* \"#utility.yul\":2199:2204   */\n      dup2\n        /* \"#utility.yul\":2181:2205   */\n      tag_554\n      jump\t// in\n    tag_624:\n        /* \"#utility.yul\":2174:2179   */\n      dup2\n        /* \"#utility.yul\":2171:2206   */\n      eq\n        /* \"#utility.yul\":2161:2224   */\n      tag_625\n      jumpi\n        /* \"#utility.yul\":2220:2221   */\n      0x00\n        /* \"#utility.yul\":2217:2218   */\n      dup1\n        /* \"#utility.yul\":2210:2222   */\n      revert\n        /* \"#utility.yul\":2161:2224   */\n    tag_625:\n        /* \"#utility.yul\":2108:2230   */\n      pop\n      jump\t// out\n        /* \"#utility.yul\":2236:2375   */\n    tag_556:\n        /* \"#utility.yul\":2282:2287   */\n      0x00\n        /* \"#utility.yul\":2320:2326   */\n      dup2\n        /* \"#utility.yul\":2307:2327   */\n      calldataload\n        /* \"#utility.yul\":2298:2327   */\n      swap1\n      pop\n        /* \"#utility.yul\":2336:2369   */\n      tag_627\n        /* \"#utility.yul\":2363:2368   */\n      dup2\n        /* \"#utility.yul\":2336:2369   */\n      tag_555\n      jump\t// in\n    tag_627:\n        /* \"#utility.yul\":2236:2375   */\n      swap3\n      swap2\n      pop\n      pop\n      jump\t// out\n        /* \"#utility.yul\":2381:2498   */\n    tag_557:\n        /* \"#utility.yul\":2490:2491   */\n      0x00\n        /* \"#utility.yul\":2487:2488   */\n      dup1\n        /* \"#utility.yul\":2480:2492   */\n      revert\n        /* \"#utility.yul\":2504:2621   */\n    tag_558:\n        /* \"#utility.yul\":2613:2614   */\n      0x00\n        /* \"#utility.yul\":2610:2611   */\n      dup1\n        /* \"#utility.yul\":2603:2615   */\n      revert\n        /* \"#utility.yul\":2627:2729   */\n    tag_559:\n        /* \"#utility.yul\":2668:2674   */\n      0x00\n        /* \"#utility.yul\":2719:2721   */\n      0x1f\n        /* \"#utility.yul\":2715:2722   */\n      not\n        /* \"#utility.yul\":2710:2712   */\n      0x1f\n        /* \"#utility.yul\":2703:2708   */\n      dup4\n        /* \"#utility.yul\":2699:2713   */\n      add\n        /* \"#utility.yul\":2695:2723   */\n      and\n        /* \"#utility.yul\":2685:2723   */\n      swap1\n      pop\n        /* \"#utility.yul\":2627:2729   */\n      swap2\n      swap1\n      pop\n      jump\t// out\n        /* \"#utility.yul\":2735:2915   */\n    tag_560:\n        /* \"#utility.yul\":2783:2860   */\n      0x4e487b7100000000000000000000000000000000000000000000000000000000\n        /* \"#utility.yul\":2780:2781   */\n      0x00\n        /* \"#utility.yul\":2773:2861   */\n      mstore\n        /* \"#utility.yul\":2880:2884   */\n      0x41\n        /* \"#utility.yul\":2877:2878   */\n      0x04\n        /* \"#utility.yul\":2870:2885   */\n      mstore\n        /* \"#utility.yul\":2904:2908   */\n      0x24\n        /* \"#utility.yul\":2901:2902   */\n      0x00\n        /* \"#utility.yul\":2894:2909   */\n      revert\n        /* \"#utility.yul\":2921:3202   */\n    tag_561:\n        /* \"#utility.yul\":3004:3031   */\n      tag_633\n        /* \"#utility.yul\":3026:3030   */\n      dup3\n        /* \"#utility.yul\":3004:3031   */\n      tag_559\n      jump\t// in\n    tag_633:\n        /* \"#utility.yul\":2996:3002   */\n      dup2\n        /* \"#utility.yul\":2992:3032   */\n      add\n        /* \"#utility.yul\":3134:3140   */\n      dup2\n        /* \"#utility.yul\":3122:3132   */\n      dup2\n        /* \"#utility.yul\":3119:3141   */\n      lt\n        /* \"#utility.yul\":3098:3116   */\n      0xffffffffffffffff\n        /* \"#utility.yul\":3086:3096   */\n      dup3\n        /* \"#utility.yul\":3083:3117   */\n      gt\n        /* \"#utility.yul\":3080:3142   */\n      or\n        /* \"#utility.yul\":3077:3165   */\n      iszero\n      tag_634\n      jumpi\n        /* \"#utility.yul\":3145:3163   */\n      tag_635\n      tag_560\n      jump\t// in\n    tag_635:\n        /* \"#utility.yul\":3077:3165   */\n    tag_634:\n        /* \"#utility.yul\":3185:3195   */\n      dup1\n        /* \"#utility.yul\":3181:3183   */\n      0x40\n        /* \"#utility.yul\":3174:3196   */\n      mstore\n        /* \"#utility.yul\":2964:3202   */\n      pop\n        /* \"#utility.yul\":2921:3202   */\n      pop\n      pop\n      jump\t// out\n        /* \"#utility.yul\":3208:3337   */\n    tag_562:\n        /* \"#utility.yul\":3242:3248   */\n      0x00\n        /* \"#utility.yul\":3269:3289   */\n      tag_637\n      tag_542\n      jump\t// in\n    tag_637:\n        /* \"#utility.yul\":3259:3289   */\n      swap1\n      pop\n        /* \"#utility.yul\":3298:3331   */\n      tag_638\n        /* \"#utility.yul\":3326:3330   */\n      dup3\n        /* \"#utility.yul\":3318:3324   */\n      dup3\n        /* \"#utility.yul\":3298:3331   */\n      tag_561\n      jump\t// in\n    tag_638:\n        /* \"#utility.yul\":3208:3337   */\n      swap2\n      swap1\n      pop\n      jump\t// out\n        /* \"#utility.yul\":3343:3650   */\n    tag_563:\n        /* \"#utility.yul\":3404:3408   */\n      0x00\n        /* \"#utility.yul\":3494:3512   */\n      0xffffffffffffffff\n        /* \"#utility.yul\":3486:3492   */\n      dup3\n        /* \"#utility.yul\":3483:3513   */\n      gt\n        /* \"#utility.yul\":3480:3536   */\n      iszero\n      tag_640\n      jumpi\n        /* \"#utility.yul\":3516:3534   */\n      tag_641\n      tag_560\n      jump\t// in\n    tag_641:\n        /* \"#utility.yul\":3480:3536   */\n    tag_640:\n        /* \"#utility.yul\":3554:3583   */\n      tag_642\n        /* \"#utility.yul\":3576:3582   */\n      dup3\n        /* \"#utility.yul\":3554:3583   */\n      tag_559\n      jump\t// in\n    tag_642:\n        /* \"#utility.yul\":3546:3583   */\n      swap1\n      pop\n        /* \"#utility.yul\":3638:3642   */\n      0x20\n        /* \"#utility.yul\":3632:3636   */\n      dup2\n        /* \"#utility.yul\":3628:3643   */\n      add\n        /* \"#utility.yul\":3620:3643   */\n      swap1\n      pop\n        /* \"#utility.yul\":3343:3650   */\n      swap2\n      swap1\n      pop\n      jump\t// out\n        /* \"#utility.yul\":3656:3802   */\n    tag_564:\n        /* \"#utility.yul\":3753:3759   */\n      dup3\n        /* \"#utility.yul\":3748:3751   */\n      dup2\n        /* \"#utility.yul\":3743:3746   */\n      dup4\n        /* \"#utility.yul\":3730:3760   */\n      calldatacopy\n        /* \"#utility.yul\":3794:3795   */\n      0x00\n        /* \"#utility.yul\":3785:3791   */\n      dup4\n        /* \"#utility.yul\":3780:3783   */\n      dup4\n        /* \"#utility.yul\":3776:3792   */\n      add\n        /* \"#utility.yul\":3769:3796   */\n      mstore\n        /* \"#utility.yul\":3656:3802   */\n      pop\n      pop\n      pop\n      jump\t// out\n        /* \"#utility.yul\":3808:4231   */\n    tag_565:\n        /* \"#utility.yul\":3885:3890   */\n      0x00\n        /* \"#utility.yul\":3910:3975   */\n      tag_645\n        /* \"#utility.yul\":3926:3974   */\n      tag_646\n        /* \"#utility.yul\":3967:3973   */\n      dup5\n        /* \"#utility.yul\":3926:3974   */\n      tag_563\n      jump\t// in\n    tag_646:\n        /* \"#utility.yul\":3910:3975   */\n      tag_562\n      jump\t// in\n    tag_645:\n        /* \"#utility.yul\":3901:3975   */\n      swap1\n      pop\n        /* \"#utility.yul\":3998:4004   */\n      dup3\n        /* \"#utility.yul\":3991:3996   */\n      dup2\n        /* \"#utility.yul\":3984:4005   */\n      mstore\n        /* \"#utility.yul\":4036:4040   */\n      0x20\n        /* \"#utility.yul\":4029:4034   */\n      dup2\n        /* \"#utility.yul\":4025:4041   */\n      add\n        /* \"#utility.yul\":4074:4077   */\n      dup5\n        /* \"#utility.yul\":4065:4071   */\n      dup5\n        /* \"#utility.yul\":4060:4063   */\n      dup5\n        /* \"#utility.yul\":4056:4072   */\n      add\n        /* \"#utility.yul\":4053:4078   */\n      gt\n        /* \"#utility.yul\":4050:4162   */\n      iszero\n      tag_647\n      jumpi\n        /* \"#utility.yul\":4081:4160   */\n      tag_648\n      tag_558\n      jump\t// in\n    tag_648:\n        /* \"#utility.yul\":4050:4162   */\n    tag_647:\n        /* \"#utility.yul\":4171:4225   */\n      tag_649\n        /* \"#utility.yul\":4218:4224   */\n      dup5\n        /* \"#utility.yul\":4213:4216   */\n      dup3\n        /* \"#utility.yul\":4208:4211   */\n      dup6\n        /* \"#utility.yul\":4171:4225   */\n      tag_564\n      jump\t// in\n    tag_649:\n        /* \"#utility.yul\":3891:4231   */\n      pop\n        /* \"#utility.yul\":3808:4231   */\n      swap4\n      swap3\n      pop\n      pop\n      pop\n      jump\t// out\n        /* \"#utility.yul\":4250:4588   */\n    tag_566:\n        /* \"#utility.yul\":4305:4310   */\n      0x00\n        /* \"#utility.yul\":4354:4357   */\n      dup3\n        /* \"#utility.yul\":4347:4351   */\n      0x1f\n        /* \"#utility.yul\":4339:4345   */\n      dup4\n        /* \"#utility.yul\":4335:4352   */\n      add\n        /* \"#utility.yul\":4331:4358   */\n      slt\n        /* \"#utility.yul\":4321:4443   */\n      tag_651\n      jumpi\n        /* \"#utility.yul\":4362:4441   */\n      tag_652\n      tag_557\n      jump\t// in\n    tag_652:\n        /* \"#utility.yul\":4321:4443   */\n    tag_651:\n        /* \"#utility.yul\":4479:4485   */\n      dup2\n        /* \"#utility.yul\":4466:4486   */\n      calldataload\n        /* \"#utility.yul\":4504:4582   */\n      tag_653\n        /* \"#utility.yul\":4578:4581   */\n      dup5\n        /* \"#utility.yul\":4570:4576   */\n      dup3\n        /* \"#utility.yul\":4563:4567   */\n      0x20\n        /* \"#utility.yul\":4555:4561   */\n      dup7\n        /* \"#utility.yul\":4551:4568   */\n      add\n        /* \"#utility.yul\":4504:4582   */\n      tag_565\n      jump\t// in\n    tag_653:\n        /* \"#utility.yul\":4495:4582   */\n      swap2\n      pop\n        /* \"#utility.yul\":4311:4588   */\n      pop\n        /* \"#utility.yul\":4250:4588   */\n      swap3\n      swap2\n      pop\n      pop\n      jump\t// out\n        /* \"#utility.yul\":4594:5683   */\n    tag_40:\n        /* \"#utility.yul\":4698:4704   */\n      0x00\n        /* \"#utility.yul\":4706:4712   */\n      dup1\n        /* \"#utility.yul\":4714:4720   */\n      0x00\n        /* \"#utility.yul\":4722:4728   */\n      dup1\n        /* \"#utility.yul\":4730:4736   */\n      0x00\n        /* \"#utility.yul\":4779:4782   */\n      0xa0\n        /* \"#utility.yul\":4767:4776   */\n      dup7\n        /* \"#utility.yul\":4758:4765   */\n      dup9\n        /* \"#utility.yul\":4754:4777   */\n      sub\n        /* \"#utility.yul\":4750:4783   */\n      slt\n        /* \"#utility.yul\":4747:4867   */\n      iszero\n      tag_655\n      jumpi\n        /* \"#utility.yul\":4786:4865   */\n      tag_656\n      tag_543\n      jump\t// in\n    tag_656:\n        /* \"#utility.yul\":4747:4867   */\n    tag_655:\n        /* \"#utility.yul\":4906:4907   */\n      0x00\n        /* \"#utility.yul\":4931:4984   */\n      tag_657\n        /* \"#utility.yul\":4976:4983   */\n      dup9\n        /* \"#utility.yul\":4967:4973   */\n      dup3\n        /* \"#utility.yul\":4956:4965   */\n      dup10\n        /* \"#utility.yul\":4952:4974   */\n      add\n        /* \"#utility.yul\":4931:4984   */\n      tag_553\n      jump\t// in\n    tag_657:\n        /* \"#utility.yul\":4921:4984   */\n      swap6\n      pop\n        /* \"#utility.yul\":4877:4994   */\n      pop\n        /* \"#utility.yul\":5033:5035   */\n      0x20\n        /* \"#utility.yul\":5059:5112   */\n      tag_658\n        /* \"#utility.yul\":5104:5111   */\n      dup9\n        /* \"#utility.yul\":5095:5101   */\n      dup3\n        /* \"#utility.yul\":5084:5093   */\n      dup10\n        /* \"#utility.yul\":5080:5102   */\n      add\n        /* \"#utility.yul\":5059:5112   */\n      tag_553\n      jump\t// in\n    tag_658:\n        /* \"#utility.yul\":5049:5112   */\n      swap5\n      pop\n        /* \"#utility.yul\":5004:5122   */\n      pop\n        /* \"#utility.yul\":5161:5163   */\n      0x40\n        /* \"#utility.yul\":5187:5240   */\n      tag_659\n        /* \"#utility.yul\":5232:5239   */\n      dup9\n        /* \"#utility.yul\":5223:5229   */\n      dup3\n        /* \"#utility.yul\":5212:5221   */\n      dup10\n        /* \"#utility.yul\":5208:5230   */\n      add\n        /* \"#utility.yul\":5187:5240   */\n      tag_556\n      jump\t// in\n    tag_659:\n        /* \"#utility.yul\":5177:5240   */\n      swap4\n      pop\n        /* \"#utility.yul\":5132:5250   */\n      pop\n        /* \"#utility.yul\":5289:5291   */\n      0x60\n        /* \"#utility.yul\":5315:5368   */\n      tag_660\n        /* \"#utility.yul\":5360:5367   */\n      dup9\n        /* \"#utility.yul\":5351:5357   */\n      dup3\n        /* \"#utility.yul\":5340:5349   */\n      dup10\n        /* \"#utility.yul\":5336:5358   */\n      add\n        /* \"#utility.yul\":5315:5368   */\n      tag_556\n      jump\t// in\n    tag_660:\n        /* \"#utility.yul\":5305:5368   */\n      swap3\n      pop\n        /* \"#utility.yul\":5260:5378   */\n      pop\n        /* \"#utility.yul\":5445:5448   */\n      0x80\n        /* \"#utility.yul\":5434:5443   */\n      dup7\n        /* \"#utility.yul\":5430:5449   */\n      add\n        /* \"#utility.yul\":5417:5450   */\n      calldataload\n        /* \"#utility.yul\":5477:5495   */\n      0xffffffffffffffff\n        /* \"#utility.yul\":5469:5475   */\n      dup2\n        /* \"#utility.yul\":5466:5496   */\n      gt\n        /* \"#utility.yul\":5463:5580   */\n      iszero\n      tag_661\n      jumpi\n        /* \"#utility.yul\":5499:5578   */\n      tag_662\n      tag_544\n      jump\t// in\n    tag_662:\n        /* \"#utility.yul\":5463:5580   */\n    tag_661:\n        /* \"#utility.yul\":5604:5666   */\n      tag_663\n        /* \"#utility.yul\":5658:5665   */\n      dup9\n        /* \"#utility.yul\":5649:5655   */\n      dup3\n        /* \"#utility.yul\":5638:5647   */\n      dup10\n        /* \"#utility.yul\":5634:5656   */\n      add\n        /* \"#utility.yul\":5604:5666   */\n      tag_566\n      jump\t// in\n    tag_663:\n        /* \"#utility.yul\":5594:5666   */\n      swap2\n      pop\n        /* \"#utility.yul\":5388:5676   */\n      pop\n        /* \"#utility.yul\":4594:5683   */\n      swap3\n      swap6\n      pop\n      swap3\n      swap6\n      swap1\n      swap4\n      pop\n      jump\t// out\n        /* \"#utility.yul\":5689:6018   */\n    tag_44:\n        /* \"#utility.yul\":5748:5754   */\n      0x00\n        /* \"#utility.yul\":5797:5799   */\n      0x20\n        /* \"#utility.yul\":5785:5794   */\n      dup3\n        /* \"#utility.yul\":5776:5783   */\n      dup5\n        /* \"#utility.yul\":5772:5795   */\n      sub\n        /* \"#utility.yul\":5768:5800   */\n      slt\n        /* \"#utility.yul\":5765:5884   */\n      iszero\n      tag_665\n      jumpi\n        /* \"#utility.yul\":5803:5882   */\n      tag_666\n      tag_543\n      jump\t// in\n    tag_666:\n        /* \"#utility.yul\":5765:5884   */\n    tag_665:\n        /* \"#utility.yul\":5923:5924   */\n      0x00\n        /* \"#utility.yul\":5948:6001   */\n      tag_667\n        /* \"#utility.yul\":5993:6000   */\n      dup5\n        /* \"#utility.yul\":5984:5990   */\n      dup3\n        /* \"#utility.yul\":5973:5982   */\n      dup6\n        /* \"#utility.yul\":5969:5991   */\n      add\n        /* \"#utility.yul\":5948:6001   */\n      tag_556\n      jump\t// in\n    tag_667:\n        /* \"#utility.yul\":5938:6001   */\n      swap2\n      pop\n        /* \"#utility.yul\":5894:6011   */\n      pop\n        /* \"#utility.yul\":5689:6018   */\n      swap3\n      swap2\n      pop\n      pop\n      jump\t// out\n        /* \"#utility.yul\":6024:6142   */\n    tag_567:\n        /* \"#utility.yul\":6111:6135   */\n      tag_669\n        /* \"#utility.yul\":6129:6134   */\n      dup2\n        /* \"#utility.yul\":6111:6135   */\n      tag_551\n      jump\t// in\n    tag_669:\n        /* \"#utility.yul\":6106:6109   */\n      dup3\n        /* \"#utility.yul\":6099:6136   */\n      mstore\n        /* \"#utility.yul\":6024:6142   */\n      pop\n      pop\n      jump\t// out\n        /* \"#utility.yul\":6148:6370   */\n    tag_47:\n        /* \"#utility.yul\":6241:6245   */\n      0x00\n        /* \"#utility.yul\":6279:6281   */\n      0x20\n        /* \"#utility.yul\":6268:6277   */\n      dup3\n        /* \"#utility.yul\":6264:6282   */\n      add\n        /* \"#utility.yul\":6256:6282   */\n      swap1\n      pop\n        /* \"#utility.yul\":6292:6363   */\n      tag_671\n        /* \"#utility.yul\":6360:6361   */\n      0x00\n        /* \"#utility.yul\":6349:6358   */\n      dup4\n        /* \"#utility.yul\":6345:6362   */\n      add\n        /* \"#utility.yul\":6336:6342   */\n      dup5\n        /* \"#utility.yul\":6292:6363   */\n      tag_567\n      jump\t// in\n    tag_671:\n        /* \"#utility.yul\":6148:6370   */\n      swap3\n      swap2\n      pop\n      pop\n      jump\t// out\n        /* \"#utility.yul\":6376:6850   */\n    tag_50:\n        /* \"#utility.yul\":6444:6450   */\n      0x00\n        /* \"#utility.yul\":6452:6458   */\n      dup1\n        /* \"#utility.yul\":6501:6503   */\n      0x40\n        /* \"#utility.yul\":6489:6498   */\n      dup4\n        /* \"#utility.yul\":6480:6487   */\n      dup6\n        /* \"#utility.yul\":6476:6499   */\n      sub\n        /* \"#utility.yul\":6472:6504   */\n      slt\n        /* \"#utility.yul\":6469:6588   */\n      iszero\n      tag_673\n      jumpi\n        /* \"#utility.yul\":6507:6586   */\n      tag_674\n      tag_543\n      jump\t// in\n    tag_674:\n        /* \"#utility.yul\":6469:6588   */\n    tag_673:\n        /* \"#utility.yul\":6627:6628   */\n      0x00\n        /* \"#utility.yul\":6652:6705   */\n      tag_675\n        /* \"#utility.yul\":6697:6704   */\n      dup6\n        /* \"#utility.yul\":6688:6694   */\n      dup3\n        /* \"#utility.yul\":6677:6686   */\n      dup7\n        /* \"#utility.yul\":6673:6695   */\n      add\n        /* \"#utility.yul\":6652:6705   */\n      tag_553\n      jump\t// in\n    tag_675:\n        /* \"#utility.yul\":6642:6705   */\n      swap3\n      pop\n        /* \"#utility.yul\":6598:6715   */\n      pop\n        /* \"#utility.yul\":6754:6756   */\n      0x20\n        /* \"#utility.yul\":6780:6833   */\n      tag_676\n        /* \"#utility.yul\":6825:6832   */\n      dup6\n        /* \"#utility.yul\":6816:6822   */\n      dup3\n        /* \"#utility.yul\":6805:6814   */\n      dup7\n        /* \"#utility.yul\":6801:6823   */\n      add\n        /* \"#utility.yul\":6780:6833   */\n      tag_556\n      jump\t// in\n    tag_676:\n        /* \"#utility.yul\":6770:6833   */\n      swap2\n      pop\n        /* \"#utility.yul\":6725:6843   */\n      pop\n        /* \"#utility.yul\":6376:6850   */\n      swap3\n      pop\n      swap3\n      swap1\n      pop\n      jump\t// out\n        /* \"#utility.yul\":6856:7475   */\n    tag_54:\n        /* \"#utility.yul\":6933:6939   */\n      0x00\n        /* \"#utility.yul\":6941:6947   */\n      dup1\n        /* \"#utility.yul\":6949:6955   */\n      0x00\n        /* \"#utility.yul\":6998:7000   */\n      0x60\n        /* \"#utility.yul\":6986:6995   */\n      dup5\n        /* \"#utility.yul\":6977:6984   */\n      dup7\n        /* \"#utility.yul\":6973:6996   */\n      sub\n        /* \"#utility.yul\":6969:7001   */\n      slt\n        /* \"#utility.yul\":6966:7085   */\n      iszero\n      tag_678\n      jumpi\n        /* \"#utility.yul\":7004:7083   */\n      tag_679\n      tag_543\n      jump\t// in\n    tag_679:\n        /* \"#utility.yul\":6966:7085   */\n    tag_678:\n        /* \"#utility.yul\":7124:7125   */\n      0x00\n        /* \"#utility.yul\":7149:7202   */\n      tag_680\n        /* \"#utility.yul\":7194:7201   */\n      dup7\n        /* \"#utility.yul\":7185:7191   */\n      dup3\n        /* \"#utility.yul\":7174:7183   */\n      dup8\n        /* \"#utility.yul\":7170:7192   */\n      add\n        /* \"#utility.yul\":7149:7202   */\n      tag_553\n      jump\t// in\n    tag_680:\n        /* \"#utility.yul\":7139:7202   */\n      swap4\n      pop\n        /* \"#utility.yul\":7095:7212   */\n      pop\n        /* \"#utility.yul\":7251:7253   */\n      0x20\n        /* \"#utility.yul\":7277:7330   */\n      tag_681\n        /* \"#utility.yul\":7322:7329   */\n      dup7\n        /* \"#utility.yul\":7313:7319   */\n      dup3\n        /* \"#utility.yul\":7302:7311   */\n      dup8\n        /* \"#utility.yul\":7298:7320   */\n      add\n        /* \"#utility.yul\":7277:7330   */\n      tag_553\n      jump\t// in\n    tag_681:\n        /* \"#utility.yul\":7267:7330   */\n      swap3\n      pop\n        /* \"#utility.yul\":7222:7340   */\n      pop\n        /* \"#utility.yul\":7379:7381   */\n      0x40\n        /* \"#utility.yul\":7405:7458   */\n      tag_682\n        /* \"#utility.yul\":7450:7457   */\n      dup7\n        /* \"#utility.yul\":7441:7447   */\n      dup3\n        /* \"#utility.yul\":7430:7439   */\n      dup8\n        /* \"#utility.yul\":7426:7448   */\n      add\n        /* \"#utility.yul\":7405:7458   */\n      tag_556\n      jump\t// in\n    tag_682:\n        /* \"#utility.yul\":7395:7458   */\n      swap2\n      pop\n        /* \"#utility.yul\":7350:7468   */\n      pop\n        /* \"#utility.yul\":6856:7475   */\n      swap3\n      pop\n      swap3\n      pop\n      swap3\n      jump\t// out\n        /* \"#utility.yul\":7481:7955   */\n    tag_58:\n        /* \"#utility.yul\":7549:7555   */\n      0x00\n        /* \"#utility.yul\":7557:7563   */\n      dup1\n        /* \"#utility.yul\":7606:7608   */\n      0x40\n        /* \"#utility.yul\":7594:7603   */\n      dup4\n        /* \"#utility.yul\":7585:7592   */\n      dup6\n        /* \"#utility.yul\":7581:7604   */\n      sub\n        /* \"#utility.yul\":7577:7609   */\n      slt\n        /* \"#utility.yul\":7574:7693   */\n      iszero\n      tag_684\n      jumpi\n        /* \"#utility.yul\":7612:7691   */\n      tag_685\n      tag_543\n      jump\t// in\n    tag_685:\n        /* \"#utility.yul\":7574:7693   */\n    tag_684:\n        /* \"#utility.yul\":7732:7733   */\n      0x00\n        /* \"#utility.yul\":7757:7810   */\n      tag_686\n        /* \"#utility.yul\":7802:7809   */\n      dup6\n        /* \"#utility.yul\":7793:7799   */\n      dup3\n        /* \"#utility.yul\":7782:7791   */\n      dup7\n        /* \"#utility.yul\":7778:7800   */\n      add\n        /* \"#utility.yul\":7757:7810   */\n      tag_556\n      jump\t// in\n    tag_686:\n        /* \"#utility.yul\":7747:7810   */\n      swap3\n      pop\n        /* \"#utility.yul\":7703:7820   */\n      pop\n        /* \"#utility.yul\":7859:7861   */\n      0x20\n        /* \"#utility.yul\":7885:7938   */\n      tag_687\n        /* \"#utility.yul\":7930:7937   */\n      dup6\n        /* \"#utility.yul\":7921:7927   */\n      dup3\n        /* \"#utility.yul\":7910:7919   */\n      dup7\n        /* \"#utility.yul\":7906:7928   */\n      add\n        /* \"#utility.yul\":7885:7938   */\n      tag_556\n      jump\t// in\n    tag_687:\n        /* \"#utility.yul\":7875:7938   */\n      swap2\n      pop\n        /* \"#utility.yul\":7830:7948   */\n      pop\n        /* \"#utility.yul\":7481:7955   */\n      swap3\n      pop\n      swap3\n      swap1\n      pop\n      jump\t// out\n        /* \"#utility.yul\":7961:8069   */\n    tag_568:\n        /* \"#utility.yul\":8038:8062   */\n      tag_689\n        /* \"#utility.yul\":8056:8061   */\n      dup2\n        /* \"#utility.yul\":8038:8062   */\n      tag_554\n      jump\t// in\n    tag_689:\n        /* \"#utility.yul\":8033:8036   */\n      dup3\n        /* \"#utility.yul\":8026:8063   */\n      mstore\n        /* \"#utility.yul\":7961:8069   */\n      pop\n      pop\n      jump\t// out\n        /* \"#utility.yul\":8075:8183   */\n    tag_569:\n        /* \"#utility.yul\":8152:8176   */\n      tag_691\n        /* \"#utility.yul\":8170:8175   */\n      dup2\n        /* \"#utility.yul\":8152:8176   */\n      tag_551\n      jump\t// in\n    tag_691:\n        /* \"#utility.yul\":8147:8150   */\n      dup3\n        /* \"#utility.yul\":8140:8177   */\n      mstore\n        /* \"#utility.yul\":8075:8183   */\n      pop\n      pop\n      jump\t// out\n        /* \"#utility.yul\":8243:8758   */\n    tag_570:\n        /* \"#utility.yul\":8384:8388   */\n      0x40\n        /* \"#utility.yul\":8379:8382   */\n      dup3\n        /* \"#utility.yul\":8375:8389   */\n      add\n        /* \"#utility.yul\":8474:8478   */\n      0x00\n        /* \"#utility.yul\":8467:8472   */\n      dup3\n        /* \"#utility.yul\":8463:8479   */\n      add\n        /* \"#utility.yul\":8457:8480   */\n      mload\n        /* \"#utility.yul\":8493:8556   */\n      tag_693\n        /* \"#utility.yul\":8550:8554   */\n      0x00\n        /* \"#utility.yul\":8545:8548   */\n      dup6\n        /* \"#utility.yul\":8541:8555   */\n      add\n        /* \"#utility.yul\":8527:8539   */\n      dup3\n        /* \"#utility.yul\":8493:8556   */\n      tag_568\n      jump\t// in\n    tag_693:\n        /* \"#utility.yul\":8399:8566   */\n      pop\n        /* \"#utility.yul\":8659:8663   */\n      0x20\n        /* \"#utility.yul\":8652:8657   */\n      dup3\n        /* \"#utility.yul\":8648:8664   */\n      add\n        /* \"#utility.yul\":8642:8665   */\n      mload\n        /* \"#utility.yul\":8678:8741   */\n      tag_694\n        /* \"#utility.yul\":8735:8739   */\n      0x20\n        /* \"#utility.yul\":8730:8733   */\n      dup6\n        /* \"#utility.yul\":8726:8740   */\n      add\n        /* \"#utility.yul\":8712:8724   */\n      dup3\n        /* \"#utility.yul\":8678:8741   */\n      tag_569\n      jump\t// in\n    tag_694:\n        /* \"#utility.yul\":8576:8751   */\n      pop\n        /* \"#utility.yul\":8353:8758   */\n      pop\n        /* \"#utility.yul\":8243:8758   */\n      pop\n      pop\n      jump\t// out\n        /* \"#utility.yul\":8764:9074   */\n    tag_61:\n        /* \"#utility.yul\":8901:8905   */\n      0x00\n        /* \"#utility.yul\":8939:8941   */\n      0x40\n        /* \"#utility.yul\":8928:8937   */\n      dup3\n        /* \"#utility.yul\":8924:8942   */\n      add\n        /* \"#utility.yul\":8916:8942   */\n      swap1\n      pop\n        /* \"#utility.yul\":8952:9067   */\n      tag_696\n        /* \"#utility.yul\":9064:9065   */\n      0x00\n        /* \"#utility.yul\":9053:9062   */\n      dup4\n        /* \"#utility.yul\":9049:9066   */\n      add\n        /* \"#utility.yul\":9040:9046   */\n      dup5\n        /* \"#utility.yul\":8952:9067   */\n      tag_570\n      jump\t// in\n    tag_696:\n        /* \"#utility.yul\":8764:9074   */\n      swap3\n      swap2\n      pop\n      pop\n      jump\t// out\n        /* \"#utility.yul\":9080:9216   */\n    tag_571:\n        /* \"#utility.yul\":9169:9175   */\n      0x00\n        /* \"#utility.yul\":9203:9208   */\n      dup2\n        /* \"#utility.yul\":9197:9209   */\n      mload\n        /* \"#utility.yul\":9187:9209   */\n      swap1\n      pop\n        /* \"#utility.yul\":9080:9216   */\n      swap2\n      swap1\n      pop\n      jump\t// out\n        /* \"#utility.yul\":9222:9428   */\n    tag_572:\n        /* \"#utility.yul\":9343:9354   */\n      0x00\n        /* \"#utility.yul\":9377:9383   */\n      dup3\n        /* \"#utility.yul\":9372:9375   */\n      dup3\n        /* \"#utility.yul\":9365:9384   */\n      mstore\n        /* \"#utility.yul\":9417:9421   */\n      0x20\n        /* \"#utility.yul\":9412:9415   */\n      dup3\n        /* \"#utility.yul\":9408:9422   */\n      add\n        /* \"#utility.yul\":9393:9422   */\n      swap1\n      pop\n        /* \"#utility.yul\":9222:9428   */\n      swap3\n      swap2\n      pop\n      pop\n      jump\t// out\n        /* \"#utility.yul\":9434:9588   */\n    tag_573:\n        /* \"#utility.yul\":9523:9527   */\n      0x00\n        /* \"#utility.yul\":9546:9549   */\n      dup2\n        /* \"#utility.yul\":9538:9549   */\n      swap1\n      pop\n        /* \"#utility.yul\":9576:9580   */\n      0x20\n        /* \"#utility.yul\":9571:9574   */\n      dup3\n        /* \"#utility.yul\":9567:9581   */\n      add\n        /* \"#utility.yul\":9559:9581   */\n      swap1\n      pop\n        /* \"#utility.yul\":9434:9588   */\n      swap2\n      swap1\n      pop\n      jump\t// out\n        /* \"#utility.yul\":9648:10153   */\n    tag_574:\n        /* \"#utility.yul\":9779:9783   */\n      0x40\n        /* \"#utility.yul\":9774:9777   */\n      dup3\n        /* \"#utility.yul\":9770:9784   */\n      add\n        /* \"#utility.yul\":9869:9873   */\n      0x00\n        /* \"#utility.yul\":9862:9867   */\n      dup3\n        /* \"#utility.yul\":9858:9874   */\n      add\n        /* \"#utility.yul\":9852:9875   */\n      mload\n        /* \"#utility.yul\":9888:9951   */\n      tag_701\n        /* \"#utility.yul\":9945:9949   */\n      0x00\n        /* \"#utility.yul\":9940:9943   */\n      dup6\n        /* \"#utility.yul\":9936:9950   */\n      add\n        /* \"#utility.yul\":9922:9934   */\n      dup3\n        /* \"#utility.yul\":9888:9951   */\n      tag_568\n      jump\t// in\n    tag_701:\n        /* \"#utility.yul\":9794:9961   */\n      pop\n        /* \"#utility.yul\":10054:10058   */\n      0x20\n        /* \"#utility.yul\":10047:10052   */\n      dup3\n        /* \"#utility.yul\":10043:10059   */\n      add\n        /* \"#utility.yul\":10037:10060   */\n      mload\n        /* \"#utility.yul\":10073:10136   */\n      tag_702\n        /* \"#utility.yul\":10130:10134   */\n      0x20\n        /* \"#utility.yul\":10125:10128   */\n      dup6\n        /* \"#utility.yul\":10121:10135   */\n      add\n        /* \"#utility.yul\":10107:10119   */\n      dup3\n        /* \"#utility.yul\":10073:10136   */\n      tag_569\n      jump\t// in\n    tag_702:\n        /* \"#utility.yul\":9971:10146   */\n      pop\n        /* \"#utility.yul\":9748:10153   */\n      pop\n        /* \"#utility.yul\":9648:10153   */\n      pop\n      pop\n      jump\t// out\n        /* \"#utility.yul\":10159:10426   */\n    tag_575:\n        /* \"#utility.yul\":10272:10282   */\n      0x00\n        /* \"#utility.yul\":10293:10383   */\n      tag_704\n        /* \"#utility.yul\":10379:10382   */\n      dup4\n        /* \"#utility.yul\":10371:10377   */\n      dup4\n        /* \"#utility.yul\":10293:10383   */\n      tag_574\n      jump\t// in\n    tag_704:\n        /* \"#utility.yul\":10415:10419   */\n      0x40\n        /* \"#utility.yul\":10410:10413   */\n      dup4\n        /* \"#utility.yul\":10406:10420   */\n      add\n        /* \"#utility.yul\":10392:10420   */\n      swap1\n      pop\n        /* \"#utility.yul\":10159:10426   */\n      swap3\n      swap2\n      pop\n      pop\n      jump\t// out\n        /* \"#utility.yul\":10432:10567   */\n    tag_576:\n        /* \"#utility.yul\":10524:10528   */\n      0x00\n        /* \"#utility.yul\":10556:10560   */\n      0x20\n        /* \"#utility.yul\":10551:10554   */\n      dup3\n        /* \"#utility.yul\":10547:10561   */\n      add\n        /* \"#utility.yul\":10539:10561   */\n      swap1\n      pop\n        /* \"#utility.yul\":10432:10567   */\n      swap2\n      swap1\n      pop\n      jump\t// out\n        /* \"#utility.yul\":10631:11539   */\n    tag_577:\n        /* \"#utility.yul\":10794:10797   */\n      0x00\n        /* \"#utility.yul\":10823:10899   */\n      tag_707\n        /* \"#utility.yul\":10893:10898   */\n      dup3\n        /* \"#utility.yul\":10823:10899   */\n      tag_571\n      jump\t// in\n    tag_707:\n        /* \"#utility.yul\":10915:11023   */\n      tag_708\n        /* \"#utility.yul\":11016:11022   */\n      dup2\n        /* \"#utility.yul\":11011:11014   */\n      dup6\n        /* \"#utility.yul\":10915:11023   */\n      tag_572\n      jump\t// in\n    tag_708:\n        /* \"#utility.yul\":10908:11023   */\n      swap4\n      pop\n        /* \"#utility.yul\":11047:11125   */\n      tag_709\n        /* \"#utility.yul\":11119:11124   */\n      dup4\n        /* \"#utility.yul\":11047:11125   */\n      tag_573\n      jump\t// in\n    tag_709:\n        /* \"#utility.yul\":11148:11155   */\n      dup1\n        /* \"#utility.yul\":11179:11180   */\n      0x00\n        /* \"#utility.yul\":11164:11514   */\n    tag_710:\n        /* \"#utility.yul\":11189:11195   */\n      dup4\n        /* \"#utility.yul\":11186:11187   */\n      dup2\n        /* \"#utility.yul\":11183:11196   */\n      lt\n        /* \"#utility.yul\":11164:11514   */\n      iszero\n      tag_712\n      jumpi\n        /* \"#utility.yul\":11265:11271   */\n      dup2\n        /* \"#utility.yul\":11259:11272   */\n      mload\n        /* \"#utility.yul\":11292:11399   */\n      tag_713\n        /* \"#utility.yul\":11395:11398   */\n      dup9\n        /* \"#utility.yul\":11380:11393   */\n      dup3\n        /* \"#utility.yul\":11292:11399   */\n      tag_575\n      jump\t// in\n    tag_713:\n        /* \"#utility.yul\":11285:11399   */\n      swap8\n      pop\n        /* \"#utility.yul\":11422:11504   */\n      tag_714\n        /* \"#utility.yul\":11497:11503   */\n      dup4\n        /* \"#utility.yul\":11422:11504   */\n      tag_576\n      jump\t// in\n    tag_714:\n        /* \"#utility.yul\":11412:11504   */\n      swap3\n      pop\n        /* \"#utility.yul\":11224:11514   */\n      pop\n        /* \"#utility.yul\":11211:11212   */\n      0x01\n        /* \"#utility.yul\":11208:11209   */\n      dup2\n        /* \"#utility.yul\":11204:11213   */\n      add\n        /* \"#utility.yul\":11199:11213   */\n      swap1\n      pop\n        /* \"#utility.yul\":11164:11514   */\n      jump(tag_710)\n    tag_712:\n        /* \"#utility.yul\":11168:11182   */\n      pop\n        /* \"#utility.yul\":11530:11533   */\n      dup6\n        /* \"#utility.yul\":11523:11533   */\n      swap4\n      pop\n        /* \"#utility.yul\":10799:11539   */\n      pop\n      pop\n      pop\n        /* \"#utility.yul\":10631:11539   */\n      swap3\n      swap2\n      pop\n      pop\n      jump\t// out\n        /* \"#utility.yul\":11545:12006   */\n    tag_76:\n        /* \"#utility.yul\":11732:11736   */\n      0x00\n        /* \"#utility.yul\":11770:11772   */\n      0x20\n        /* \"#utility.yul\":11759:11768   */\n      dup3\n        /* \"#utility.yul\":11755:11773   */\n      add\n        /* \"#utility.yul\":11747:11773   */\n      swap1\n      pop\n        /* \"#utility.yul\":11819:11828   */\n      dup2\n        /* \"#utility.yul\":11813:11817   */\n      dup2\n        /* \"#utility.yul\":11809:11829   */\n      sub\n        /* \"#utility.yul\":11805:11806   */\n      0x00\n        /* \"#utility.yul\":11794:11803   */\n      dup4\n        /* \"#utility.yul\":11790:11807   */\n      add\n        /* \"#utility.yul\":11783:11830   */\n      mstore\n        /* \"#utility.yul\":11847:11999   */\n      tag_716\n        /* \"#utility.yul\":11994:11998   */\n      dup2\n        /* \"#utility.yul\":11985:11991   */\n      dup5\n        /* \"#utility.yul\":11847:11999   */\n      tag_577\n      jump\t// in\n    tag_716:\n        /* \"#utility.yul\":11839:11999   */\n      swap1\n      pop\n        /* \"#utility.yul\":11545:12006   */\n      swap3\n      swap2\n      pop\n      pop\n      jump\t// out\n        /* \"#utility.yul\":12012:12809   */\n    tag_83:\n        /* \"#utility.yul\":12098:12104   */\n      0x00\n        /* \"#utility.yul\":12106:12112   */\n      dup1\n        /* \"#utility.yul\":12114:12120   */\n      0x00\n        /* \"#utility.yul\":12163:12165   */\n      0x60\n        /* \"#utility.yul\":12151:12160   */\n      dup5\n        /* \"#utility.yul\":12142:12149   */\n      dup7\n        /* \"#utility.yul\":12138:12161   */\n      sub\n        /* \"#utility.yul\":12134:12166   */\n      slt\n        /* \"#utility.yul\":12131:12250   */\n      iszero\n      tag_718\n      jumpi\n        /* \"#utility.yul\":12169:12248   */\n      tag_719\n      tag_543\n      jump\t// in\n    tag_719:\n        /* \"#utility.yul\":12131:12250   */\n    tag_718:\n        /* \"#utility.yul\":12289:12290   */\n      0x00\n        /* \"#utility.yul\":12314:12367   */\n      tag_720\n        /* \"#utility.yul\":12359:12366   */\n      dup7\n        /* \"#utility.yul\":12350:12356   */\n      dup3\n        /* \"#utility.yul\":12339:12348   */\n      dup8\n        /* \"#utility.yul\":12335:12357   */\n      add\n        /* \"#utility.yul\":12314:12367   */\n      tag_556\n      jump\t// in\n    tag_720:\n        /* \"#utility.yul\":12304:12367   */\n      swap4\n      pop\n        /* \"#utility.yul\":12260:12377   */\n      pop\n        /* \"#utility.yul\":12416:12418   */\n      0x20\n        /* \"#utility.yul\":12442:12495   */\n      tag_721\n        /* \"#utility.yul\":12487:12494   */\n      dup7\n        /* \"#utility.yul\":12478:12484   */\n      dup3\n        /* \"#utility.yul\":12467:12476   */\n      dup8\n        /* \"#utility.yul\":12463:12485   */\n      add\n        /* \"#utility.yul\":12442:12495   */\n      tag_556\n      jump\t// in\n    tag_721:\n        /* \"#utility.yul\":12432:12495   */\n      swap3\n      pop\n        /* \"#utility.yul\":12387:12505   */\n      pop\n        /* \"#utility.yul\":12572:12574   */\n      0x40\n        /* \"#utility.yul\":12561:12570   */\n      dup5\n        /* \"#utility.yul\":12557:12575   */\n      add\n        /* \"#utility.yul\":12544:12576   */\n      calldataload\n        /* \"#utility.yul\":12603:12621   */\n      0xffffffffffffffff\n        /* \"#utility.yul\":12595:12601   */\n      dup2\n        /* \"#utility.yul\":12592:12622   */\n      gt\n        /* \"#utility.yul\":12589:12706   */\n      iszero\n      tag_722\n      jumpi\n        /* \"#utility.yul\":12625:12704   */\n      tag_723\n      tag_544\n      jump\t// in\n    tag_723:\n        /* \"#utility.yul\":12589:12706   */\n    tag_722:\n        /* \"#utility.yul\":12730:12792   */\n      tag_724\n        /* \"#utility.yul\":12784:12791   */\n      dup7\n        /* \"#utility.yul\":12775:12781   */\n      dup3\n        /* \"#utility.yul\":12764:12773   */\n      dup8\n        /* \"#utility.yul\":12760:12782   */\n      add\n        /* \"#utility.yul\":12730:12792   */\n      tag_566\n      jump\t// in\n    tag_724:\n        /* \"#utility.yul\":12720:12792   */\n      swap2\n      pop\n        /* \"#utility.yul\":12515:12802   */\n      pop\n        /* \"#utility.yul\":12012:12809   */\n      swap3\n      pop\n      swap3\n      pop\n      swap3\n      jump\t// out\n        /* \"#utility.yul\":12815:13144   */\n    tag_91:\n        /* \"#utility.yul\":12874:12880   */\n      0x00\n        /* \"#utility.yul\":12923:12925   */\n      0x20\n        /* \"#utility.yul\":12911:12920   */\n      dup3\n        /* \"#utility.yul\":12902:12909   */\n      dup5\n        /* \"#utility.yul\":12898:12921   */\n      sub\n        /* \"#utility.yul\":12894:12926   */\n      slt\n        /* \"#utility.yul\":12891:13010   */\n      iszero\n      tag_726\n      jumpi\n        /* \"#utility.yul\":12929:13008   */\n      tag_727\n      tag_543\n      jump\t// in\n    tag_727:\n        /* \"#utility.yul\":12891:13010   */\n    tag_726:\n        /* \"#utility.yul\":13049:13050   */\n      0x00\n        /* \"#utility.yul\":13074:13127   */\n      tag_728\n        /* \"#utility.yul\":13119:13126   */\n      dup5\n        /* \"#utility.yul\":13110:13116   */\n      dup3\n        /* \"#utility.yul\":13099:13108   */\n      dup6\n        /* \"#utility.yul\":13095:13117   */\n      add\n        /* \"#utility.yul\":13074:13127   */\n      tag_553\n      jump\t// in\n    tag_728:\n        /* \"#utility.yul\":13064:13127   */\n      swap2\n      pop\n        /* \"#utility.yul\":13020:13137   */\n      pop\n        /* \"#utility.yul\":12815:13144   */\n      swap3\n      swap2\n      pop\n      pop\n      jump\t// out\n        /* \"#utility.yul\":13150:13268   */\n    tag_578:\n        /* \"#utility.yul\":13237:13261   */\n      tag_730\n        /* \"#utility.yul\":13255:13260   */\n      dup2\n        /* \"#utility.yul\":13237:13261   */\n      tag_554\n      jump\t// in\n    tag_730:\n        /* \"#utility.yul\":13232:13235   */\n      dup3\n        /* \"#utility.yul\":13225:13262   */\n      mstore\n        /* \"#utility.yul\":13150:13268   */\n      pop\n      pop\n      jump\t// out\n        /* \"#utility.yul\":13274:13496   */\n    tag_94:\n        /* \"#utility.yul\":13367:13371   */\n      0x00\n        /* \"#utility.yul\":13405:13407   */\n      0x20\n        /* \"#utility.yul\":13394:13403   */\n      dup3\n        /* \"#utility.yul\":13390:13408   */\n      add\n        /* \"#utility.yul\":13382:13408   */\n      swap1\n      pop\n        /* \"#utility.yul\":13418:13489   */\n      tag_732\n        /* \"#utility.yul\":13486:13487   */\n      0x00\n        /* \"#utility.yul\":13475:13484   */\n      dup4\n        /* \"#utility.yul\":13471:13488   */\n      add\n        /* \"#utility.yul\":13462:13468   */\n      dup5\n        /* \"#utility.yul\":13418:13489   */\n      tag_578\n      jump\t// in\n    tag_732:\n        /* \"#utility.yul\":13274:13496   */\n      swap3\n      swap2\n      pop\n      pop\n      jump\t// out\n        /* \"#utility.yul\":13502:13618   */\n    tag_579:\n        /* \"#utility.yul\":13572:13593   */\n      tag_734\n        /* \"#utility.yul\":13587:13592   */\n      dup2\n        /* \"#utility.yul\":13572:13593   */\n      tag_548\n      jump\t// in\n    tag_734:\n        /* \"#utility.yul\":13565:13570   */\n      dup2\n        /* \"#utility.yul\":13562:13594   */\n      eq\n        /* \"#utility.yul\":13552:13612   */\n      tag_735\n      jumpi\n        /* \"#utility.yul\":13608:13609   */\n      0x00\n        /* \"#utility.yul\":13605:13606   */\n      dup1\n        /* \"#utility.yul\":13598:13610   */\n      revert\n        /* \"#utility.yul\":13552:13612   */\n    tag_735:\n        /* \"#utility.yul\":13502:13618   */\n      pop\n      jump\t// out\n        /* \"#utility.yul\":13624:13757   */\n    tag_580:\n        /* \"#utility.yul\":13667:13672   */\n      0x00\n        /* \"#utility.yul\":13705:13711   */\n      dup2\n        /* \"#utility.yul\":13692:13712   */\n      calldataload\n        /* \"#utility.yul\":13683:13712   */\n      swap1\n      pop\n        /* \"#utility.yul\":13721:13751   */\n      tag_737\n        /* \"#utility.yul\":13745:13750   */\n      dup2\n        /* \"#utility.yul\":13721:13751   */\n      tag_579\n      jump\t// in\n    tag_737:\n        /* \"#utility.yul\":13624:13757   */\n      swap3\n      swap2\n      pop\n      pop\n      jump\t// out\n        /* \"#utility.yul\":13763:14231   */\n    tag_100:\n        /* \"#utility.yul\":13828:13834   */\n      0x00\n        /* \"#utility.yul\":13836:13842   */\n      dup1\n        /* \"#utility.yul\":13885:13887   */\n      0x40\n        /* \"#utility.yul\":13873:13882   */\n      dup4\n        /* \"#utility.yul\":13864:13871   */\n      dup6\n        /* \"#utility.yul\":13860:13883   */\n      sub\n        /* \"#utility.yul\":13856:13888   */\n      slt\n        /* \"#utility.yul\":13853:13972   */\n      iszero\n      tag_739\n      jumpi\n        /* \"#utility.yul\":13891:13970   */\n      tag_740\n      tag_543\n      jump\t// in\n    tag_740:\n        /* \"#utility.yul\":13853:13972   */\n    tag_739:\n        /* \"#utility.yul\":14011:14012   */\n      0x00\n        /* \"#utility.yul\":14036:14089   */\n      tag_741\n        /* \"#utility.yul\":14081:14088   */\n      dup6\n        /* \"#utility.yul\":14072:14078   */\n      dup3\n        /* \"#utility.yul\":14061:14070   */\n      dup7\n        /* \"#utility.yul\":14057:14079   */\n      add\n        /* \"#utility.yul\":14036:14089   */\n      tag_553\n      jump\t// in\n    tag_741:\n        /* \"#utility.yul\":14026:14089   */\n      swap3\n      pop\n        /* \"#utility.yul\":13982:14099   */\n      pop\n        /* \"#utility.yul\":14138:14140   */\n      0x20\n        /* \"#utility.yul\":14164:14214   */\n      tag_742\n        /* \"#utility.yul\":14206:14213   */\n      dup6\n        /* \"#utility.yul\":14197:14203   */\n      dup3\n        /* \"#utility.yul\":14186:14195   */\n      dup7\n        /* \"#utility.yul\":14182:14204   */\n      add\n        /* \"#utility.yul\":14164:14214   */\n      tag_580\n      jump\t// in\n    tag_742:\n        /* \"#utility.yul\":14154:14214   */\n      swap2\n      pop\n        /* \"#utility.yul\":14109:14224   */\n      pop\n        /* \"#utility.yul\":13763:14231   */\n      swap3\n      pop\n      swap3\n      swap1\n      pop\n      jump\t// out\n        /* \"#utility.yul\":14237:15180   */\n    tag_115:\n        /* \"#utility.yul\":14332:14338   */\n      0x00\n        /* \"#utility.yul\":14340:14346   */\n      dup1\n        /* \"#utility.yul\":14348:14354   */\n      0x00\n        /* \"#utility.yul\":14356:14362   */\n      dup1\n        /* \"#utility.yul\":14405:14408   */\n      0x80\n        /* \"#utility.yul\":14393:14402   */\n      dup6\n        /* \"#utility.yul\":14384:14391   */\n      dup8\n        /* \"#utility.yul\":14380:14403   */\n      sub\n        /* \"#utility.yul\":14376:14409   */\n      slt\n        /* \"#utility.yul\":14373:14493   */\n      iszero\n      tag_744\n      jumpi\n        /* \"#utility.yul\":14412:14491   */\n      tag_745\n      tag_543\n      jump\t// in\n    tag_745:\n        /* \"#utility.yul\":14373:14493   */\n    tag_744:\n        /* \"#utility.yul\":14532:14533   */\n      0x00\n        /* \"#utility.yul\":14557:14610   */\n      tag_746\n        /* \"#utility.yul\":14602:14609   */\n      dup8\n        /* \"#utility.yul\":14593:14599   */\n      dup3\n        /* \"#utility.yul\":14582:14591   */\n      dup9\n        /* \"#utility.yul\":14578:14600   */\n      add\n        /* \"#utility.yul\":14557:14610   */\n      tag_553\n      jump\t// in\n    tag_746:\n        /* \"#utility.yul\":14547:14610   */\n      swap5\n      pop\n        /* \"#utility.yul\":14503:14620   */\n      pop\n        /* \"#utility.yul\":14659:14661   */\n      0x20\n        /* \"#utility.yul\":14685:14738   */\n      tag_747\n        /* \"#utility.yul\":14730:14737   */\n      dup8\n        /* \"#utility.yul\":14721:14727   */\n      dup3\n        /* \"#utility.yul\":14710:14719   */\n      dup9\n        /* \"#utility.yul\":14706:14728   */\n      add\n        /* \"#utility.yul\":14685:14738   */\n      tag_553\n      jump\t// in\n    tag_747:\n        /* \"#utility.yul\":14675:14738   */\n      swap4\n      pop\n        /* \"#utility.yul\":14630:14748   */\n      pop\n        /* \"#utility.yul\":14787:14789   */\n      0x40\n        /* \"#utility.yul\":14813:14866   */\n      tag_748\n        /* \"#utility.yul\":14858:14865   */\n      dup8\n        /* \"#utility.yul\":14849:14855   */\n      dup3\n        /* \"#utility.yul\":14838:14847   */\n      dup9\n        /* \"#utility.yul\":14834:14856   */\n      add\n        /* \"#utility.yul\":14813:14866   */\n      tag_556\n      jump\t// in\n    tag_748:\n        /* \"#utility.yul\":14803:14866   */\n      swap3\n      pop\n        /* \"#utility.yul\":14758:14876   */\n      pop\n        /* \"#utility.yul\":14943:14945   */\n      0x60\n        /* \"#utility.yul\":14932:14941   */\n      dup6\n        /* \"#utility.yul\":14928:14946   */\n      add\n        /* \"#utility.yul\":14915:14947   */\n      calldataload\n        /* \"#utility.yul\":14974:14992   */\n      0xffffffffffffffff\n        /* \"#utility.yul\":14966:14972   */\n      dup2\n        /* \"#utility.yul\":14963:14993   */\n      gt\n        /* \"#utility.yul\":14960:15077   */\n      iszero\n      tag_749\n      jumpi\n        /* \"#utility.yul\":14996:15075   */\n      tag_750\n      tag_544\n      jump\t// in\n    tag_750:\n        /* \"#utility.yul\":14960:15077   */\n    tag_749:\n        /* \"#utility.yul\":15101:15163   */\n      tag_751\n        /* \"#utility.yul\":15155:15162   */\n      dup8\n        /* \"#utility.yul\":15146:15152   */\n      dup3\n        /* \"#utility.yul\":15135:15144   */\n      dup9\n        /* \"#utility.yul\":15131:15153   */\n      add\n        /* \"#utility.yul\":15101:15163   */\n      tag_566\n      jump\t// in\n    tag_751:\n        /* \"#utility.yul\":15091:15163   */\n      swap2\n      pop\n        /* \"#utility.yul\":14886:15173   */\n      pop\n        /* \"#utility.yul\":14237:15180   */\n      swap3\n      swap6\n      swap2\n      swap5\n      pop\n      swap3\n      pop\n      jump\t// out\n        /* \"#utility.yul\":15186:16707   */\n    tag_119:\n        /* \"#utility.yul\":15314:15320   */\n      0x00\n        /* \"#utility.yul\":15322:15328   */\n      dup1\n        /* \"#utility.yul\":15330:15336   */\n      0x00\n        /* \"#utility.yul\":15338:15344   */\n      dup1\n        /* \"#utility.yul\":15346:15352   */\n      0x00\n        /* \"#utility.yul\":15354:15360   */\n      dup1\n        /* \"#utility.yul\":15362:15368   */\n      0x00\n        /* \"#utility.yul\":15370:15376   */\n      dup1\n        /* \"#utility.yul\":15419:15422   */\n      0x0100\n        /* \"#utility.yul\":15407:15416   */\n      dup10\n        /* \"#utility.yul\":15398:15405   */\n      dup12\n        /* \"#utility.yul\":15394:15417   */\n      sub\n        /* \"#utility.yul\":15390:15423   */\n      slt\n        /* \"#utility.yul\":15387:15507   */\n      iszero\n      tag_753\n      jumpi\n        /* \"#utility.yul\":15426:15505   */\n      tag_754\n      tag_543\n      jump\t// in\n    tag_754:\n        /* \"#utility.yul\":15387:15507   */\n    tag_753:\n        /* \"#utility.yul\":15546:15547   */\n      0x00\n        /* \"#utility.yul\":15571:15624   */\n      tag_755\n        /* \"#utility.yul\":15616:15623   */\n      dup12\n        /* \"#utility.yul\":15607:15613   */\n      dup3\n        /* \"#utility.yul\":15596:15605   */\n      dup13\n        /* \"#utility.yul\":15592:15614   */\n      add\n        /* \"#utility.yul\":15571:15624   */\n      tag_556\n      jump\t// in\n    tag_755:\n        /* \"#utility.yul\":15561:15624   */\n      swap9\n      pop\n        /* \"#utility.yul\":15517:15634   */\n      pop\n        /* \"#utility.yul\":15673:15675   */\n      0x20\n        /* \"#utility.yul\":15699:15752   */\n      tag_756\n        /* \"#utility.yul\":15744:15751   */\n      dup12\n        /* \"#utility.yul\":15735:15741   */\n      dup3\n        /* \"#utility.yul\":15724:15733   */\n      dup13\n        /* \"#utility.yul\":15720:15742   */\n      add\n        /* \"#utility.yul\":15699:15752   */\n      tag_553\n      jump\t// in\n    tag_756:\n        /* \"#utility.yul\":15689:15752   */\n      swap8\n      pop\n        /* \"#utility.yul\":15644:15762   */\n      pop\n        /* \"#utility.yul\":15801:15803   */\n      0x40\n        /* \"#utility.yul\":15827:15880   */\n      tag_757\n        /* \"#utility.yul\":15872:15879   */\n      dup12\n        /* \"#utility.yul\":15863:15869   */\n      dup3\n        /* \"#utility.yul\":15852:15861   */\n      dup13\n        /* \"#utility.yul\":15848:15870   */\n      add\n        /* \"#utility.yul\":15827:15880   */\n      tag_556\n      jump\t// in\n    tag_757:\n        /* \"#utility.yul\":15817:15880   */\n      swap7\n      pop\n        /* \"#utility.yul\":15772:15890   */\n      pop\n        /* \"#utility.yul\":15929:15931   */\n      0x60\n        /* \"#utility.yul\":15955:16008   */\n      tag_758\n        /* \"#utility.yul\":16000:16007   */\n      dup12\n        /* \"#utility.yul\":15991:15997   */\n      dup3\n        /* \"#utility.yul\":15980:15989   */\n      dup13\n        /* \"#utility.yul\":15976:15998   */\n      add\n        /* \"#utility.yul\":15955:16008   */\n      tag_556\n      jump\t// in\n    tag_758:\n        /* \"#utility.yul\":15945:16008   */\n      swap6\n      pop\n        /* \"#utility.yul\":15900:16018   */\n      pop\n        /* \"#utility.yul\":16057:16060   */\n      0x80\n        /* \"#utility.yul\":16084:16137   */\n      tag_759\n        /* \"#utility.yul\":16129:16136   */\n      dup12\n        /* \"#utility.yul\":16120:16126   */\n      dup3\n        /* \"#utility.yul\":16109:16118   */\n      dup13\n        /* \"#utility.yul\":16105:16127   */\n      add\n        /* \"#utility.yul\":16084:16137   */\n      tag_553\n      jump\t// in\n    tag_759:\n        /* \"#utility.yul\":16074:16137   */\n      swap5\n      pop\n        /* \"#utility.yul\":16028:16147   */\n      pop\n        /* \"#utility.yul\":16186:16189   */\n      0xa0\n        /* \"#utility.yul\":16213:16266   */\n      tag_760\n        /* \"#utility.yul\":16258:16265   */\n      dup12\n        /* \"#utility.yul\":16249:16255   */\n      dup3\n        /* \"#utility.yul\":16238:16247   */\n      dup13\n        /* \"#utility.yul\":16234:16256   */\n      add\n        /* \"#utility.yul\":16213:16266   */\n      tag_556\n      jump\t// in\n    tag_760:\n        /* \"#utility.yul\":16203:16266   */\n      swap4\n      pop\n        /* \"#utility.yul\":16157:16276   */\n      pop\n        /* \"#utility.yul\":16315:16318   */\n      0xc0\n        /* \"#utility.yul\":16342:16392   */\n      tag_761\n        /* \"#utility.yul\":16384:16391   */\n      dup12\n        /* \"#utility.yul\":16375:16381   */\n      dup3\n        /* \"#utility.yul\":16364:16373   */\n      dup13\n        /* \"#utility.yul\":16360:16382   */\n      add\n        /* \"#utility.yul\":16342:16392   */\n      tag_580\n      jump\t// in\n    tag_761:\n        /* \"#utility.yul\":16332:16392   */\n      swap3\n      pop\n        /* \"#utility.yul\":16286:16402   */\n      pop\n        /* \"#utility.yul\":16469:16472   */\n      0xe0\n        /* \"#utility.yul\":16458:16467   */\n      dup10\n        /* \"#utility.yul\":16454:16473   */\n      add\n        /* \"#utility.yul\":16441:16474   */\n      calldataload\n        /* \"#utility.yul\":16501:16519   */\n      0xffffffffffffffff\n        /* \"#utility.yul\":16493:16499   */\n      dup2\n        /* \"#utility.yul\":16490:16520   */\n      gt\n        /* \"#utility.yul\":16487:16604   */\n      iszero\n      tag_762\n      jumpi\n        /* \"#utility.yul\":16523:16602   */\n      tag_763\n      tag_544\n      jump\t// in\n    tag_763:\n        /* \"#utility.yul\":16487:16604   */\n    tag_762:\n        /* \"#utility.yul\":16628:16690   */\n      tag_764\n        /* \"#utility.yul\":16682:16689   */\n      dup12\n        /* \"#utility.yul\":16673:16679   */\n      dup3\n        /* \"#utility.yul\":16662:16671   */\n      dup13\n        /* \"#utility.yul\":16658:16680   */\n      add\n        /* \"#utility.yul\":16628:16690   */\n      tag_566\n      jump\t// in\n    tag_764:\n        /* \"#utility.yul\":16618:16690   */\n      swap2\n      pop\n        /* \"#utility.yul\":16412:16700   */\n      pop\n        /* \"#utility.yul\":15186:16707   */\n      swap3\n      swap6\n      swap9\n      pop\n      swap3\n      swap6\n      swap9\n      swap1\n      swap4\n      swap7\n      pop\n      jump\t// out\n        /* \"#utility.yul\":16713:17478   */\n    tag_123:\n        /* \"#utility.yul\":16799:16805   */\n      0x00\n        /* \"#utility.yul\":16807:16813   */\n      dup1\n        /* \"#utility.yul\":16815:16821   */\n      0x00\n        /* \"#utility.yul\":16823:16829   */\n      dup1\n        /* \"#utility.yul\":16872:16875   */\n      0x80\n        /* \"#utility.yul\":16860:16869   */\n      dup6\n        /* \"#utility.yul\":16851:16858   */\n      dup8\n        /* \"#utility.yul\":16847:16870   */\n      sub\n        /* \"#utility.yul\":16843:16876   */\n      slt\n        /* \"#utility.yul\":16840:16960   */\n      iszero\n      tag_766\n      jumpi\n        /* \"#utility.yul\":16879:16958   */\n      tag_767\n      tag_543\n      jump\t// in\n    tag_767:\n        /* \"#utility.yul\":16840:16960   */\n    tag_766:\n        /* \"#utility.yul\":16999:17000   */\n      0x00\n        /* \"#utility.yul\":17024:17077   */\n      tag_768\n        /* \"#utility.yul\":17069:17076   */\n      dup8\n        /* \"#utility.yul\":17060:17066   */\n      dup3\n        /* \"#utility.yul\":17049:17058   */\n      dup9\n        /* \"#utility.yul\":17045:17067   */\n      add\n        /* \"#utility.yul\":17024:17077   */\n      tag_556\n      jump\t// in\n    tag_768:\n        /* \"#utility.yul\":17014:17077   */\n      swap5\n      pop\n        /* \"#utility.yul\":16970:17087   */\n      pop\n        /* \"#utility.yul\":17126:17128   */\n      0x20\n        /* \"#utility.yul\":17152:17205   */\n      tag_769\n        /* \"#utility.yul\":17197:17204   */\n      dup8\n        /* \"#utility.yul\":17188:17194   */\n      dup3\n        /* \"#utility.yul\":17177:17186   */\n      dup9\n        /* \"#utility.yul\":17173:17195   */\n      add\n        /* \"#utility.yul\":17152:17205   */\n      tag_556\n      jump\t// in\n    tag_769:\n        /* \"#utility.yul\":17142:17205   */\n      swap4\n      pop\n        /* \"#utility.yul\":17097:17215   */\n      pop\n        /* \"#utility.yul\":17254:17256   */\n      0x40\n        /* \"#utility.yul\":17280:17333   */\n      tag_770\n        /* \"#utility.yul\":17325:17332   */\n      dup8\n        /* \"#utility.yul\":17316:17322   */\n      dup3\n        /* \"#utility.yul\":17305:17314   */\n      dup9\n        /* \"#utility.yul\":17301:17323   */\n      add\n        /* \"#utility.yul\":17280:17333   */\n      tag_553\n      jump\t// in\n    tag_770:\n        /* \"#utility.yul\":17270:17333   */\n      swap3\n      pop\n        /* \"#utility.yul\":17225:17343   */\n      pop\n        /* \"#utility.yul\":17382:17384   */\n      0x60\n        /* \"#utility.yul\":17408:17461   */\n      tag_771\n        /* \"#utility.yul\":17453:17460   */\n      dup8\n        /* \"#utility.yul\":17444:17450   */\n      dup3\n        /* \"#utility.yul\":17433:17442   */\n      dup9\n        /* \"#utility.yul\":17429:17451   */\n      add\n        /* \"#utility.yul\":17408:17461   */\n      tag_556\n      jump\t// in\n    tag_771:\n        /* \"#utility.yul\":17398:17461   */\n      swap2\n      pop\n        /* \"#utility.yul\":17353:17471   */\n      pop\n        /* \"#utility.yul\":16713:17478   */\n      swap3\n      swap6\n      swap2\n      swap5\n      pop\n      swap3\n      pop\n      jump\t// out\n        /* \"#utility.yul\":17484:17958   */\n    tag_127:\n        /* \"#utility.yul\":17552:17558   */\n      0x00\n        /* \"#utility.yul\":17560:17566   */\n      dup1\n        /* \"#utility.yul\":17609:17611   */\n      0x40\n        /* \"#utility.yul\":17597:17606   */\n      dup4\n        /* \"#utility.yul\":17588:17595   */\n      dup6\n        /* \"#utility.yul\":17584:17607   */\n      sub\n        /* \"#utility.yul\":17580:17612   */\n      slt\n        /* \"#utility.yul\":17577:17696   */\n      iszero\n      tag_773\n      jumpi\n        /* \"#utility.yul\":17615:17694   */\n      tag_774\n      tag_543\n      jump\t// in\n    tag_774:\n        /* \"#utility.yul\":17577:17696   */\n    tag_773:\n        /* \"#utility.yul\":17735:17736   */\n      0x00\n        /* \"#utility.yul\":17760:17813   */\n      tag_775\n        /* \"#utility.yul\":17805:17812   */\n      dup6\n        /* \"#utility.yul\":17796:17802   */\n      dup3\n        /* \"#utility.yul\":17785:17794   */\n      dup7\n        /* \"#utility.yul\":17781:17803   */\n      add\n        /* \"#utility.yul\":17760:17813   */\n      tag_553\n      jump\t// in\n    tag_775:\n        /* \"#utility.yul\":17750:17813   */\n      swap3\n      pop\n        /* \"#utility.yul\":17706:17823   */\n      pop\n        /* \"#utility.yul\":17862:17864   */\n      0x20\n        /* \"#utility.yul\":17888:17941   */\n      tag_776\n        /* \"#utility.yul\":17933:17940   */\n      dup6\n        /* \"#utility.yul\":17924:17930   */\n      dup3\n        /* \"#utility.yul\":17913:17922   */\n      dup7\n        /* \"#utility.yul\":17909:17931   */\n      add\n        /* \"#utility.yul\":17888:17941   */\n      tag_553\n      jump\t// in\n    tag_776:\n        /* \"#utility.yul\":17878:17941   */\n      swap2\n      pop\n        /* \"#utility.yul\":17833:17951   */\n      pop\n        /* \"#utility.yul\":17484:17958   */\n      swap3\n      pop\n      swap3\n      swap1\n      pop\n      jump\t// out\n        /* \"#utility.yul\":17964:18907   */\n    tag_132:\n        /* \"#utility.yul\":18059:18065   */\n      0x00\n        /* \"#utility.yul\":18067:18073   */\n      dup1\n        /* \"#utility.yul\":18075:18081   */\n      0x00\n        /* \"#utility.yul\":18083:18089   */\n      dup1\n        /* \"#utility.yul\":18132:18135   */\n      0x80\n        /* \"#utility.yul\":18120:18129   */\n      dup6\n        /* \"#utility.yul\":18111:18118   */\n      dup8\n        /* \"#utility.yul\":18107:18130   */\n      sub\n        /* \"#utility.yul\":18103:18136   */\n      slt\n        /* \"#utility.yul\":18100:18220   */\n      iszero\n      tag_778\n      jumpi\n        /* \"#utility.yul\":18139:18218   */\n      tag_779\n      tag_543\n      jump\t// in\n    tag_779:\n        /* \"#utility.yul\":18100:18220   */\n    tag_778:\n        /* \"#utility.yul\":18259:18260   */\n      0x00\n        /* \"#utility.yul\":18284:18337   */\n      tag_780\n        /* \"#utility.yul\":18329:18336   */\n      dup8\n        /* \"#utility.yul\":18320:18326   */\n      dup3\n        /* \"#utility.yul\":18309:18318   */\n      dup9\n        /* \"#utility.yul\":18305:18327   */\n      add\n        /* \"#utility.yul\":18284:18337   */\n      tag_553\n      jump\t// in\n    tag_780:\n        /* \"#utility.yul\":18274:18337   */\n      swap5\n      pop\n        /* \"#utility.yul\":18230:18347   */\n      pop\n        /* \"#utility.yul\":18386:18388   */\n      0x20\n        /* \"#utility.yul\":18412:18465   */\n      tag_781\n        /* \"#utility.yul\":18457:18464   */\n      dup8\n        /* \"#utility.yul\":18448:18454   */\n      dup3\n        /* \"#utility.yul\":18437:18446   */\n      dup9\n        /* \"#utility.yul\":18433:18455   */\n      add\n        /* \"#utility.yul\":18412:18465   */\n      tag_556\n      jump\t// in\n    tag_781:\n        /* \"#utility.yul\":18402:18465   */\n      swap4\n      pop\n        /* \"#utility.yul\":18357:18475   */\n      pop\n        /* \"#utility.yul\":18514:18516   */\n      0x40\n        /* \"#utility.yul\":18540:18593   */\n      tag_782\n        /* \"#utility.yul\":18585:18592   */\n      dup8\n        /* \"#utility.yul\":18576:18582   */\n      dup3\n        /* \"#utility.yul\":18565:18574   */\n      dup9\n        /* \"#utility.yul\":18561:18583   */\n      add\n        /* \"#utility.yul\":18540:18593   */\n      tag_556\n      jump\t// in\n    tag_782:\n        /* \"#utility.yul\":18530:18593   */\n      swap3\n      pop\n        /* \"#utility.yul\":18485:18603   */\n      pop\n        /* \"#utility.yul\":18670:18672   */\n      0x60\n        /* \"#utility.yul\":18659:18668   */\n      dup6\n        /* \"#utility.yul\":18655:18673   */\n      add\n        /* \"#utility.yul\":18642:18674   */\n      calldataload\n        /* \"#utility.yul\":18701:18719   */\n      0xffffffffffffffff\n        /* \"#utility.yul\":18693:18699   */\n      dup2\n        /* \"#utility.yul\":18690:18720   */\n      gt\n        /* \"#utility.yul\":18687:18804   */\n      iszero\n      tag_783\n      jumpi\n        /* \"#utility.yul\":18723:18802   */\n      tag_784\n      tag_544\n      jump\t// in\n    tag_784:\n        /* \"#utility.yul\":18687:18804   */\n    tag_783:\n        /* \"#utility.yul\":18828:18890   */\n      tag_785\n        /* \"#utility.yul\":18882:18889   */\n      dup8\n        /* \"#utility.yul\":18873:18879   */\n      dup3\n        /* \"#utility.yul\":18862:18871   */\n      dup9\n        /* \"#utility.yul\":18858:18880   */\n      add\n        /* \"#utility.yul\":18828:18890   */\n      tag_566\n      jump\t// in\n    tag_785:\n        /* \"#utility.yul\":18818:18890   */\n      swap2\n      pop\n        /* \"#utility.yul\":18613:18900   */\n      pop\n        /* \"#utility.yul\":17964:18907   */\n      swap3\n      swap6\n      swap2\n      swap5\n      pop\n      swap3\n      pop\n      jump\t// out\n        /* \"#utility.yul\":18913:19343   */\n    tag_138:\n        /* \"#utility.yul\":19056:19060   */\n      0x00\n        /* \"#utility.yul\":19094:19096   */\n      0x60\n        /* \"#utility.yul\":19083:19092   */\n      dup3\n        /* \"#utility.yul\":19079:19097   */\n      add\n        /* \"#utility.yul\":19071:19097   */\n      swap1\n      pop\n        /* \"#utility.yul\":19107:19178   */\n      tag_787\n        /* \"#utility.yul\":19175:19176   */\n      0x00\n        /* \"#utility.yul\":19164:19173   */\n      dup4\n        /* \"#utility.yul\":19160:19177   */\n      add\n        /* \"#utility.yul\":19151:19157   */\n      dup7\n        /* \"#utility.yul\":19107:19178   */\n      tag_567\n      jump\t// in\n    tag_787:\n        /* \"#utility.yul\":19188:19260   */\n      tag_788\n        /* \"#utility.yul\":19256:19258   */\n      0x20\n        /* \"#utility.yul\":19245:19254   */\n      dup4\n        /* \"#utility.yul\":19241:19259   */\n      add\n        /* \"#utility.yul\":19232:19238   */\n      dup6\n        /* \"#utility.yul\":19188:19260   */\n      tag_578\n      jump\t// in\n    tag_788:\n        /* \"#utility.yul\":19270:19336   */\n      tag_789\n        /* \"#utility.yul\":19332:19334   */\n      0x40\n        /* \"#utility.yul\":19321:19330   */\n      dup4\n        /* \"#utility.yul\":19317:19335   */\n      add\n        /* \"#utility.yul\":19308:19314   */\n      dup5\n        /* \"#utility.yul\":19270:19336   */\n      tag_549\n      jump\t// in\n    tag_789:\n        /* \"#utility.yul\":18913:19343   */\n      swap5\n      swap4\n      pop\n      pop\n      pop\n      pop\n      jump\t// out\n        /* \"#utility.yul\":19349:19529   */\n    tag_176:\n        /* \"#utility.yul\":19397:19474   */\n      0x4e487b7100000000000000000000000000000000000000000000000000000000\n        /* \"#utility.yul\":19394:19395   */\n      0x00\n        /* \"#utility.yul\":19387:19475   */\n      mstore\n        /* \"#utility.yul\":19494:19498   */\n      0x32\n        /* \"#utility.yul\":19491:19492   */\n      0x04\n        /* \"#utility.yul\":19484:19499   */\n      mstore\n        /* \"#utility.yul\":19518:19522   */\n      0x24\n        /* \"#utility.yul\":19515:19516   */\n      0x00\n        /* \"#utility.yul\":19508:19523   */\n      revert\n        /* \"#utility.yul\":19535:19678   */\n    tag_581:\n        /* \"#utility.yul\":19592:19597   */\n      0x00\n        /* \"#utility.yul\":19623:19629   */\n      dup2\n        /* \"#utility.yul\":19617:19630   */\n      mload\n        /* \"#utility.yul\":19608:19630   */\n      swap1\n      pop\n        /* \"#utility.yul\":19639:19672   */\n      tag_792\n        /* \"#utility.yul\":19666:19671   */\n      dup2\n        /* \"#utility.yul\":19639:19672   */\n      tag_552\n      jump\t// in\n    tag_792:\n        /* \"#utility.yul\":19535:19678   */\n      swap3\n      swap2\n      pop\n      pop\n      jump\t// out\n        /* \"#utility.yul\":19684:20035   */\n    tag_194:\n        /* \"#utility.yul\":19754:19760   */\n      0x00\n        /* \"#utility.yul\":19803:19805   */\n      0x20\n        /* \"#utility.yul\":19791:19800   */\n      dup3\n        /* \"#utility.yul\":19782:19789   */\n      dup5\n        /* \"#utility.yul\":19778:19801   */\n      sub\n        /* \"#utility.yul\":19774:19806   */\n      slt\n        /* \"#utility.yul\":19771:19890   */\n      iszero\n      tag_794\n      jumpi\n        /* \"#utility.yul\":19809:19888   */\n      tag_795\n      tag_543\n      jump\t// in\n    tag_795:\n        /* \"#utility.yul\":19771:19890   */\n    tag_794:\n        /* \"#utility.yul\":19929:19930   */\n      0x00\n        /* \"#utility.yul\":19954:20018   */\n      tag_796\n        /* \"#utility.yul\":20010:20017   */\n      dup5\n        /* \"#utility.yul\":20001:20007   */\n      dup3\n        /* \"#utility.yul\":19990:19999   */\n      dup6\n        /* \"#utility.yul\":19986:20008   */\n      add\n        /* \"#utility.yul\":19954:20018   */\n      tag_581\n      jump\t// in\n    tag_796:\n        /* \"#utility.yul\":19944:20018   */\n      swap2\n      pop\n        /* \"#utility.yul\":19900:20028   */\n      pop\n        /* \"#utility.yul\":19684:20035   */\n      swap3\n      swap2\n      pop\n      pop\n      jump\t// out\n        /* \"#utility.yul\":20041:20156   */\n    tag_582:\n        /* \"#utility.yul\":20126:20149   */\n      tag_798\n        /* \"#utility.yul\":20143:20148   */\n      dup2\n        /* \"#utility.yul\":20126:20149   */\n      tag_545\n      jump\t// in\n    tag_798:\n        /* \"#utility.yul\":20121:20124   */\n      dup3\n        /* \"#utility.yul\":20114:20150   */\n      mstore\n        /* \"#utility.yul\":20041:20156   */\n      pop\n      pop\n      jump\t// out\n        /* \"#utility.yul\":20162:20380   */\n    tag_263:\n        /* \"#utility.yul\":20253:20257   */\n      0x00\n        /* \"#utility.yul\":20291:20293   */\n      0x20\n        /* \"#utility.yul\":20280:20289   */\n      dup3\n        /* \"#utility.yul\":20276:20294   */\n      add\n        /* \"#utility.yul\":20268:20294   */\n      swap1\n      pop\n        /* \"#utility.yul\":20304:20373   */\n      tag_800\n        /* \"#utility.yul\":20370:20371   */\n      0x00\n        /* \"#utility.yul\":20359:20368   */\n      dup4\n        /* \"#utility.yul\":20355:20372   */\n      add\n        /* \"#utility.yul\":20346:20352   */\n      dup5\n        /* \"#utility.yul\":20304:20373   */\n      tag_582\n      jump\t// in\n    tag_800:\n        /* \"#utility.yul\":20162:20380   */\n      swap3\n      swap2\n      pop\n      pop\n      jump\t// out\n        /* \"#utility.yul\":20386:20523   */\n    tag_583:\n        /* \"#utility.yul\":20440:20445   */\n      0x00\n        /* \"#utility.yul\":20471:20477   */\n      dup2\n        /* \"#utility.yul\":20465:20478   */\n      mload\n        /* \"#utility.yul\":20456:20478   */\n      swap1\n      pop\n        /* \"#utility.yul\":20487:20517   */\n      tag_802\n        /* \"#utility.yul\":20511:20516   */\n      dup2\n        /* \"#utility.yul\":20487:20517   */\n      tag_579\n      jump\t// in\n    tag_802:\n        /* \"#utility.yul\":20386:20523   */\n      swap3\n      swap2\n      pop\n      pop\n      jump\t// out\n        /* \"#utility.yul\":20529:20874   */\n    tag_267:\n        /* \"#utility.yul\":20596:20602   */\n      0x00\n        /* \"#utility.yul\":20645:20647   */\n      0x20\n        /* \"#utility.yul\":20633:20642   */\n      dup3\n        /* \"#utility.yul\":20624:20631   */\n      dup5\n        /* \"#utility.yul\":20620:20643   */\n      sub\n        /* \"#utility.yul\":20616:20648   */\n      slt\n        /* \"#utility.yul\":20613:20732   */\n      iszero\n      tag_804\n      jumpi\n        /* \"#utility.yul\":20651:20730   */\n      tag_805\n      tag_543\n      jump\t// in\n    tag_805:\n        /* \"#utility.yul\":20613:20732   */\n    tag_804:\n        /* \"#utility.yul\":20771:20772   */\n      0x00\n        /* \"#utility.yul\":20796:20857   */\n      tag_806\n        /* \"#utility.yul\":20849:20856   */\n      dup5\n        /* \"#utility.yul\":20840:20846   */\n      dup3\n        /* \"#utility.yul\":20829:20838   */\n      dup6\n        /* \"#utility.yul\":20825:20847   */\n      add\n        /* \"#utility.yul\":20796:20857   */\n      tag_583\n      jump\t// in\n    tag_806:\n        /* \"#utility.yul\":20786:20857   */\n      swap2\n      pop\n        /* \"#utility.yul\":20742:20867   */\n      pop\n        /* \"#utility.yul\":20529:20874   */\n      swap3\n      swap2\n      pop\n      pop\n      jump\t// out\n        /* \"#utility.yul\":20880:21060   */\n    tag_584:\n        /* \"#utility.yul\":20928:21005   */\n      0x4e487b7100000000000000000000000000000000000000000000000000000000\n        /* \"#utility.yul\":20925:20926   */\n      0x00\n        /* \"#utility.yul\":20918:21006   */\n      mstore\n        /* \"#utility.yul\":21025:21029   */\n      0x11\n        /* \"#utility.yul\":21022:21023   */\n      0x04\n        /* \"#utility.yul\":21015:21030   */\n      mstore\n        /* \"#utility.yul\":21049:21053   */\n      0x24\n        /* \"#utility.yul\":21046:21047   */\n      0x00\n        /* \"#utility.yul\":21039:21054   */\n      revert\n        /* \"#utility.yul\":21066:21260   */\n    tag_300:\n        /* \"#utility.yul\":21106:21110   */\n      0x00\n        /* \"#utility.yul\":21126:21146   */\n      tag_809\n        /* \"#utility.yul\":21144:21145   */\n      dup3\n        /* \"#utility.yul\":21126:21146   */\n      tag_554\n      jump\t// in\n    tag_809:\n        /* \"#utility.yul\":21121:21146   */\n      swap2\n      pop\n        /* \"#utility.yul\":21160:21180   */\n      tag_810\n        /* \"#utility.yul\":21178:21179   */\n      dup4\n        /* \"#utility.yul\":21160:21180   */\n      tag_554\n      jump\t// in\n    tag_810:\n        /* \"#utility.yul\":21155:21180   */\n      swap3\n      pop\n        /* \"#utility.yul\":21204:21205   */\n      dup3\n        /* \"#utility.yul\":21201:21202   */\n      dup3\n        /* \"#utility.yul\":21197:21206   */\n      sub\n        /* \"#utility.yul\":21189:21206   */\n      swap1\n      pop\n        /* \"#utility.yul\":21228:21229   */\n      dup2\n        /* \"#utility.yul\":21222:21226   */\n      dup2\n        /* \"#utility.yul\":21219:21230   */\n      gt\n        /* \"#utility.yul\":21216:21253   */\n      iszero\n      tag_811\n      jumpi\n        /* \"#utility.yul\":21233:21251   */\n      tag_812\n      tag_584\n      jump\t// in\n    tag_812:\n        /* \"#utility.yul\":21216:21253   */\n    tag_811:\n        /* \"#utility.yul\":21066:21260   */\n      swap3\n      swap2\n      pop\n      pop\n      jump\t// out\n        /* \"#utility.yul\":21266:21457   */\n    tag_304:\n        /* \"#utility.yul\":21306:21309   */\n      0x00\n        /* \"#utility.yul\":21325:21345   */\n      tag_814\n        /* \"#utility.yul\":21343:21344   */\n      dup3\n        /* \"#utility.yul\":21325:21345   */\n      tag_554\n      jump\t// in\n    tag_814:\n        /* \"#utility.yul\":21320:21345   */\n      swap2\n      pop\n        /* \"#utility.yul\":21359:21379   */\n      tag_815\n        /* \"#utility.yul\":21377:21378   */\n      dup4\n        /* \"#utility.yul\":21359:21379   */\n      tag_554\n      jump\t// in\n    tag_815:\n        /* \"#utility.yul\":21354:21379   */\n      swap3\n      pop\n        /* \"#utility.yul\":21402:21403   */\n      dup3\n        /* \"#utility.yul\":21399:21400   */\n      dup3\n        /* \"#utility.yul\":21395:21404   */\n      add\n        /* \"#utility.yul\":21388:21404   */\n      swap1\n      pop\n        /* \"#utility.yul\":21423:21426   */\n      dup1\n        /* \"#utility.yul\":21420:21421   */\n      dup3\n        /* \"#utility.yul\":21417:21427   */\n      gt\n        /* \"#utility.yul\":21414:21450   */\n      iszero\n      tag_816\n      jumpi\n        /* \"#utility.yul\":21430:21448   */\n      tag_817\n      tag_584\n      jump\t// in\n    tag_817:\n        /* \"#utility.yul\":21414:21450   */\n    tag_816:\n        /* \"#utility.yul\":21266:21457   */\n      swap3\n      swap2\n      pop\n      pop\n      jump\t// out\n        /* \"#utility.yul\":21463:21548   */\n    tag_585:\n        /* \"#utility.yul\":21508:21515   */\n      0x00\n        /* \"#utility.yul\":21537:21542   */\n      dup2\n        /* \"#utility.yul\":21526:21542   */\n      swap1\n      pop\n        /* \"#utility.yul\":21463:21548   */\n      swap2\n      swap1\n      pop\n      jump\t// out\n        /* \"#utility.yul\":21554:21614   */\n    tag_586:\n        /* \"#utility.yul\":21582:21585   */\n      0x00\n        /* \"#utility.yul\":21603:21608   */\n      dup2\n        /* \"#utility.yul\":21596:21608   */\n      swap1\n      pop\n        /* \"#utility.yul\":21554:21614   */\n      swap2\n      swap1\n      pop\n      jump\t// out\n        /* \"#utility.yul\":21620:21778   */\n    tag_587:\n        /* \"#utility.yul\":21678:21687   */\n      0x00\n        /* \"#utility.yul\":21711:21772   */\n      tag_821\n        /* \"#utility.yul\":21729:21771   */\n      tag_822\n        /* \"#utility.yul\":21738:21770   */\n      tag_823\n        /* \"#utility.yul\":21764:21769   */\n      dup5\n        /* \"#utility.yul\":21738:21770   */\n      tag_585\n      jump\t// in\n    tag_823:\n        /* \"#utility.yul\":21729:21771   */\n      tag_586\n      jump\t// in\n    tag_822:\n        /* \"#utility.yul\":21711:21772   */\n      tag_554\n      jump\t// in\n    tag_821:\n        /* \"#utility.yul\":21698:21772   */\n      swap1\n      pop\n        /* \"#utility.yul\":21620:21778   */\n      swap2\n      swap1\n      pop\n      jump\t// out\n        /* \"#utility.yul\":21784:21931   */\n    tag_588:\n        /* \"#utility.yul\":21879:21924   */\n      tag_825\n        /* \"#utility.yul\":21918:21923   */\n      dup2\n        /* \"#utility.yul\":21879:21924   */\n      tag_587\n      jump\t// in\n    tag_825:\n        /* \"#utility.yul\":21874:21877   */\n      dup3\n        /* \"#utility.yul\":21867:21925   */\n      mstore\n        /* \"#utility.yul\":21784:21931   */\n      pop\n      pop\n      jump\t// out\n        /* \"#utility.yul\":21937:22285   */\n    tag_323:\n        /* \"#utility.yul\":22066:22070   */\n      0x00\n        /* \"#utility.yul\":22104:22106   */\n      0x40\n        /* \"#utility.yul\":22093:22102   */\n      dup3\n        /* \"#utility.yul\":22089:22107   */\n      add\n        /* \"#utility.yul\":22081:22107   */\n      swap1\n      pop\n        /* \"#utility.yul\":22117:22188   */\n      tag_827\n        /* \"#utility.yul\":22185:22186   */\n      0x00\n        /* \"#utility.yul\":22174:22183   */\n      dup4\n        /* \"#utility.yul\":22170:22187   */\n      add\n        /* \"#utility.yul\":22161:22167   */\n      dup6\n        /* \"#utility.yul\":22117:22188   */\n      tag_578\n      jump\t// in\n    tag_827:\n        /* \"#utility.yul\":22198:22278   */\n      tag_828\n        /* \"#utility.yul\":22274:22276   */\n      0x20\n        /* \"#utility.yul\":22263:22272   */\n      dup4\n        /* \"#utility.yul\":22259:22277   */\n      add\n        /* \"#utility.yul\":22250:22256   */\n      dup5\n        /* \"#utility.yul\":22198:22278   */\n      tag_588\n      jump\t// in\n    tag_828:\n        /* \"#utility.yul\":21937:22285   */\n      swap4\n      swap3\n      pop\n      pop\n      pop\n      jump\t// out\n        /* \"#utility.yul\":22291:22623   */\n    tag_365:\n        /* \"#utility.yul\":22412:22416   */\n      0x00\n        /* \"#utility.yul\":22450:22452   */\n      0x40\n        /* \"#utility.yul\":22439:22448   */\n      dup3\n        /* \"#utility.yul\":22435:22453   */\n      add\n        /* \"#utility.yul\":22427:22453   */\n      swap1\n      pop\n        /* \"#utility.yul\":22463:22534   */\n      tag_830\n        /* \"#utility.yul\":22531:22532   */\n      0x00\n        /* \"#utility.yul\":22520:22529   */\n      dup4\n        /* \"#utility.yul\":22516:22533   */\n      add\n        /* \"#utility.yul\":22507:22513   */\n      dup6\n        /* \"#utility.yul\":22463:22534   */\n      tag_567\n      jump\t// in\n    tag_830:\n        /* \"#utility.yul\":22544:22616   */\n      tag_831\n        /* \"#utility.yul\":22612:22614   */\n      0x20\n        /* \"#utility.yul\":22601:22610   */\n      dup4\n        /* \"#utility.yul\":22597:22615   */\n      add\n        /* \"#utility.yul\":22588:22594   */\n      dup5\n        /* \"#utility.yul\":22544:22616   */\n      tag_578\n      jump\t// in\n    tag_831:\n        /* \"#utility.yul\":22291:22623   */\n      swap4\n      swap3\n      pop\n      pop\n      pop\n      jump\t// out\n        /* \"#utility.yul\":22629:22961   */\n    tag_376:\n        /* \"#utility.yul\":22750:22754   */\n      0x00\n        /* \"#utility.yul\":22788:22790   */\n      0x40\n        /* \"#utility.yul\":22777:22786   */\n      dup3\n        /* \"#utility.yul\":22773:22791   */\n      add\n        /* \"#utility.yul\":22765:22791   */\n      swap1\n      pop\n        /* \"#utility.yul\":22801:22872   */\n      tag_833\n        /* \"#utility.yul\":22869:22870   */\n      0x00\n        /* \"#utility.yul\":22858:22867   */\n      dup4\n        /* \"#utility.yul\":22854:22871   */\n      add\n        /* \"#utility.yul\":22845:22851   */\n      dup6\n        /* \"#utility.yul\":22801:22872   */\n      tag_578\n      jump\t// in\n    tag_833:\n        /* \"#utility.yul\":22882:22954   */\n      tag_834\n        /* \"#utility.yul\":22950:22952   */\n      0x20\n        /* \"#utility.yul\":22939:22948   */\n      dup4\n        /* \"#utility.yul\":22935:22953   */\n      add\n        /* \"#utility.yul\":22926:22932   */\n      dup5\n        /* \"#utility.yul\":22882:22954   */\n      tag_578\n      jump\t// in\n    tag_834:\n        /* \"#utility.yul\":22629:22961   */\n      swap4\n      swap3\n      pop\n      pop\n      pop\n      jump\t// out\n        /* \"#utility.yul\":22967:23110   */\n    tag_589:\n        /* \"#utility.yul\":23024:23029   */\n      0x00\n        /* \"#utility.yul\":23055:23061   */\n      dup2\n        /* \"#utility.yul\":23049:23062   */\n      mload\n        /* \"#utility.yul\":23040:23062   */\n      swap1\n      pop\n        /* \"#utility.yul\":23071:23104   */\n      tag_836\n        /* \"#utility.yul\":23098:23103   */\n      dup2\n        /* \"#utility.yul\":23071:23104   */\n      tag_555\n      jump\t// in\n    tag_836:\n        /* \"#utility.yul\":22967:23110   */\n      swap3\n      swap2\n      pop\n      pop\n      jump\t// out\n        /* \"#utility.yul\":23116:23467   */\n    tag_380:\n        /* \"#utility.yul\":23186:23192   */\n      0x00\n        /* \"#utility.yul\":23235:23237   */\n      0x20\n        /* \"#utility.yul\":23223:23232   */\n      dup3\n        /* \"#utility.yul\":23214:23221   */\n      dup5\n        /* \"#utility.yul\":23210:23233   */\n      sub\n        /* \"#utility.yul\":23206:23238   */\n      slt\n        /* \"#utility.yul\":23203:23322   */\n      iszero\n      tag_838\n      jumpi\n        /* \"#utility.yul\":23241:23320   */\n      tag_839\n      tag_543\n      jump\t// in\n    tag_839:\n        /* \"#utility.yul\":23203:23322   */\n    tag_838:\n        /* \"#utility.yul\":23361:23362   */\n      0x00\n        /* \"#utility.yul\":23386:23450   */\n      tag_840\n        /* \"#utility.yul\":23442:23449   */\n      dup5\n        /* \"#utility.yul\":23433:23439   */\n      dup3\n        /* \"#utility.yul\":23422:23431   */\n      dup6\n        /* \"#utility.yul\":23418:23440   */\n      add\n        /* \"#utility.yul\":23386:23450   */\n      tag_589\n      jump\t// in\n    tag_840:\n        /* \"#utility.yul\":23376:23450   */\n      swap2\n      pop\n        /* \"#utility.yul\":23332:23460   */\n      pop\n        /* \"#utility.yul\":23116:23467   */\n      swap3\n      swap2\n      pop\n      pop\n      jump\t// out\n        /* \"#utility.yul\":23473:23571   */\n    tag_590:\n        /* \"#utility.yul\":23524:23530   */\n      0x00\n        /* \"#utility.yul\":23558:23563   */\n      dup2\n        /* \"#utility.yul\":23552:23564   */\n      mload\n        /* \"#utility.yul\":23542:23564   */\n      swap1\n      pop\n        /* \"#utility.yul\":23473:23571   */\n      swap2\n      swap1\n      pop\n      jump\t// out\n        /* \"#utility.yul\":23577:23745   */\n    tag_591:\n        /* \"#utility.yul\":23660:23671   */\n      0x00\n        /* \"#utility.yul\":23694:23700   */\n      dup3\n        /* \"#utility.yul\":23689:23692   */\n      dup3\n        /* \"#utility.yul\":23682:23701   */\n      mstore\n        /* \"#utility.yul\":23734:23738   */\n      0x20\n        /* \"#utility.yul\":23729:23732   */\n      dup3\n        /* \"#utility.yul\":23725:23739   */\n      add\n        /* \"#utility.yul\":23710:23739   */\n      swap1\n      pop\n        /* \"#utility.yul\":23577:23745   */\n      swap3\n      swap2\n      pop\n      pop\n      jump\t// out\n        /* \"#utility.yul\":23751:23997   */\n    tag_592:\n        /* \"#utility.yul\":23832:23833   */\n      0x00\n        /* \"#utility.yul\":23842:23955   */\n    tag_844:\n        /* \"#utility.yul\":23856:23862   */\n      dup4\n        /* \"#utility.yul\":23853:23854   */\n      dup2\n        /* \"#utility.yul\":23850:23863   */\n      lt\n        /* \"#utility.yul\":23842:23955   */\n      iszero\n      tag_846\n      jumpi\n        /* \"#utility.yul\":23941:23942   */\n      dup1\n        /* \"#utility.yul\":23936:23939   */\n      dup3\n        /* \"#utility.yul\":23932:23943   */\n      add\n        /* \"#utility.yul\":23926:23944   */\n      mload\n        /* \"#utility.yul\":23922:23923   */\n      dup2\n        /* \"#utility.yul\":23917:23920   */\n      dup5\n        /* \"#utility.yul\":23913:23924   */\n      add\n        /* \"#utility.yul\":23906:23945   */\n      mstore\n        /* \"#utility.yul\":23878:23880   */\n      0x20\n        /* \"#utility.yul\":23875:23876   */\n      dup2\n        /* \"#utility.yul\":23871:23881   */\n      add\n        /* \"#utility.yul\":23866:23881   */\n      swap1\n      pop\n        /* \"#utility.yul\":23842:23955   */\n      jump(tag_844)\n    tag_846:\n        /* \"#utility.yul\":23989:23990   */\n      0x00\n        /* \"#utility.yul\":23980:23986   */\n      dup5\n        /* \"#utility.yul\":23975:23978   */\n      dup5\n        /* \"#utility.yul\":23971:23987   */\n      add\n        /* \"#utility.yul\":23964:23991   */\n      mstore\n        /* \"#utility.yul\":23813:23997   */\n      pop\n        /* \"#utility.yul\":23751:23997   */\n      pop\n      pop\n      pop\n      jump\t// out\n        /* \"#utility.yul\":24003:24376   */\n    tag_593:\n        /* \"#utility.yul\":24089:24092   */\n      0x00\n        /* \"#utility.yul\":24117:24155   */\n      tag_848\n        /* \"#utility.yul\":24149:24154   */\n      dup3\n        /* \"#utility.yul\":24117:24155   */\n      tag_590\n      jump\t// in\n    tag_848:\n        /* \"#utility.yul\":24171:24241   */\n      tag_849\n        /* \"#utility.yul\":24234:24240   */\n      dup2\n        /* \"#utility.yul\":24229:24232   */\n      dup6\n        /* \"#utility.yul\":24171:24241   */\n      tag_591\n      jump\t// in\n    tag_849:\n        /* \"#utility.yul\":24164:24241   */\n      swap4\n      pop\n        /* \"#utility.yul\":24250:24315   */\n      tag_850\n        /* \"#utility.yul\":24308:24314   */\n      dup2\n        /* \"#utility.yul\":24303:24306   */\n      dup6\n        /* \"#utility.yul\":24296:24300   */\n      0x20\n        /* \"#utility.yul\":24289:24294   */\n      dup7\n        /* \"#utility.yul\":24285:24301   */\n      add\n        /* \"#utility.yul\":24250:24315   */\n      tag_592\n      jump\t// in\n    tag_850:\n        /* \"#utility.yul\":24340:24369   */\n      tag_851\n        /* \"#utility.yul\":24362:24368   */\n      dup2\n        /* \"#utility.yul\":24340:24369   */\n      tag_559\n      jump\t// in\n    tag_851:\n        /* \"#utility.yul\":24335:24338   */\n      dup5\n        /* \"#utility.yul\":24331:24370   */\n      add\n        /* \"#utility.yul\":24324:24370   */\n      swap2\n      pop\n        /* \"#utility.yul\":24093:24376   */\n      pop\n        /* \"#utility.yul\":24003:24376   */\n      swap3\n      swap2\n      pop\n      pop\n      jump\t// out\n        /* \"#utility.yul\":24382:25022   */\n    tag_414:\n        /* \"#utility.yul\":24577:24581   */\n      0x00\n        /* \"#utility.yul\":24615:24618   */\n      0x80\n        /* \"#utility.yul\":24604:24613   */\n      dup3\n        /* \"#utility.yul\":24600:24619   */\n      add\n        /* \"#utility.yul\":24592:24619   */\n      swap1\n      pop\n        /* \"#utility.yul\":24629:24700   */\n      tag_853\n        /* \"#utility.yul\":24697:24698   */\n      0x00\n        /* \"#utility.yul\":24686:24695   */\n      dup4\n        /* \"#utility.yul\":24682:24699   */\n      add\n        /* \"#utility.yul\":24673:24679   */\n      dup8\n        /* \"#utility.yul\":24629:24700   */\n      tag_567\n      jump\t// in\n    tag_853:\n        /* \"#utility.yul\":24710:24782   */\n      tag_854\n        /* \"#utility.yul\":24778:24780   */\n      0x20\n        /* \"#utility.yul\":24767:24776   */\n      dup4\n        /* \"#utility.yul\":24763:24781   */\n      add\n        /* \"#utility.yul\":24754:24760   */\n      dup7\n        /* \"#utility.yul\":24710:24782   */\n      tag_567\n      jump\t// in\n    tag_854:\n        /* \"#utility.yul\":24792:24864   */\n      tag_855\n        /* \"#utility.yul\":24860:24862   */\n      0x40\n        /* \"#utility.yul\":24849:24858   */\n      dup4\n        /* \"#utility.yul\":24845:24863   */\n      add\n        /* \"#utility.yul\":24836:24842   */\n      dup6\n        /* \"#utility.yul\":24792:24864   */\n      tag_578\n      jump\t// in\n    tag_855:\n        /* \"#utility.yul\":24911:24920   */\n      dup2\n        /* \"#utility.yul\":24905:24909   */\n      dup2\n        /* \"#utility.yul\":24901:24921   */\n      sub\n        /* \"#utility.yul\":24896:24898   */\n      0x60\n        /* \"#utility.yul\":24885:24894   */\n      dup4\n        /* \"#utility.yul\":24881:24899   */\n      add\n        /* \"#utility.yul\":24874:24922   */\n      mstore\n        /* \"#utility.yul\":24939:25015   */\n      tag_856\n        /* \"#utility.yul\":25010:25014   */\n      dup2\n        /* \"#utility.yul\":25001:25007   */\n      dup5\n        /* \"#utility.yul\":24939:25015   */\n      tag_593\n      jump\t// in\n    tag_856:\n        /* \"#utility.yul\":24931:25015   */\n      swap1\n      pop\n        /* \"#utility.yul\":24382:25022   */\n      swap6\n      swap5\n      pop\n      pop\n      pop\n      pop\n      pop\n      jump\t// out\n        /* \"#utility.yul\":25028:25779   */\n    tag_420:\n        /* \"#utility.yul\":25251:25255   */\n      0x00\n        /* \"#utility.yul\":25289:25292   */\n      0xa0\n        /* \"#utility.yul\":25278:25287   */\n      dup3\n        /* \"#utility.yul\":25274:25293   */\n      add\n        /* \"#utility.yul\":25266:25293   */\n      swap1\n      pop\n        /* \"#utility.yul\":25303:25374   */\n      tag_858\n        /* \"#utility.yul\":25371:25372   */\n      0x00\n        /* \"#utility.yul\":25360:25369   */\n      dup4\n        /* \"#utility.yul\":25356:25373   */\n      add\n        /* \"#utility.yul\":25347:25353   */\n      dup9\n        /* \"#utility.yul\":25303:25374   */\n      tag_567\n      jump\t// in\n    tag_858:\n        /* \"#utility.yul\":25384:25456   */\n      tag_859\n        /* \"#utility.yul\":25452:25454   */\n      0x20\n        /* \"#utility.yul\":25441:25450   */\n      dup4\n        /* \"#utility.yul\":25437:25455   */\n      add\n        /* \"#utility.yul\":25428:25434   */\n      dup8\n        /* \"#utility.yul\":25384:25456   */\n      tag_567\n      jump\t// in\n    tag_859:\n        /* \"#utility.yul\":25466:25538   */\n      tag_860\n        /* \"#utility.yul\":25534:25536   */\n      0x40\n        /* \"#utility.yul\":25523:25532   */\n      dup4\n        /* \"#utility.yul\":25519:25537   */\n      add\n        /* \"#utility.yul\":25510:25516   */\n      dup7\n        /* \"#utility.yul\":25466:25538   */\n      tag_578\n      jump\t// in\n    tag_860:\n        /* \"#utility.yul\":25548:25620   */\n      tag_861\n        /* \"#utility.yul\":25616:25618   */\n      0x60\n        /* \"#utility.yul\":25605:25614   */\n      dup4\n        /* \"#utility.yul\":25601:25619   */\n      add\n        /* \"#utility.yul\":25592:25598   */\n      dup6\n        /* \"#utility.yul\":25548:25620   */\n      tag_578\n      jump\t// in\n    tag_861:\n        /* \"#utility.yul\":25668:25677   */\n      dup2\n        /* \"#utility.yul\":25662:25666   */\n      dup2\n        /* \"#utility.yul\":25658:25678   */\n      sub\n        /* \"#utility.yul\":25652:25655   */\n      0x80\n        /* \"#utility.yul\":25641:25650   */\n      dup4\n        /* \"#utility.yul\":25637:25656   */\n      add\n        /* \"#utility.yul\":25630:25679   */\n      mstore\n        /* \"#utility.yul\":25696:25772   */\n      tag_862\n        /* \"#utility.yul\":25767:25771   */\n      dup2\n        /* \"#utility.yul\":25758:25764   */\n      dup5\n        /* \"#utility.yul\":25696:25772   */\n      tag_593\n      jump\t// in\n    tag_862:\n        /* \"#utility.yul\":25688:25772   */\n      swap1\n      pop\n        /* \"#utility.yul\":25028:25779   */\n      swap7\n      swap6\n      pop\n      pop\n      pop\n      pop\n      pop\n      pop\n      jump\t// out\n        /* \"#utility.yul\":25785:26105   */\n    tag_425:\n        /* \"#utility.yul\":25900:25904   */\n      0x00\n        /* \"#utility.yul\":25938:25940   */\n      0x40\n        /* \"#utility.yul\":25927:25936   */\n      dup3\n        /* \"#utility.yul\":25923:25941   */\n      add\n        /* \"#utility.yul\":25915:25941   */\n      swap1\n      pop\n        /* \"#utility.yul\":25951:26022   */\n      tag_864\n        /* \"#utility.yul\":26019:26020   */\n      0x00\n        /* \"#utility.yul\":26008:26017   */\n      dup4\n        /* \"#utility.yul\":26004:26021   */\n      add\n        /* \"#utility.yul\":25995:26001   */\n      dup6\n        /* \"#utility.yul\":25951:26022   */\n      tag_578\n      jump\t// in\n    tag_864:\n        /* \"#utility.yul\":26032:26098   */\n      tag_865\n        /* \"#utility.yul\":26094:26096   */\n      0x20\n        /* \"#utility.yul\":26083:26092   */\n      dup4\n        /* \"#utility.yul\":26079:26097   */\n      add\n        /* \"#utility.yul\":26070:26076   */\n      dup5\n        /* \"#utility.yul\":26032:26098   */\n      tag_549\n      jump\t// in\n    tag_865:\n        /* \"#utility.yul\":25785:26105   */\n      swap4\n      swap3\n      pop\n      pop\n      pop\n      jump\t// out\n        /* \"#utility.yul\":26111:26640   */\n    tag_451:\n        /* \"#utility.yul\":26278:26282   */\n      0x00\n        /* \"#utility.yul\":26316:26318   */\n      0x60\n        /* \"#utility.yul\":26305:26314   */\n      dup3\n        /* \"#utility.yul\":26301:26319   */\n      add\n        /* \"#utility.yul\":26293:26319   */\n      swap1\n      pop\n        /* \"#utility.yul\":26329:26400   */\n      tag_867\n        /* \"#utility.yul\":26397:26398   */\n      0x00\n        /* \"#utility.yul\":26386:26395   */\n      dup4\n        /* \"#utility.yul\":26382:26399   */\n      add\n        /* \"#utility.yul\":26373:26379   */\n      dup7\n        /* \"#utility.yul\":26329:26400   */\n      tag_578\n      jump\t// in\n    tag_867:\n        /* \"#utility.yul\":26410:26482   */\n      tag_868\n        /* \"#utility.yul\":26478:26480   */\n      0x20\n        /* \"#utility.yul\":26467:26476   */\n      dup4\n        /* \"#utility.yul\":26463:26481   */\n      add\n        /* \"#utility.yul\":26454:26460   */\n      dup6\n        /* \"#utility.yul\":26410:26482   */\n      tag_578\n      jump\t// in\n    tag_868:\n        /* \"#utility.yul\":26529:26538   */\n      dup2\n        /* \"#utility.yul\":26523:26527   */\n      dup2\n        /* \"#utility.yul\":26519:26539   */\n      sub\n        /* \"#utility.yul\":26514:26516   */\n      0x40\n        /* \"#utility.yul\":26503:26512   */\n      dup4\n        /* \"#utility.yul\":26499:26517   */\n      add\n        /* \"#utility.yul\":26492:26540   */\n      mstore\n        /* \"#utility.yul\":26557:26633   */\n      tag_869\n        /* \"#utility.yul\":26628:26632   */\n      dup2\n        /* \"#utility.yul\":26619:26625   */\n      dup5\n        /* \"#utility.yul\":26557:26633   */\n      tag_593\n      jump\t// in\n    tag_869:\n        /* \"#utility.yul\":26549:26633   */\n      swap1\n      pop\n        /* \"#utility.yul\":26111:26640   */\n      swap5\n      swap4\n      pop\n      pop\n      pop\n      pop\n      jump\t// out\n        /* \"#utility.yul\":26646:27303   */\n    tag_473:\n        /* \"#utility.yul\":26731:26737   */\n      0x00\n        /* \"#utility.yul\":26739:26745   */\n      dup1\n        /* \"#utility.yul\":26747:26753   */\n      0x00\n        /* \"#utility.yul\":26796:26798   */\n      0x60\n        /* \"#utility.yul\":26784:26793   */\n      dup5\n        /* \"#utility.yul\":26775:26782   */\n      dup7\n        /* \"#utility.yul\":26771:26794   */\n      sub\n        /* \"#utility.yul\":26767:26799   */\n      slt\n        /* \"#utility.yul\":26764:26883   */\n      iszero\n      tag_871\n      jumpi\n        /* \"#utility.yul\":26802:26881   */\n      tag_872\n      tag_543\n      jump\t// in\n    tag_872:\n        /* \"#utility.yul\":26764:26883   */\n    tag_871:\n        /* \"#utility.yul\":26922:26923   */\n      0x00\n        /* \"#utility.yul\":26947:27011   */\n      tag_873\n        /* \"#utility.yul\":27003:27010   */\n      dup7\n        /* \"#utility.yul\":26994:27000   */\n      dup3\n        /* \"#utility.yul\":26983:26992   */\n      dup8\n        /* \"#utility.yul\":26979:27001   */\n      add\n        /* \"#utility.yul\":26947:27011   */\n      tag_581\n      jump\t// in\n    tag_873:\n        /* \"#utility.yul\":26937:27011   */\n      swap4\n      pop\n        /* \"#utility.yul\":26893:27021   */\n      pop\n        /* \"#utility.yul\":27060:27062   */\n      0x20\n        /* \"#utility.yul\":27086:27150   */\n      tag_874\n        /* \"#utility.yul\":27142:27149   */\n      dup7\n        /* \"#utility.yul\":27133:27139   */\n      dup3\n        /* \"#utility.yul\":27122:27131   */\n      dup8\n        /* \"#utility.yul\":27118:27140   */\n      add\n        /* \"#utility.yul\":27086:27150   */\n      tag_589\n      jump\t// in\n    tag_874:\n        /* \"#utility.yul\":27076:27150   */\n      swap3\n      pop\n        /* \"#utility.yul\":27031:27160   */\n      pop\n        /* \"#utility.yul\":27199:27201   */\n      0x40\n        /* \"#utility.yul\":27225:27286   */\n      tag_875\n        /* \"#utility.yul\":27278:27285   */\n      dup7\n        /* \"#utility.yul\":27269:27275   */\n      dup3\n        /* \"#utility.yul\":27258:27267   */\n      dup8\n        /* \"#utility.yul\":27254:27276   */\n      add\n        /* \"#utility.yul\":27225:27286   */\n      tag_583\n      jump\t// in\n    tag_875:\n        /* \"#utility.yul\":27215:27286   */\n      swap2\n      pop\n        /* \"#utility.yul\":27170:27296   */\n      pop\n        /* \"#utility.yul\":26646:27303   */\n      swap3\n      pop\n      swap3\n      pop\n      swap3\n      jump\t// out\n        /* \"#utility.yul\":27309:27673   */\n    tag_497:\n        /* \"#utility.yul\":27446:27450   */\n      0x00\n        /* \"#utility.yul\":27484:27486   */\n      0x40\n        /* \"#utility.yul\":27473:27482   */\n      dup3\n        /* \"#utility.yul\":27469:27487   */\n      add\n        /* \"#utility.yul\":27461:27487   */\n      swap1\n      pop\n        /* \"#utility.yul\":27497:27576   */\n      tag_877\n        /* \"#utility.yul\":27573:27574   */\n      0x00\n        /* \"#utility.yul\":27562:27571   */\n      dup4\n        /* \"#utility.yul\":27558:27575   */\n      add\n        /* \"#utility.yul\":27549:27555   */\n      dup6\n        /* \"#utility.yul\":27497:27576   */\n      tag_588\n      jump\t// in\n    tag_877:\n        /* \"#utility.yul\":27586:27666   */\n      tag_878\n        /* \"#utility.yul\":27662:27664   */\n      0x20\n        /* \"#utility.yul\":27651:27660   */\n      dup4\n        /* \"#utility.yul\":27647:27665   */\n      add\n        /* \"#utility.yul\":27638:27644   */\n      dup5\n        /* \"#utility.yul\":27586:27666   */\n      tag_588\n      jump\t// in\n    tag_878:\n        /* \"#utility.yul\":27309:27673   */\n      swap4\n      swap3\n      pop\n      pop\n      pop\n      jump\t// out\n        /* \"#utility.yul\":27679:27820   */\n    tag_594:\n        /* \"#utility.yul\":27735:27740   */\n      0x00\n        /* \"#utility.yul\":27766:27772   */\n      dup2\n        /* \"#utility.yul\":27760:27773   */\n      mload\n        /* \"#utility.yul\":27751:27773   */\n      swap1\n      pop\n        /* \"#utility.yul\":27782:27814   */\n      tag_880\n        /* \"#utility.yul\":27808:27813   */\n      dup2\n        /* \"#utility.yul\":27782:27814   */\n      tag_546\n      jump\t// in\n    tag_880:\n        /* \"#utility.yul\":27679:27820   */\n      swap3\n      swap2\n      pop\n      pop\n      jump\t// out\n        /* \"#utility.yul\":27826:28175   */\n    tag_507:\n        /* \"#utility.yul\":27895:27901   */\n      0x00\n        /* \"#utility.yul\":27944:27946   */\n      0x20\n        /* \"#utility.yul\":27932:27941   */\n      dup3\n        /* \"#utility.yul\":27923:27930   */\n      dup5\n        /* \"#utility.yul\":27919:27942   */\n      sub\n        /* \"#utility.yul\":27915:27947   */\n      slt\n        /* \"#utility.yul\":27912:28031   */\n      iszero\n      tag_882\n      jumpi\n        /* \"#utility.yul\":27950:28029   */\n      tag_883\n      tag_543\n      jump\t// in\n    tag_883:\n        /* \"#utility.yul\":27912:28031   */\n    tag_882:\n        /* \"#utility.yul\":28070:28071   */\n      0x00\n        /* \"#utility.yul\":28095:28158   */\n      tag_884\n        /* \"#utility.yul\":28150:28157   */\n      dup5\n        /* \"#utility.yul\":28141:28147   */\n      dup3\n        /* \"#utility.yul\":28130:28139   */\n      dup6\n        /* \"#utility.yul\":28126:28148   */\n      add\n        /* \"#utility.yul\":28095:28158   */\n      tag_594\n      jump\t// in\n    tag_884:\n        /* \"#utility.yul\":28085:28158   */\n      swap2\n      pop\n        /* \"#utility.yul\":28041:28168   */\n      pop\n        /* \"#utility.yul\":27826:28175   */\n      swap3\n      swap2\n      pop\n      pop\n      jump\t// out\n        /* \"#utility.yul\":28181:28361   */\n    tag_532:\n        /* \"#utility.yul\":28229:28306   */\n      0x4e487b7100000000000000000000000000000000000000000000000000000000\n        /* \"#utility.yul\":28226:28227   */\n      0x00\n        /* \"#utility.yul\":28219:28307   */\n      mstore\n        /* \"#utility.yul\":28326:28330   */\n      0x31\n        /* \"#utility.yul\":28323:28324   */\n      0x04\n        /* \"#utility.yul\":28316:28331   */\n      mstore\n        /* \"#utility.yul\":28350:28354   */\n      0x24\n        /* \"#utility.yul\":28347:28348   */\n      0x00\n        /* \"#utility.yul\":28340:28355   */\n      revert\n\n    auxdata: 0xa26469706673582212207f4d210640773c466a835b430e56fb71bdbe1af0b872d0e77f56c1dfbd854dfc64736f6c63430008150033\n}\n",
				"bytecode": {
					"linkReferences": {},
					"object": "608060405234801561001057600080fd5b506142c3806100206000396000f3fe608060405234801561001057600080fd5b50600436106101735760003560e01c80636f19951c116100de578063b3e1c71811610097578063e97ceaa811610071578063e97ceaa81461048c578063e985e9c5146104a8578063eb043606146104d8578063fb25fb7a146104f457610173565b8063b3e1c71814610438578063b88d4fde14610454578063defa80c31461047057610173565b80636f19951c1461034057806370a082311461037057806397961336146103a0578063a22cb465146103bc578063a898e364146103d8578063b390c0ab1461040857610173565b80634182e4a3116101305780634182e4a31461025c57806342842e0e1461028c57806342966c68146102a857806344ec9344146102c45780636352211e146102f4578063635490cc1461032457610173565b806301ffc9a714610178578063064c0a3a146101a8578063081812fc146101c4578063095ea7b3146101f457806323b872dd146102105780632f32f9371461022c575b600080fd5b610192600480360381019061018d9190613450565b610526565b60405161019f9190613498565b60405180910390f35b6101c260048036038101906101bd919061368d565b6106c8565b005b6101de60048036038101906101d99190613724565b6106e7565b6040516101eb9190613760565b60405180910390f35b61020e6004803603810190610209919061377b565b610772565b005b61022a600480360381019061022591906137bb565b61087b565b005b6102466004803603810190610241919061380e565b610896565b604051610253919061389b565b60405180910390f35b6102766004803603810190610271919061377b565b61098c565b6040516102839190613498565b60405180910390f35b6102a660048036038101906102a191906137bb565b6109ea565b005b6102c260048036038101906102bd9190613724565b610a0a565b005b6102de60048036038101906102d99190613724565b610a19565b6040516102eb9190613994565b60405180910390f35b61030e60048036038101906103099190613724565b610af1565b60405161031b9190613760565b60405180910390f35b61033e600480360381019061033991906139b6565b610b94565b005b61035a60048036038101906103559190613724565b610d79565b6040516103679190613994565b60405180910390f35b61038a60048036038101906103859190613a25565b610e51565b6040516103979190613a61565b60405180910390f35b6103ba60048036038101906103b5919061380e565b610efe565b005b6103d660048036038101906103d19190613aa8565b610f17565b005b6103f260048036038101906103ed919061380e565b61108e565b6040516103ff919061389b565b60405180910390f35b610422600480360381019061041d919061380e565b611184565b60405161042f9190613a61565b60405180910390f35b610452600480360381019061044d919061377b565b6111a3565b005b61046e60048036038101906104699190613ae8565b6111c1565b005b61048a60048036038101906104859190613b6b565b6111de565b005b6104a660048036038101906104a19190613c3d565b611203565b005b6104c260048036038101906104bd9190613ca4565b611220565b6040516104cf9190613498565b60405180910390f35b6104f260048036038101906104ed9190613ce4565b6112b4565b005b61050e60048036038101906105099190613724565b6113fa565b60405161051d93929190613d67565b60405180910390f35b60007f01ffc9a7000000000000000000000000000000000000000000000000000000007bffffffffffffffffffffffffffffffffffffffffffffffffffffffff1916827bffffffffffffffffffffffffffffffffffffffffffffffffffffffff191614806105f157507f80ac58cd000000000000000000000000000000000000000000000000000000007bffffffffffffffffffffffffffffffffffffffffffffffffffffffff1916827bffffffffffffffffffffffffffffffffffffffffffffffffffffffff1916145b8061065957507f5b5e139f000000000000000000000000000000000000000000000000000000007bffffffffffffffffffffffffffffffffffffffffffffffffffffffff1916827bffffffffffffffffffffffffffffffffffffffffffffffffffffffff1916145b806106c157507f42b0e56f000000000000000000000000000000000000000000000000000000007bffffffffffffffffffffffffffffffffffffffffffffffffffffffff1916827bffffffffffffffffffffffffffffffffffffffffffffffffffffffff1916145b9050919050565b826106d28161150b565b6106df8686868686611555565b505050505050565b60006106f2826118b8565b60016000838152602001908152602001600020600061071084610af1565b73ffffffffffffffffffffffffffffffffffffffff1673ffffffffffffffffffffffffffffffffffffffff16815260200190815260200160002060009054906101000a900473ffffffffffffffffffffffffffffffffffffffff169050919050565b600061077d82610af1565b90508073ffffffffffffffffffffffffffffffffffffffff168373ffffffffffffffffffffffffffffffffffffffff16036107e4576040517f0591db6d00000000000000000000000000000000000000000000000000000000815260040160405180910390fd5b8073ffffffffffffffffffffffffffffffffffffffff166108036118fa565b73ffffffffffffffffffffffffffffffffffffffff161415801561083557506108338161082e6118fa565b611220565b155b1561086c576040517f982462b200000000000000000000000000000000000000000000000000000000815260040160405180910390fd5b6108768383611902565b505050565b806108858161150b565b6108908484846119fe565b50505050565b61089e61334a565b816108a884610d79565b51116108e0576040517fca755cc000000000000000000000000000000000000000000000000000000000815260040160405180910390fd5b600060046000858152602001908152602001600020838154811061090757610906613d9e565b5b9060005260206000209060020201604051806040016040529081600082015481526020016001820160009054906101000a900473ffffffffffffffffffffffffffffffffffffffff1673ffffffffffffffffffffffffffffffffffffffff1673ffffffffffffffffffffffffffffffffffffffff168152505090508091505092915050565b600080600660008573ffffffffffffffffffffffffffffffffffffffff1673ffffffffffffffffffffffffffffffffffffffff1681526020019081526020016000206000848152602001908152602001600020541415905092915050565b610a05838383604051806020016040528060008152506111c1565b505050565b610a15816000611184565b5050565b6060600060056000848152602001908152602001600020805480602002602001604051908101604052809291908181526020016000905b82821015610ae25783829060005260206000209060020201604051806040016040529081600082015481526020016001820160009054906101000a900473ffffffffffffffffffffffffffffffffffffffff1673ffffffffffffffffffffffffffffffffffffffff1673ffffffffffffffffffffffffffffffffffffffff168152505081526020019060010190610a50565b50505050905080915050919050565b600080600080610b00856113fa565b9250925092508015610b89578273ffffffffffffffffffffffffffffffffffffffff16636352211e836040518263ffffffff1660e01b8152600401610b459190613a61565b602060405180830381865afa158015610b62573d6000803e3d6000fd5b505050506040513d601f19601f82011682018060405250810190610b869190613de2565b92505b829350505050919050565b610b9d836118b8565b6000610ba76118fa565b9050610bc88173ffffffffffffffffffffffffffffffffffffffff16611c8f565b610bfe576040517f80275d3a00000000000000000000000000000000000000000000000000000000815260040160405180910390fd5b600060405180604001604052808581526020018373ffffffffffffffffffffffffffffffffffffffff168152509050610c38858386611cb2565b6000610c4386610a19565b5190506080811015610ce457600560008781526020019081526020016000208290806001815401808255809150506001900390600052602060002090600202016000909190919091506000820151816000015560208201518160010160006101000a81548173ffffffffffffffffffffffffffffffffffffffff021916908373ffffffffffffffffffffffffffffffffffffffff1602179055505050610d16565b6040517f98674b3500000000000000000000000000000000000000000000000000000000815260040160405180910390fd5b848373ffffffffffffffffffffffffffffffffffffffff16877fe65085e689b77b126ba0bac3b079aa8288f19f4d5445af11c76003f8ab3075dd84604051610d5e9190613a61565b60405180910390a4610d71868487611cb7565b505050505050565b6060600060046000848152602001908152602001600020805480602002602001604051908101604052809291908181526020016000905b82821015610e425783829060005260206000209060020201604051806040016040529081600082015481526020016001820160009054906101000a900473ffffffffffffffffffffffffffffffffffffffff1673ffffffffffffffffffffffffffffffffffffffff1673ffffffffffffffffffffffffffffffffffffffff168152505081526020019060010190610db0565b50505050905080915050919050565b60008073ffffffffffffffffffffffffffffffffffffffff168273ffffffffffffffffffffffffffffffffffffffff1603610eb8576040517f7772286600000000000000000000000000000000000000000000000000000000815260040160405180910390fd5b6000808373ffffffffffffffffffffffffffffffffffffffff1673ffffffffffffffffffffffffffffffffffffffff168152602001908152602001600020549050919050565b81610f0881611cbc565b610f128383611d06565b505050565b8173ffffffffffffffffffffffffffffffffffffffff16610f366118fa565b73ffffffffffffffffffffffffffffffffffffffff1603610f83576040517f2dee66e400000000000000000000000000000000000000000000000000000000815260040160405180910390fd5b8060026000610f906118fa565b73ffffffffffffffffffffffffffffffffffffffff1673ffffffffffffffffffffffffffffffffffffffff16815260200190815260200160002060008473ffffffffffffffffffffffffffffffffffffffff1673ffffffffffffffffffffffffffffffffffffffff16815260200190815260200160002060006101000a81548160ff0219169083151502179055508173ffffffffffffffffffffffffffffffffffffffff1661103d6118fa565b73ffffffffffffffffffffffffffffffffffffffff167f17307eab39ab6107e8899845ad3d59bd9653f200f220920489ca2b5937696c31836040516110829190613498565b60405180910390a35050565b61109661334a565b816110a084610a19565b51116110d8576040517f9136d24f00000000000000000000000000000000000000000000000000000000815260040160405180910390fd5b60006005600085815260200190815260200160002083815481106110ff576110fe613d9e565b5b9060005260206000209060020201604051806040016040529081600082015481526020016001820160009054906101000a900473ffffffffffffffffffffffffffffffffffffffff1673ffffffffffffffffffffffffffffffffffffffff1673ffffffffffffffffffffffffffffffffffffffff168152505090508091505092915050565b6000826111908161150b565b61119a8484611db8565b91505092915050565b6111bd828260405180602001604052806000815250612267565b5050565b816111cb8161150b565b6111d7858585856122b9565b5050505050565b876111e881611cbc565b6111f8898989898989898961230c565b505050505050505050565b8361120d81611cbc565b61121985858585612581565b5050505050565b6000600260008473ffffffffffffffffffffffffffffffffffffffff1673ffffffffffffffffffffffffffffffffffffffff16815260200190815260200160002060008373ffffffffffffffffffffffffffffffffffffffff1673ffffffffffffffffffffffffffffffffffffffff16815260200190815260200160002060009054906101000a900460ff16905092915050565b6112d38473ffffffffffffffffffffffffffffffffffffffff16611c8f565b611309576040517f80275d3a00000000000000000000000000000000000000000000000000000000815260040160405180910390fd5b8373ffffffffffffffffffffffffffffffffffffffff166301ffc9a77f42b0e56f000000000000000000000000000000000000000000000000000000006040518263ffffffff1660e01b81526004016113629190613e1e565b602060405180830381865afa15801561137f573d6000803e3d6000fd5b505050506040513d601f19601f820116820180604052508101906113a39190613e4e565b6113d9576040517f850cccef00000000000000000000000000000000000000000000000000000000815260040160405180910390fd5b6113e48484846127d7565b6113f460008560008587866129bf565b50505050565b60008060008060036000868152602001908152602001600020604051806040016040529081600082015481526020016001820160009054906101000a900473ffffffffffffffffffffffffffffffffffffffff1673ffffffffffffffffffffffffffffffffffffffff1673ffffffffffffffffffffffffffffffffffffffff16815250509050600073ffffffffffffffffffffffffffffffffffffffff16816020015173ffffffffffffffffffffffffffffffffffffffff16036114ea576040517f89ba7e1000000000000000000000000000000000000000000000000000000000815260040160405180910390fd5b80602001518160000151600083600001511415935093509350509193909250565b61151c6115166118fa565b82612b17565b611552576040517f35d12e3f00000000000000000000000000000000000000000000000000000000815260040160405180910390fd5b50565b600080611561856113fa565b50915091508673ffffffffffffffffffffffffffffffffffffffff168273ffffffffffffffffffffffffffffffffffffffff16146115cb576040517fe146af6f00000000000000000000000000000000000000000000000000000000815260040160405180910390fd5b600073ffffffffffffffffffffffffffffffffffffffff168673ffffffffffffffffffffffffffffffffffffffff1603611631576040517fe3d91bfc00000000000000000000000000000000000000000000000000000000815260040160405180910390fd5b3073ffffffffffffffffffffffffffffffffffffffff168673ffffffffffffffffffffffffffffffffffffffff1614801561166b57508385145b156116a2576040517f5eeb0df000000000000000000000000000000000000000000000000000000000815260040160405180910390fd5b6116c18673ffffffffffffffffffffffffffffffffffffffff16611c8f565b6116f7576040517f80275d3a00000000000000000000000000000000000000000000000000000000815260040160405180910390fd5b8573ffffffffffffffffffffffffffffffffffffffff166301ffc9a77f42b0e56f000000000000000000000000000000000000000000000000000000006040518263ffffffff1660e01b81526004016117509190613e1e565b602060405180830381865afa15801561176d573d6000803e3d6000fd5b505050506040513d601f19601f820116820180604052508101906117919190613e4e565b6117c7576040517ff413cf9900000000000000000000000000000000000000000000000000000000815260040160405180910390fd5b6117d2858786612bf3565b6117dd878787612d4f565b6117ea8287838789612d54565b60016000808973ffffffffffffffffffffffffffffffffffffffff1673ffffffffffffffffffffffffffffffffffffffff16815260200190815260200160002060008282546118399190613eaa565b9250508190555061184b858588612d5b565b60016000808873ffffffffffffffffffffffffffffffffffffffff1673ffffffffffffffffffffffffffffffffffffffff168152602001908152602001600020600082825461189a9190613ede565b925050819055506118af8287838789886129bf565b50505050505050565b6118c181612e06565b6118f7576040517f89ba7e1000000000000000000000000000000000000000000000000000000000815260040160405180910390fd5b50565b600033905090565b600061190d82610af1565b9050826001600084815260200190815260200160002060008373ffffffffffffffffffffffffffffffffffffffff1673ffffffffffffffffffffffffffffffffffffffff16815260200190815260200160002060006101000a81548173ffffffffffffffffffffffffffffffffffffffff021916908373ffffffffffffffffffffffffffffffffffffffff160217905550818373ffffffffffffffffffffffffffffffffffffffff168273ffffffffffffffffffffffffffffffffffffffff167f8c5be1e5ebec7d5bd14f71427d1e84f3dd0314c0f7b2291e5b200ac8c7c3b92560405160405180910390a4505050565b600080611a0a836113fa565b50915091508473ffffffffffffffffffffffffffffffffffffffff168273ffffffffffffffffffffffffffffffffffffffff1614611a74576040517fe146af6f00000000000000000000000000000000000000000000000000000000815260040160405180910390fd5b600073ffffffffffffffffffffffffffffffffffffffff168473ffffffffffffffffffffffffffffffffffffffff1603611ada576040517fe3d91bfc00000000000000000000000000000000000000000000000000000000815260040160405180910390fd5b611ae5858585612d4f565b611af3828583600087612d54565b60016000808773ffffffffffffffffffffffffffffffffffffffff1673ffffffffffffffffffffffffffffffffffffffff1681526020019081526020016000206000828254611b429190613eaa565b92505081905550611b5583600086612d5b565b60016000808673ffffffffffffffffffffffffffffffffffffffff1673ffffffffffffffffffffffffffffffffffffffff1681526020019081526020016000206000828254611ba49190613ede565b92505081905550828473ffffffffffffffffffffffffffffffffffffffff168673ffffffffffffffffffffffffffffffffffffffff167fddf252ad1be2c89b69c2b068fc378daa952ba7f163c4a11628f55a4df523b3ef60405160405180910390a4828473ffffffffffffffffffffffffffffffffffffffff168373ffffffffffffffffffffffffffffffffffffffff167f04444026cefd1b05506559cab59d1b865ae3ba4ed2fe5c894f04e522776c552d846000604051611c67929190613f57565b60405180910390a4611c7a858585612e75565b611c88828583600087612e7a565b5050505050565b6000808273ffffffffffffffffffffffffffffffffffffffff163b119050919050565b505050565b505050565b611ccd611cc76118fa565b82612e81565b611d03576040517f2728a9d000000000000000000000000000000000000000000000000000000000815260040160405180910390fd5b50565b8060056000848152602001908152602001600020805490501115611d56576040517f8ac3cb1400000000000000000000000000000000000000000000000000000000815260040160405180910390fd5b611d5f82612f16565b600560008381526020019081526020016000206000611d7e919061337a565b817f8ac4a0d65950c3e40448afb2260e2e0ec36ea15644d9b39e37e85472e5f9445160405160405180910390a2611db482612f19565b5050565b6000806000611dc6856113fa565b50915091506000611dd686610af1565b905060016000808573ffffffffffffffffffffffffffffffffffffffff1673ffffffffffffffffffffffffffffffffffffffff1681526020019081526020016000206000828254611e279190613eaa565b92505081905550611e3a81600088612d4f565b611e498360008460008a612d54565b611e54600087611902565b611e5d86612f1c565b6000611e6887610d79565b9050600460008881526020019081526020016000206000611e89919061337a565b600560008881526020019081526020016000206000611ea8919061337a565b6001600088815260200190815260200160002060008373ffffffffffffffffffffffffffffffffffffffff1673ffffffffffffffffffffffffffffffffffffffff16815260200190815260200160002060006101000a81549073ffffffffffffffffffffffffffffffffffffffff021916905560008060008351905060005b8181101561213057898310611fb157848181518110611f4957611f48613d9e565b5b602002602001015160200151858281518110611f6857611f67613d9e565b5b6020026020010151600001516040517f4cb93ad9000000000000000000000000000000000000000000000000000000008152600401611fa8929190613f80565b60405180910390fd5b60066000868381518110611fc857611fc7613d9e565b5b60200260200101516020015173ffffffffffffffffffffffffffffffffffffffff1673ffffffffffffffffffffffffffffffffffffffff168152602001908152602001600020600086838151811061202357612022613d9e565b5b602002602001015160000151815260200190815260200160002060009055828a039350600185828151811061205b5761205a613d9e565b5b60200260200101516020015173ffffffffffffffffffffffffffffffffffffffff1663b390c0ab87848151811061209557612094613d9e565b5b6020026020010151600001516001886120ae9190613eaa565b6040518363ffffffff1660e01b81526004016120cb929190613fa9565b6020604051808303816000875af11580156120ea573d6000803e3d6000fd5b505050506040513d601f19601f8201168201806040525081019061210e9190613fe7565b6121189190613ede565b836121239190613ede565b9250806001019050611f27565b50600360008b81526020019081526020016000206000808201600090556001820160006101000a81549073ffffffffffffffffffffffffffffffffffffffff021916905550506121828560008c612e75565b6121918760008860008e612e7a565b89600073ffffffffffffffffffffffffffffffffffffffff168673ffffffffffffffffffffffffffffffffffffffff167fddf252ad1be2c89b69c2b068fc378daa952ba7f163c4a11628f55a4df523b3ef60405160405180910390a489600073ffffffffffffffffffffffffffffffffffffffff168873ffffffffffffffffffffffffffffffffffffffff167f04444026cefd1b05506559cab59d1b865ae3ba4ed2fe5c894f04e522776c552d89600060405161224f929190613f57565b60405180910390a48197505050505050505092915050565b6122718383612f1f565b61227e6000848484613010565b6122b4576040517fbcb5663700000000000000000000000000000000000000000000000000000000815260040160405180910390fd5b505050565b6122c48484846119fe565b6122d084848484613010565b612306576040517fbcb5663700000000000000000000000000000000000000000000000000000000815260040160405180910390fd5b50505050565b61231461334a565b821561232b57612324898761108e565b9050612338565b6123358987610896565b90505b61234381868661318e565b612350898787878761320d565b821561237757612372600560008b815260200190815260200160002087613214565b6123e8565b600660008673ffffffffffffffffffffffffffffffffffffffff1673ffffffffffffffffffffffffffffffffffffffff1681526020019081526020016000206000858152602001908152602001600020600090556123e7600460008b815260200190815260200160002087613214565b5b600073ffffffffffffffffffffffffffffffffffffffff168873ffffffffffffffffffffffffffffffffffffffff1614612517576000870361249a578473ffffffffffffffffffffffffffffffffffffffff1663b88d4fde308a87866040518563ffffffff1660e01b81526004016124639493929190614093565b600060405180830381600087803b15801561247d57600080fd5b505af1158015612491573d6000803e3d6000fd5b50505050612516565b806020015173ffffffffffffffffffffffffffffffffffffffff1663064c0a3a308a84600001518b876040518663ffffffff1660e01b81526004016124e39594939291906140df565b600060405180830381600087803b1580156124fd57600080fd5b505af1158015612511573d6000803e3d6000fd5b505050505b5b838573ffffffffffffffffffffffffffffffffffffffff168a7f2bedee38cdb22411c14554191243c0e117c0088ddae3459876acd46a0fd538158987604051612561929190614139565b60405180910390a46125768987878787613337565b505050505050505050565b8261258b85610a19565b51116125c3576040517f9136d24f00000000000000000000000000000000000000000000000000000000815260040160405180910390fd5b60006125cf858561108e565b90506125dc81848461318e565b6000600660008573ffffffffffffffffffffffffffffffffffffffff1673ffffffffffffffffffffffffffffffffffffffff16815260200190815260200160002060008481526020019081526020016000205414612666576040517fff33650c00000000000000000000000000000000000000000000000000000000815260040160405180910390fd5b6126728585858561333e565b61268e6005600087815260200190815260200160002085613214565b600460008681526020019081526020016000208190806001815401808255809150506001900390600052602060002090600202016000909190919091506000820151816000015560208201518160010160006101000a81548173ffffffffffffffffffffffffffffffffffffffff021916908373ffffffffffffffffffffffffffffffffffffffff16021790555050506001600660008573ffffffffffffffffffffffffffffffffffffffff1673ffffffffffffffffffffffffffffffffffffffff168152602001908152602001600020600084815260200190815260200160002081905550818373ffffffffffffffffffffffffffffffffffffffff16867f29486b9e2ae569b440933a9b1b421467306fa21f3dcad439c262910a634963a9876040516127bc9190613a61565b60405180910390a46127d085858585613344565b5050505050565b600073ffffffffffffffffffffffffffffffffffffffff168373ffffffffffffffffffffffffffffffffffffffff160361283d576040517f25bd6bd300000000000000000000000000000000000000000000000000000000815260040160405180910390fd5b61284682612e06565b1561287d576040517fc5a8d37100000000000000000000000000000000000000000000000000000000815260040160405180910390fd5b600082036128b7576040517f238924d500000000000000000000000000000000000000000000000000000000815260040160405180910390fd5b6128c360008484612d4f565b6128d260008460008486612d54565b60016000808573ffffffffffffffffffffffffffffffffffffffff1673ffffffffffffffffffffffffffffffffffffffff16815260200190815260200160002060008282546129219190613ede565b9250508190555060405180604001604052808281526020018473ffffffffffffffffffffffffffffffffffffffff16815250600360008481526020019081526020016000206000820151816000015560208201518160010160006101000a81548173ffffffffffffffffffffffffffffffffffffffff021916908373ffffffffffffffffffffffffffffffffffffffff160217905550905050505050565b60008590508073ffffffffffffffffffffffffffffffffffffffff1663635490cc8585856040518463ffffffff1660e01b8152600401612a0193929190614162565b600060405180830381600087803b158015612a1b57600080fd5b505af1158015612a2f573d6000803e3d6000fd5b50505050612a3e878785612e75565b612a4b8787878787612e7a565b828673ffffffffffffffffffffffffffffffffffffffff168873ffffffffffffffffffffffffffffffffffffffff167fddf252ad1be2c89b69c2b068fc378daa952ba7f163c4a11628f55a4df523b3ef60405160405180910390a4828673ffffffffffffffffffffffffffffffffffffffff168873ffffffffffffffffffffffffffffffffffffffff167f04444026cefd1b05506559cab59d1b865ae3ba4ed2fe5c894f04e522776c552d8888604051612b06929190613fa9565b60405180910390a450505050505050565b6000806000612b25846113fa565b509150915060008114612b6a578173ffffffffffffffffffffffffffffffffffffffff168573ffffffffffffffffffffffffffffffffffffffff161492505050612bed565b8173ffffffffffffffffffffffffffffffffffffffff168573ffffffffffffffffffffffffffffffffffffffff161480612baa5750612ba98286611220565b5b80612be857508473ffffffffffffffffffffffffffffffffffffffff16612bd0856106e7565b73ffffffffffffffffffffffffffffffffffffffff16145b925050505b92915050565b60005b6064811015612d175760008060008573ffffffffffffffffffffffffffffffffffffffff1663fb25fb7a866040518263ffffffff1660e01b8152600401612c3d9190613a61565b606060405180830381865afa158015612c5a573d6000803e3d6000fd5b505050506040513d601f19601f82011682018060405250810190612c7e91906141a0565b92509250925080612c925750505050612d4a565b3073ffffffffffffffffffffffffffffffffffffffff168373ffffffffffffffffffffffffffffffffffffffff16148015612ccc57508682145b15612d03576040517ff911968900000000000000000000000000000000000000000000000000000000815260040160405180910390fd5b829550819450836001019350505050612bf6565b506040517feb20c44200000000000000000000000000000000000000000000000000000000815260040160405180910390fd5b505050565b505050565b5050505050565b60405180604001604052808381526020018273ffffffffffffffffffffffffffffffffffffffff16815250600360008581526020019081526020016000206000820151816000015560208201518160010160006101000a81548173ffffffffffffffffffffffffffffffffffffffff021916908373ffffffffffffffffffffffffffffffffffffffff160217905550905050612df8600084611902565b612e0183612f1c565b505050565b60008073ffffffffffffffffffffffffffffffffffffffff166003600084815260200190815260200160002060010160009054906101000a900473ffffffffffffffffffffffffffffffffffffffff1673ffffffffffffffffffffffffffffffffffffffff1614159050919050565b505050565b5050505050565b600080612e8d83610af1565b90508073ffffffffffffffffffffffffffffffffffffffff168473ffffffffffffffffffffffffffffffffffffffff161480612ecf5750612ece8185611220565b5b80612f0d57508373ffffffffffffffffffffffffffffffffffffffff16612ef5846106e7565b73ffffffffffffffffffffffffffffffffffffffff16145b91505092915050565b50565b50565b50565b612f2b828260006127d7565b808273ffffffffffffffffffffffffffffffffffffffff16600073ffffffffffffffffffffffffffffffffffffffff167fddf252ad1be2c89b69c2b068fc378daa952ba7f163c4a11628f55a4df523b3ef60405160405180910390a4808273ffffffffffffffffffffffffffffffffffffffff16600073ffffffffffffffffffffffffffffffffffffffff167f04444026cefd1b05506559cab59d1b865ae3ba4ed2fe5c894f04e522776c552d600080604051612fe99291906141f3565b60405180910390a4612ffd60008383612e75565b61300c60008360008085612e7a565b5050565b60006130318473ffffffffffffffffffffffffffffffffffffffff16611c8f565b15613181578373ffffffffffffffffffffffffffffffffffffffff1663150b7a0261305a6118fa565b8786866040518563ffffffff1660e01b815260040161307c9493929190614093565b6020604051808303816000875af19250505080156130b857506040513d601f19601f820116820180604052508101906130b59190614231565b60015b613131573d80600081146130e8576040519150601f19603f3d011682016040523d82523d6000602084013e6130ed565b606091505b506000815103613129576040517fbcb5663700000000000000000000000000000000000000000000000000000000815260040160405180910390fd5b805181602001fd5b63150b7a0260e01b7bffffffffffffffffffffffffffffffffffffffffffffffffffffffff1916817bffffffffffffffffffffffffffffffffffffffffffffffffffffffff191614915050613186565b600190505b949350505050565b826020015173ffffffffffffffffffffffffffffffffffffffff168273ffffffffffffffffffffffffffffffffffffffff161415806131d1575082600001518114155b15613208576040517f37d6ce9000000000000000000000000000000000000000000000000000000000815260040160405180910390fd5b505050565b5050505050565b81600183805490506132269190613eaa565b8154811061323757613236613d9e565b5b906000526020600020906002020182828154811061325857613257613d9e565b5b9060005260206000209060020201600082015481600001556001820160009054906101000a900473ffffffffffffffffffffffffffffffffffffffff168160010160006101000a81548173ffffffffffffffffffffffffffffffffffffffff021916908373ffffffffffffffffffffffffffffffffffffffff160217905550905050818054806132eb576132ea61425e565b5b60019003818190600052602060002090600202016000808201600090556001820160006101000a81549073ffffffffffffffffffffffffffffffffffffffff0219169055505090555050565b5050505050565b50505050565b50505050565b604051806040016040528060008152602001600073ffffffffffffffffffffffffffffffffffffffff1681525090565b508054600082556002029060005260206000209081019061339b919061339e565b50565b5b808211156133e0576000808201600090556001820160006101000a81549073ffffffffffffffffffffffffffffffffffffffff02191690555060020161339f565b5090565b6000604051905090565b600080fd5b600080fd5b60007fffffffff0000000000000000000000000000000000000000000000000000000082169050919050565b61342d816133f8565b811461343857600080fd5b50565b60008135905061344a81613424565b92915050565b600060208284031215613466576134656133ee565b5b60006134748482850161343b565b91505092915050565b60008115159050919050565b6134928161347d565b82525050565b60006020820190506134ad6000830184613489565b92915050565b600073ffffffffffffffffffffffffffffffffffffffff82169050919050565b60006134de826134b3565b9050919050565b6134ee816134d3565b81146134f957600080fd5b50565b60008135905061350b816134e5565b92915050565b6000819050919050565b61352481613511565b811461352f57600080fd5b50565b6000813590506135418161351b565b92915050565b600080fd5b600080fd5b6000601f19601f8301169050919050565b7f4e487b7100000000000000000000000000000000000000000000000000000000600052604160045260246000fd5b61359a82613551565b810181811067ffffffffffffffff821117156135b9576135b8613562565b5b80604052505050565b60006135cc6133e4565b90506135d88282613591565b919050565b600067ffffffffffffffff8211156135f8576135f7613562565b5b61360182613551565b9050602081019050919050565b82818337600083830152505050565b600061363061362b846135dd565b6135c2565b90508281526020810184848401111561364c5761364b61354c565b5b61365784828561360e565b509392505050565b600082601f83011261367457613673613547565b5b813561368484826020860161361d565b91505092915050565b600080600080600060a086880312156136a9576136a86133ee565b5b60006136b7888289016134fc565b95505060206136c8888289016134fc565b94505060406136d988828901613532565b93505060606136ea88828901613532565b925050608086013567ffffffffffffffff81111561370b5761370a6133f3565b5b6137178882890161365f565b9150509295509295909350565b60006020828403121561373a576137396133ee565b5b600061374884828501613532565b91505092915050565b61375a816134d3565b82525050565b60006020820190506137756000830184613751565b92915050565b60008060408385031215613792576137916133ee565b5b60006137a0858286016134fc565b92505060206137b185828601613532565b9150509250929050565b6000806000606084860312156137d4576137d36133ee565b5b60006137e2868287016134fc565b93505060206137f3868287016134fc565b925050604061380486828701613532565b9150509250925092565b60008060408385031215613825576138246133ee565b5b600061383385828601613532565b925050602061384485828601613532565b9150509250929050565b61385781613511565b82525050565b613866816134d3565b82525050565b604082016000820151613882600085018261384e565b506020820151613895602085018261385d565b50505050565b60006040820190506138b0600083018461386c565b92915050565b600081519050919050565b600082825260208201905092915050565b6000819050602082019050919050565b6040820160008201516138f8600085018261384e565b50602082015161390b602085018261385d565b50505050565b600061391d83836138e2565b60408301905092915050565b6000602082019050919050565b6000613941826138b6565b61394b81856138c1565b9350613956836138d2565b8060005b8381101561398757815161396e8882613911565b975061397983613929565b92505060018101905061395a565b5085935050505092915050565b600060208201905081810360008301526139ae8184613936565b905092915050565b6000806000606084860312156139cf576139ce6133ee565b5b60006139dd86828701613532565b93505060206139ee86828701613532565b925050604084013567ffffffffffffffff811115613a0f57613a0e6133f3565b5b613a1b8682870161365f565b9150509250925092565b600060208284031215613a3b57613a3a6133ee565b5b6000613a49848285016134fc565b91505092915050565b613a5b81613511565b82525050565b6000602082019050613a766000830184613a52565b92915050565b613a858161347d565b8114613a9057600080fd5b50565b600081359050613aa281613a7c565b92915050565b60008060408385031215613abf57613abe6133ee565b5b6000613acd858286016134fc565b9250506020613ade85828601613a93565b9150509250929050565b60008060008060808587031215613b0257613b016133ee565b5b6000613b10878288016134fc565b9450506020613b21878288016134fc565b9350506040613b3287828801613532565b925050606085013567ffffffffffffffff811115613b5357613b526133f3565b5b613b5f8782880161365f565b91505092959194509250565b600080600080600080600080610100898b031215613b8c57613b8b6133ee565b5b6000613b9a8b828c01613532565b9850506020613bab8b828c016134fc565b9750506040613bbc8b828c01613532565b9650506060613bcd8b828c01613532565b9550506080613bde8b828c016134fc565b94505060a0613bef8b828c01613532565b93505060c0613c008b828c01613a93565b92505060e089013567ffffffffffffffff811115613c2157613c206133f3565b5b613c2d8b828c0161365f565b9150509295985092959890939650565b60008060008060808587031215613c5757613c566133ee565b5b6000613c6587828801613532565b9450506020613c7687828801613532565b9350506040613c87878288016134fc565b9250506060613c9887828801613532565b91505092959194509250565b60008060408385031215613cbb57613cba6133ee565b5b6000613cc9858286016134fc565b9250506020613cda858286016134fc565b9150509250929050565b60008060008060808587031215613cfe57613cfd6133ee565b5b6000613d0c878288016134fc565b9450506020613d1d87828801613532565b9350506040613d2e87828801613532565b925050606085013567ffffffffffffffff811115613d4f57613d4e6133f3565b5b613d5b8782880161365f565b91505092959194509250565b6000606082019050613d7c6000830186613751565b613d896020830185613a52565b613d966040830184613489565b949350505050565b7f4e487b7100000000000000000000000000000000000000000000000000000000600052603260045260246000fd5b600081519050613ddc816134e5565b92915050565b600060208284031215613df857613df76133ee565b5b6000613e0684828501613dcd565b91505092915050565b613e18816133f8565b82525050565b6000602082019050613e336000830184613e0f565b92915050565b600081519050613e4881613a7c565b92915050565b600060208284031215613e6457613e636133ee565b5b6000613e7284828501613e39565b91505092915050565b7f4e487b7100000000000000000000000000000000000000000000000000000000600052601160045260246000fd5b6000613eb582613511565b9150613ec083613511565b9250828203905081811115613ed857613ed7613e7b565b5b92915050565b6000613ee982613511565b9150613ef483613511565b9250828201905080821115613f0c57613f0b613e7b565b5b92915050565b6000819050919050565b6000819050919050565b6000613f41613f3c613f3784613f12565b613f1c565b613511565b9050919050565b613f5181613f26565b82525050565b6000604082019050613f6c6000830185613a52565b613f796020830184613f48565b9392505050565b6000604082019050613f956000830185613751565b613fa26020830184613a52565b9392505050565b6000604082019050613fbe6000830185613a52565b613fcb6020830184613a52565b9392505050565b600081519050613fe18161351b565b92915050565b600060208284031215613ffd57613ffc6133ee565b5b600061400b84828501613fd2565b91505092915050565b600081519050919050565b600082825260208201905092915050565b60005b8381101561404e578082015181840152602081019050614033565b60008484015250505050565b600061406582614014565b61406f818561401f565b935061407f818560208601614030565b61408881613551565b840191505092915050565b60006080820190506140a86000830187613751565b6140b56020830186613751565b6140c26040830185613a52565b81810360608301526140d4818461405a565b905095945050505050565b600060a0820190506140f46000830188613751565b6141016020830187613751565b61410e6040830186613a52565b61411b6060830185613a52565b818103608083015261412d818461405a565b90509695505050505050565b600060408201905061414e6000830185613a52565b61415b6020830184613489565b9392505050565b60006060820190506141776000830186613a52565b6141846020830185613a52565b8181036040830152614196818461405a565b9050949350505050565b6000806000606084860312156141b9576141b86133ee565b5b60006141c786828701613dcd565b93505060206141d886828701613fd2565b92505060406141e986828701613e39565b9150509250925092565b60006040820190506142086000830185613f48565b6142156020830184613f48565b9392505050565b60008151905061422b81613424565b92915050565b600060208284031215614247576142466133ee565b5b60006142558482850161421c565b91505092915050565b7f4e487b7100000000000000000000000000000000000000000000000000000000600052603160045260246000fdfea26469706673582212207f4d210640773c466a835b430e56fb71bdbe1af0b872d0e77f56c1dfbd854dfc64736f6c63430008150033",
					"opcodes": "PUSH1 0x80 PUSH1 0x40 MSTORE CALLVALUE DUP1 ISZERO PUSH2 0x10 JUMPI PUSH1 0x0 DUP1 REVERT JUMPDEST POP PUSH2 0x42C3 DUP1 PUSH2 0x20 PUSH1 0x0 CODECOPY PUSH1 0x0 RETURN INVALID PUSH1 0x80 PUSH1 0x40 MSTORE CALLVALUE DUP1 ISZERO PUSH2 0x10 JUMPI PUSH1 0x0 DUP1 REVERT JUMPDEST POP PUSH1 0x4 CALLDATASIZE LT PUSH2 0x173 JUMPI PUSH1 0x0 CALLDATALOAD PUSH1 0xE0 SHR DUP1 PUSH4 0x6F19951C GT PUSH2 0xDE JUMPI DUP1 PUSH4 0xB3E1C718 GT PUSH2 0x97 JUMPI DUP1 PUSH4 0xE97CEAA8 GT PUSH2 0x71 JUMPI DUP1 PUSH4 0xE97CEAA8 EQ PUSH2 0x48C JUMPI DUP1 PUSH4 0xE985E9C5 EQ PUSH2 0x4A8 JUMPI DUP1 PUSH4 0xEB043606 EQ PUSH2 0x4D8 JUMPI DUP1 PUSH4 0xFB25FB7A EQ PUSH2 0x4F4 JUMPI PUSH2 0x173 JUMP JUMPDEST DUP1 PUSH4 0xB3E1C718 EQ PUSH2 0x438 JUMPI DUP1 PUSH4 0xB88D4FDE EQ PUSH2 0x454 JUMPI DUP1 PUSH4 0xDEFA80C3 EQ PUSH2 0x470 JUMPI PUSH2 0x173 JUMP JUMPDEST DUP1 PUSH4 0x6F19951C EQ PUSH2 0x340 JUMPI DUP1 PUSH4 0x70A08231 EQ PUSH2 0x370 JUMPI DUP1 PUSH4 0x97961336 EQ PUSH2 0x3A0 JUMPI DUP1 PUSH4 0xA22CB465 EQ PUSH2 0x3BC JUMPI DUP1 PUSH4 0xA898E364 EQ PUSH2 0x3D8 JUMPI DUP1 PUSH4 0xB390C0AB EQ PUSH2 0x408 JUMPI PUSH2 0x173 JUMP JUMPDEST DUP1 PUSH4 0x4182E4A3 GT PUSH2 0x130 JUMPI DUP1 PUSH4 0x4182E4A3 EQ PUSH2 0x25C JUMPI DUP1 PUSH4 0x42842E0E EQ PUSH2 0x28C JUMPI DUP1 PUSH4 0x42966C68 EQ PUSH2 0x2A8 JUMPI DUP1 PUSH4 0x44EC9344 EQ PUSH2 0x2C4 JUMPI DUP1 PUSH4 0x6352211E EQ PUSH2 0x2F4 JUMPI DUP1 PUSH4 0x635490CC EQ PUSH2 0x324 JUMPI PUSH2 0x173 JUMP JUMPDEST DUP1 PUSH4 0x1FFC9A7 EQ PUSH2 0x178 JUMPI DUP1 PUSH4 0x64C0A3A EQ PUSH2 0x1A8 JUMPI DUP1 PUSH4 0x81812FC EQ PUSH2 0x1C4 JUMPI DUP1 PUSH4 0x95EA7B3 EQ PUSH2 0x1F4 JUMPI DUP1 PUSH4 0x23B872DD EQ PUSH2 0x210 JUMPI DUP1 PUSH4 0x2F32F937 EQ PUSH2 0x22C JUMPI JUMPDEST PUSH1 0x0 DUP1 REVERT JUMPDEST PUSH2 0x192 PUSH1 0x4 DUP1 CALLDATASIZE SUB DUP2 ADD SWAP1 PUSH2 0x18D SWAP2 SWAP1 PUSH2 0x3450 JUMP JUMPDEST PUSH2 0x526 JUMP JUMPDEST PUSH1 0x40 MLOAD PUSH2 0x19F SWAP2 SWAP1 PUSH2 0x3498 JUMP JUMPDEST PUSH1 0x40 MLOAD DUP1 SWAP2 SUB SWAP1 RETURN JUMPDEST PUSH2 0x1C2 PUSH1 0x4 DUP1 CALLDATASIZE SUB DUP2 ADD SWAP1 PUSH2 0x1BD SWAP2 SWAP1 PUSH2 0x368D JUMP JUMPDEST PUSH2 0x6C8 JUMP JUMPDEST STOP JUMPDEST PUSH2 0x1DE PUSH1 0x4 DUP1 CALLDATASIZE SUB DUP2 ADD SWAP1 PUSH2 0x1D9 SWAP2 SWAP1 PUSH2 0x3724 JUMP JUMPDEST PUSH2 0x6E7 JUMP JUMPDEST PUSH1 0x40 MLOAD PUSH2 0x1EB SWAP2 SWAP1 PUSH2 0x3760 JUMP JUMPDEST PUSH1 0x40 MLOAD DUP1 SWAP2 SUB SWAP1 RETURN JUMPDEST PUSH2 0x20E PUSH1 0x4 DUP1 CALLDATASIZE SUB DUP2 ADD SWAP1 PUSH2 0x209 SWAP2 SWAP1 PUSH2 0x377B JUMP JUMPDEST PUSH2 0x772 JUMP JUMPDEST STOP JUMPDEST PUSH2 0x22A PUSH1 0x4 DUP1 CALLDATASIZE SUB DUP2 ADD SWAP1 PUSH2 0x225 SWAP2 SWAP1 PUSH2 0x37BB JUMP JUMPDEST PUSH2 0x87B JUMP JUMPDEST STOP JUMPDEST PUSH2 0x246 PUSH1 0x4 DUP1 CALLDATASIZE SUB DUP2 ADD SWAP1 PUSH2 0x241 SWAP2 SWAP1 PUSH2 0x380E JUMP JUMPDEST PUSH2 0x896 JUMP JUMPDEST PUSH1 0x40 MLOAD PUSH2 0x253 SWAP2 SWAP1 PUSH2 0x389B JUMP JUMPDEST PUSH1 0x40 MLOAD DUP1 SWAP2 SUB SWAP1 RETURN JUMPDEST PUSH2 0x276 PUSH1 0x4 DUP1 CALLDATASIZE SUB DUP2 ADD SWAP1 PUSH2 0x271 SWAP2 SWAP1 PUSH2 0x377B JUMP JUMPDEST PUSH2 0x98C JUMP JUMPDEST PUSH1 0x40 MLOAD PUSH2 0x283 SWAP2 SWAP1 PUSH2 0x3498 JUMP JUMPDEST PUSH1 0x40 MLOAD DUP1 SWAP2 SUB SWAP1 RETURN JUMPDEST PUSH2 0x2A6 PUSH1 0x4 DUP1 CALLDATASIZE SUB DUP2 ADD SWAP1 PUSH2 0x2A1 SWAP2 SWAP1 PUSH2 0x37BB JUMP JUMPDEST PUSH2 0x9EA JUMP JUMPDEST STOP JUMPDEST PUSH2 0x2C2 PUSH1 0x4 DUP1 CALLDATASIZE SUB DUP2 ADD SWAP1 PUSH2 0x2BD SWAP2 SWAP1 PUSH2 0x3724 JUMP JUMPDEST PUSH2 0xA0A JUMP JUMPDEST STOP JUMPDEST PUSH2 0x2DE PUSH1 0x4 DUP1 CALLDATASIZE SUB DUP2 ADD SWAP1 PUSH2 0x2D9 SWAP2 SWAP1 PUSH2 0x3724 JUMP JUMPDEST PUSH2 0xA19 JUMP JUMPDEST PUSH1 0x40 MLOAD PUSH2 0x2EB SWAP2 SWAP1 PUSH2 0x3994 JUMP JUMPDEST PUSH1 0x40 MLOAD DUP1 SWAP2 SUB SWAP1 RETURN JUMPDEST PUSH2 0x30E PUSH1 0x4 DUP1 CALLDATASIZE SUB DUP2 ADD SWAP1 PUSH2 0x309 SWAP2 SWAP1 PUSH2 0x3724 JUMP JUMPDEST PUSH2 0xAF1 JUMP JUMPDEST PUSH1 0x40 MLOAD PUSH2 0x31B SWAP2 SWAP1 PUSH2 0x3760 JUMP JUMPDEST PUSH1 0x40 MLOAD DUP1 SWAP2 SUB SWAP1 RETURN JUMPDEST PUSH2 0x33E PUSH1 0x4 DUP1 CALLDATASIZE SUB DUP2 ADD SWAP1 PUSH2 0x339 SWAP2 SWAP1 PUSH2 0x39B6 JUMP JUMPDEST PUSH2 0xB94 JUMP JUMPDEST STOP JUMPDEST PUSH2 0x35A PUSH1 0x4 DUP1 CALLDATASIZE SUB DUP2 ADD SWAP1 PUSH2 0x355 SWAP2 SWAP1 PUSH2 0x3724 JUMP JUMPDEST PUSH2 0xD79 JUMP JUMPDEST PUSH1 0x40 MLOAD PUSH2 0x367 SWAP2 SWAP1 PUSH2 0x3994 JUMP JUMPDEST PUSH1 0x40 MLOAD DUP1 SWAP2 SUB SWAP1 RETURN JUMPDEST PUSH2 0x38A PUSH1 0x4 DUP1 CALLDATASIZE SUB DUP2 ADD SWAP1 PUSH2 0x385 SWAP2 SWAP1 PUSH2 0x3A25 JUMP JUMPDEST PUSH2 0xE51 JUMP JUMPDEST PUSH1 0x40 MLOAD PUSH2 0x397 SWAP2 SWAP1 PUSH2 0x3A61 JUMP JUMPDEST PUSH1 0x40 MLOAD DUP1 SWAP2 SUB SWAP1 RETURN JUMPDEST PUSH2 0x3BA PUSH1 0x4 DUP1 CALLDATASIZE SUB DUP2 ADD SWAP1 PUSH2 0x3B5 SWAP2 SWAP1 PUSH2 0x380E JUMP JUMPDEST PUSH2 0xEFE JUMP JUMPDEST STOP JUMPDEST PUSH2 0x3D6 PUSH1 0x4 DUP1 CALLDATASIZE SUB DUP2 ADD SWAP1 PUSH2 0x3D1 SWAP2 SWAP1 PUSH2 0x3AA8 JUMP JUMPDEST PUSH2 0xF17 JUMP JUMPDEST STOP JUMPDEST PUSH2 0x3F2 PUSH1 0x4 DUP1 CALLDATASIZE SUB DUP2 ADD SWAP1 PUSH2 0x3ED SWAP2 SWAP1 PUSH2 0x380E JUMP JUMPDEST PUSH2 0x108E JUMP JUMPDEST PUSH1 0x40 MLOAD PUSH2 0x3FF SWAP2 SWAP1 PUSH2 0x389B JUMP JUMPDEST PUSH1 0x40 MLOAD DUP1 SWAP2 SUB SWAP1 RETURN JUMPDEST PUSH2 0x422 PUSH1 0x4 DUP1 CALLDATASIZE SUB DUP2 ADD SWAP1 PUSH2 0x41D SWAP2 SWAP1 PUSH2 0x380E JUMP JUMPDEST PUSH2 0x1184 JUMP JUMPDEST PUSH1 0x40 MLOAD PUSH2 0x42F SWAP2 SWAP1 PUSH2 0x3A61 JUMP JUMPDEST PUSH1 0x40 MLOAD DUP1 SWAP2 SUB SWAP1 RETURN JUMPDEST PUSH2 0x452 PUSH1 0x4 DUP1 CALLDATASIZE SUB DUP2 ADD SWAP1 PUSH2 0x44D SWAP2 SWAP1 PUSH2 0x377B JUMP JUMPDEST PUSH2 0x11A3 JUMP JUMPDEST STOP JUMPDEST PUSH2 0x46E PUSH1 0x4 DUP1 CALLDATASIZE SUB DUP2 ADD SWAP1 PUSH2 0x469 SWAP2 SWAP1 PUSH2 0x3AE8 JUMP JUMPDEST PUSH2 0x11C1 JUMP JUMPDEST STOP JUMPDEST PUSH2 0x48A PUSH1 0x4 DUP1 CALLDATASIZE SUB DUP2 ADD SWAP1 PUSH2 0x485 SWAP2 SWAP1 PUSH2 0x3B6B JUMP JUMPDEST PUSH2 0x11DE JUMP JUMPDEST STOP JUMPDEST PUSH2 0x4A6 PUSH1 0x4 DUP1 CALLDATASIZE SUB DUP2 ADD SWAP1 PUSH2 0x4A1 SWAP2 SWAP1 PUSH2 0x3C3D JUMP JUMPDEST PUSH2 0x1203 JUMP JUMPDEST STOP JUMPDEST PUSH2 0x4C2 PUSH1 0x4 DUP1 CALLDATASIZE SUB DUP2 ADD SWAP1 PUSH2 0x4BD SWAP2 SWAP1 PUSH2 0x3CA4 JUMP JUMPDEST PUSH2 0x1220 JUMP JUMPDEST PUSH1 0x40 MLOAD PUSH2 0x4CF SWAP2 SWAP1 PUSH2 0x3498 JUMP JUMPDEST PUSH1 0x40 MLOAD DUP1 SWAP2 SUB SWAP1 RETURN JUMPDEST PUSH2 0x4F2 PUSH1 0x4 DUP1 CALLDATASIZE SUB DUP2 ADD SWAP1 PUSH2 0x4ED SWAP2 SWAP1 PUSH2 0x3CE4 JUMP JUMPDEST PUSH2 0x12B4 JUMP JUMPDEST STOP JUMPDEST PUSH2 0x50E PUSH1 0x4 DUP1 CALLDATASIZE SUB DUP2 ADD SWAP1 PUSH2 0x509 SWAP2 SWAP1 PUSH2 0x3724 JUMP JUMPDEST PUSH2 0x13FA JUMP JUMPDEST PUSH1 0x40 MLOAD PUSH2 0x51D SWAP4 SWAP3 SWAP2 SWAP1 PUSH2 0x3D67 JUMP JUMPDEST PUSH1 0x40 MLOAD DUP1 SWAP2 SUB SWAP1 RETURN JUMPDEST PUSH1 0x0 PUSH32 0x1FFC9A700000000000000000000000000000000000000000000000000000000 PUSH28 0xFFFFFFFFFFFFFFFFFFFFFFFFFFFFFFFFFFFFFFFFFFFFFFFFFFFFFFFF NOT AND DUP3 PUSH28 0xFFFFFFFFFFFFFFFFFFFFFFFFFFFFFFFFFFFFFFFFFFFFFFFFFFFFFFFF NOT AND EQ DUP1 PUSH2 0x5F1 JUMPI POP PUSH32 0x80AC58CD00000000000000000000000000000000000000000000000000000000 PUSH28 0xFFFFFFFFFFFFFFFFFFFFFFFFFFFFFFFFFFFFFFFFFFFFFFFFFFFFFFFF NOT AND DUP3 PUSH28 0xFFFFFFFFFFFFFFFFFFFFFFFFFFFFFFFFFFFFFFFFFFFFFFFFFFFFFFFF NOT AND EQ JUMPDEST DUP1 PUSH2 0x659 JUMPI POP PUSH32 0x5B5E139F00000000000000000000000000000000000000000000000000000000 PUSH28 0xFFFFFFFFFFFFFFFFFFFFFFFFFFFFFFFFFFFFFFFFFFFFFFFFFFFFFFFF NOT AND DUP3 PUSH28 0xFFFFFFFFFFFFFFFFFFFFFFFFFFFFFFFFFFFFFFFFFFFFFFFFFFFFFFFF NOT AND EQ JUMPDEST DUP1 PUSH2 0x6C1 JUMPI POP PUSH32 0x42B0E56F00000000000000000000000000000000000000000000000000000000 PUSH28 0xFFFFFFFFFFFFFFFFFFFFFFFFFFFFFFFFFFFFFFFFFFFFFFFFFFFFFFFF NOT AND DUP3 PUSH28 0xFFFFFFFFFFFFFFFFFFFFFFFFFFFFFFFFFFFFFFFFFFFFFFFFFFFFFFFF NOT AND EQ JUMPDEST SWAP1 POP SWAP2 SWAP1 POP JUMP JUMPDEST DUP3 PUSH2 0x6D2 DUP2 PUSH2 0x150B JUMP JUMPDEST PUSH2 0x6DF DUP7 DUP7 DUP7 DUP7 DUP7 PUSH2 0x1555 JUMP JUMPDEST POP POP POP POP POP POP JUMP JUMPDEST PUSH1 0x0 PUSH2 0x6F2 DUP3 PUSH2 0x18B8 JUMP JUMPDEST PUSH1 0x1 PUSH1 0x0 DUP4 DUP2 MSTORE PUSH1 0x20 ADD SWAP1 DUP2 MSTORE PUSH1 0x20 ADD PUSH1 0x0 KECCAK256 PUSH1 0x0 PUSH2 0x710 DUP5 PUSH2 0xAF1 JUMP JUMPDEST PUSH20 0xFFFFFFFFFFFFFFFFFFFFFFFFFFFFFFFFFFFFFFFF AND PUSH20 0xFFFFFFFFFFFFFFFFFFFFFFFFFFFFFFFFFFFFFFFF AND DUP2 MSTORE PUSH1 0x20 ADD SWAP1 DUP2 MSTORE PUSH1 0x20 ADD PUSH1 0x0 KECCAK256 PUSH1 0x0 SWAP1 SLOAD SWAP1 PUSH2 0x100 EXP SWAP1 DIV PUSH20 0xFFFFFFFFFFFFFFFFFFFFFFFFFFFFFFFFFFFFFFFF AND SWAP1 POP SWAP2 SWAP1 POP JUMP JUMPDEST PUSH1 0x0 PUSH2 0x77D DUP3 PUSH2 0xAF1 JUMP JUMPDEST SWAP1 POP DUP1 PUSH20 0xFFFFFFFFFFFFFFFFFFFFFFFFFFFFFFFFFFFFFFFF AND DUP4 PUSH20 0xFFFFFFFFFFFFFFFFFFFFFFFFFFFFFFFFFFFFFFFF AND SUB PUSH2 0x7E4 JUMPI PUSH1 0x40 MLOAD PUSH32 0x591DB6D00000000000000000000000000000000000000000000000000000000 DUP2 MSTORE PUSH1 0x4 ADD PUSH1 0x40 MLOAD DUP1 SWAP2 SUB SWAP1 REVERT JUMPDEST DUP1 PUSH20 0xFFFFFFFFFFFFFFFFFFFFFFFFFFFFFFFFFFFFFFFF AND PUSH2 0x803 PUSH2 0x18FA JUMP JUMPDEST PUSH20 0xFFFFFFFFFFFFFFFFFFFFFFFFFFFFFFFFFFFFFFFF AND EQ ISZERO DUP1 ISZERO PUSH2 0x835 JUMPI POP PUSH2 0x833 DUP2 PUSH2 0x82E PUSH2 0x18FA JUMP JUMPDEST PUSH2 0x1220 JUMP JUMPDEST ISZERO JUMPDEST ISZERO PUSH2 0x86C JUMPI PUSH1 0x40 MLOAD PUSH32 0x982462B200000000000000000000000000000000000000000000000000000000 DUP2 MSTORE PUSH1 0x4 ADD PUSH1 0x40 MLOAD DUP1 SWAP2 SUB SWAP1 REVERT JUMPDEST PUSH2 0x876 DUP4 DUP4 PUSH2 0x1902 JUMP JUMPDEST POP POP POP JUMP JUMPDEST DUP1 PUSH2 0x885 DUP2 PUSH2 0x150B JUMP JUMPDEST PUSH2 0x890 DUP5 DUP5 DUP5 PUSH2 0x19FE JUMP JUMPDEST POP POP POP POP JUMP JUMPDEST PUSH2 0x89E PUSH2 0x334A JUMP JUMPDEST DUP2 PUSH2 0x8A8 DUP5 PUSH2 0xD79 JUMP JUMPDEST MLOAD GT PUSH2 0x8E0 JUMPI PUSH1 0x40 MLOAD PUSH32 0xCA755CC000000000000000000000000000000000000000000000000000000000 DUP2 MSTORE PUSH1 0x4 ADD PUSH1 0x40 MLOAD DUP1 SWAP2 SUB SWAP1 REVERT JUMPDEST PUSH1 0x0 PUSH1 0x4 PUSH1 0x0 DUP6 DUP2 MSTORE PUSH1 0x20 ADD SWAP1 DUP2 MSTORE PUSH1 0x20 ADD PUSH1 0x0 KECCAK256 DUP4 DUP2 SLOAD DUP2 LT PUSH2 0x907 JUMPI PUSH2 0x906 PUSH2 0x3D9E JUMP JUMPDEST JUMPDEST SWAP1 PUSH1 0x0 MSTORE PUSH1 0x20 PUSH1 0x0 KECCAK256 SWAP1 PUSH1 0x2 MUL ADD PUSH1 0x40 MLOAD DUP1 PUSH1 0x40 ADD PUSH1 0x40 MSTORE SWAP1 DUP2 PUSH1 0x0 DUP3 ADD SLOAD DUP2 MSTORE PUSH1 0x20 ADD PUSH1 0x1 DUP3 ADD PUSH1 0x0 SWAP1 SLOAD SWAP1 PUSH2 0x100 EXP SWAP1 DIV PUSH20 0xFFFFFFFFFFFFFFFFFFFFFFFFFFFFFFFFFFFFFFFF AND PUSH20 0xFFFFFFFFFFFFFFFFFFFFFFFFFFFFFFFFFFFFFFFF AND PUSH20 0xFFFFFFFFFFFFFFFFFFFFFFFFFFFFFFFFFFFFFFFF AND DUP2 MSTORE POP POP SWAP1 POP DUP1 SWAP2 POP POP SWAP3 SWAP2 POP POP JUMP JUMPDEST PUSH1 0x0 DUP1 PUSH1 0x6 PUSH1 0x0 DUP6 PUSH20 0xFFFFFFFFFFFFFFFFFFFFFFFFFFFFFFFFFFFFFFFF AND PUSH20 0xFFFFFFFFFFFFFFFFFFFFFFFFFFFFFFFFFFFFFFFF AND DUP2 MSTORE PUSH1 0x20 ADD SWAP1 DUP2 MSTORE PUSH1 0x20 ADD PUSH1 0x0 KECCAK256 PUSH1 0x0 DUP5 DUP2 MSTORE PUSH1 0x20 ADD SWAP1 DUP2 MSTORE PUSH1 0x20 ADD PUSH1 0x0 KECCAK256 SLOAD EQ ISZERO SWAP1 POP SWAP3 SWAP2 POP POP JUMP JUMPDEST PUSH2 0xA05 DUP4 DUP4 DUP4 PUSH1 0x40 MLOAD DUP1 PUSH1 0x20 ADD PUSH1 0x40 MSTORE DUP1 PUSH1 0x0 DUP2 MSTORE POP PUSH2 0x11C1 JUMP JUMPDEST POP POP POP JUMP JUMPDEST PUSH2 0xA15 DUP2 PUSH1 0x0 PUSH2 0x1184 JUMP JUMPDEST POP POP JUMP JUMPDEST PUSH1 0x60 PUSH1 0x0 PUSH1 0x5 PUSH1 0x0 DUP5 DUP2 MSTORE PUSH1 0x20 ADD SWAP1 DUP2 MSTORE PUSH1 0x20 ADD PUSH1 0x0 KECCAK256 DUP1 SLOAD DUP1 PUSH1 0x20 MUL PUSH1 0x20 ADD PUSH1 0x40 MLOAD SWAP1 DUP2 ADD PUSH1 0x40 MSTORE DUP1 SWAP3 SWAP2 SWAP1 DUP2 DUP2 MSTORE PUSH1 0x20 ADD PUSH1 0x0 SWAP1 JUMPDEST DUP3 DUP3 LT ISZERO PUSH2 0xAE2 JUMPI DUP4 DUP3 SWAP1 PUSH1 0x0 MSTORE PUSH1 0x20 PUSH1 0x0 KECCAK256 SWAP1 PUSH1 0x2 MUL ADD PUSH1 0x40 MLOAD DUP1 PUSH1 0x40 ADD PUSH1 0x40 MSTORE SWAP1 DUP2 PUSH1 0x0 DUP3 ADD SLOAD DUP2 MSTORE PUSH1 0x20 ADD PUSH1 0x1 DUP3 ADD PUSH1 0x0 SWAP1 SLOAD SWAP1 PUSH2 0x100 EXP SWAP1 DIV PUSH20 0xFFFFFFFFFFFFFFFFFFFFFFFFFFFFFFFFFFFFFFFF AND PUSH20 0xFFFFFFFFFFFFFFFFFFFFFFFFFFFFFFFFFFFFFFFF AND PUSH20 0xFFFFFFFFFFFFFFFFFFFFFFFFFFFFFFFFFFFFFFFF AND DUP2 MSTORE POP POP DUP2 MSTORE PUSH1 0x20 ADD SWAP1 PUSH1 0x1 ADD SWAP1 PUSH2 0xA50 JUMP JUMPDEST POP POP POP POP SWAP1 POP DUP1 SWAP2 POP POP SWAP2 SWAP1 POP JUMP JUMPDEST PUSH1 0x0 DUP1 PUSH1 0x0 DUP1 PUSH2 0xB00 DUP6 PUSH2 0x13FA JUMP JUMPDEST SWAP3 POP SWAP3 POP SWAP3 POP DUP1 ISZERO PUSH2 0xB89 JUMPI DUP3 PUSH20 0xFFFFFFFFFFFFFFFFFFFFFFFFFFFFFFFFFFFFFFFF AND PUSH4 0x6352211E DUP4 PUSH1 0x40 MLOAD DUP3 PUSH4 0xFFFFFFFF AND PUSH1 0xE0 SHL DUP2 MSTORE PUSH1 0x4 ADD PUSH2 0xB45 SWAP2 SWAP1 PUSH2 0x3A61 JUMP JUMPDEST PUSH1 0x20 PUSH1 0x40 MLOAD DUP1 DUP4 SUB DUP2 DUP7 GAS STATICCALL ISZERO DUP1 ISZERO PUSH2 0xB62 JUMPI RETURNDATASIZE PUSH1 0x0 DUP1 RETURNDATACOPY RETURNDATASIZE PUSH1 0x0 REVERT JUMPDEST POP POP POP POP PUSH1 0x40 MLOAD RETURNDATASIZE PUSH1 0x1F NOT PUSH1 0x1F DUP3 ADD AND DUP3 ADD DUP1 PUSH1 0x40 MSTORE POP DUP2 ADD SWAP1 PUSH2 0xB86 SWAP2 SWAP1 PUSH2 0x3DE2 JUMP JUMPDEST SWAP3 POP JUMPDEST DUP3 SWAP4 POP POP POP POP SWAP2 SWAP1 POP JUMP JUMPDEST PUSH2 0xB9D DUP4 PUSH2 0x18B8 JUMP JUMPDEST PUSH1 0x0 PUSH2 0xBA7 PUSH2 0x18FA JUMP JUMPDEST SWAP1 POP PUSH2 0xBC8 DUP2 PUSH20 0xFFFFFFFFFFFFFFFFFFFFFFFFFFFFFFFFFFFFFFFF AND PUSH2 0x1C8F JUMP JUMPDEST PUSH2 0xBFE JUMPI PUSH1 0x40 MLOAD PUSH32 0x80275D3A00000000000000000000000000000000000000000000000000000000 DUP2 MSTORE PUSH1 0x4 ADD PUSH1 0x40 MLOAD DUP1 SWAP2 SUB SWAP1 REVERT JUMPDEST PUSH1 0x0 PUSH1 0x40 MLOAD DUP1 PUSH1 0x40 ADD PUSH1 0x40 MSTORE DUP1 DUP6 DUP2 MSTORE PUSH1 0x20 ADD DUP4 PUSH20 0xFFFFFFFFFFFFFFFFFFFFFFFFFFFFFFFFFFFFFFFF AND DUP2 MSTORE POP SWAP1 POP PUSH2 0xC38 DUP6 DUP4 DUP7 PUSH2 0x1CB2 JUMP JUMPDEST PUSH1 0x0 PUSH2 0xC43 DUP7 PUSH2 0xA19 JUMP JUMPDEST MLOAD SWAP1 POP PUSH1 0x80 DUP2 LT ISZERO PUSH2 0xCE4 JUMPI PUSH1 0x5 PUSH1 0x0 DUP8 DUP2 MSTORE PUSH1 0x20 ADD SWAP1 DUP2 MSTORE PUSH1 0x20 ADD PUSH1 0x0 KECCAK256 DUP3 SWAP1 DUP1 PUSH1 0x1 DUP2 SLOAD ADD DUP1 DUP3 SSTORE DUP1 SWAP2 POP POP PUSH1 0x1 SWAP1 SUB SWAP1 PUSH1 0x0 MSTORE PUSH1 0x20 PUSH1 0x0 KECCAK256 SWAP1 PUSH1 0x2 MUL ADD PUSH1 0x0 SWAP1 SWAP2 SWAP1 SWAP2 SWAP1 SWAP2 POP PUSH1 0x0 DUP3 ADD MLOAD DUP2 PUSH1 0x0 ADD SSTORE PUSH1 0x20 DUP3 ADD MLOAD DUP2 PUSH1 0x1 ADD PUSH1 0x0 PUSH2 0x100 EXP DUP2 SLOAD DUP2 PUSH20 0xFFFFFFFFFFFFFFFFFFFFFFFFFFFFFFFFFFFFFFFF MUL NOT AND SWAP1 DUP4 PUSH20 0xFFFFFFFFFFFFFFFFFFFFFFFFFFFFFFFFFFFFFFFF AND MUL OR SWAP1 SSTORE POP POP POP PUSH2 0xD16 JUMP JUMPDEST PUSH1 0x40 MLOAD PUSH32 0x98674B3500000000000000000000000000000000000000000000000000000000 DUP2 MSTORE PUSH1 0x4 ADD PUSH1 0x40 MLOAD DUP1 SWAP2 SUB SWAP1 REVERT JUMPDEST DUP5 DUP4 PUSH20 0xFFFFFFFFFFFFFFFFFFFFFFFFFFFFFFFFFFFFFFFF AND DUP8 PUSH32 0xE65085E689B77B126BA0BAC3B079AA8288F19F4D5445AF11C76003F8AB3075DD DUP5 PUSH1 0x40 MLOAD PUSH2 0xD5E SWAP2 SWAP1 PUSH2 0x3A61 JUMP JUMPDEST PUSH1 0x40 MLOAD DUP1 SWAP2 SUB SWAP1 LOG4 PUSH2 0xD71 DUP7 DUP5 DUP8 PUSH2 0x1CB7 JUMP JUMPDEST POP POP POP POP POP POP JUMP JUMPDEST PUSH1 0x60 PUSH1 0x0 PUSH1 0x4 PUSH1 0x0 DUP5 DUP2 MSTORE PUSH1 0x20 ADD SWAP1 DUP2 MSTORE PUSH1 0x20 ADD PUSH1 0x0 KECCAK256 DUP1 SLOAD DUP1 PUSH1 0x20 MUL PUSH1 0x20 ADD PUSH1 0x40 MLOAD SWAP1 DUP2 ADD PUSH1 0x40 MSTORE DUP1 SWAP3 SWAP2 SWAP1 DUP2 DUP2 MSTORE PUSH1 0x20 ADD PUSH1 0x0 SWAP1 JUMPDEST DUP3 DUP3 LT ISZERO PUSH2 0xE42 JUMPI DUP4 DUP3 SWAP1 PUSH1 0x0 MSTORE PUSH1 0x20 PUSH1 0x0 KECCAK256 SWAP1 PUSH1 0x2 MUL ADD PUSH1 0x40 MLOAD DUP1 PUSH1 0x40 ADD PUSH1 0x40 MSTORE SWAP1 DUP2 PUSH1 0x0 DUP3 ADD SLOAD DUP2 MSTORE PUSH1 0x20 ADD PUSH1 0x1 DUP3 ADD PUSH1 0x0 SWAP1 SLOAD SWAP1 PUSH2 0x100 EXP SWAP1 DIV PUSH20 0xFFFFFFFFFFFFFFFFFFFFFFFFFFFFFFFFFFFFFFFF AND PUSH20 0xFFFFFFFFFFFFFFFFFFFFFFFFFFFFFFFFFFFFFFFF AND PUSH20 0xFFFFFFFFFFFFFFFFFFFFFFFFFFFFFFFFFFFFFFFF AND DUP2 MSTORE POP POP DUP2 MSTORE PUSH1 0x20 ADD SWAP1 PUSH1 0x1 ADD SWAP1 PUSH2 0xDB0 JUMP JUMPDEST POP POP POP POP SWAP1 POP DUP1 SWAP2 POP POP SWAP2 SWAP1 POP JUMP JUMPDEST PUSH1 0x0 DUP1 PUSH20 0xFFFFFFFFFFFFFFFFFFFFFFFFFFFFFFFFFFFFFFFF AND DUP3 PUSH20 0xFFFFFFFFFFFFFFFFFFFFFFFFFFFFFFFFFFFFFFFF AND SUB PUSH2 0xEB8 JUMPI PUSH1 0x40 MLOAD PUSH32 0x7772286600000000000000000000000000000000000000000000000000000000 DUP2 MSTORE PUSH1 0x4 ADD PUSH1 0x40 MLOAD DUP1 SWAP2 SUB SWAP1 REVERT JUMPDEST PUSH1 0x0 DUP1 DUP4 PUSH20 0xFFFFFFFFFFFFFFFFFFFFFFFFFFFFFFFFFFFFFFFF AND PUSH20 0xFFFFFFFFFFFFFFFFFFFFFFFFFFFFFFFFFFFFFFFF AND DUP2 MSTORE PUSH1 0x20 ADD SWAP1 DUP2 MSTORE PUSH1 0x20 ADD PUSH1 0x0 KECCAK256 SLOAD SWAP1 POP SWAP2 SWAP1 POP JUMP JUMPDEST DUP2 PUSH2 0xF08 DUP2 PUSH2 0x1CBC JUMP JUMPDEST PUSH2 0xF12 DUP4 DUP4 PUSH2 0x1D06 JUMP JUMPDEST POP POP POP JUMP JUMPDEST DUP2 PUSH20 0xFFFFFFFFFFFFFFFFFFFFFFFFFFFFFFFFFFFFFFFF AND PUSH2 0xF36 PUSH2 0x18FA JUMP JUMPDEST PUSH20 0xFFFFFFFFFFFFFFFFFFFFFFFFFFFFFFFFFFFFFFFF AND SUB PUSH2 0xF83 JUMPI PUSH1 0x40 MLOAD PUSH32 0x2DEE66E400000000000000000000000000000000000000000000000000000000 DUP2 MSTORE PUSH1 0x4 ADD PUSH1 0x40 MLOAD DUP1 SWAP2 SUB SWAP1 REVERT JUMPDEST DUP1 PUSH1 0x2 PUSH1 0x0 PUSH2 0xF90 PUSH2 0x18FA JUMP JUMPDEST PUSH20 0xFFFFFFFFFFFFFFFFFFFFFFFFFFFFFFFFFFFFFFFF AND PUSH20 0xFFFFFFFFFFFFFFFFFFFFFFFFFFFFFFFFFFFFFFFF AND DUP2 MSTORE PUSH1 0x20 ADD SWAP1 DUP2 MSTORE PUSH1 0x20 ADD PUSH1 0x0 KECCAK256 PUSH1 0x0 DUP5 PUSH20 0xFFFFFFFFFFFFFFFFFFFFFFFFFFFFFFFFFFFFFFFF AND PUSH20 0xFFFFFFFFFFFFFFFFFFFFFFFFFFFFFFFFFFFFFFFF AND DUP2 MSTORE PUSH1 0x20 ADD SWAP1 DUP2 MSTORE PUSH1 0x20 ADD PUSH1 0x0 KECCAK256 PUSH1 0x0 PUSH2 0x100 EXP DUP2 SLOAD DUP2 PUSH1 0xFF MUL NOT AND SWAP1 DUP4 ISZERO ISZERO MUL OR SWAP1 SSTORE POP DUP2 PUSH20 0xFFFFFFFFFFFFFFFFFFFFFFFFFFFFFFFFFFFFFFFF AND PUSH2 0x103D PUSH2 0x18FA JUMP JUMPDEST PUSH20 0xFFFFFFFFFFFFFFFFFFFFFFFFFFFFFFFFFFFFFFFF AND PUSH32 0x17307EAB39AB6107E8899845AD3D59BD9653F200F220920489CA2B5937696C31 DUP4 PUSH1 0x40 MLOAD PUSH2 0x1082 SWAP2 SWAP1 PUSH2 0x3498 JUMP JUMPDEST PUSH1 0x40 MLOAD DUP1 SWAP2 SUB SWAP1 LOG3 POP POP JUMP JUMPDEST PUSH2 0x1096 PUSH2 0x334A JUMP JUMPDEST DUP2 PUSH2 0x10A0 DUP5 PUSH2 0xA19 JUMP JUMPDEST MLOAD GT PUSH2 0x10D8 JUMPI PUSH1 0x40 MLOAD PUSH32 0x9136D24F00000000000000000000000000000000000000000000000000000000 DUP2 MSTORE PUSH1 0x4 ADD PUSH1 0x40 MLOAD DUP1 SWAP2 SUB SWAP1 REVERT JUMPDEST PUSH1 0x0 PUSH1 0x5 PUSH1 0x0 DUP6 DUP2 MSTORE PUSH1 0x20 ADD SWAP1 DUP2 MSTORE PUSH1 0x20 ADD PUSH1 0x0 KECCAK256 DUP4 DUP2 SLOAD DUP2 LT PUSH2 0x10FF JUMPI PUSH2 0x10FE PUSH2 0x3D9E JUMP JUMPDEST JUMPDEST SWAP1 PUSH1 0x0 MSTORE PUSH1 0x20 PUSH1 0x0 KECCAK256 SWAP1 PUSH1 0x2 MUL ADD PUSH1 0x40 MLOAD DUP1 PUSH1 0x40 ADD PUSH1 0x40 MSTORE SWAP1 DUP2 PUSH1 0x0 DUP3 ADD SLOAD DUP2 MSTORE PUSH1 0x20 ADD PUSH1 0x1 DUP3 ADD PUSH1 0x0 SWAP1 SLOAD SWAP1 PUSH2 0x100 EXP SWAP1 DIV PUSH20 0xFFFFFFFFFFFFFFFFFFFFFFFFFFFFFFFFFFFFFFFF AND PUSH20 0xFFFFFFFFFFFFFFFFFFFFFFFFFFFFFFFFFFFFFFFF AND PUSH20 0xFFFFFFFFFFFFFFFFFFFFFFFFFFFFFFFFFFFFFFFF AND DUP2 MSTORE POP POP SWAP1 POP DUP1 SWAP2 POP POP SWAP3 SWAP2 POP POP JUMP JUMPDEST PUSH1 0x0 DUP3 PUSH2 0x1190 DUP2 PUSH2 0x150B JUMP JUMPDEST PUSH2 0x119A DUP5 DUP5 PUSH2 0x1DB8 JUMP JUMPDEST SWAP2 POP POP SWAP3 SWAP2 POP POP JUMP JUMPDEST PUSH2 0x11BD DUP3 DUP3 PUSH1 0x40 MLOAD DUP1 PUSH1 0x20 ADD PUSH1 0x40 MSTORE DUP1 PUSH1 0x0 DUP2 MSTORE POP PUSH2 0x2267 JUMP JUMPDEST POP POP JUMP JUMPDEST DUP2 PUSH2 0x11CB DUP2 PUSH2 0x150B JUMP JUMPDEST PUSH2 0x11D7 DUP6 DUP6 DUP6 DUP6 PUSH2 0x22B9 JUMP JUMPDEST POP POP POP POP POP JUMP JUMPDEST DUP8 PUSH2 0x11E8 DUP2 PUSH2 0x1CBC JUMP JUMPDEST PUSH2 0x11F8 DUP10 DUP10 DUP10 DUP10 DUP10 DUP10 DUP10 DUP10 PUSH2 0x230C JUMP JUMPDEST POP POP POP POP POP POP POP POP POP JUMP JUMPDEST DUP4 PUSH2 0x120D DUP2 PUSH2 0x1CBC JUMP JUMPDEST PUSH2 0x1219 DUP6 DUP6 DUP6 DUP6 PUSH2 0x2581 JUMP JUMPDEST POP POP POP POP POP JUMP JUMPDEST PUSH1 0x0 PUSH1 0x2 PUSH1 0x0 DUP5 PUSH20 0xFFFFFFFFFFFFFFFFFFFFFFFFFFFFFFFFFFFFFFFF AND PUSH20 0xFFFFFFFFFFFFFFFFFFFFFFFFFFFFFFFFFFFFFFFF AND DUP2 MSTORE PUSH1 0x20 ADD SWAP1 DUP2 MSTORE PUSH1 0x20 ADD PUSH1 0x0 KECCAK256 PUSH1 0x0 DUP4 PUSH20 0xFFFFFFFFFFFFFFFFFFFFFFFFFFFFFFFFFFFFFFFF AND PUSH20 0xFFFFFFFFFFFFFFFFFFFFFFFFFFFFFFFFFFFFFFFF AND DUP2 MSTORE PUSH1 0x20 ADD SWAP1 DUP2 MSTORE PUSH1 0x20 ADD PUSH1 0x0 KECCAK256 PUSH1 0x0 SWAP1 SLOAD SWAP1 PUSH2 0x100 EXP SWAP1 DIV PUSH1 0xFF AND SWAP1 POP SWAP3 SWAP2 POP POP JUMP JUMPDEST PUSH2 0x12D3 DUP5 PUSH20 0xFFFFFFFFFFFFFFFFFFFFFFFFFFFFFFFFFFFFFFFF AND PUSH2 0x1C8F JUMP JUMPDEST PUSH2 0x1309 JUMPI PUSH1 0x40 MLOAD PUSH32 0x80275D3A00000000000000000000000000000000000000000000000000000000 DUP2 MSTORE PUSH1 0x4 ADD PUSH1 0x40 MLOAD DUP1 SWAP2 SUB SWAP1 REVERT JUMPDEST DUP4 PUSH20 0xFFFFFFFFFFFFFFFFFFFFFFFFFFFFFFFFFFFFFFFF AND PUSH4 0x1FFC9A7 PUSH32 0x42B0E56F00000000000000000000000000000000000000000000000000000000 PUSH1 0x40 MLOAD DUP3 PUSH4 0xFFFFFFFF AND PUSH1 0xE0 SHL DUP2 MSTORE PUSH1 0x4 ADD PUSH2 0x1362 SWAP2 SWAP1 PUSH2 0x3E1E JUMP JUMPDEST PUSH1 0x20 PUSH1 0x40 MLOAD DUP1 DUP4 SUB DUP2 DUP7 GAS STATICCALL ISZERO DUP1 ISZERO PUSH2 0x137F JUMPI RETURNDATASIZE PUSH1 0x0 DUP1 RETURNDATACOPY RETURNDATASIZE PUSH1 0x0 REVERT JUMPDEST POP POP POP POP PUSH1 0x40 MLOAD RETURNDATASIZE PUSH1 0x1F NOT PUSH1 0x1F DUP3 ADD AND DUP3 ADD DUP1 PUSH1 0x40 MSTORE POP DUP2 ADD SWAP1 PUSH2 0x13A3 SWAP2 SWAP1 PUSH2 0x3E4E JUMP JUMPDEST PUSH2 0x13D9 JUMPI PUSH1 0x40 MLOAD PUSH32 0x850CCCEF00000000000000000000000000000000000000000000000000000000 DUP2 MSTORE PUSH1 0x4 ADD PUSH1 0x40 MLOAD DUP1 SWAP2 SUB SWAP1 REVERT JUMPDEST PUSH2 0x13E4 DUP5 DUP5 DUP5 PUSH2 0x27D7 JUMP JUMPDEST PUSH2 0x13F4 PUSH1 0x0 DUP6 PUSH1 0x0 DUP6 DUP8 DUP7 PUSH2 0x29BF JUMP JUMPDEST POP POP POP POP JUMP JUMPDEST PUSH1 0x0 DUP1 PUSH1 0x0 DUP1 PUSH1 0x3 PUSH1 0x0 DUP7 DUP2 MSTORE PUSH1 0x20 ADD SWAP1 DUP2 MSTORE PUSH1 0x20 ADD PUSH1 0x0 KECCAK256 PUSH1 0x40 MLOAD DUP1 PUSH1 0x40 ADD PUSH1 0x40 MSTORE SWAP1 DUP2 PUSH1 0x0 DUP3 ADD SLOAD DUP2 MSTORE PUSH1 0x20 ADD PUSH1 0x1 DUP3 ADD PUSH1 0x0 SWAP1 SLOAD SWAP1 PUSH2 0x100 EXP SWAP1 DIV PUSH20 0xFFFFFFFFFFFFFFFFFFFFFFFFFFFFFFFFFFFFFFFF AND PUSH20 0xFFFFFFFFFFFFFFFFFFFFFFFFFFFFFFFFFFFFFFFF AND PUSH20 0xFFFFFFFFFFFFFFFFFFFFFFFFFFFFFFFFFFFFFFFF AND DUP2 MSTORE POP POP SWAP1 POP PUSH1 0x0 PUSH20 0xFFFFFFFFFFFFFFFFFFFFFFFFFFFFFFFFFFFFFFFF AND DUP2 PUSH1 0x20 ADD MLOAD PUSH20 0xFFFFFFFFFFFFFFFFFFFFFFFFFFFFFFFFFFFFFFFF AND SUB PUSH2 0x14EA JUMPI PUSH1 0x40 MLOAD PUSH32 0x89BA7E1000000000000000000000000000000000000000000000000000000000 DUP2 MSTORE PUSH1 0x4 ADD PUSH1 0x40 MLOAD DUP1 SWAP2 SUB SWAP1 REVERT JUMPDEST DUP1 PUSH1 0x20 ADD MLOAD DUP2 PUSH1 0x0 ADD MLOAD PUSH1 0x0 DUP4 PUSH1 0x0 ADD MLOAD EQ ISZERO SWAP4 POP SWAP4 POP SWAP4 POP POP SWAP2 SWAP4 SWAP1 SWAP3 POP JUMP JUMPDEST PUSH2 0x151C PUSH2 0x1516 PUSH2 0x18FA JUMP JUMPDEST DUP3 PUSH2 0x2B17 JUMP JUMPDEST PUSH2 0x1552 JUMPI PUSH1 0x40 MLOAD PUSH32 0x35D12E3F00000000000000000000000000000000000000000000000000000000 DUP2 MSTORE PUSH1 0x4 ADD PUSH1 0x40 MLOAD DUP1 SWAP2 SUB SWAP1 REVERT JUMPDEST POP JUMP JUMPDEST PUSH1 0x0 DUP1 PUSH2 0x1561 DUP6 PUSH2 0x13FA JUMP JUMPDEST POP SWAP2 POP SWAP2 POP DUP7 PUSH20 0xFFFFFFFFFFFFFFFFFFFFFFFFFFFFFFFFFFFFFFFF AND DUP3 PUSH20 0xFFFFFFFFFFFFFFFFFFFFFFFFFFFFFFFFFFFFFFFF AND EQ PUSH2 0x15CB JUMPI PUSH1 0x40 MLOAD PUSH32 0xE146AF6F00000000000000000000000000000000000000000000000000000000 DUP2 MSTORE PUSH1 0x4 ADD PUSH1 0x40 MLOAD DUP1 SWAP2 SUB SWAP1 REVERT JUMPDEST PUSH1 0x0 PUSH20 0xFFFFFFFFFFFFFFFFFFFFFFFFFFFFFFFFFFFFFFFF AND DUP7 PUSH20 0xFFFFFFFFFFFFFFFFFFFFFFFFFFFFFFFFFFFFFFFF AND SUB PUSH2 0x1631 JUMPI PUSH1 0x40 MLOAD PUSH32 0xE3D91BFC00000000000000000000000000000000000000000000000000000000 DUP2 MSTORE PUSH1 0x4 ADD PUSH1 0x40 MLOAD DUP1 SWAP2 SUB SWAP1 REVERT JUMPDEST ADDRESS PUSH20 0xFFFFFFFFFFFFFFFFFFFFFFFFFFFFFFFFFFFFFFFF AND DUP7 PUSH20 0xFFFFFFFFFFFFFFFFFFFFFFFFFFFFFFFFFFFFFFFF AND EQ DUP1 ISZERO PUSH2 0x166B JUMPI POP DUP4 DUP6 EQ JUMPDEST ISZERO PUSH2 0x16A2 JUMPI PUSH1 0x40 MLOAD PUSH32 0x5EEB0DF000000000000000000000000000000000000000000000000000000000 DUP2 MSTORE PUSH1 0x4 ADD PUSH1 0x40 MLOAD DUP1 SWAP2 SUB SWAP1 REVERT JUMPDEST PUSH2 0x16C1 DUP7 PUSH20 0xFFFFFFFFFFFFFFFFFFFFFFFFFFFFFFFFFFFFFFFF AND PUSH2 0x1C8F JUMP JUMPDEST PUSH2 0x16F7 JUMPI PUSH1 0x40 MLOAD PUSH32 0x80275D3A00000000000000000000000000000000000000000000000000000000 DUP2 MSTORE PUSH1 0x4 ADD PUSH1 0x40 MLOAD DUP1 SWAP2 SUB SWAP1 REVERT JUMPDEST DUP6 PUSH20 0xFFFFFFFFFFFFFFFFFFFFFFFFFFFFFFFFFFFFFFFF AND PUSH4 0x1FFC9A7 PUSH32 0x42B0E56F00000000000000000000000000000000000000000000000000000000 PUSH1 0x40 MLOAD DUP3 PUSH4 0xFFFFFFFF AND PUSH1 0xE0 SHL DUP2 MSTORE PUSH1 0x4 ADD PUSH2 0x1750 SWAP2 SWAP1 PUSH2 0x3E1E JUMP JUMPDEST PUSH1 0x20 PUSH1 0x40 MLOAD DUP1 DUP4 SUB DUP2 DUP7 GAS STATICCALL ISZERO DUP1 ISZERO PUSH2 0x176D JUMPI RETURNDATASIZE PUSH1 0x0 DUP1 RETURNDATACOPY RETURNDATASIZE PUSH1 0x0 REVERT JUMPDEST POP POP POP POP PUSH1 0x40 MLOAD RETURNDATASIZE PUSH1 0x1F NOT PUSH1 0x1F DUP3 ADD AND DUP3 ADD DUP1 PUSH1 0x40 MSTORE POP DUP2 ADD SWAP1 PUSH2 0x1791 SWAP2 SWAP1 PUSH2 0x3E4E JUMP JUMPDEST PUSH2 0x17C7 JUMPI PUSH1 0x40 MLOAD PUSH32 0xF413CF9900000000000000000000000000000000000000000000000000000000 DUP2 MSTORE PUSH1 0x4 ADD PUSH1 0x40 MLOAD DUP1 SWAP2 SUB SWAP1 REVERT JUMPDEST PUSH2 0x17D2 DUP6 DUP8 DUP7 PUSH2 0x2BF3 JUMP JUMPDEST PUSH2 0x17DD DUP8 DUP8 DUP8 PUSH2 0x2D4F JUMP JUMPDEST PUSH2 0x17EA DUP3 DUP8 DUP4 DUP8 DUP10 PUSH2 0x2D54 JUMP JUMPDEST PUSH1 0x1 PUSH1 0x0 DUP1 DUP10 PUSH20 0xFFFFFFFFFFFFFFFFFFFFFFFFFFFFFFFFFFFFFFFF AND PUSH20 0xFFFFFFFFFFFFFFFFFFFFFFFFFFFFFFFFFFFFFFFF AND DUP2 MSTORE PUSH1 0x20 ADD SWAP1 DUP2 MSTORE PUSH1 0x20 ADD PUSH1 0x0 KECCAK256 PUSH1 0x0 DUP3 DUP3 SLOAD PUSH2 0x1839 SWAP2 SWAP1 PUSH2 0x3EAA JUMP JUMPDEST SWAP3 POP POP DUP2 SWAP1 SSTORE POP PUSH2 0x184B DUP6 DUP6 DUP9 PUSH2 0x2D5B JUMP JUMPDEST PUSH1 0x1 PUSH1 0x0 DUP1 DUP9 PUSH20 0xFFFFFFFFFFFFFFFFFFFFFFFFFFFFFFFFFFFFFFFF AND PUSH20 0xFFFFFFFFFFFFFFFFFFFFFFFFFFFFFFFFFFFFFFFF AND DUP2 MSTORE PUSH1 0x20 ADD SWAP1 DUP2 MSTORE PUSH1 0x20 ADD PUSH1 0x0 KECCAK256 PUSH1 0x0 DUP3 DUP3 SLOAD PUSH2 0x189A SWAP2 SWAP1 PUSH2 0x3EDE JUMP JUMPDEST SWAP3 POP POP DUP2 SWAP1 SSTORE POP PUSH2 0x18AF DUP3 DUP8 DUP4 DUP8 DUP10 DUP9 PUSH2 0x29BF JUMP JUMPDEST POP POP POP POP POP POP POP JUMP JUMPDEST PUSH2 0x18C1 DUP2 PUSH2 0x2E06 JUMP JUMPDEST PUSH2 0x18F7 JUMPI PUSH1 0x40 MLOAD PUSH32 0x89BA7E1000000000000000000000000000000000000000000000000000000000 DUP2 MSTORE PUSH1 0x4 ADD PUSH1 0x40 MLOAD DUP1 SWAP2 SUB SWAP1 REVERT JUMPDEST POP JUMP JUMPDEST PUSH1 0x0 CALLER SWAP1 POP SWAP1 JUMP JUMPDEST PUSH1 0x0 PUSH2 0x190D DUP3 PUSH2 0xAF1 JUMP JUMPDEST SWAP1 POP DUP3 PUSH1 0x1 PUSH1 0x0 DUP5 DUP2 MSTORE PUSH1 0x20 ADD SWAP1 DUP2 MSTORE PUSH1 0x20 ADD PUSH1 0x0 KECCAK256 PUSH1 0x0 DUP4 PUSH20 0xFFFFFFFFFFFFFFFFFFFFFFFFFFFFFFFFFFFFFFFF AND PUSH20 0xFFFFFFFFFFFFFFFFFFFFFFFFFFFFFFFFFFFFFFFF AND DUP2 MSTORE PUSH1 0x20 ADD SWAP1 DUP2 MSTORE PUSH1 0x20 ADD PUSH1 0x0 KECCAK256 PUSH1 0x0 PUSH2 0x100 EXP DUP2 SLOAD DUP2 PUSH20 0xFFFFFFFFFFFFFFFFFFFFFFFFFFFFFFFFFFFFFFFF MUL NOT AND SWAP1 DUP4 PUSH20 0xFFFFFFFFFFFFFFFFFFFFFFFFFFFFFFFFFFFFFFFF AND MUL OR SWAP1 SSTORE POP DUP2 DUP4 PUSH20 0xFFFFFFFFFFFFFFFFFFFFFFFFFFFFFFFFFFFFFFFF AND DUP3 PUSH20 0xFFFFFFFFFFFFFFFFFFFFFFFFFFFFFFFFFFFFFFFF AND PUSH32 0x8C5BE1E5EBEC7D5BD14F71427D1E84F3DD0314C0F7B2291E5B200AC8C7C3B925 PUSH1 0x40 MLOAD PUSH1 0x40 MLOAD DUP1 SWAP2 SUB SWAP1 LOG4 POP POP POP JUMP JUMPDEST PUSH1 0x0 DUP1 PUSH2 0x1A0A DUP4 PUSH2 0x13FA JUMP JUMPDEST POP SWAP2 POP SWAP2 POP DUP5 PUSH20 0xFFFFFFFFFFFFFFFFFFFFFFFFFFFFFFFFFFFFFFFF AND DUP3 PUSH20 0xFFFFFFFFFFFFFFFFFFFFFFFFFFFFFFFFFFFFFFFF AND EQ PUSH2 0x1A74 JUMPI PUSH1 0x40 MLOAD PUSH32 0xE146AF6F00000000000000000000000000000000000000000000000000000000 DUP2 MSTORE PUSH1 0x4 ADD PUSH1 0x40 MLOAD DUP1 SWAP2 SUB SWAP1 REVERT JUMPDEST PUSH1 0x0 PUSH20 0xFFFFFFFFFFFFFFFFFFFFFFFFFFFFFFFFFFFFFFFF AND DUP5 PUSH20 0xFFFFFFFFFFFFFFFFFFFFFFFFFFFFFFFFFFFFFFFF AND SUB PUSH2 0x1ADA JUMPI PUSH1 0x40 MLOAD PUSH32 0xE3D91BFC00000000000000000000000000000000000000000000000000000000 DUP2 MSTORE PUSH1 0x4 ADD PUSH1 0x40 MLOAD DUP1 SWAP2 SUB SWAP1 REVERT JUMPDEST PUSH2 0x1AE5 DUP6 DUP6 DUP6 PUSH2 0x2D4F JUMP JUMPDEST PUSH2 0x1AF3 DUP3 DUP6 DUP4 PUSH1 0x0 DUP8 PUSH2 0x2D54 JUMP JUMPDEST PUSH1 0x1 PUSH1 0x0 DUP1 DUP8 PUSH20 0xFFFFFFFFFFFFFFFFFFFFFFFFFFFFFFFFFFFFFFFF AND PUSH20 0xFFFFFFFFFFFFFFFFFFFFFFFFFFFFFFFFFFFFFFFF AND DUP2 MSTORE PUSH1 0x20 ADD SWAP1 DUP2 MSTORE PUSH1 0x20 ADD PUSH1 0x0 KECCAK256 PUSH1 0x0 DUP3 DUP3 SLOAD PUSH2 0x1B42 SWAP2 SWAP1 PUSH2 0x3EAA JUMP JUMPDEST SWAP3 POP POP DUP2 SWAP1 SSTORE POP PUSH2 0x1B55 DUP4 PUSH1 0x0 DUP7 PUSH2 0x2D5B JUMP JUMPDEST PUSH1 0x1 PUSH1 0x0 DUP1 DUP7 PUSH20 0xFFFFFFFFFFFFFFFFFFFFFFFFFFFFFFFFFFFFFFFF AND PUSH20 0xFFFFFFFFFFFFFFFFFFFFFFFFFFFFFFFFFFFFFFFF AND DUP2 MSTORE PUSH1 0x20 ADD SWAP1 DUP2 MSTORE PUSH1 0x20 ADD PUSH1 0x0 KECCAK256 PUSH1 0x0 DUP3 DUP3 SLOAD PUSH2 0x1BA4 SWAP2 SWAP1 PUSH2 0x3EDE JUMP JUMPDEST SWAP3 POP POP DUP2 SWAP1 SSTORE POP DUP3 DUP5 PUSH20 0xFFFFFFFFFFFFFFFFFFFFFFFFFFFFFFFFFFFFFFFF AND DUP7 PUSH20 0xFFFFFFFFFFFFFFFFFFFFFFFFFFFFFFFFFFFFFFFF AND PUSH32 0xDDF252AD1BE2C89B69C2B068FC378DAA952BA7F163C4A11628F55A4DF523B3EF PUSH1 0x40 MLOAD PUSH1 0x40 MLOAD DUP1 SWAP2 SUB SWAP1 LOG4 DUP3 DUP5 PUSH20 0xFFFFFFFFFFFFFFFFFFFFFFFFFFFFFFFFFFFFFFFF AND DUP4 PUSH20 0xFFFFFFFFFFFFFFFFFFFFFFFFFFFFFFFFFFFFFFFF AND PUSH32 0x4444026CEFD1B05506559CAB59D1B865AE3BA4ED2FE5C894F04E522776C552D DUP5 PUSH1 0x0 PUSH1 0x40 MLOAD PUSH2 0x1C67 SWAP3 SWAP2 SWAP1 PUSH2 0x3F57 JUMP JUMPDEST PUSH1 0x40 MLOAD DUP1 SWAP2 SUB SWAP1 LOG4 PUSH2 0x1C7A DUP6 DUP6 DUP6 PUSH2 0x2E75 JUMP JUMPDEST PUSH2 0x1C88 DUP3 DUP6 DUP4 PUSH1 0x0 DUP8 PUSH2 0x2E7A JUMP JUMPDEST POP POP POP POP POP JUMP JUMPDEST PUSH1 0x0 DUP1 DUP3 PUSH20 0xFFFFFFFFFFFFFFFFFFFFFFFFFFFFFFFFFFFFFFFF AND EXTCODESIZE GT SWAP1 POP SWAP2 SWAP1 POP JUMP JUMPDEST POP POP POP JUMP JUMPDEST POP POP POP JUMP JUMPDEST PUSH2 0x1CCD PUSH2 0x1CC7 PUSH2 0x18FA JUMP JUMPDEST DUP3 PUSH2 0x2E81 JUMP JUMPDEST PUSH2 0x1D03 JUMPI PUSH1 0x40 MLOAD PUSH32 0x2728A9D000000000000000000000000000000000000000000000000000000000 DUP2 MSTORE PUSH1 0x4 ADD PUSH1 0x40 MLOAD DUP1 SWAP2 SUB SWAP1 REVERT JUMPDEST POP JUMP JUMPDEST DUP1 PUSH1 0x5 PUSH1 0x0 DUP5 DUP2 MSTORE PUSH1 0x20 ADD SWAP1 DUP2 MSTORE PUSH1 0x20 ADD PUSH1 0x0 KECCAK256 DUP1 SLOAD SWAP1 POP GT ISZERO PUSH2 0x1D56 JUMPI PUSH1 0x40 MLOAD PUSH32 0x8AC3CB1400000000000000000000000000000000000000000000000000000000 DUP2 MSTORE PUSH1 0x4 ADD PUSH1 0x40 MLOAD DUP1 SWAP2 SUB SWAP1 REVERT JUMPDEST PUSH2 0x1D5F DUP3 PUSH2 0x2F16 JUMP JUMPDEST PUSH1 0x5 PUSH1 0x0 DUP4 DUP2 MSTORE PUSH1 0x20 ADD SWAP1 DUP2 MSTORE PUSH1 0x20 ADD PUSH1 0x0 KECCAK256 PUSH1 0x0 PUSH2 0x1D7E SWAP2 SWAP1 PUSH2 0x337A JUMP JUMPDEST DUP2 PUSH32 0x8AC4A0D65950C3E40448AFB2260E2E0EC36EA15644D9B39E37E85472E5F94451 PUSH1 0x40 MLOAD PUSH1 0x40 MLOAD DUP1 SWAP2 SUB SWAP1 LOG2 PUSH2 0x1DB4 DUP3 PUSH2 0x2F19 JUMP JUMPDEST POP POP JUMP JUMPDEST PUSH1 0x0 DUP1 PUSH1 0x0 PUSH2 0x1DC6 DUP6 PUSH2 0x13FA JUMP JUMPDEST POP SWAP2 POP SWAP2 POP PUSH1 0x0 PUSH2 0x1DD6 DUP7 PUSH2 0xAF1 JUMP JUMPDEST SWAP1 POP PUSH1 0x1 PUSH1 0x0 DUP1 DUP6 PUSH20 0xFFFFFFFFFFFFFFFFFFFFFFFFFFFFFFFFFFFFFFFF AND PUSH20 0xFFFFFFFFFFFFFFFFFFFFFFFFFFFFFFFFFFFFFFFF AND DUP2 MSTORE PUSH1 0x20 ADD SWAP1 DUP2 MSTORE PUSH1 0x20 ADD PUSH1 0x0 KECCAK256 PUSH1 0x0 DUP3 DUP3 SLOAD PUSH2 0x1E27 SWAP2 SWAP1 PUSH2 0x3EAA JUMP JUMPDEST SWAP3 POP POP DUP2 SWAP1 SSTORE POP PUSH2 0x1E3A DUP2 PUSH1 0x0 DUP9 PUSH2 0x2D4F JUMP JUMPDEST PUSH2 0x1E49 DUP4 PUSH1 0x0 DUP5 PUSH1 0x0 DUP11 PUSH2 0x2D54 JUMP JUMPDEST PUSH2 0x1E54 PUSH1 0x0 DUP8 PUSH2 0x1902 JUMP JUMPDEST PUSH2 0x1E5D DUP7 PUSH2 0x2F1C JUMP JUMPDEST PUSH1 0x0 PUSH2 0x1E68 DUP8 PUSH2 0xD79 JUMP JUMPDEST SWAP1 POP PUSH1 0x4 PUSH1 0x0 DUP9 DUP2 MSTORE PUSH1 0x20 ADD SWAP1 DUP2 MSTORE PUSH1 0x20 ADD PUSH1 0x0 KECCAK256 PUSH1 0x0 PUSH2 0x1E89 SWAP2 SWAP1 PUSH2 0x337A JUMP JUMPDEST PUSH1 0x5 PUSH1 0x0 DUP9 DUP2 MSTORE PUSH1 0x20 ADD SWAP1 DUP2 MSTORE PUSH1 0x20 ADD PUSH1 0x0 KECCAK256 PUSH1 0x0 PUSH2 0x1EA8 SWAP2 SWAP1 PUSH2 0x337A JUMP JUMPDEST PUSH1 0x1 PUSH1 0x0 DUP9 DUP2 MSTORE PUSH1 0x20 ADD SWAP1 DUP2 MSTORE PUSH1 0x20 ADD PUSH1 0x0 KECCAK256 PUSH1 0x0 DUP4 PUSH20 0xFFFFFFFFFFFFFFFFFFFFFFFFFFFFFFFFFFFFFFFF AND PUSH20 0xFFFFFFFFFFFFFFFFFFFFFFFFFFFFFFFFFFFFFFFF AND DUP2 MSTORE PUSH1 0x20 ADD SWAP1 DUP2 MSTORE PUSH1 0x20 ADD PUSH1 0x0 KECCAK256 PUSH1 0x0 PUSH2 0x100 EXP DUP2 SLOAD SWAP1 PUSH20 0xFFFFFFFFFFFFFFFFFFFFFFFFFFFFFFFFFFFFFFFF MUL NOT AND SWAP1 SSTORE PUSH1 0x0 DUP1 PUSH1 0x0 DUP4 MLOAD SWAP1 POP PUSH1 0x0 JUMPDEST DUP2 DUP2 LT ISZERO PUSH2 0x2130 JUMPI DUP10 DUP4 LT PUSH2 0x1FB1 JUMPI DUP5 DUP2 DUP2 MLOAD DUP2 LT PUSH2 0x1F49 JUMPI PUSH2 0x1F48 PUSH2 0x3D9E JUMP JUMPDEST JUMPDEST PUSH1 0x20 MUL PUSH1 0x20 ADD ADD MLOAD PUSH1 0x20 ADD MLOAD DUP6 DUP3 DUP2 MLOAD DUP2 LT PUSH2 0x1F68 JUMPI PUSH2 0x1F67 PUSH2 0x3D9E JUMP JUMPDEST JUMPDEST PUSH1 0x20 MUL PUSH1 0x20 ADD ADD MLOAD PUSH1 0x0 ADD MLOAD PUSH1 0x40 MLOAD PUSH32 0x4CB93AD900000000000000000000000000000000000000000000000000000000 DUP2 MSTORE PUSH1 0x4 ADD PUSH2 0x1FA8 SWAP3 SWAP2 SWAP1 PUSH2 0x3F80 JUMP JUMPDEST PUSH1 0x40 MLOAD DUP1 SWAP2 SUB SWAP1 REVERT JUMPDEST PUSH1 0x6 PUSH1 0x0 DUP7 DUP4 DUP2 MLOAD DUP2 LT PUSH2 0x1FC8 JUMPI PUSH2 0x1FC7 PUSH2 0x3D9E JUMP JUMPDEST JUMPDEST PUSH1 0x20 MUL PUSH1 0x20 ADD ADD MLOAD PUSH1 0x20 ADD MLOAD PUSH20 0xFFFFFFFFFFFFFFFFFFFFFFFFFFFFFFFFFFFFFFFF AND PUSH20 0xFFFFFFFFFFFFFFFFFFFFFFFFFFFFFFFFFFFFFFFF AND DUP2 MSTORE PUSH1 0x20 ADD SWAP1 DUP2 MSTORE PUSH1 0x20 ADD PUSH1 0x0 KECCAK256 PUSH1 0x0 DUP7 DUP4 DUP2 MLOAD DUP2 LT PUSH2 0x2023 JUMPI PUSH2 0x2022 PUSH2 0x3D9E JUMP JUMPDEST JUMPDEST PUSH1 0x20 MUL PUSH1 0x20 ADD ADD MLOAD PUSH1 0x0 ADD MLOAD DUP2 MSTORE PUSH1 0x20 ADD SWAP1 DUP2 MSTORE PUSH1 0x20 ADD PUSH1 0x0 KECCAK256 PUSH1 0x0 SWAP1 SSTORE DUP3 DUP11 SUB SWAP4 POP PUSH1 0x1 DUP6 DUP3 DUP2 MLOAD DUP2 LT PUSH2 0x205B JUMPI PUSH2 0x205A PUSH2 0x3D9E JUMP JUMPDEST JUMPDEST PUSH1 0x20 MUL PUSH1 0x20 ADD ADD MLOAD PUSH1 0x20 ADD MLOAD PUSH20 0xFFFFFFFFFFFFFFFFFFFFFFFFFFFFFFFFFFFFFFFF AND PUSH4 0xB390C0AB DUP8 DUP5 DUP2 MLOAD DUP2 LT PUSH2 0x2095 JUMPI PUSH2 0x2094 PUSH2 0x3D9E JUMP JUMPDEST JUMPDEST PUSH1 0x20 MUL PUSH1 0x20 ADD ADD MLOAD PUSH1 0x0 ADD MLOAD PUSH1 0x1 DUP9 PUSH2 0x20AE SWAP2 SWAP1 PUSH2 0x3EAA JUMP JUMPDEST PUSH1 0x40 MLOAD DUP4 PUSH4 0xFFFFFFFF AND PUSH1 0xE0 SHL DUP2 MSTORE PUSH1 0x4 ADD PUSH2 0x20CB SWAP3 SWAP2 SWAP1 PUSH2 0x3FA9 JUMP JUMPDEST PUSH1 0x20 PUSH1 0x40 MLOAD DUP1 DUP4 SUB DUP2 PUSH1 0x0 DUP8 GAS CALL ISZERO DUP1 ISZERO PUSH2 0x20EA JUMPI RETURNDATASIZE PUSH1 0x0 DUP1 RETURNDATACOPY RETURNDATASIZE PUSH1 0x0 REVERT JUMPDEST POP POP POP POP PUSH1 0x40 MLOAD RETURNDATASIZE PUSH1 0x1F NOT PUSH1 0x1F DUP3 ADD AND DUP3 ADD DUP1 PUSH1 0x40 MSTORE POP DUP2 ADD SWAP1 PUSH2 0x210E SWAP2 SWAP1 PUSH2 0x3FE7 JUMP JUMPDEST PUSH2 0x2118 SWAP2 SWAP1 PUSH2 0x3EDE JUMP JUMPDEST DUP4 PUSH2 0x2123 SWAP2 SWAP1 PUSH2 0x3EDE JUMP JUMPDEST SWAP3 POP DUP1 PUSH1 0x1 ADD SWAP1 POP PUSH2 0x1F27 JUMP JUMPDEST POP PUSH1 0x3 PUSH1 0x0 DUP12 DUP2 MSTORE PUSH1 0x20 ADD SWAP1 DUP2 MSTORE PUSH1 0x20 ADD PUSH1 0x0 KECCAK256 PUSH1 0x0 DUP1 DUP3 ADD PUSH1 0x0 SWAP1 SSTORE PUSH1 0x1 DUP3 ADD PUSH1 0x0 PUSH2 0x100 EXP DUP2 SLOAD SWAP1 PUSH20 0xFFFFFFFFFFFFFFFFFFFFFFFFFFFFFFFFFFFFFFFF MUL NOT AND SWAP1 SSTORE POP POP PUSH2 0x2182 DUP6 PUSH1 0x0 DUP13 PUSH2 0x2E75 JUMP JUMPDEST PUSH2 0x2191 DUP8 PUSH1 0x0 DUP9 PUSH1 0x0 DUP15 PUSH2 0x2E7A JUMP JUMPDEST DUP10 PUSH1 0x0 PUSH20 0xFFFFFFFFFFFFFFFFFFFFFFFFFFFFFFFFFFFFFFFF AND DUP7 PUSH20 0xFFFFFFFFFFFFFFFFFFFFFFFFFFFFFFFFFFFFFFFF AND PUSH32 0xDDF252AD1BE2C89B69C2B068FC378DAA952BA7F163C4A11628F55A4DF523B3EF PUSH1 0x40 MLOAD PUSH1 0x40 MLOAD DUP1 SWAP2 SUB SWAP1 LOG4 DUP10 PUSH1 0x0 PUSH20 0xFFFFFFFFFFFFFFFFFFFFFFFFFFFFFFFFFFFFFFFF AND DUP9 PUSH20 0xFFFFFFFFFFFFFFFFFFFFFFFFFFFFFFFFFFFFFFFF AND PUSH32 0x4444026CEFD1B05506559CAB59D1B865AE3BA4ED2FE5C894F04E522776C552D DUP10 PUSH1 0x0 PUSH1 0x40 MLOAD PUSH2 0x224F SWAP3 SWAP2 SWAP1 PUSH2 0x3F57 JUMP JUMPDEST PUSH1 0x40 MLOAD DUP1 SWAP2 SUB SWAP1 LOG4 DUP2 SWAP8 POP POP POP POP POP POP POP POP SWAP3 SWAP2 POP POP JUMP JUMPDEST PUSH2 0x2271 DUP4 DUP4 PUSH2 0x2F1F JUMP JUMPDEST PUSH2 0x227E PUSH1 0x0 DUP5 DUP5 DUP5 PUSH2 0x3010 JUMP JUMPDEST PUSH2 0x22B4 JUMPI PUSH1 0x40 MLOAD PUSH32 0xBCB5663700000000000000000000000000000000000000000000000000000000 DUP2 MSTORE PUSH1 0x4 ADD PUSH1 0x40 MLOAD DUP1 SWAP2 SUB SWAP1 REVERT JUMPDEST POP POP POP JUMP JUMPDEST PUSH2 0x22C4 DUP5 DUP5 DUP5 PUSH2 0x19FE JUMP JUMPDEST PUSH2 0x22D0 DUP5 DUP5 DUP5 DUP5 PUSH2 0x3010 JUMP JUMPDEST PUSH2 0x2306 JUMPI PUSH1 0x40 MLOAD PUSH32 0xBCB5663700000000000000000000000000000000000000000000000000000000 DUP2 MSTORE PUSH1 0x4 ADD PUSH1 0x40 MLOAD DUP1 SWAP2 SUB SWAP1 REVERT JUMPDEST POP POP POP POP JUMP JUMPDEST PUSH2 0x2314 PUSH2 0x334A JUMP JUMPDEST DUP3 ISZERO PUSH2 0x232B JUMPI PUSH2 0x2324 DUP10 DUP8 PUSH2 0x108E JUMP JUMPDEST SWAP1 POP PUSH2 0x2338 JUMP JUMPDEST PUSH2 0x2335 DUP10 DUP8 PUSH2 0x896 JUMP JUMPDEST SWAP1 POP JUMPDEST PUSH2 0x2343 DUP2 DUP7 DUP7 PUSH2 0x318E JUMP JUMPDEST PUSH2 0x2350 DUP10 DUP8 DUP8 DUP8 DUP8 PUSH2 0x320D JUMP JUMPDEST DUP3 ISZERO PUSH2 0x2377 JUMPI PUSH2 0x2372 PUSH1 0x5 PUSH1 0x0 DUP12 DUP2 MSTORE PUSH1 0x20 ADD SWAP1 DUP2 MSTORE PUSH1 0x20 ADD PUSH1 0x0 KECCAK256 DUP8 PUSH2 0x3214 JUMP JUMPDEST PUSH2 0x23E8 JUMP JUMPDEST PUSH1 0x6 PUSH1 0x0 DUP7 PUSH20 0xFFFFFFFFFFFFFFFFFFFFFFFFFFFFFFFFFFFFFFFF AND PUSH20 0xFFFFFFFFFFFFFFFFFFFFFFFFFFFFFFFFFFFFFFFF AND DUP2 MSTORE PUSH1 0x20 ADD SWAP1 DUP2 MSTORE PUSH1 0x20 ADD PUSH1 0x0 KECCAK256 PUSH1 0x0 DUP6 DUP2 MSTORE PUSH1 0x20 ADD SWAP1 DUP2 MSTORE PUSH1 0x20 ADD PUSH1 0x0 KECCAK256 PUSH1 0x0 SWAP1 SSTORE PUSH2 0x23E7 PUSH1 0x4 PUSH1 0x0 DUP12 DUP2 MSTORE PUSH1 0x20 ADD SWAP1 DUP2 MSTORE PUSH1 0x20 ADD PUSH1 0x0 KECCAK256 DUP8 PUSH2 0x3214 JUMP JUMPDEST JUMPDEST PUSH1 0x0 PUSH20 0xFFFFFFFFFFFFFFFFFFFFFFFFFFFFFFFFFFFFFFFF AND DUP9 PUSH20 0xFFFFFFFFFFFFFFFFFFFFFFFFFFFFFFFFFFFFFFFF AND EQ PUSH2 0x2517 JUMPI PUSH1 0x0 DUP8 SUB PUSH2 0x249A JUMPI DUP5 PUSH20 0xFFFFFFFFFFFFFFFFFFFFFFFFFFFFFFFFFFFFFFFF AND PUSH4 0xB88D4FDE ADDRESS DUP11 DUP8 DUP7 PUSH1 0x40 MLOAD DUP6 PUSH4 0xFFFFFFFF AND PUSH1 0xE0 SHL DUP2 MSTORE PUSH1 0x4 ADD PUSH2 0x2463 SWAP5 SWAP4 SWAP3 SWAP2 SWAP1 PUSH2 0x4093 JUMP JUMPDEST PUSH1 0x0 PUSH1 0x40 MLOAD DUP1 DUP4 SUB DUP2 PUSH1 0x0 DUP8 DUP1 EXTCODESIZE ISZERO DUP1 ISZERO PUSH2 0x247D JUMPI PUSH1 0x0 DUP1 REVERT JUMPDEST POP GAS CALL ISZERO DUP1 ISZERO PUSH2 0x2491 JUMPI RETURNDATASIZE PUSH1 0x0 DUP1 RETURNDATACOPY RETURNDATASIZE PUSH1 0x0 REVERT JUMPDEST POP POP POP POP PUSH2 0x2516 JUMP JUMPDEST DUP1 PUSH1 0x20 ADD MLOAD PUSH20 0xFFFFFFFFFFFFFFFFFFFFFFFFFFFFFFFFFFFFFFFF AND PUSH4 0x64C0A3A ADDRESS DUP11 DUP5 PUSH1 0x0 ADD MLOAD DUP12 DUP8 PUSH1 0x40 MLOAD DUP7 PUSH4 0xFFFFFFFF AND PUSH1 0xE0 SHL DUP2 MSTORE PUSH1 0x4 ADD PUSH2 0x24E3 SWAP6 SWAP5 SWAP4 SWAP3 SWAP2 SWAP1 PUSH2 0x40DF JUMP JUMPDEST PUSH1 0x0 PUSH1 0x40 MLOAD DUP1 DUP4 SUB DUP2 PUSH1 0x0 DUP8 DUP1 EXTCODESIZE ISZERO DUP1 ISZERO PUSH2 0x24FD JUMPI PUSH1 0x0 DUP1 REVERT JUMPDEST POP GAS CALL ISZERO DUP1 ISZERO PUSH2 0x2511 JUMPI RETURNDATASIZE PUSH1 0x0 DUP1 RETURNDATACOPY RETURNDATASIZE PUSH1 0x0 REVERT JUMPDEST POP POP POP POP JUMPDEST JUMPDEST DUP4 DUP6 PUSH20 0xFFFFFFFFFFFFFFFFFFFFFFFFFFFFFFFFFFFFFFFF AND DUP11 PUSH32 0x2BEDEE38CDB22411C14554191243C0E117C0088DDAE3459876ACD46A0FD53815 DUP10 DUP8 PUSH1 0x40 MLOAD PUSH2 0x2561 SWAP3 SWAP2 SWAP1 PUSH2 0x4139 JUMP JUMPDEST PUSH1 0x40 MLOAD DUP1 SWAP2 SUB SWAP1 LOG4 PUSH2 0x2576 DUP10 DUP8 DUP8 DUP8 DUP8 PUSH2 0x3337 JUMP JUMPDEST POP POP POP POP POP POP POP POP POP JUMP JUMPDEST DUP3 PUSH2 0x258B DUP6 PUSH2 0xA19 JUMP JUMPDEST MLOAD GT PUSH2 0x25C3 JUMPI PUSH1 0x40 MLOAD PUSH32 0x9136D24F00000000000000000000000000000000000000000000000000000000 DUP2 MSTORE PUSH1 0x4 ADD PUSH1 0x40 MLOAD DUP1 SWAP2 SUB SWAP1 REVERT JUMPDEST PUSH1 0x0 PUSH2 0x25CF DUP6 DUP6 PUSH2 0x108E JUMP JUMPDEST SWAP1 POP PUSH2 0x25DC DUP2 DUP5 DUP5 PUSH2 0x318E JUMP JUMPDEST PUSH1 0x0 PUSH1 0x6 PUSH1 0x0 DUP6 PUSH20 0xFFFFFFFFFFFFFFFFFFFFFFFFFFFFFFFFFFFFFFFF AND PUSH20 0xFFFFFFFFFFFFFFFFFFFFFFFFFFFFFFFFFFFFFFFF AND DUP2 MSTORE PUSH1 0x20 ADD SWAP1 DUP2 MSTORE PUSH1 0x20 ADD PUSH1 0x0 KECCAK256 PUSH1 0x0 DUP5 DUP2 MSTORE PUSH1 0x20 ADD SWAP1 DUP2 MSTORE PUSH1 0x20 ADD PUSH1 0x0 KECCAK256 SLOAD EQ PUSH2 0x2666 JUMPI PUSH1 0x40 MLOAD PUSH32 0xFF33650C00000000000000000000000000000000000000000000000000000000 DUP2 MSTORE PUSH1 0x4 ADD PUSH1 0x40 MLOAD DUP1 SWAP2 SUB SWAP1 REVERT JUMPDEST PUSH2 0x2672 DUP6 DUP6 DUP6 DUP6 PUSH2 0x333E JUMP JUMPDEST PUSH2 0x268E PUSH1 0x5 PUSH1 0x0 DUP8 DUP2 MSTORE PUSH1 0x20 ADD SWAP1 DUP2 MSTORE PUSH1 0x20 ADD PUSH1 0x0 KECCAK256 DUP6 PUSH2 0x3214 JUMP JUMPDEST PUSH1 0x4 PUSH1 0x0 DUP7 DUP2 MSTORE PUSH1 0x20 ADD SWAP1 DUP2 MSTORE PUSH1 0x20 ADD PUSH1 0x0 KECCAK256 DUP2 SWAP1 DUP1 PUSH1 0x1 DUP2 SLOAD ADD DUP1 DUP3 SSTORE DUP1 SWAP2 POP POP PUSH1 0x1 SWAP1 SUB SWAP1 PUSH1 0x0 MSTORE PUSH1 0x20 PUSH1 0x0 KECCAK256 SWAP1 PUSH1 0x2 MUL ADD PUSH1 0x0 SWAP1 SWAP2 SWAP1 SWAP2 SWAP1 SWAP2 POP PUSH1 0x0 DUP3 ADD MLOAD DUP2 PUSH1 0x0 ADD SSTORE PUSH1 0x20 DUP3 ADD MLOAD DUP2 PUSH1 0x1 ADD PUSH1 0x0 PUSH2 0x100 EXP DUP2 SLOAD DUP2 PUSH20 0xFFFFFFFFFFFFFFFFFFFFFFFFFFFFFFFFFFFFFFFF MUL NOT AND SWAP1 DUP4 PUSH20 0xFFFFFFFFFFFFFFFFFFFFFFFFFFFFFFFFFFFFFFFF AND MUL OR SWAP1 SSTORE POP POP POP PUSH1 0x1 PUSH1 0x6 PUSH1 0x0 DUP6 PUSH20 0xFFFFFFFFFFFFFFFFFFFFFFFFFFFFFFFFFFFFFFFF AND PUSH20 0xFFFFFFFFFFFFFFFFFFFFFFFFFFFFFFFFFFFFFFFF AND DUP2 MSTORE PUSH1 0x20 ADD SWAP1 DUP2 MSTORE PUSH1 0x20 ADD PUSH1 0x0 KECCAK256 PUSH1 0x0 DUP5 DUP2 MSTORE PUSH1 0x20 ADD SWAP1 DUP2 MSTORE PUSH1 0x20 ADD PUSH1 0x0 KECCAK256 DUP2 SWAP1 SSTORE POP DUP2 DUP4 PUSH20 0xFFFFFFFFFFFFFFFFFFFFFFFFFFFFFFFFFFFFFFFF AND DUP7 PUSH32 0x29486B9E2AE569B440933A9B1B421467306FA21F3DCAD439C262910A634963A9 DUP8 PUSH1 0x40 MLOAD PUSH2 0x27BC SWAP2 SWAP1 PUSH2 0x3A61 JUMP JUMPDEST PUSH1 0x40 MLOAD DUP1 SWAP2 SUB SWAP1 LOG4 PUSH2 0x27D0 DUP6 DUP6 DUP6 DUP6 PUSH2 0x3344 JUMP JUMPDEST POP POP POP POP POP JUMP JUMPDEST PUSH1 0x0 PUSH20 0xFFFFFFFFFFFFFFFFFFFFFFFFFFFFFFFFFFFFFFFF AND DUP4 PUSH20 0xFFFFFFFFFFFFFFFFFFFFFFFFFFFFFFFFFFFFFFFF AND SUB PUSH2 0x283D JUMPI PUSH1 0x40 MLOAD PUSH32 0x25BD6BD300000000000000000000000000000000000000000000000000000000 DUP2 MSTORE PUSH1 0x4 ADD PUSH1 0x40 MLOAD DUP1 SWAP2 SUB SWAP1 REVERT JUMPDEST PUSH2 0x2846 DUP3 PUSH2 0x2E06 JUMP JUMPDEST ISZERO PUSH2 0x287D JUMPI PUSH1 0x40 MLOAD PUSH32 0xC5A8D37100000000000000000000000000000000000000000000000000000000 DUP2 MSTORE PUSH1 0x4 ADD PUSH1 0x40 MLOAD DUP1 SWAP2 SUB SWAP1 REVERT JUMPDEST PUSH1 0x0 DUP3 SUB PUSH2 0x28B7 JUMPI PUSH1 0x40 MLOAD PUSH32 0x238924D500000000000000000000000000000000000000000000000000000000 DUP2 MSTORE PUSH1 0x4 ADD PUSH1 0x40 MLOAD DUP1 SWAP2 SUB SWAP1 REVERT JUMPDEST PUSH2 0x28C3 PUSH1 0x0 DUP5 DUP5 PUSH2 0x2D4F JUMP JUMPDEST PUSH2 0x28D2 PUSH1 0x0 DUP5 PUSH1 0x0 DUP5 DUP7 PUSH2 0x2D54 JUMP JUMPDEST PUSH1 0x1 PUSH1 0x0 DUP1 DUP6 PUSH20 0xFFFFFFFFFFFFFFFFFFFFFFFFFFFFFFFFFFFFFFFF AND PUSH20 0xFFFFFFFFFFFFFFFFFFFFFFFFFFFFFFFFFFFFFFFF AND DUP2 MSTORE PUSH1 0x20 ADD SWAP1 DUP2 MSTORE PUSH1 0x20 ADD PUSH1 0x0 KECCAK256 PUSH1 0x0 DUP3 DUP3 SLOAD PUSH2 0x2921 SWAP2 SWAP1 PUSH2 0x3EDE JUMP JUMPDEST SWAP3 POP POP DUP2 SWAP1 SSTORE POP PUSH1 0x40 MLOAD DUP1 PUSH1 0x40 ADD PUSH1 0x40 MSTORE DUP1 DUP3 DUP2 MSTORE PUSH1 0x20 ADD DUP5 PUSH20 0xFFFFFFFFFFFFFFFFFFFFFFFFFFFFFFFFFFFFFFFF AND DUP2 MSTORE POP PUSH1 0x3 PUSH1 0x0 DUP5 DUP2 MSTORE PUSH1 0x20 ADD SWAP1 DUP2 MSTORE PUSH1 0x20 ADD PUSH1 0x0 KECCAK256 PUSH1 0x0 DUP3 ADD MLOAD DUP2 PUSH1 0x0 ADD SSTORE PUSH1 0x20 DUP3 ADD MLOAD DUP2 PUSH1 0x1 ADD PUSH1 0x0 PUSH2 0x100 EXP DUP2 SLOAD DUP2 PUSH20 0xFFFFFFFFFFFFFFFFFFFFFFFFFFFFFFFFFFFFFFFF MUL NOT AND SWAP1 DUP4 PUSH20 0xFFFFFFFFFFFFFFFFFFFFFFFFFFFFFFFFFFFFFFFF AND MUL OR SWAP1 SSTORE POP SWAP1 POP POP POP POP POP JUMP JUMPDEST PUSH1 0x0 DUP6 SWAP1 POP DUP1 PUSH20 0xFFFFFFFFFFFFFFFFFFFFFFFFFFFFFFFFFFFFFFFF AND PUSH4 0x635490CC DUP6 DUP6 DUP6 PUSH1 0x40 MLOAD DUP5 PUSH4 0xFFFFFFFF AND PUSH1 0xE0 SHL DUP2 MSTORE PUSH1 0x4 ADD PUSH2 0x2A01 SWAP4 SWAP3 SWAP2 SWAP1 PUSH2 0x4162 JUMP JUMPDEST PUSH1 0x0 PUSH1 0x40 MLOAD DUP1 DUP4 SUB DUP2 PUSH1 0x0 DUP8 DUP1 EXTCODESIZE ISZERO DUP1 ISZERO PUSH2 0x2A1B JUMPI PUSH1 0x0 DUP1 REVERT JUMPDEST POP GAS CALL ISZERO DUP1 ISZERO PUSH2 0x2A2F JUMPI RETURNDATASIZE PUSH1 0x0 DUP1 RETURNDATACOPY RETURNDATASIZE PUSH1 0x0 REVERT JUMPDEST POP POP POP POP PUSH2 0x2A3E DUP8 DUP8 DUP6 PUSH2 0x2E75 JUMP JUMPDEST PUSH2 0x2A4B DUP8 DUP8 DUP8 DUP8 DUP8 PUSH2 0x2E7A JUMP JUMPDEST DUP3 DUP7 PUSH20 0xFFFFFFFFFFFFFFFFFFFFFFFFFFFFFFFFFFFFFFFF AND DUP9 PUSH20 0xFFFFFFFFFFFFFFFFFFFFFFFFFFFFFFFFFFFFFFFF AND PUSH32 0xDDF252AD1BE2C89B69C2B068FC378DAA952BA7F163C4A11628F55A4DF523B3EF PUSH1 0x40 MLOAD PUSH1 0x40 MLOAD DUP1 SWAP2 SUB SWAP1 LOG4 DUP3 DUP7 PUSH20 0xFFFFFFFFFFFFFFFFFFFFFFFFFFFFFFFFFFFFFFFF AND DUP9 PUSH20 0xFFFFFFFFFFFFFFFFFFFFFFFFFFFFFFFFFFFFFFFF AND PUSH32 0x4444026CEFD1B05506559CAB59D1B865AE3BA4ED2FE5C894F04E522776C552D DUP9 DUP9 PUSH1 0x40 MLOAD PUSH2 0x2B06 SWAP3 SWAP2 SWAP1 PUSH2 0x3FA9 JUMP JUMPDEST PUSH1 0x40 MLOAD DUP1 SWAP2 SUB SWAP1 LOG4 POP POP POP POP POP POP POP JUMP JUMPDEST PUSH1 0x0 DUP1 PUSH1 0x0 PUSH2 0x2B25 DUP5 PUSH2 0x13FA JUMP JUMPDEST POP SWAP2 POP SWAP2 POP PUSH1 0x0 DUP2 EQ PUSH2 0x2B6A JUMPI DUP2 PUSH20 0xFFFFFFFFFFFFFFFFFFFFFFFFFFFFFFFFFFFFFFFF AND DUP6 PUSH20 0xFFFFFFFFFFFFFFFFFFFFFFFFFFFFFFFFFFFFFFFF AND EQ SWAP3 POP POP POP PUSH2 0x2BED JUMP JUMPDEST DUP2 PUSH20 0xFFFFFFFFFFFFFFFFFFFFFFFFFFFFFFFFFFFFFFFF AND DUP6 PUSH20 0xFFFFFFFFFFFFFFFFFFFFFFFFFFFFFFFFFFFFFFFF AND EQ DUP1 PUSH2 0x2BAA JUMPI POP PUSH2 0x2BA9 DUP3 DUP7 PUSH2 0x1220 JUMP JUMPDEST JUMPDEST DUP1 PUSH2 0x2BE8 JUMPI POP DUP5 PUSH20 0xFFFFFFFFFFFFFFFFFFFFFFFFFFFFFFFFFFFFFFFF AND PUSH2 0x2BD0 DUP6 PUSH2 0x6E7 JUMP JUMPDEST PUSH20 0xFFFFFFFFFFFFFFFFFFFFFFFFFFFFFFFFFFFFFFFF AND EQ JUMPDEST SWAP3 POP POP POP JUMPDEST SWAP3 SWAP2 POP POP JUMP JUMPDEST PUSH1 0x0 JUMPDEST PUSH1 0x64 DUP2 LT ISZERO PUSH2 0x2D17 JUMPI PUSH1 0x0 DUP1 PUSH1 0x0 DUP6 PUSH20 0xFFFFFFFFFFFFFFFFFFFFFFFFFFFFFFFFFFFFFFFF AND PUSH4 0xFB25FB7A DUP7 PUSH1 0x40 MLOAD DUP3 PUSH4 0xFFFFFFFF AND PUSH1 0xE0 SHL DUP2 MSTORE PUSH1 0x4 ADD PUSH2 0x2C3D SWAP2 SWAP1 PUSH2 0x3A61 JUMP JUMPDEST PUSH1 0x60 PUSH1 0x40 MLOAD DUP1 DUP4 SUB DUP2 DUP7 GAS STATICCALL ISZERO DUP1 ISZERO PUSH2 0x2C5A JUMPI RETURNDATASIZE PUSH1 0x0 DUP1 RETURNDATACOPY RETURNDATASIZE PUSH1 0x0 REVERT JUMPDEST POP POP POP POP PUSH1 0x40 MLOAD RETURNDATASIZE PUSH1 0x1F NOT PUSH1 0x1F DUP3 ADD AND DUP3 ADD DUP1 PUSH1 0x40 MSTORE POP DUP2 ADD SWAP1 PUSH2 0x2C7E SWAP2 SWAP1 PUSH2 0x41A0 JUMP JUMPDEST SWAP3 POP SWAP3 POP SWAP3 POP DUP1 PUSH2 0x2C92 JUMPI POP POP POP POP PUSH2 0x2D4A JUMP JUMPDEST ADDRESS PUSH20 0xFFFFFFFFFFFFFFFFFFFFFFFFFFFFFFFFFFFFFFFF AND DUP4 PUSH20 0xFFFFFFFFFFFFFFFFFFFFFFFFFFFFFFFFFFFFFFFF AND EQ DUP1 ISZERO PUSH2 0x2CCC JUMPI POP DUP7 DUP3 EQ JUMPDEST ISZERO PUSH2 0x2D03 JUMPI PUSH1 0x40 MLOAD PUSH32 0xF911968900000000000000000000000000000000000000000000000000000000 DUP2 MSTORE PUSH1 0x4 ADD PUSH1 0x40 MLOAD DUP1 SWAP2 SUB SWAP1 REVERT JUMPDEST DUP3 SWAP6 POP DUP2 SWAP5 POP DUP4 PUSH1 0x1 ADD SWAP4 POP POP POP POP PUSH2 0x2BF6 JUMP JUMPDEST POP PUSH1 0x40 MLOAD PUSH32 0xEB20C44200000000000000000000000000000000000000000000000000000000 DUP2 MSTORE PUSH1 0x4 ADD PUSH1 0x40 MLOAD DUP1 SWAP2 SUB SWAP1 REVERT JUMPDEST POP POP POP JUMP JUMPDEST POP POP POP JUMP JUMPDEST POP POP POP POP POP JUMP JUMPDEST PUSH1 0x40 MLOAD DUP1 PUSH1 0x40 ADD PUSH1 0x40 MSTORE DUP1 DUP4 DUP2 MSTORE PUSH1 0x20 ADD DUP3 PUSH20 0xFFFFFFFFFFFFFFFFFFFFFFFFFFFFFFFFFFFFFFFF AND DUP2 MSTORE POP PUSH1 0x3 PUSH1 0x0 DUP6 DUP2 MSTORE PUSH1 0x20 ADD SWAP1 DUP2 MSTORE PUSH1 0x20 ADD PUSH1 0x0 KECCAK256 PUSH1 0x0 DUP3 ADD MLOAD DUP2 PUSH1 0x0 ADD SSTORE PUSH1 0x20 DUP3 ADD MLOAD DUP2 PUSH1 0x1 ADD PUSH1 0x0 PUSH2 0x100 EXP DUP2 SLOAD DUP2 PUSH20 0xFFFFFFFFFFFFFFFFFFFFFFFFFFFFFFFFFFFFFFFF MUL NOT AND SWAP1 DUP4 PUSH20 0xFFFFFFFFFFFFFFFFFFFFFFFFFFFFFFFFFFFFFFFF AND MUL OR SWAP1 SSTORE POP SWAP1 POP POP PUSH2 0x2DF8 PUSH1 0x0 DUP5 PUSH2 0x1902 JUMP JUMPDEST PUSH2 0x2E01 DUP4 PUSH2 0x2F1C JUMP JUMPDEST POP POP POP JUMP JUMPDEST PUSH1 0x0 DUP1 PUSH20 0xFFFFFFFFFFFFFFFFFFFFFFFFFFFFFFFFFFFFFFFF AND PUSH1 0x3 PUSH1 0x0 DUP5 DUP2 MSTORE PUSH1 0x20 ADD SWAP1 DUP2 MSTORE PUSH1 0x20 ADD PUSH1 0x0 KECCAK256 PUSH1 0x1 ADD PUSH1 0x0 SWAP1 SLOAD SWAP1 PUSH2 0x100 EXP SWAP1 DIV PUSH20 0xFFFFFFFFFFFFFFFFFFFFFFFFFFFFFFFFFFFFFFFF AND PUSH20 0xFFFFFFFFFFFFFFFFFFFFFFFFFFFFFFFFFFFFFFFF AND EQ ISZERO SWAP1 POP SWAP2 SWAP1 POP JUMP JUMPDEST POP POP POP JUMP JUMPDEST POP POP POP POP POP JUMP JUMPDEST PUSH1 0x0 DUP1 PUSH2 0x2E8D DUP4 PUSH2 0xAF1 JUMP JUMPDEST SWAP1 POP DUP1 PUSH20 0xFFFFFFFFFFFFFFFFFFFFFFFFFFFFFFFFFFFFFFFF AND DUP5 PUSH20 0xFFFFFFFFFFFFFFFFFFFFFFFFFFFFFFFFFFFFFFFF AND EQ DUP1 PUSH2 0x2ECF JUMPI POP PUSH2 0x2ECE DUP2 DUP6 PUSH2 0x1220 JUMP JUMPDEST JUMPDEST DUP1 PUSH2 0x2F0D JUMPI POP DUP4 PUSH20 0xFFFFFFFFFFFFFFFFFFFFFFFFFFFFFFFFFFFFFFFF AND PUSH2 0x2EF5 DUP5 PUSH2 0x6E7 JUMP JUMPDEST PUSH20 0xFFFFFFFFFFFFFFFFFFFFFFFFFFFFFFFFFFFFFFFF AND EQ JUMPDEST SWAP2 POP POP SWAP3 SWAP2 POP POP JUMP JUMPDEST POP JUMP JUMPDEST POP JUMP JUMPDEST POP JUMP JUMPDEST PUSH2 0x2F2B DUP3 DUP3 PUSH1 0x0 PUSH2 0x27D7 JUMP JUMPDEST DUP1 DUP3 PUSH20 0xFFFFFFFFFFFFFFFFFFFFFFFFFFFFFFFFFFFFFFFF AND PUSH1 0x0 PUSH20 0xFFFFFFFFFFFFFFFFFFFFFFFFFFFFFFFFFFFFFFFF AND PUSH32 0xDDF252AD1BE2C89B69C2B068FC378DAA952BA7F163C4A11628F55A4DF523B3EF PUSH1 0x40 MLOAD PUSH1 0x40 MLOAD DUP1 SWAP2 SUB SWAP1 LOG4 DUP1 DUP3 PUSH20 0xFFFFFFFFFFFFFFFFFFFFFFFFFFFFFFFFFFFFFFFF AND PUSH1 0x0 PUSH20 0xFFFFFFFFFFFFFFFFFFFFFFFFFFFFFFFFFFFFFFFF AND PUSH32 0x4444026CEFD1B05506559CAB59D1B865AE3BA4ED2FE5C894F04E522776C552D PUSH1 0x0 DUP1 PUSH1 0x40 MLOAD PUSH2 0x2FE9 SWAP3 SWAP2 SWAP1 PUSH2 0x41F3 JUMP JUMPDEST PUSH1 0x40 MLOAD DUP1 SWAP2 SUB SWAP1 LOG4 PUSH2 0x2FFD PUSH1 0x0 DUP4 DUP4 PUSH2 0x2E75 JUMP JUMPDEST PUSH2 0x300C PUSH1 0x0 DUP4 PUSH1 0x0 DUP1 DUP6 PUSH2 0x2E7A JUMP JUMPDEST POP POP JUMP JUMPDEST PUSH1 0x0 PUSH2 0x3031 DUP5 PUSH20 0xFFFFFFFFFFFFFFFFFFFFFFFFFFFFFFFFFFFFFFFF AND PUSH2 0x1C8F JUMP JUMPDEST ISZERO PUSH2 0x3181 JUMPI DUP4 PUSH20 0xFFFFFFFFFFFFFFFFFFFFFFFFFFFFFFFFFFFFFFFF AND PUSH4 0x150B7A02 PUSH2 0x305A PUSH2 0x18FA JUMP JUMPDEST DUP8 DUP7 DUP7 PUSH1 0x40 MLOAD DUP6 PUSH4 0xFFFFFFFF AND PUSH1 0xE0 SHL DUP2 MSTORE PUSH1 0x4 ADD PUSH2 0x307C SWAP5 SWAP4 SWAP3 SWAP2 SWAP1 PUSH2 0x4093 JUMP JUMPDEST PUSH1 0x20 PUSH1 0x40 MLOAD DUP1 DUP4 SUB DUP2 PUSH1 0x0 DUP8 GAS CALL SWAP3 POP POP POP DUP1 ISZERO PUSH2 0x30B8 JUMPI POP PUSH1 0x40 MLOAD RETURNDATASIZE PUSH1 0x1F NOT PUSH1 0x1F DUP3 ADD AND DUP3 ADD DUP1 PUSH1 0x40 MSTORE POP DUP2 ADD SWAP1 PUSH2 0x30B5 SWAP2 SWAP1 PUSH2 0x4231 JUMP JUMPDEST PUSH1 0x1 JUMPDEST PUSH2 0x3131 JUMPI RETURNDATASIZE DUP1 PUSH1 0x0 DUP2 EQ PUSH2 0x30E8 JUMPI PUSH1 0x40 MLOAD SWAP2 POP PUSH1 0x1F NOT PUSH1 0x3F RETURNDATASIZE ADD AND DUP3 ADD PUSH1 0x40 MSTORE RETURNDATASIZE DUP3 MSTORE RETURNDATASIZE PUSH1 0x0 PUSH1 0x20 DUP5 ADD RETURNDATACOPY PUSH2 0x30ED JUMP JUMPDEST PUSH1 0x60 SWAP2 POP JUMPDEST POP PUSH1 0x0 DUP2 MLOAD SUB PUSH2 0x3129 JUMPI PUSH1 0x40 MLOAD PUSH32 0xBCB5663700000000000000000000000000000000000000000000000000000000 DUP2 MSTORE PUSH1 0x4 ADD PUSH1 0x40 MLOAD DUP1 SWAP2 SUB SWAP1 REVERT JUMPDEST DUP1 MLOAD DUP2 PUSH1 0x20 ADD REVERT JUMPDEST PUSH4 0x150B7A02 PUSH1 0xE0 SHL PUSH28 0xFFFFFFFFFFFFFFFFFFFFFFFFFFFFFFFFFFFFFFFFFFFFFFFFFFFFFFFF NOT AND DUP2 PUSH28 0xFFFFFFFFFFFFFFFFFFFFFFFFFFFFFFFFFFFFFFFFFFFFFFFFFFFFFFFF NOT AND EQ SWAP2 POP POP PUSH2 0x3186 JUMP JUMPDEST PUSH1 0x1 SWAP1 POP JUMPDEST SWAP5 SWAP4 POP POP POP POP JUMP JUMPDEST DUP3 PUSH1 0x20 ADD MLOAD PUSH20 0xFFFFFFFFFFFFFFFFFFFFFFFFFFFFFFFFFFFFFFFF AND DUP3 PUSH20 0xFFFFFFFFFFFFFFFFFFFFFFFFFFFFFFFFFFFFFFFF AND EQ ISZERO DUP1 PUSH2 0x31D1 JUMPI POP DUP3 PUSH1 0x0 ADD MLOAD DUP2 EQ ISZERO JUMPDEST ISZERO PUSH2 0x3208 JUMPI PUSH1 0x40 MLOAD PUSH32 0x37D6CE9000000000000000000000000000000000000000000000000000000000 DUP2 MSTORE PUSH1 0x4 ADD PUSH1 0x40 MLOAD DUP1 SWAP2 SUB SWAP1 REVERT JUMPDEST POP POP POP JUMP JUMPDEST POP POP POP POP POP JUMP JUMPDEST DUP2 PUSH1 0x1 DUP4 DUP1 SLOAD SWAP1 POP PUSH2 0x3226 SWAP2 SWAP1 PUSH2 0x3EAA JUMP JUMPDEST DUP2 SLOAD DUP2 LT PUSH2 0x3237 JUMPI PUSH2 0x3236 PUSH2 0x3D9E JUMP JUMPDEST JUMPDEST SWAP1 PUSH1 0x0 MSTORE PUSH1 0x20 PUSH1 0x0 KECCAK256 SWAP1 PUSH1 0x2 MUL ADD DUP3 DUP3 DUP2 SLOAD DUP2 LT PUSH2 0x3258 JUMPI PUSH2 0x3257 PUSH2 0x3D9E JUMP JUMPDEST JUMPDEST SWAP1 PUSH1 0x0 MSTORE PUSH1 0x20 PUSH1 0x0 KECCAK256 SWAP1 PUSH1 0x2 MUL ADD PUSH1 0x0 DUP3 ADD SLOAD DUP2 PUSH1 0x0 ADD SSTORE PUSH1 0x1 DUP3 ADD PUSH1 0x0 SWAP1 SLOAD SWAP1 PUSH2 0x100 EXP SWAP1 DIV PUSH20 0xFFFFFFFFFFFFFFFFFFFFFFFFFFFFFFFFFFFFFFFF AND DUP2 PUSH1 0x1 ADD PUSH1 0x0 PUSH2 0x100 EXP DUP2 SLOAD DUP2 PUSH20 0xFFFFFFFFFFFFFFFFFFFFFFFFFFFFFFFFFFFFFFFF MUL NOT AND SWAP1 DUP4 PUSH20 0xFFFFFFFFFFFFFFFFFFFFFFFFFFFFFFFFFFFFFFFF AND MUL OR SWAP1 SSTORE POP SWAP1 POP POP DUP2 DUP1 SLOAD DUP1 PUSH2 0x32EB JUMPI PUSH2 0x32EA PUSH2 0x425E JUMP JUMPDEST JUMPDEST PUSH1 0x1 SWAP1 SUB DUP2 DUP2 SWAP1 PUSH1 0x0 MSTORE PUSH1 0x20 PUSH1 0x0 KECCAK256 SWAP1 PUSH1 0x2 MUL ADD PUSH1 0x0 DUP1 DUP3 ADD PUSH1 0x0 SWAP1 SSTORE PUSH1 0x1 DUP3 ADD PUSH1 0x0 PUSH2 0x100 EXP DUP2 SLOAD SWAP1 PUSH20 0xFFFFFFFFFFFFFFFFFFFFFFFFFFFFFFFFFFFFFFFF MUL NOT AND SWAP1 SSTORE POP POP SWAP1 SSTORE POP POP JUMP JUMPDEST POP POP POP POP POP JUMP JUMPDEST POP POP POP POP JUMP JUMPDEST POP POP POP POP JUMP JUMPDEST PUSH1 0x40 MLOAD DUP1 PUSH1 0x40 ADD PUSH1 0x40 MSTORE DUP1 PUSH1 0x0 DUP2 MSTORE PUSH1 0x20 ADD PUSH1 0x0 PUSH20 0xFFFFFFFFFFFFFFFFFFFFFFFFFFFFFFFFFFFFFFFF AND DUP2 MSTORE POP SWAP1 JUMP JUMPDEST POP DUP1 SLOAD PUSH1 0x0 DUP3 SSTORE PUSH1 0x2 MUL SWAP1 PUSH1 0x0 MSTORE PUSH1 0x20 PUSH1 0x0 KECCAK256 SWAP1 DUP2 ADD SWAP1 PUSH2 0x339B SWAP2 SWAP1 PUSH2 0x339E JUMP JUMPDEST POP JUMP JUMPDEST JUMPDEST DUP1 DUP3 GT ISZERO PUSH2 0x33E0 JUMPI PUSH1 0x0 DUP1 DUP3 ADD PUSH1 0x0 SWAP1 SSTORE PUSH1 0x1 DUP3 ADD PUSH1 0x0 PUSH2 0x100 EXP DUP2 SLOAD SWAP1 PUSH20 0xFFFFFFFFFFFFFFFFFFFFFFFFFFFFFFFFFFFFFFFF MUL NOT AND SWAP1 SSTORE POP PUSH1 0x2 ADD PUSH2 0x339F JUMP JUMPDEST POP SWAP1 JUMP JUMPDEST PUSH1 0x0 PUSH1 0x40 MLOAD SWAP1 POP SWAP1 JUMP JUMPDEST PUSH1 0x0 DUP1 REVERT JUMPDEST PUSH1 0x0 DUP1 REVERT JUMPDEST PUSH1 0x0 PUSH32 0xFFFFFFFF00000000000000000000000000000000000000000000000000000000 DUP3 AND SWAP1 POP SWAP2 SWAP1 POP JUMP JUMPDEST PUSH2 0x342D DUP2 PUSH2 0x33F8 JUMP JUMPDEST DUP2 EQ PUSH2 0x3438 JUMPI PUSH1 0x0 DUP1 REVERT JUMPDEST POP JUMP JUMPDEST PUSH1 0x0 DUP2 CALLDATALOAD SWAP1 POP PUSH2 0x344A DUP2 PUSH2 0x3424 JUMP JUMPDEST SWAP3 SWAP2 POP POP JUMP JUMPDEST PUSH1 0x0 PUSH1 0x20 DUP3 DUP5 SUB SLT ISZERO PUSH2 0x3466 JUMPI PUSH2 0x3465 PUSH2 0x33EE JUMP JUMPDEST JUMPDEST PUSH1 0x0 PUSH2 0x3474 DUP5 DUP3 DUP6 ADD PUSH2 0x343B JUMP JUMPDEST SWAP2 POP POP SWAP3 SWAP2 POP POP JUMP JUMPDEST PUSH1 0x0 DUP2 ISZERO ISZERO SWAP1 POP SWAP2 SWAP1 POP JUMP JUMPDEST PUSH2 0x3492 DUP2 PUSH2 0x347D JUMP JUMPDEST DUP3 MSTORE POP POP JUMP JUMPDEST PUSH1 0x0 PUSH1 0x20 DUP3 ADD SWAP1 POP PUSH2 0x34AD PUSH1 0x0 DUP4 ADD DUP5 PUSH2 0x3489 JUMP JUMPDEST SWAP3 SWAP2 POP POP JUMP JUMPDEST PUSH1 0x0 PUSH20 0xFFFFFFFFFFFFFFFFFFFFFFFFFFFFFFFFFFFFFFFF DUP3 AND SWAP1 POP SWAP2 SWAP1 POP JUMP JUMPDEST PUSH1 0x0 PUSH2 0x34DE DUP3 PUSH2 0x34B3 JUMP JUMPDEST SWAP1 POP SWAP2 SWAP1 POP JUMP JUMPDEST PUSH2 0x34EE DUP2 PUSH2 0x34D3 JUMP JUMPDEST DUP2 EQ PUSH2 0x34F9 JUMPI PUSH1 0x0 DUP1 REVERT JUMPDEST POP JUMP JUMPDEST PUSH1 0x0 DUP2 CALLDATALOAD SWAP1 POP PUSH2 0x350B DUP2 PUSH2 0x34E5 JUMP JUMPDEST SWAP3 SWAP2 POP POP JUMP JUMPDEST PUSH1 0x0 DUP2 SWAP1 POP SWAP2 SWAP1 POP JUMP JUMPDEST PUSH2 0x3524 DUP2 PUSH2 0x3511 JUMP JUMPDEST DUP2 EQ PUSH2 0x352F JUMPI PUSH1 0x0 DUP1 REVERT JUMPDEST POP JUMP JUMPDEST PUSH1 0x0 DUP2 CALLDATALOAD SWAP1 POP PUSH2 0x3541 DUP2 PUSH2 0x351B JUMP JUMPDEST SWAP3 SWAP2 POP POP JUMP JUMPDEST PUSH1 0x0 DUP1 REVERT JUMPDEST PUSH1 0x0 DUP1 REVERT JUMPDEST PUSH1 0x0 PUSH1 0x1F NOT PUSH1 0x1F DUP4 ADD AND SWAP1 POP SWAP2 SWAP1 POP JUMP JUMPDEST PUSH32 0x4E487B7100000000000000000000000000000000000000000000000000000000 PUSH1 0x0 MSTORE PUSH1 0x41 PUSH1 0x4 MSTORE PUSH1 0x24 PUSH1 0x0 REVERT JUMPDEST PUSH2 0x359A DUP3 PUSH2 0x3551 JUMP JUMPDEST DUP2 ADD DUP2 DUP2 LT PUSH8 0xFFFFFFFFFFFFFFFF DUP3 GT OR ISZERO PUSH2 0x35B9 JUMPI PUSH2 0x35B8 PUSH2 0x3562 JUMP JUMPDEST JUMPDEST DUP1 PUSH1 0x40 MSTORE POP POP POP JUMP JUMPDEST PUSH1 0x0 PUSH2 0x35CC PUSH2 0x33E4 JUMP JUMPDEST SWAP1 POP PUSH2 0x35D8 DUP3 DUP3 PUSH2 0x3591 JUMP JUMPDEST SWAP2 SWAP1 POP JUMP JUMPDEST PUSH1 0x0 PUSH8 0xFFFFFFFFFFFFFFFF DUP3 GT ISZERO PUSH2 0x35F8 JUMPI PUSH2 0x35F7 PUSH2 0x3562 JUMP JUMPDEST JUMPDEST PUSH2 0x3601 DUP3 PUSH2 0x3551 JUMP JUMPDEST SWAP1 POP PUSH1 0x20 DUP2 ADD SWAP1 POP SWAP2 SWAP1 POP JUMP JUMPDEST DUP3 DUP2 DUP4 CALLDATACOPY PUSH1 0x0 DUP4 DUP4 ADD MSTORE POP POP POP JUMP JUMPDEST PUSH1 0x0 PUSH2 0x3630 PUSH2 0x362B DUP5 PUSH2 0x35DD JUMP JUMPDEST PUSH2 0x35C2 JUMP JUMPDEST SWAP1 POP DUP3 DUP2 MSTORE PUSH1 0x20 DUP2 ADD DUP5 DUP5 DUP5 ADD GT ISZERO PUSH2 0x364C JUMPI PUSH2 0x364B PUSH2 0x354C JUMP JUMPDEST JUMPDEST PUSH2 0x3657 DUP5 DUP3 DUP6 PUSH2 0x360E JUMP JUMPDEST POP SWAP4 SWAP3 POP POP POP JUMP JUMPDEST PUSH1 0x0 DUP3 PUSH1 0x1F DUP4 ADD SLT PUSH2 0x3674 JUMPI PUSH2 0x3673 PUSH2 0x3547 JUMP JUMPDEST JUMPDEST DUP2 CALLDATALOAD PUSH2 0x3684 DUP5 DUP3 PUSH1 0x20 DUP7 ADD PUSH2 0x361D JUMP JUMPDEST SWAP2 POP POP SWAP3 SWAP2 POP POP JUMP JUMPDEST PUSH1 0x0 DUP1 PUSH1 0x0 DUP1 PUSH1 0x0 PUSH1 0xA0 DUP7 DUP9 SUB SLT ISZERO PUSH2 0x36A9 JUMPI PUSH2 0x36A8 PUSH2 0x33EE JUMP JUMPDEST JUMPDEST PUSH1 0x0 PUSH2 0x36B7 DUP9 DUP3 DUP10 ADD PUSH2 0x34FC JUMP JUMPDEST SWAP6 POP POP PUSH1 0x20 PUSH2 0x36C8 DUP9 DUP3 DUP10 ADD PUSH2 0x34FC JUMP JUMPDEST SWAP5 POP POP PUSH1 0x40 PUSH2 0x36D9 DUP9 DUP3 DUP10 ADD PUSH2 0x3532 JUMP JUMPDEST SWAP4 POP POP PUSH1 0x60 PUSH2 0x36EA DUP9 DUP3 DUP10 ADD PUSH2 0x3532 JUMP JUMPDEST SWAP3 POP POP PUSH1 0x80 DUP7 ADD CALLDATALOAD PUSH8 0xFFFFFFFFFFFFFFFF DUP2 GT ISZERO PUSH2 0x370B JUMPI PUSH2 0x370A PUSH2 0x33F3 JUMP JUMPDEST JUMPDEST PUSH2 0x3717 DUP9 DUP3 DUP10 ADD PUSH2 0x365F JUMP JUMPDEST SWAP2 POP POP SWAP3 SWAP6 POP SWAP3 SWAP6 SWAP1 SWAP4 POP JUMP JUMPDEST PUSH1 0x0 PUSH1 0x20 DUP3 DUP5 SUB SLT ISZERO PUSH2 0x373A JUMPI PUSH2 0x3739 PUSH2 0x33EE JUMP JUMPDEST JUMPDEST PUSH1 0x0 PUSH2 0x3748 DUP5 DUP3 DUP6 ADD PUSH2 0x3532 JUMP JUMPDEST SWAP2 POP POP SWAP3 SWAP2 POP POP JUMP JUMPDEST PUSH2 0x375A DUP2 PUSH2 0x34D3 JUMP JUMPDEST DUP3 MSTORE POP POP JUMP JUMPDEST PUSH1 0x0 PUSH1 0x20 DUP3 ADD SWAP1 POP PUSH2 0x3775 PUSH1 0x0 DUP4 ADD DUP5 PUSH2 0x3751 JUMP JUMPDEST SWAP3 SWAP2 POP POP JUMP JUMPDEST PUSH1 0x0 DUP1 PUSH1 0x40 DUP4 DUP6 SUB SLT ISZERO PUSH2 0x3792 JUMPI PUSH2 0x3791 PUSH2 0x33EE JUMP JUMPDEST JUMPDEST PUSH1 0x0 PUSH2 0x37A0 DUP6 DUP3 DUP7 ADD PUSH2 0x34FC JUMP JUMPDEST SWAP3 POP POP PUSH1 0x20 PUSH2 0x37B1 DUP6 DUP3 DUP7 ADD PUSH2 0x3532 JUMP JUMPDEST SWAP2 POP POP SWAP3 POP SWAP3 SWAP1 POP JUMP JUMPDEST PUSH1 0x0 DUP1 PUSH1 0x0 PUSH1 0x60 DUP5 DUP7 SUB SLT ISZERO PUSH2 0x37D4 JUMPI PUSH2 0x37D3 PUSH2 0x33EE JUMP JUMPDEST JUMPDEST PUSH1 0x0 PUSH2 0x37E2 DUP7 DUP3 DUP8 ADD PUSH2 0x34FC JUMP JUMPDEST SWAP4 POP POP PUSH1 0x20 PUSH2 0x37F3 DUP7 DUP3 DUP8 ADD PUSH2 0x34FC JUMP JUMPDEST SWAP3 POP POP PUSH1 0x40 PUSH2 0x3804 DUP7 DUP3 DUP8 ADD PUSH2 0x3532 JUMP JUMPDEST SWAP2 POP POP SWAP3 POP SWAP3 POP SWAP3 JUMP JUMPDEST PUSH1 0x0 DUP1 PUSH1 0x40 DUP4 DUP6 SUB SLT ISZERO PUSH2 0x3825 JUMPI PUSH2 0x3824 PUSH2 0x33EE JUMP JUMPDEST JUMPDEST PUSH1 0x0 PUSH2 0x3833 DUP6 DUP3 DUP7 ADD PUSH2 0x3532 JUMP JUMPDEST SWAP3 POP POP PUSH1 0x20 PUSH2 0x3844 DUP6 DUP3 DUP7 ADD PUSH2 0x3532 JUMP JUMPDEST SWAP2 POP POP SWAP3 POP SWAP3 SWAP1 POP JUMP JUMPDEST PUSH2 0x3857 DUP2 PUSH2 0x3511 JUMP JUMPDEST DUP3 MSTORE POP POP JUMP JUMPDEST PUSH2 0x3866 DUP2 PUSH2 0x34D3 JUMP JUMPDEST DUP3 MSTORE POP POP JUMP JUMPDEST PUSH1 0x40 DUP3 ADD PUSH1 0x0 DUP3 ADD MLOAD PUSH2 0x3882 PUSH1 0x0 DUP6 ADD DUP3 PUSH2 0x384E JUMP JUMPDEST POP PUSH1 0x20 DUP3 ADD MLOAD PUSH2 0x3895 PUSH1 0x20 DUP6 ADD DUP3 PUSH2 0x385D JUMP JUMPDEST POP POP POP POP JUMP JUMPDEST PUSH1 0x0 PUSH1 0x40 DUP3 ADD SWAP1 POP PUSH2 0x38B0 PUSH1 0x0 DUP4 ADD DUP5 PUSH2 0x386C JUMP JUMPDEST SWAP3 SWAP2 POP POP JUMP JUMPDEST PUSH1 0x0 DUP2 MLOAD SWAP1 POP SWAP2 SWAP1 POP JUMP JUMPDEST PUSH1 0x0 DUP3 DUP3 MSTORE PUSH1 0x20 DUP3 ADD SWAP1 POP SWAP3 SWAP2 POP POP JUMP JUMPDEST PUSH1 0x0 DUP2 SWAP1 POP PUSH1 0x20 DUP3 ADD SWAP1 POP SWAP2 SWAP1 POP JUMP JUMPDEST PUSH1 0x40 DUP3 ADD PUSH1 0x0 DUP3 ADD MLOAD PUSH2 0x38F8 PUSH1 0x0 DUP6 ADD DUP3 PUSH2 0x384E JUMP JUMPDEST POP PUSH1 0x20 DUP3 ADD MLOAD PUSH2 0x390B PUSH1 0x20 DUP6 ADD DUP3 PUSH2 0x385D JUMP JUMPDEST POP POP POP POP JUMP JUMPDEST PUSH1 0x0 PUSH2 0x391D DUP4 DUP4 PUSH2 0x38E2 JUMP JUMPDEST PUSH1 0x40 DUP4 ADD SWAP1 POP SWAP3 SWAP2 POP POP JUMP JUMPDEST PUSH1 0x0 PUSH1 0x20 DUP3 ADD SWAP1 POP SWAP2 SWAP1 POP JUMP JUMPDEST PUSH1 0x0 PUSH2 0x3941 DUP3 PUSH2 0x38B6 JUMP JUMPDEST PUSH2 0x394B DUP2 DUP6 PUSH2 0x38C1 JUMP JUMPDEST SWAP4 POP PUSH2 0x3956 DUP4 PUSH2 0x38D2 JUMP JUMPDEST DUP1 PUSH1 0x0 JUMPDEST DUP4 DUP2 LT ISZERO PUSH2 0x3987 JUMPI DUP2 MLOAD PUSH2 0x396E DUP9 DUP3 PUSH2 0x3911 JUMP JUMPDEST SWAP8 POP PUSH2 0x3979 DUP4 PUSH2 0x3929 JUMP JUMPDEST SWAP3 POP POP PUSH1 0x1 DUP2 ADD SWAP1 POP PUSH2 0x395A JUMP JUMPDEST POP DUP6 SWAP4 POP POP POP POP SWAP3 SWAP2 POP POP JUMP JUMPDEST PUSH1 0x0 PUSH1 0x20 DUP3 ADD SWAP1 POP DUP2 DUP2 SUB PUSH1 0x0 DUP4 ADD MSTORE PUSH2 0x39AE DUP2 DUP5 PUSH2 0x3936 JUMP JUMPDEST SWAP1 POP SWAP3 SWAP2 POP POP JUMP JUMPDEST PUSH1 0x0 DUP1 PUSH1 0x0 PUSH1 0x60 DUP5 DUP7 SUB SLT ISZERO PUSH2 0x39CF JUMPI PUSH2 0x39CE PUSH2 0x33EE JUMP JUMPDEST JUMPDEST PUSH1 0x0 PUSH2 0x39DD DUP7 DUP3 DUP8 ADD PUSH2 0x3532 JUMP JUMPDEST SWAP4 POP POP PUSH1 0x20 PUSH2 0x39EE DUP7 DUP3 DUP8 ADD PUSH2 0x3532 JUMP JUMPDEST SWAP3 POP POP PUSH1 0x40 DUP5 ADD CALLDATALOAD PUSH8 0xFFFFFFFFFFFFFFFF DUP2 GT ISZERO PUSH2 0x3A0F JUMPI PUSH2 0x3A0E PUSH2 0x33F3 JUMP JUMPDEST JUMPDEST PUSH2 0x3A1B DUP7 DUP3 DUP8 ADD PUSH2 0x365F JUMP JUMPDEST SWAP2 POP POP SWAP3 POP SWAP3 POP SWAP3 JUMP JUMPDEST PUSH1 0x0 PUSH1 0x20 DUP3 DUP5 SUB SLT ISZERO PUSH2 0x3A3B JUMPI PUSH2 0x3A3A PUSH2 0x33EE JUMP JUMPDEST JUMPDEST PUSH1 0x0 PUSH2 0x3A49 DUP5 DUP3 DUP6 ADD PUSH2 0x34FC JUMP JUMPDEST SWAP2 POP POP SWAP3 SWAP2 POP POP JUMP JUMPDEST PUSH2 0x3A5B DUP2 PUSH2 0x3511 JUMP JUMPDEST DUP3 MSTORE POP POP JUMP JUMPDEST PUSH1 0x0 PUSH1 0x20 DUP3 ADD SWAP1 POP PUSH2 0x3A76 PUSH1 0x0 DUP4 ADD DUP5 PUSH2 0x3A52 JUMP JUMPDEST SWAP3 SWAP2 POP POP JUMP JUMPDEST PUSH2 0x3A85 DUP2 PUSH2 0x347D JUMP JUMPDEST DUP2 EQ PUSH2 0x3A90 JUMPI PUSH1 0x0 DUP1 REVERT JUMPDEST POP JUMP JUMPDEST PUSH1 0x0 DUP2 CALLDATALOAD SWAP1 POP PUSH2 0x3AA2 DUP2 PUSH2 0x3A7C JUMP JUMPDEST SWAP3 SWAP2 POP POP JUMP JUMPDEST PUSH1 0x0 DUP1 PUSH1 0x40 DUP4 DUP6 SUB SLT ISZERO PUSH2 0x3ABF JUMPI PUSH2 0x3ABE PUSH2 0x33EE JUMP JUMPDEST JUMPDEST PUSH1 0x0 PUSH2 0x3ACD DUP6 DUP3 DUP7 ADD PUSH2 0x34FC JUMP JUMPDEST SWAP3 POP POP PUSH1 0x20 PUSH2 0x3ADE DUP6 DUP3 DUP7 ADD PUSH2 0x3A93 JUMP JUMPDEST SWAP2 POP POP SWAP3 POP SWAP3 SWAP1 POP JUMP JUMPDEST PUSH1 0x0 DUP1 PUSH1 0x0 DUP1 PUSH1 0x80 DUP6 DUP8 SUB SLT ISZERO PUSH2 0x3B02 JUMPI PUSH2 0x3B01 PUSH2 0x33EE JUMP JUMPDEST JUMPDEST PUSH1 0x0 PUSH2 0x3B10 DUP8 DUP3 DUP9 ADD PUSH2 0x34FC JUMP JUMPDEST SWAP5 POP POP PUSH1 0x20 PUSH2 0x3B21 DUP8 DUP3 DUP9 ADD PUSH2 0x34FC JUMP JUMPDEST SWAP4 POP POP PUSH1 0x40 PUSH2 0x3B32 DUP8 DUP3 DUP9 ADD PUSH2 0x3532 JUMP JUMPDEST SWAP3 POP POP PUSH1 0x60 DUP6 ADD CALLDATALOAD PUSH8 0xFFFFFFFFFFFFFFFF DUP2 GT ISZERO PUSH2 0x3B53 JUMPI PUSH2 0x3B52 PUSH2 0x33F3 JUMP JUMPDEST JUMPDEST PUSH2 0x3B5F DUP8 DUP3 DUP9 ADD PUSH2 0x365F JUMP JUMPDEST SWAP2 POP POP SWAP3 SWAP6 SWAP2 SWAP5 POP SWAP3 POP JUMP JUMPDEST PUSH1 0x0 DUP1 PUSH1 0x0 DUP1 PUSH1 0x0 DUP1 PUSH1 0x0 DUP1 PUSH2 0x100 DUP10 DUP12 SUB SLT ISZERO PUSH2 0x3B8C JUMPI PUSH2 0x3B8B PUSH2 0x33EE JUMP JUMPDEST JUMPDEST PUSH1 0x0 PUSH2 0x3B9A DUP12 DUP3 DUP13 ADD PUSH2 0x3532 JUMP JUMPDEST SWAP9 POP POP PUSH1 0x20 PUSH2 0x3BAB DUP12 DUP3 DUP13 ADD PUSH2 0x34FC JUMP JUMPDEST SWAP8 POP POP PUSH1 0x40 PUSH2 0x3BBC DUP12 DUP3 DUP13 ADD PUSH2 0x3532 JUMP JUMPDEST SWAP7 POP POP PUSH1 0x60 PUSH2 0x3BCD DUP12 DUP3 DUP13 ADD PUSH2 0x3532 JUMP JUMPDEST SWAP6 POP POP PUSH1 0x80 PUSH2 0x3BDE DUP12 DUP3 DUP13 ADD PUSH2 0x34FC JUMP JUMPDEST SWAP5 POP POP PUSH1 0xA0 PUSH2 0x3BEF DUP12 DUP3 DUP13 ADD PUSH2 0x3532 JUMP JUMPDEST SWAP4 POP POP PUSH1 0xC0 PUSH2 0x3C00 DUP12 DUP3 DUP13 ADD PUSH2 0x3A93 JUMP JUMPDEST SWAP3 POP POP PUSH1 0xE0 DUP10 ADD CALLDATALOAD PUSH8 0xFFFFFFFFFFFFFFFF DUP2 GT ISZERO PUSH2 0x3C21 JUMPI PUSH2 0x3C20 PUSH2 0x33F3 JUMP JUMPDEST JUMPDEST PUSH2 0x3C2D DUP12 DUP3 DUP13 ADD PUSH2 0x365F JUMP JUMPDEST SWAP2 POP POP SWAP3 SWAP6 SWAP9 POP SWAP3 SWAP6 SWAP9 SWAP1 SWAP4 SWAP7 POP JUMP JUMPDEST PUSH1 0x0 DUP1 PUSH1 0x0 DUP1 PUSH1 0x80 DUP6 DUP8 SUB SLT ISZERO PUSH2 0x3C57 JUMPI PUSH2 0x3C56 PUSH2 0x33EE JUMP JUMPDEST JUMPDEST PUSH1 0x0 PUSH2 0x3C65 DUP8 DUP3 DUP9 ADD PUSH2 0x3532 JUMP JUMPDEST SWAP5 POP POP PUSH1 0x20 PUSH2 0x3C76 DUP8 DUP3 DUP9 ADD PUSH2 0x3532 JUMP JUMPDEST SWAP4 POP POP PUSH1 0x40 PUSH2 0x3C87 DUP8 DUP3 DUP9 ADD PUSH2 0x34FC JUMP JUMPDEST SWAP3 POP POP PUSH1 0x60 PUSH2 0x3C98 DUP8 DUP3 DUP9 ADD PUSH2 0x3532 JUMP JUMPDEST SWAP2 POP POP SWAP3 SWAP6 SWAP2 SWAP5 POP SWAP3 POP JUMP JUMPDEST PUSH1 0x0 DUP1 PUSH1 0x40 DUP4 DUP6 SUB SLT ISZERO PUSH2 0x3CBB JUMPI PUSH2 0x3CBA PUSH2 0x33EE JUMP JUMPDEST JUMPDEST PUSH1 0x0 PUSH2 0x3CC9 DUP6 DUP3 DUP7 ADD PUSH2 0x34FC JUMP JUMPDEST SWAP3 POP POP PUSH1 0x20 PUSH2 0x3CDA DUP6 DUP3 DUP7 ADD PUSH2 0x34FC JUMP JUMPDEST SWAP2 POP POP SWAP3 POP SWAP3 SWAP1 POP JUMP JUMPDEST PUSH1 0x0 DUP1 PUSH1 0x0 DUP1 PUSH1 0x80 DUP6 DUP8 SUB SLT ISZERO PUSH2 0x3CFE JUMPI PUSH2 0x3CFD PUSH2 0x33EE JUMP JUMPDEST JUMPDEST PUSH1 0x0 PUSH2 0x3D0C DUP8 DUP3 DUP9 ADD PUSH2 0x34FC JUMP JUMPDEST SWAP5 POP POP PUSH1 0x20 PUSH2 0x3D1D DUP8 DUP3 DUP9 ADD PUSH2 0x3532 JUMP JUMPDEST SWAP4 POP POP PUSH1 0x40 PUSH2 0x3D2E DUP8 DUP3 DUP9 ADD PUSH2 0x3532 JUMP JUMPDEST SWAP3 POP POP PUSH1 0x60 DUP6 ADD CALLDATALOAD PUSH8 0xFFFFFFFFFFFFFFFF DUP2 GT ISZERO PUSH2 0x3D4F JUMPI PUSH2 0x3D4E PUSH2 0x33F3 JUMP JUMPDEST JUMPDEST PUSH2 0x3D5B DUP8 DUP3 DUP9 ADD PUSH2 0x365F JUMP JUMPDEST SWAP2 POP POP SWAP3 SWAP6 SWAP2 SWAP5 POP SWAP3 POP JUMP JUMPDEST PUSH1 0x0 PUSH1 0x60 DUP3 ADD SWAP1 POP PUSH2 0x3D7C PUSH1 0x0 DUP4 ADD DUP7 PUSH2 0x3751 JUMP JUMPDEST PUSH2 0x3D89 PUSH1 0x20 DUP4 ADD DUP6 PUSH2 0x3A52 JUMP JUMPDEST PUSH2 0x3D96 PUSH1 0x40 DUP4 ADD DUP5 PUSH2 0x3489 JUMP JUMPDEST SWAP5 SWAP4 POP POP POP POP JUMP JUMPDEST PUSH32 0x4E487B7100000000000000000000000000000000000000000000000000000000 PUSH1 0x0 MSTORE PUSH1 0x32 PUSH1 0x4 MSTORE PUSH1 0x24 PUSH1 0x0 REVERT JUMPDEST PUSH1 0x0 DUP2 MLOAD SWAP1 POP PUSH2 0x3DDC DUP2 PUSH2 0x34E5 JUMP JUMPDEST SWAP3 SWAP2 POP POP JUMP JUMPDEST PUSH1 0x0 PUSH1 0x20 DUP3 DUP5 SUB SLT ISZERO PUSH2 0x3DF8 JUMPI PUSH2 0x3DF7 PUSH2 0x33EE JUMP JUMPDEST JUMPDEST PUSH1 0x0 PUSH2 0x3E06 DUP5 DUP3 DUP6 ADD PUSH2 0x3DCD JUMP JUMPDEST SWAP2 POP POP SWAP3 SWAP2 POP POP JUMP JUMPDEST PUSH2 0x3E18 DUP2 PUSH2 0x33F8 JUMP JUMPDEST DUP3 MSTORE POP POP JUMP JUMPDEST PUSH1 0x0 PUSH1 0x20 DUP3 ADD SWAP1 POP PUSH2 0x3E33 PUSH1 0x0 DUP4 ADD DUP5 PUSH2 0x3E0F JUMP JUMPDEST SWAP3 SWAP2 POP POP JUMP JUMPDEST PUSH1 0x0 DUP2 MLOAD SWAP1 POP PUSH2 0x3E48 DUP2 PUSH2 0x3A7C JUMP JUMPDEST SWAP3 SWAP2 POP POP JUMP JUMPDEST PUSH1 0x0 PUSH1 0x20 DUP3 DUP5 SUB SLT ISZERO PUSH2 0x3E64 JUMPI PUSH2 0x3E63 PUSH2 0x33EE JUMP JUMPDEST JUMPDEST PUSH1 0x0 PUSH2 0x3E72 DUP5 DUP3 DUP6 ADD PUSH2 0x3E39 JUMP JUMPDEST SWAP2 POP POP SWAP3 SWAP2 POP POP JUMP JUMPDEST PUSH32 0x4E487B7100000000000000000000000000000000000000000000000000000000 PUSH1 0x0 MSTORE PUSH1 0x11 PUSH1 0x4 MSTORE PUSH1 0x24 PUSH1 0x0 REVERT JUMPDEST PUSH1 0x0 PUSH2 0x3EB5 DUP3 PUSH2 0x3511 JUMP JUMPDEST SWAP2 POP PUSH2 0x3EC0 DUP4 PUSH2 0x3511 JUMP JUMPDEST SWAP3 POP DUP3 DUP3 SUB SWAP1 POP DUP2 DUP2 GT ISZERO PUSH2 0x3ED8 JUMPI PUSH2 0x3ED7 PUSH2 0x3E7B JUMP JUMPDEST JUMPDEST SWAP3 SWAP2 POP POP JUMP JUMPDEST PUSH1 0x0 PUSH2 0x3EE9 DUP3 PUSH2 0x3511 JUMP JUMPDEST SWAP2 POP PUSH2 0x3EF4 DUP4 PUSH2 0x3511 JUMP JUMPDEST SWAP3 POP DUP3 DUP3 ADD SWAP1 POP DUP1 DUP3 GT ISZERO PUSH2 0x3F0C JUMPI PUSH2 0x3F0B PUSH2 0x3E7B JUMP JUMPDEST JUMPDEST SWAP3 SWAP2 POP POP JUMP JUMPDEST PUSH1 0x0 DUP2 SWAP1 POP SWAP2 SWAP1 POP JUMP JUMPDEST PUSH1 0x0 DUP2 SWAP1 POP SWAP2 SWAP1 POP JUMP JUMPDEST PUSH1 0x0 PUSH2 0x3F41 PUSH2 0x3F3C PUSH2 0x3F37 DUP5 PUSH2 0x3F12 JUMP JUMPDEST PUSH2 0x3F1C JUMP JUMPDEST PUSH2 0x3511 JUMP JUMPDEST SWAP1 POP SWAP2 SWAP1 POP JUMP JUMPDEST PUSH2 0x3F51 DUP2 PUSH2 0x3F26 JUMP JUMPDEST DUP3 MSTORE POP POP JUMP JUMPDEST PUSH1 0x0 PUSH1 0x40 DUP3 ADD SWAP1 POP PUSH2 0x3F6C PUSH1 0x0 DUP4 ADD DUP6 PUSH2 0x3A52 JUMP JUMPDEST PUSH2 0x3F79 PUSH1 0x20 DUP4 ADD DUP5 PUSH2 0x3F48 JUMP JUMPDEST SWAP4 SWAP3 POP POP POP JUMP JUMPDEST PUSH1 0x0 PUSH1 0x40 DUP3 ADD SWAP1 POP PUSH2 0x3F95 PUSH1 0x0 DUP4 ADD DUP6 PUSH2 0x3751 JUMP JUMPDEST PUSH2 0x3FA2 PUSH1 0x20 DUP4 ADD DUP5 PUSH2 0x3A52 JUMP JUMPDEST SWAP4 SWAP3 POP POP POP JUMP JUMPDEST PUSH1 0x0 PUSH1 0x40 DUP3 ADD SWAP1 POP PUSH2 0x3FBE PUSH1 0x0 DUP4 ADD DUP6 PUSH2 0x3A52 JUMP JUMPDEST PUSH2 0x3FCB PUSH1 0x20 DUP4 ADD DUP5 PUSH2 0x3A52 JUMP JUMPDEST SWAP4 SWAP3 POP POP POP JUMP JUMPDEST PUSH1 0x0 DUP2 MLOAD SWAP1 POP PUSH2 0x3FE1 DUP2 PUSH2 0x351B JUMP JUMPDEST SWAP3 SWAP2 POP POP JUMP JUMPDEST PUSH1 0x0 PUSH1 0x20 DUP3 DUP5 SUB SLT ISZERO PUSH2 0x3FFD JUMPI PUSH2 0x3FFC PUSH2 0x33EE JUMP JUMPDEST JUMPDEST PUSH1 0x0 PUSH2 0x400B DUP5 DUP3 DUP6 ADD PUSH2 0x3FD2 JUMP JUMPDEST SWAP2 POP POP SWAP3 SWAP2 POP POP JUMP JUMPDEST PUSH1 0x0 DUP2 MLOAD SWAP1 POP SWAP2 SWAP1 POP JUMP JUMPDEST PUSH1 0x0 DUP3 DUP3 MSTORE PUSH1 0x20 DUP3 ADD SWAP1 POP SWAP3 SWAP2 POP POP JUMP JUMPDEST PUSH1 0x0 JUMPDEST DUP4 DUP2 LT ISZERO PUSH2 0x404E JUMPI DUP1 DUP3 ADD MLOAD DUP2 DUP5 ADD MSTORE PUSH1 0x20 DUP2 ADD SWAP1 POP PUSH2 0x4033 JUMP JUMPDEST PUSH1 0x0 DUP5 DUP5 ADD MSTORE POP POP POP POP JUMP JUMPDEST PUSH1 0x0 PUSH2 0x4065 DUP3 PUSH2 0x4014 JUMP JUMPDEST PUSH2 0x406F DUP2 DUP6 PUSH2 0x401F JUMP JUMPDEST SWAP4 POP PUSH2 0x407F DUP2 DUP6 PUSH1 0x20 DUP7 ADD PUSH2 0x4030 JUMP JUMPDEST PUSH2 0x4088 DUP2 PUSH2 0x3551 JUMP JUMPDEST DUP5 ADD SWAP2 POP POP SWAP3 SWAP2 POP POP JUMP JUMPDEST PUSH1 0x0 PUSH1 0x80 DUP3 ADD SWAP1 POP PUSH2 0x40A8 PUSH1 0x0 DUP4 ADD DUP8 PUSH2 0x3751 JUMP JUMPDEST PUSH2 0x40B5 PUSH1 0x20 DUP4 ADD DUP7 PUSH2 0x3751 JUMP JUMPDEST PUSH2 0x40C2 PUSH1 0x40 DUP4 ADD DUP6 PUSH2 0x3A52 JUMP JUMPDEST DUP2 DUP2 SUB PUSH1 0x60 DUP4 ADD MSTORE PUSH2 0x40D4 DUP2 DUP5 PUSH2 0x405A JUMP JUMPDEST SWAP1 POP SWAP6 SWAP5 POP POP POP POP POP JUMP JUMPDEST PUSH1 0x0 PUSH1 0xA0 DUP3 ADD SWAP1 POP PUSH2 0x40F4 PUSH1 0x0 DUP4 ADD DUP9 PUSH2 0x3751 JUMP JUMPDEST PUSH2 0x4101 PUSH1 0x20 DUP4 ADD DUP8 PUSH2 0x3751 JUMP JUMPDEST PUSH2 0x410E PUSH1 0x40 DUP4 ADD DUP7 PUSH2 0x3A52 JUMP JUMPDEST PUSH2 0x411B PUSH1 0x60 DUP4 ADD DUP6 PUSH2 0x3A52 JUMP JUMPDEST DUP2 DUP2 SUB PUSH1 0x80 DUP4 ADD MSTORE PUSH2 0x412D DUP2 DUP5 PUSH2 0x405A JUMP JUMPDEST SWAP1 POP SWAP7 SWAP6 POP POP POP POP POP POP JUMP JUMPDEST PUSH1 0x0 PUSH1 0x40 DUP3 ADD SWAP1 POP PUSH2 0x414E PUSH1 0x0 DUP4 ADD DUP6 PUSH2 0x3A52 JUMP JUMPDEST PUSH2 0x415B PUSH1 0x20 DUP4 ADD DUP5 PUSH2 0x3489 JUMP JUMPDEST SWAP4 SWAP3 POP POP POP JUMP JUMPDEST PUSH1 0x0 PUSH1 0x60 DUP3 ADD SWAP1 POP PUSH2 0x4177 PUSH1 0x0 DUP4 ADD DUP7 PUSH2 0x3A52 JUMP JUMPDEST PUSH2 0x4184 PUSH1 0x20 DUP4 ADD DUP6 PUSH2 0x3A52 JUMP JUMPDEST DUP2 DUP2 SUB PUSH1 0x40 DUP4 ADD MSTORE PUSH2 0x4196 DUP2 DUP5 PUSH2 0x405A JUMP JUMPDEST SWAP1 POP SWAP5 SWAP4 POP POP POP POP JUMP JUMPDEST PUSH1 0x0 DUP1 PUSH1 0x0 PUSH1 0x60 DUP5 DUP7 SUB SLT ISZERO PUSH2 0x41B9 JUMPI PUSH2 0x41B8 PUSH2 0x33EE JUMP JUMPDEST JUMPDEST PUSH1 0x0 PUSH2 0x41C7 DUP7 DUP3 DUP8 ADD PUSH2 0x3DCD JUMP JUMPDEST SWAP4 POP POP PUSH1 0x20 PUSH2 0x41D8 DUP7 DUP3 DUP8 ADD PUSH2 0x3FD2 JUMP JUMPDEST SWAP3 POP POP PUSH1 0x40 PUSH2 0x41E9 DUP7 DUP3 DUP8 ADD PUSH2 0x3E39 JUMP JUMPDEST SWAP2 POP POP SWAP3 POP SWAP3 POP SWAP3 JUMP JUMPDEST PUSH1 0x0 PUSH1 0x40 DUP3 ADD SWAP1 POP PUSH2 0x4208 PUSH1 0x0 DUP4 ADD DUP6 PUSH2 0x3F48 JUMP JUMPDEST PUSH2 0x4215 PUSH1 0x20 DUP4 ADD DUP5 PUSH2 0x3F48 JUMP JUMPDEST SWAP4 SWAP3 POP POP POP JUMP JUMPDEST PUSH1 0x0 DUP2 MLOAD SWAP1 POP PUSH2 0x422B DUP2 PUSH2 0x3424 JUMP JUMPDEST SWAP3 SWAP2 POP POP JUMP JUMPDEST PUSH1 0x0 PUSH1 0x20 DUP3 DUP5 SUB SLT ISZERO PUSH2 0x4247 JUMPI PUSH2 0x4246 PUSH2 0x33EE JUMP JUMPDEST JUMPDEST PUSH1 0x0 PUSH2 0x4255 DUP5 DUP3 DUP6 ADD PUSH2 0x421C JUMP JUMPDEST SWAP2 POP POP SWAP3 SWAP2 POP POP JUMP JUMPDEST PUSH32 0x4E487B7100000000000000000000000000000000000000000000000000000000 PUSH1 0x0 MSTORE PUSH1 0x31 PUSH1 0x4 MSTORE PUSH1 0x24 PUSH1 0x0 REVERT INVALID LOG2 PUSH5 0x6970667358 0x22 SLT KECCAK256 PUSH32 0x4D210640773C466A835B430E56FB71BDBE1AF0B872D0E77F56C1DFBD854DFC64 PUSH20 0x6F6C634300081500330000000000000000000000 "
				},
				"gasEstimates": {
					"creation": {
						"codeDepositCost": "3418200",
						"executionCost": "3820",
						"totalCost": "3422020"
					},
					"external": {
						"_nestMint(address,uint256,uint256,bytes)": "infinite",
						"_safeMint(address,uint256)": "infinite",
						"acceptChild(uint256,uint256,address,uint256)": "infinite",
						"addChild(uint256,uint256,bytes)": "infinite",
						"approve(address,uint256)": "infinite",
						"balanceOf(address)": "2921",
						"burn(uint256)": "infinite",
						"burn(uint256,uint256)": "infinite",
						"childIsInActive(address,uint256)": "3130",
						"childOf(uint256,uint256)": "infinite",
						"childrenOf(uint256)": "infinite",
						"directOwnerOf(uint256)": "infinite",
						"getApproved(uint256)": "infinite",
						"isApprovedForAll(address,address)": "infinite",
						"nestTransferFrom(address,address,uint256,uint256,bytes)": "infinite",
						"ownerOf(uint256)": "infinite",
						"pendingChildOf(uint256,uint256)": "infinite",
						"pendingChildrenOf(uint256)": "infinite",
						"rejectAllChildren(uint256,uint256)": "infinite",
						"safeTransferFrom(address,address,uint256)": "infinite",
						"safeTransferFrom(address,address,uint256,bytes)": "infinite",
						"setApprovalForAll(address,bool)": "infinite",
						"supportsInterface(bytes4)": "800",
						"transferChild(uint256,address,uint256,uint256,address,uint256,bool,bytes)": "infinite",
						"transferFrom(address,address,uint256)": "infinite"
					},
					"internal": {
						"_acceptChild(uint256,uint256,address,uint256)": "infinite",
						"_afterAcceptChild(uint256,uint256,address,uint256)": "17",
						"_afterAddChild(uint256,address,uint256)": "15",
						"_afterNestedTokenTransfer(address,address,uint256,uint256,uint256)": "19",
						"_afterRejectAllChildren(uint256)": "11",
						"_afterTokenTransfer(address,address,uint256)": "15",
						"_afterTransferChild(uint256,uint256,address,uint256,bool)": "19",
						"_approve(address,uint256)": "infinite",
						"_beforeAcceptChild(uint256,uint256,address,uint256)": "17",
						"_beforeAddChild(uint256,address,uint256)": "15",
						"_beforeNestedTokenTransfer(address,address,uint256,uint256,uint256)": "19",
						"_beforeRejectAllChildren(uint256)": "11",
						"_beforeTokenTransfer(address,address,uint256)": "15",
						"_beforeTransferChild(uint256,uint256,address,uint256,bool)": "19",
						"_burn(uint256,uint256)": "infinite",
						"_checkExpectedChild(struct IERC6059.Child memory,address,uint256)": "infinite",
						"_checkForInheritanceLoop(uint256,address,uint256)": "infinite",
						"_checkOnERC721Received(address,address,uint256,bytes memory)": "infinite",
						"_cleanApprovals(uint256)": "11",
						"_exists(uint256)": "2275",
						"_innerMint(address,uint256,uint256)": "infinite",
						"_isApprovedOrDirectOwner(address,uint256)": "infinite",
						"_isApprovedOrOwner(address,uint256)": "infinite",
						"_mint(address,uint256)": "infinite",
						"_nestTransfer(address,address,uint256,uint256,bytes memory)": "infinite",
						"_onlyApprovedOrDirectOwner(uint256)": "infinite",
						"_onlyApprovedOrOwner(uint256)": "infinite",
						"_rejectAllChildren(uint256,uint256)": "infinite",
						"_removeChildByIndex(struct IERC6059.Child storage ref[] storage pointer,uint256)": "infinite",
						"_requireMinted(uint256)": "infinite",
						"_safeMint(address,uint256,bytes memory)": "infinite",
						"_safeTransfer(address,address,uint256,bytes memory)": "infinite",
						"_sendToNFT(address,address,uint256,uint256,uint256,bytes memory)": "infinite",
						"_transfer(address,address,uint256)": "infinite",
						"_transferChild(uint256,address,uint256,uint256,address,uint256,bool,bytes memory)": "infinite",
						"_updateOwnerAndClearApprovals(uint256,uint256,address)": "infinite"
					}
				},
				"methodIdentifiers": {
					"_nestMint(address,uint256,uint256,bytes)": "eb043606",
					"_safeMint(address,uint256)": "b3e1c718",
					"acceptChild(uint256,uint256,address,uint256)": "e97ceaa8",
					"addChild(uint256,uint256,bytes)": "635490cc",
					"approve(address,uint256)": "095ea7b3",
					"balanceOf(address)": "70a08231",
					"burn(uint256)": "42966c68",
					"burn(uint256,uint256)": "b390c0ab",
					"childIsInActive(address,uint256)": "4182e4a3",
					"childOf(uint256,uint256)": "2f32f937",
					"childrenOf(uint256)": "6f19951c",
					"directOwnerOf(uint256)": "fb25fb7a",
					"getApproved(uint256)": "081812fc",
					"isApprovedForAll(address,address)": "e985e9c5",
					"nestTransferFrom(address,address,uint256,uint256,bytes)": "064c0a3a",
					"ownerOf(uint256)": "6352211e",
					"pendingChildOf(uint256,uint256)": "a898e364",
					"pendingChildrenOf(uint256)": "44ec9344",
					"rejectAllChildren(uint256,uint256)": "97961336",
					"safeTransferFrom(address,address,uint256)": "42842e0e",
					"safeTransferFrom(address,address,uint256,bytes)": "b88d4fde",
					"setApprovalForAll(address,bool)": "a22cb465",
					"supportsInterface(bytes4)": "01ffc9a7",
					"transferChild(uint256,address,uint256,uint256,address,uint256,bool,bytes)": "defa80c3",
					"transferFrom(address,address,uint256)": "23b872dd"
				}
			},
			"storageLayout": {
				"storage": [
					{
						"astId": 810,
						"contract": "nestable.sol:NestableToken",
						"label": "_balances",
						"offset": 0,
						"slot": "0",
						"type": "t_mapping(t_address,t_uint256)"
					},
					{
						"astId": 816,
						"contract": "nestable.sol:NestableToken",
						"label": "_tokenApprovals",
						"offset": 0,
						"slot": "1",
						"type": "t_mapping(t_uint256,t_mapping(t_address,t_address))"
					},
					{
						"astId": 822,
						"contract": "nestable.sol:NestableToken",
						"label": "_operatorApprovals",
						"offset": 0,
						"slot": "2",
						"type": "t_mapping(t_address,t_mapping(t_address,t_bool))"
					},
					{
						"astId": 827,
						"contract": "nestable.sol:NestableToken",
						"label": "_directOwners",
						"offset": 0,
						"slot": "3",
						"type": "t_mapping(t_uint256,t_struct(DirectOwner)533_storage)"
					},
					{
						"astId": 833,
						"contract": "nestable.sol:NestableToken",
						"label": "_activeChildren",
						"offset": 0,
						"slot": "4",
						"type": "t_mapping(t_uint256,t_array(t_struct(Child)592_storage)dyn_storage)"
					},
					{
						"astId": 839,
						"contract": "nestable.sol:NestableToken",
						"label": "_pendingChildren",
						"offset": 0,
						"slot": "5",
						"type": "t_mapping(t_uint256,t_array(t_struct(Child)592_storage)dyn_storage)"
					},
					{
						"astId": 845,
						"contract": "nestable.sol:NestableToken",
						"label": "_childIsInActive",
						"offset": 0,
						"slot": "6",
						"type": "t_mapping(t_address,t_mapping(t_uint256,t_uint256))"
					}
				],
				"types": {
					"t_address": {
						"encoding": "inplace",
						"label": "address",
						"numberOfBytes": "20"
					},
					"t_array(t_struct(Child)592_storage)dyn_storage": {
						"base": "t_struct(Child)592_storage",
						"encoding": "dynamic_array",
						"label": "struct IERC6059.Child[]",
						"numberOfBytes": "32"
					},
					"t_bool": {
						"encoding": "inplace",
						"label": "bool",
						"numberOfBytes": "1"
					},
					"t_mapping(t_address,t_address)": {
						"encoding": "mapping",
						"key": "t_address",
						"label": "mapping(address => address)",
						"numberOfBytes": "32",
						"value": "t_address"
					},
					"t_mapping(t_address,t_bool)": {
						"encoding": "mapping",
						"key": "t_address",
						"label": "mapping(address => bool)",
						"numberOfBytes": "32",
						"value": "t_bool"
					},
					"t_mapping(t_address,t_mapping(t_address,t_bool))": {
						"encoding": "mapping",
						"key": "t_address",
						"label": "mapping(address => mapping(address => bool))",
						"numberOfBytes": "32",
						"value": "t_mapping(t_address,t_bool)"
					},
					"t_mapping(t_address,t_mapping(t_uint256,t_uint256))": {
						"encoding": "mapping",
						"key": "t_address",
						"label": "mapping(address => mapping(uint256 => uint256))",
						"numberOfBytes": "32",
						"value": "t_mapping(t_uint256,t_uint256)"
					},
					"t_mapping(t_address,t_uint256)": {
						"encoding": "mapping",
						"key": "t_address",
						"label": "mapping(address => uint256)",
						"numberOfBytes": "32",
						"value": "t_uint256"
					},
					"t_mapping(t_uint256,t_array(t_struct(Child)592_storage)dyn_storage)": {
						"encoding": "mapping",
						"key": "t_uint256",
						"label": "mapping(uint256 => struct IERC6059.Child[])",
						"numberOfBytes": "32",
						"value": "t_array(t_struct(Child)592_storage)dyn_storage"
					},
					"t_mapping(t_uint256,t_mapping(t_address,t_address))": {
						"encoding": "mapping",
						"key": "t_uint256",
						"label": "mapping(uint256 => mapping(address => address))",
						"numberOfBytes": "32",
						"value": "t_mapping(t_address,t_address)"
					},
					"t_mapping(t_uint256,t_struct(DirectOwner)533_storage)": {
						"encoding": "mapping",
						"key": "t_uint256",
						"label": "mapping(uint256 => struct IERC6059.DirectOwner)",
						"numberOfBytes": "32",
						"value": "t_struct(DirectOwner)533_storage"
					},
					"t_mapping(t_uint256,t_uint256)": {
						"encoding": "mapping",
						"key": "t_uint256",
						"label": "mapping(uint256 => uint256)",
						"numberOfBytes": "32",
						"value": "t_uint256"
					},
					"t_struct(Child)592_storage": {
						"encoding": "inplace",
						"label": "struct IERC6059.Child",
						"members": [
							{
								"astId": 589,
								"contract": "nestable.sol:NestableToken",
								"label": "tokenId",
								"offset": 0,
								"slot": "0",
								"type": "t_uint256"
							},
							{
								"astId": 591,
								"contract": "nestable.sol:NestableToken",
								"label": "contractAddress",
								"offset": 0,
								"slot": "1",
								"type": "t_address"
							}
						],
						"numberOfBytes": "64"
					},
					"t_struct(DirectOwner)533_storage": {
						"encoding": "inplace",
						"label": "struct IERC6059.DirectOwner",
						"members": [
							{
								"astId": 530,
								"contract": "nestable.sol:NestableToken",
								"label": "tokenId",
								"offset": 0,
								"slot": "0",
								"type": "t_uint256"
							},
							{
								"astId": 532,
								"contract": "nestable.sol:NestableToken",
								"label": "ownerAddress",
								"offset": 0,
								"slot": "1",
								"type": "t_address"
							}
						],
						"numberOfBytes": "64"
					},
					"t_uint256": {
						"encoding": "inplace",
						"label": "uint256",
						"numberOfBytes": "32"
					}
				}
			},
			"userdoc": {
				"events": {
					"AllChildrenRejected(uint256)": {
						"notice": "Used to notify listeners that all pending child tokens of a given token have been rejected."
					},
					"ChildAccepted(uint256,uint256,address,uint256)": {
						"notice": "Used to notify listeners that a new child token was accepted by the parent token."
					},
					"ChildProposed(uint256,uint256,address,uint256)": {
						"notice": "Used to notify listeners that a new token has been added to a given token's pending children array."
					},
					"ChildTransferred(uint256,uint256,address,uint256,bool)": {
						"notice": "Used to notify listeners a child token has been transferred from parent token."
					},
					"NestTransfer(address,address,uint256,uint256,uint256)": {
						"notice": "Used to notify listeners that the token is being transferred."
					}
				},
				"kind": "user",
				"methods": {
					"_nestMint(address,uint256,uint256,bytes)": {
						"notice": "Used to mint a child token to a given parent token."
					},
					"_safeMint(address,uint256)": {
						"notice": "Used to safely mint a token to a specified address."
					},
					"acceptChild(uint256,uint256,address,uint256)": {
						"notice": "@notice Used to accept a pending child token for a given parent token."
					},
					"addChild(uint256,uint256,bytes)": {
						"notice": "Used to add a child token to a given parent token."
					},
					"burn(uint256)": {
						"notice": "Used to burn a given token."
					},
					"burn(uint256,uint256)": {
						"notice": "Used to burn a token."
					},
					"childIsInActive(address,uint256)": {
						"notice": "Used to verify that the given child tokwn is included in an active array of a token."
					},
					"childOf(uint256,uint256)": {
						"notice": "Used to retrieve a specific active child token for a given parent token."
					},
					"childrenOf(uint256)": {
						"notice": "Used to retrieve the active child tokens of a given parent token."
					},
					"directOwnerOf(uint256)": {
						"notice": "Used to retrieve the immediate owner of the given token."
					},
					"nestTransferFrom(address,address,uint256,uint256,bytes)": {
						"notice": "Used to transfer the token into another token."
					},
					"ownerOf(uint256)": {
						"notice": "Used to retrieve the root owner of the given token."
					},
					"pendingChildOf(uint256,uint256)": {
						"notice": "Used to retrieve a specific pending child token from a given parent token."
					},
					"pendingChildrenOf(uint256)": {
						"notice": "Used to retrieve the pending child tokens of a given parent token."
					},
					"rejectAllChildren(uint256,uint256)": {
						"notice": "Used to reject all pending children of a given parent token."
					},
					"transferChild(uint256,address,uint256,uint256,address,uint256,bool,bytes)": {
						"notice": "Used to transfer a child token from a given parent token."
					}
				},
				"notice": "Smart contract of the Nestable module.",
				"version": 1
			}
		}
	}
}